:100000000C945F000C9487000C9487000C945803A8
:100010000C9487000C9487000C9487000C94870044
:100020000C9487000C9487000C9487000C94870034
:100030000C9487000C9487000C9487000C94870024
:100040000C94210B0C9487000C94000F0C94430F1C
:100050000C9487000C9487000C9487000C94870004
:100060000C9406120C9487000000000700020100A7
:100070000003040600000000000000000102040864
:100080001020408001020408102001020408102002
:10009000040404040404040402020202020203032E
:1000A00003030303000000002300260029000000D2
:1000B0000000250028002B000704FF0F2411112445
:1000C0001FBECFEFD8E0DEBFCDBF11E0A0E0B1E0B2
:1000D000EEE4FBE202C005900D92A63FB107D9F70E
:1000E00024E0A6EFB1E001C01D92A133B207E1F711
:1000F00010E0CEEBD0E004C02297FE010E94A115D3
:10010000C83BD107C9F70E94610E0C9433130C94BD
:100110000000DC01ED91FC910190F081E02D09944B
:100120004F925F926F927F928F929F92AF92BF9207
:10013000CF92DF92EF92FF920F931F93CF93DF93B3
:1001400000D000D0CDB7DEB720914E0230914F02E3
:10015000409150025091510260914A0270914B02BD
:1001600080914C0290914D020E9436136B017C01EC
:1001700020911501309116014091170150911801FD
:100180000E94EE1420915202309153024091540289
:10019000509155020E9437132B013C01609352028B
:1001A00070935302809354029093550200910F0173
:1001B00010911001B801882777FD8095982F0E9433
:1001C0003A144B015C019B01AC01C301B2010E94D6
:1001D000EA1418164CF48092520290925302A092A4
:1001E0005402B092550222C066277727601B710B1C
:1001F000882777FD8095982F0E943A1469837A8327
:100200008B839C839B01AC01C301B2010E949B13B1
:1002100087FF0CC089819A81AB81BC818093520297
:1002200090935302A0935402B09355022091190168
:1002300030911A0140911B0150911C01C701B60178
:100240000E94EE14209152023091530240915402C8
:10025000509155020E9437132B013C01209142021C
:10026000309143024091440250914502C701B601CA
:100270000E94361320911101309112014091130117
:10028000509114010E94EE149B01AC01C301B20114
:100290000E9437132B013C0177FA709477F8709421
:1002A000A5019401C301B2010E94EA141816ECF0F2
:1002B00066277727601B710B882777FD8095982F1D
:1002C0000E943A144B015C019B01AC01C301B201D5
:1002D0000E949B1387FD09C040924602509247023C
:1002E000609248027092490208C080924602909241
:1002F0004702A0924802B0924902C0924202D092B4
:100300004302E0924402F092450220913A02309179
:100310003B0240913C0250913D0260913602709147
:10032000370280913802909139020E9436136B0196
:100330007C012091B6023091B7024091B8025091F1
:10034000B9020E94EE1420913E0230913F0240918A
:100350004002509141020E9437132B013C016093EF
:100360003E0270933F0280934002909341020091BD
:10037000B0021091B102B801882777FD8095982FBF
:100380000E943A144B015C019B01AC01C301B20114
:100390000E94EA1418164CF480923E0290923F029A
:1003A000A0924002B092410222C066277727601BCC
:1003B000710B882777FD8095982F0E943A146983E6
:1003C0007A838B839C839B01AC01C301B2010E94A1
:1003D0009B1387FF0CC089819A81AB81BC8180937C
:1003E0003E0290933F02A0934002B09341022091BD
:1003F000BA023091BB024091BC025091BD02C701CC
:10040000B6010E94EE1420913E0230913F024091CD
:100410004002509141020E9437132B013C01209170
:100420002E0230912F024091300250913102C701CB
:10043000B6010E9436132091B2023091B30240916E
:10044000B4025091B5020E94EE149B01AC01C301AD
:10045000B2010E9437132B013C01A50194010E94B7
:10046000EA141816ECF066277727601B710B8827B3
:1004700077FD8095982F0E943A144B015C019B01F7
:10048000AC01C301B2010E949B1387FD09C04092D9
:10049000320250923302609234027092350208C0E8
:1004A0008092320290923302A0923402B0923502CE
:1004B000C0922E02D0922F02E0923002F0923102CE
:1004C0002091260230912702409128025091290262
:1004D0006091220270912302809124029091250262
:1004E0000E9436136B017C01609356027093570291
:1004F000809358029093590220910701309108018E
:100500004091090150910A010E94EE1420912A02A3
:1005100030912B0240912C0250912D020E943713F2
:100520002B013C0160932A0270932B0280932C02D2
:1005300090932D020091010110910201B8018827CA
:1005400077FD8095982F0E943A144B015C019B0126
:10055000AC01C301B2010E94EA1418164CF4809257
:100560002A0290922B02A0922C02B0922D0222C05D
:1005700066277727601B710B882777FD8095982F5A
:100580000E943A1469837A838B839C839B01AC011C
:10059000C301B2010E949B1387FF0CC089819A811D
:1005A000AB81BC8180932A0290932B02A0932C02F2
:1005B000B0932D0220910B0130910C0140910D015F
:1005C00050910E01C701B6010E94EE1420912A023B
:1005D00030912B0240912C0250912D020E94371332
:1005E0002B013C0120911A0230911B0240911C0208
:1005F00050911D02C701B6010E94361320910301DC
:100600003091040140910501509106010E94EE14C1
:100610009B01AC01C301B2010E9437132B013C01C5
:10062000A50194010E94EA141816ECF066277727BA
:10063000601B710B882777FD8095982F0E943A14D4
:100640004B015C019B01AC01C301B2010E949B13F1
:1006500087FD09C040921E0250921F026092200244
:100660007092210208C080921E0290921F02A092F6
:100670002002B0922102C0921A02D0921B02E09294
:100680001C02F0921D020F900F900F900F90DF91BF
:10069000CF911F910F91FF90EF90DF90CF90BF907F
:1006A000AF909F908F907F906F905F904F90089544
:1006B0001F920F920FB60F9211242F933F934F93D7
:1006C0005F936F937F938F939F93AF93BF93EF93BA
:1006D000FF930E946B0B609372027093730280937E
:1006E0007402909375022091AF02189B0EC02111E5
:1006F0001BC021E02093AF026093820270938302BB
:1007000080938402909385020FC0213069F4109287
:10071000AF022091820230918302AB01421B530B46
:100720005093AB024093AA022091AE02199B0EC0D7
:1007300021111BC021E02093AE0260937E027093D2
:100740007F0280938002909381020FC0213069F470
:100750001092AE0220917E0230917F02AB01421BCB
:10076000530B5093A9024093A8022091AD021A9B0B
:100770000EC021111BC021E02093AD0260937A02CC
:1007800070937B0280937C0290937D020FC0213096
:1007900069F41092AD0220917A0230917B02AB0194
:1007A000421B530B5093A7024093A6022091AC0228
:1007B0001B9B0EC021111AC021E02093AC02609354
:1007C00076027093770280937802909379020EC03C
:1007D000213061F41092AC022091760230917702C0
:1007E000621B730B7093A5026093A402FF91EF91BB
:1007F000BF91AF919F918F917F916F915F914F9139
:100800003F912F910F900FBE0F901F9018958091E0
:10081000190190911A01A0911B01B0911C018093C4
:10082000BA029093BB02A093BC02B093BD02809128
:10083000150190911601A0911701B09118018093B4
:10084000B6029093B702A093B802B093B902809118
:10085000110190911201A0911301B09114018093A4
:10086000B2029093B302A093B402B093B502809108
:100870000F01909110019093B1028093B0020895FE
:10088000CF9368E670E081E793E00E940F116BE37D
:1008900070E081E793E00E94890060E081E793E0E7
:1008A0000E94111121E030E04EE050E068E670E077
:1008B00081E793E00E94031181E793E00E945D10BD
:1008C000C82F81E793E00E945D1060E070E07C2F0C
:1008D000862B972BBC01882777FD8095982F0E9447
:1008E0003A146093F6017093F7018093F8019093A6
:1008F000F90181E793E00E945D10C82F81E793E042
:100900000E945D1060E070E07C2F862B972BBC016D
:10091000882777FD8095982F0E943A146093FA01FA
:100920007093FB018093FC019093FD0181E793E0BC
:100930000E945D10C82F81E793E00E945D1060E087
:1009400070E07C2F862B972BBC01882777FD809544
:10095000982F0E943A146093FE017093FF018093D8
:1009600000029093010281E793E00E945D10C82F7E
:1009700081E793E00E945D1060E070E07C2F862BA1
:10098000972BBC01882777FD8095982F0E943A14F9
:100990006093020270930302809304029093050215
:1009A00081E793E00E945D10C82F81E793E00E94E9
:1009B0005D1060E070E07C2F862B972BBC018827B0
:1009C00077FD8095982F0E943A14609306027093E9
:1009D0000702809308029093090281E793E00E9446
:1009E0005D10C82F81E793E00E945D1060E070E029
:1009F0007C2F862B972BBC01882777FD8095982F1D
:100A00000E943A1460930A0270930B0280930C02C6
:100A100090930D0281E793E00E945D10C82F81E75B
:100A200093E00E945D1060E070E07C2F862B972B96
:100A3000BC01882777FD8095982F0E943A14609317
:100A40000E0270930F028093100290931102809116
:100A5000700290917102883E934009F04EC020913F
:100A6000620230916302409164025091650260918C
:100A700006027091070280910802909109020E947B
:100A800036136093060270930702809308029093D6
:100A9000090220915E0230915F0240916002509104
:100AA000610260910A0270910B0280910C02909198
:100AB0000D020E94361360930A0270930B0280931A
:100AC0000C0290930D0220915A0230915B024091EA
:100AD0005C0250915D0260916602709167028091A4
:100AE0006802909169020E943613609366027093C7
:100AF00067028093680290936902CF910895CF9323
:100B0000DF9340E052EC61E070E087EC92E00E94FD
:100B10007E0F60E271E087EC92E00E94C00C66E21A
:100B200071E087EC92E00E94C00C60910001772791
:100B300067FD70954AE050E087EC92E00E946C0DF2
:100B400069E971E087EC92E00E94C00C81E793E0D4
:100B50000E94EC108AB1806F8AB9249A61E08CE01F
:100B60000E94230C6AEF70E080E090E00E948E0B00
:100B700081E793E00E94EC1068E670E081E793E083
:100B80000E940F116BE670E081E793E00E948900FC
:100B900060E070E081E793E00E94890061E081E716
:100BA00093E00E9411116AEF70E080E090E00E94F3
:100BB0008E0B69E371E087EC92E00E94C00C10920A
:100BC000710210927002CFE0D0E08091700290919B
:100BD0007102883E23E092070CF079C0BE010E94AA
:100BE0005515892B51F48CE00E94590C61E0892B3A
:100BF00009F060E08CE00E94230C0E9440042091E8
:100C0000060230910702409108025091090260915A
:100C100062027091630280916402909165020E9469
:100C2000371360936202709363028093640290931F
:100C3000650220910A0230910B0240910C02509102
:100C40000D0260915E0270915F028091600290914E
:100C500061020E94371360935E0270935F0280937B
:100C600060029093610220910E0230910F02409138
:100C700010025091110260915A0270915B028091B2
:100C80005C0290915D020E94371360935A02709348
:100C90005B0280935C0290935D028BB1806F8BB995
:100CA00088EE93E00E94B40B8BB18F708BB963E038
:100CB00070E080E090E00E948E0B80917002909135
:100CC0007102019690937102809370027ECF20E0B2
:100CD00030E04AE754E460916202709163028091CF
:100CE0006402909165020E949F1360936202709368
:100CF0006302809364029093650220E030E04AE74B
:100D000054E460915E0270915F0280916002909164
:100D100061020E949F1360935E0270935F02809352
:100D200060029093610220E030E04AE754E4609171
:100D30005A0270915B0280915C0290915D020E9468
:100D40009F1360935A0270935B0280935C029093AE
:100D50005D0264E571E087EC92E00E94C00C409176
:100D6000620250916302609164027091650222E018
:100D700030E087EC92E00E945F0E62E671E087EC63
:100D800092E00E94C00C80916800816080936800AE
:100D900080916B00816080936B0080916B0082601A
:100DA00080936B0080916B00846080936B008091D6
:100DB0006B00886080936B0069E771E087EC92E0DC
:100DC0000E94C00C8091A8029091A902845893407F
:100DD0008D38910578F180916E0290916F020196A5
:100DE00090936F0280936E028BB1806F8BB988EE07
:100DF00093E00E94B40B8BB18F708BB963E070E00D
:100E000080E090E00E948E0B80916E0290916F02C4
:100E10008D379105B9F68CE00E94590C61E0892B61
:100E200009F060E08CE00E94230C10926F02109297
:100E30006E02C8CF8091AA029091AB02883795408C
:100E400054F210926F0210926E0260E08CE00E94E9
:100E5000230C60E971E087EC92E0DF91CF910C9474
:100E6000C00C2F923F924F925F926F927F928F921F
:100E70009F92AF92BF92CF92DF92EF92FF920F9329
:100E80001F93CF93DF93CDB7DEB728970FB6F894B3
:100E9000DEBF0FBECDBF0E9440040091A80210919A
:100EA000A90210931302009312028091A402909160
:100EB000A50290931502809314028091A60290914E
:100EC000A7029093170280931602A090AA02B090F6
:100ED000AB02B0921902A09218022DEC3CEC4CE44B
:100EE0005FE360914A0270914B0280914C029091B5
:100EF0004D020E94EE146B017C012AE432E944E6C3
:100F000052E460910602709107028091080290916C
:100F100009020E949F132DEC3CEC4CE45EE30E941E
:100F2000EE149B01AC01C701B6010E943713609318
:100F30004A0270934B0280934C0290934D022DEC29
:100F40003CEC4CE45FE36091360270913702809193
:100F50003802909139020E94EE146B017C012AE460
:100F600032E944E652E460910A0270910B028091EA
:100F70000C0290910D020E949F132DEC3CEC4CE46E
:100F80005EE30E94EE149B01AC01C701B6010E9412
:100F90003713609336027093370280933802909330
:100FA00039022DEC3CEC4CE45FE36091220270913D
:100FB000230280912402909125020E94EE146B017D
:100FC0007C012AE432E944E652E460910E02709119
:100FD0000F0280911002909111020E949F132DEC3C
:100FE0003CEC4CE45EE30E94EE149B01AC01C701B3
:100FF000B6010E94371360932202709323028093FC
:101000002402909325020A3114408CF482E4A8163D
:1010100084E0B80664F481E090E090936F028093DE
:101020006E026BE971E087EC92E00E94C00C809147
:101030006E0290916F02019709F04BC08091A80257
:101040009091A9028A3194400CF043C08091AA0289
:101050009091AB028B3A9540E4F182E090E090935E
:101060006F0280936E0265EA71E087EC92E00E9465
:10107000C00C10925202109253021092540210921D
:1010800055021092420210924302109244021092B2
:10109000450210923E0210923F02109240021092BE
:1010A000410210922E0210922F02109230021092E2
:1010B000310210922A0210922B0210922C021092EE
:1010C0002D0210921A0210921B0210921C02109212
:1010D0001D0280916E0290916F020297C1F480917F
:1010E000A8029091A9028A3194408CF48091AA02BE
:1010F0009091AB028930974054F010926F02109299
:101100006E026FEA71E087EC92E00E94C00C1092D0
:101110004E0210924F0210925002109251026091B2
:10112000A4027091A502653E25E072071CF0645E82
:10113000754006C0643D85E07807B4F4645D754091
:10114000882777FD8095982F0E943A1420E030E0A0
:1011500040E450E40E949F1360934E0270934F024C
:10116000809350029093510268EB71E087EC92E01B
:101170000E94C00C40914E0250914F02609150026B
:101180007091510222E030E087EC92E00E945F0E05
:1011900069E971E087EC92E00E94C00C10923A027B
:1011A00010923B0210923C0210923D026091A60206
:1011B0007091A702653E95E079071CF0645E75406A
:1011C00006C0643DA5E07A07B4F4645D75408827E5
:1011D00077FD8095982F0E943A1420E030E040E49B
:1011E00050E40E949F1360933A0270933B028093F5
:1011F0003C0290933D021092260210922702109218
:101200002802109229026091AA027091AB026B3100
:10121000B4E07B070CF1653EE5E07E071CF0645E00
:10122000754006C0643DF5E07F07B4F4645D754029
:10123000882777FD8095982F0E943A1420E030E0AF
:1012400040E450E40E949F136093260270932702AB
:1012500080932802909329020E9490008091A80216
:101260009091A90290939B0280939A0220916E0222
:1012700030916F022230310509F0E0C08937954086
:1012800034F088E795E090939B0280939A026091F6
:101290009A0270919B02882777FD8095982F0E9473
:1012A0003A142B013C018091320290913302A091BB
:1012B0003402B091350289839A83AB83BC839C014D
:1012C000AD01C301B2010E9436136D837E838F830B
:1012D00098878090460290904702A0904802B09074
:1012E0004902C0901E02D0901F02E0902002F090B0
:1012F0002102A50194010E943713A70196010E94C3
:1013000036130E9407141B017093A3026093A2027C
:1013100029813A814B815C81C301B2010E9437135C
:101320002B013C01A50194010E943713A7019601EE
:101330000E9437130E9407148B017093A1026093DF
:10134000A002A5019401C301B2010E943613A701B6
:1013500096010E9436130E9407143B0170939F026E
:1013600060939E02A50194016D817E818F81988595
:101370000E943613A70196010E9437130E9407149A
:101380009B0170939D0260939C029EE7291694E056
:10139000390634F48EE794E09093A3028093A2027E
:1013A0000E37144034F48EE794E09093A1028093BA
:1013B000A002BEE76B16B4E07B0634F48EE794E03F
:1013C00090939F0280939E022E37344034F48EE730
:1013D00094E090939D0280939C028091A202909150
:1013E000A3028937954034F088E795E09093A302F3
:1013F0008093A2028091A0029091A102893795402A
:1014000034F088E795E09093A1028093A002809148
:101410009E0290919F028937954034F088E795E0CD
:1014200090939F0280939E0280919C0290919D02D6
:1014300089379540ACF088E795E00EC088EE93E0E0
:101440009093A3028093A2029093A1028093A002A2
:1014500090939F0280939E0290939D0280939C02A2
:101460000E946B0B00916A0210916B0220916C023A
:1014700030916D02601B710B820B930B603A7F40C1
:101480008105910568F30E946B0B60936A0270936B
:101490006B0280936C0290936D028BB1806F8BB95D
:1014A00080916A0290916B02A0916C02B0916D02E2
:1014B0004091A2025091A302662757FD6095762FB6
:1014C000480F591F6A1F7B1F409396025093970243
:1014D00060939802709399024091A0025091A102EA
:1014E000662757FD6095762F480F591F6A1F7B1F8F
:1014F00040939202509393026093940270939502EA
:1015000040919E0250919F02662757FD6095762F6D
:10151000480F591F6A1F7B1F40938E0250938F0202
:10152000609390027093910240919C0250919D02B1
:10153000662757FD6095762F480F591F6A1F7B1F3E
:1015400040938A0250938B0260938C0270938D02B9
:101550008BB1803108F45CC00E946B0B60938602F3
:10156000709387028093880290938902009196027B
:10157000109197022091980230919902601771079B
:101580008207930708F05C98409192025091930271
:1015900060919402709195028091860290918702E9
:1015A000A0918802B091890284179507A607B70712
:1015B00008F05D9840918E0250918F0260919002E8
:1015C000709191028091860290918702A091880289
:1015D000B091890284179507A607B70708F05E98AF
:1015E00040918A0250918B0260918C0270918D0221
:1015F0008091860290918702A0918802B091890221
:1016000084179507A607B70708F4A2CF5F98A0CF65
:1016100028960FB6F894DEBF0FBECDBFDF91CF91F5
:101620001F910F91FF90EF90DF90CF90BF90AF9000
:101630009F908F907F906F905F904F903F902F90F2
:1016400008951F920F920FB60F9211242F933F937C
:101650008F939F93AF93BF938091BF029091C002ED
:10166000A091C102B091C2023091BE0223E0230FCB
:101670002D3720F40196A11DB11D05C026E8230FCA
:101680000296A11DB11D2093BE028093BF029093CC
:10169000C002A093C102B093C2028091C302909194
:1016A000C402A091C502B091C6020196A11DB11D50
:1016B0008093C3029093C402A093C502B093C60264
:1016C000BF91AF919F918F913F912F910F900FBE3E
:1016D0000F901F9018953FB7F8948091C302909196
:1016E000C402A091C502B091C60226B5A89B05C050
:1016F0002F3F19F00196A11DB11D3FBF6627782F1E
:10170000892F9A2F620F711D811D911D42E0660F76
:10171000771F881F991F4A95D1F70895CF92DF92BE
:10172000EF92FF92CF93DF936B017C010E946B0BD2
:10173000EB01C114D104E104F10479F00E946B0BB8
:101740006C1B7D0B683E7340A0F381E0C81AD10882
:10175000E108F108C851DC4FECCFDF91CF91FF9049
:10176000EF90DF90CF9008950197009739F0880FA0
:10177000991F880F991F02970197F1F708957894A0
:1017800084B5826084BD84B5816084BD85B5826086
:1017900085BD85B5816085BDEEE6F0E08081816024
:1017A0008083E1E8F0E01082808182608083808124
:1017B00081608083E0E8F0E0808181608083E1EBFC
:1017C000F0E0808184608083E0EBF0E080818160E4
:1017D0008083EAE7F0E0808184608083808182609A
:1017E0008083808181608083808180688083109283
:1017F000C1000895833081F028F4813099F082305F
:10180000A1F008958630A9F08730B9F08430D1F482
:10181000809180008F7D03C0809180008F778093BE
:101820008000089584B58F7702C084B58F7D84BD14
:1018300008958091B0008F7703C08091B0008F7DB4
:101840008093B00008950F931F93CF93DF931F925F
:10185000CDB7DEB7282F30E0F901E859FF4F84916A
:10186000F901E458FF4F1491F901E057FF4F04913B
:101870000023C9F0882321F069830E94FA0B698153
:10188000E02FF0E0EE0FFF1FE255FF4FA591B4915E
:101890009FB7F8948C91611103C01095812301C00A
:1018A000812B8C939FBF0F90DF91CF911F910F9150
:1018B0000895CF93DF93282F30E0F901E859FF4FC7
:1018C0008491F901E458FF4FD491F901E057FF4F9B
:1018D000C491CC2391F081110E94FA0BEC2FF0E01F
:1018E000EE0FFF1FEC55FF4FA591B4912C912D23C6
:1018F00081E090E021F480E002C080E090E0DF91A0
:10190000CF910895CF92DF92EF92FF920F931F93A2
:10191000CF93DF936C017A01EB01E60EF71E00E036
:1019200010E0CE15DF0561F06991D601ED91FC91D3
:101930000190F081E02DC6010995080F191FF1CF24
:10194000C801DF91CF911F910F91FF90EF90DF9031
:10195000CF9008956115710581F0DB010D90002095
:10196000E9F7AD0141505109461B570BDC01ED91E0
:10197000FC910280F381E02D099480E090E00895CD
:101980000C94AA0CDC01ED91FC910190F081E02D0A
:1019900009948F929F92AF92BF92CF92DF92EF9273
:1019A000FF920F931F93CF93DF93CDB7DEB7A1972D
:1019B0000FB6F894DEBF0FBECDBF7C01C42EE52F5D
:1019C000CB01D22E19A221E02D1510F02AE0D22E43
:1019D0008E010F5D1F4F8D2C912CA12CB12C6C2DE5
:1019E0007E2FA50194010E9469158C2DD29E80192D
:1019F0001124015011098A3014F4805D01C0895C02
:101A0000F8018083211531054105510521F0C22ED1
:101A1000E32FCA01E4CFB801C7010E94AA0CA19626
:101A20000FB6F894DEBF0FBECDBFDF91CF911F91EF
:101A30000F91FF90EF90DF90CF90BF90AF909F906D
:101A40008F900895CF92DF92EF92FF920F931F93A2
:101A5000CF93DF93EC016A017B012115310579F405
:101A6000E881F9810190F081E02D642FDF91CF9121
:101A70001F910F91FF90EF90DF90CF9009942A3043
:101A80003105E9F477FF1AC06DE20E94C20C8C01A7
:101A900044275527BA014C195D096E097F092AE0D0
:101AA000CE010E94C90C800F911FDF91CF911F9131
:101AB0000F91FF90EF90DF90CF9008952AE0B7014B
:101AC000A601CE01DF91CF911F910F91FF90EF9072
:101AD000DF90CF900C94C90C9A01AB01662757FD9B
:101AE0006095762F0C94220D4F925F926F927F92A9
:101AF0008F929F92AF92BF92CF92DF92EF92FF921E
:101B00000F931F93CF93DF93EC016A017B01B22EF9
:101B10009A01AB01C701B6010E945115882319F043
:101B200068EC71E027C026013701E89477F82FEFC1
:101B30003FEF4FE75FE7C301B2010E9451158111EA
:101B40000DC02FEF3FEF4FE75FE7C301B2010E94E7
:101B50009B1318161CF46CEC71E00CC02FEF3FEFD8
:101B60004FE75FE4C701B6010E94EA141816ACF40F
:101B700060ED71E0CE01DF91CF911F910F91FF9049
:101B8000EF90DF90CF90BF90AF909F908F907F901D
:101B90006F905F904F900C94AA0C2FEF3FEF4FE7A0
:101BA0005FECC701B6010E949B1387FDE1CF20E0E7
:101BB00030E0A901C701B6010E949B1387FF0AC04C
:101BC0006DE2CE010E94C20C8C01F7FAF094F7F896
:101BD000F09402C000E010E0A12C60E070E080E032
:101BE0009FE3AB1441F020E030E040E251E40E947A
:101BF0009F13A394F6CF9B01AC01C701B6010E94CD
:101C000037136B017C010E940C142B013C010E94D4
:101C100038149B01AC01C701B6010E9436136B0159
:101C20007C012AE0B301A201CE010E94C90C080F79
:101C3000191FBB2039F064ED71E0CE010E94AA0C9F
:101C4000080F191F7B2C772041F120E030E040E2A3
:101C500051E4C701B6010E94EE146B017C010E94A1
:101C600007144B01AA2497FCA094BA2C2AE030E078
:101C7000B501A401CE010E94220D080F191FC50154
:101C8000B4010E943A149B01AC01C701B6010E9445
:101C900036136B017C017A94D6CFC801DF91CF91C6
:101CA0001F910F91FF90EF90DF90CF90BF90AF907A
:101CB0009F908F907F906F905F904F9008950C94BD
:101CC000740D0E94BF0B0E947F05CAE3DFE00E94F3
:101CD00031072097E1F30E943A0FF9CFFC012485E8
:101CE0003585F901E05CFF4F80819181329620813A
:101CF0003181821B930B8F7399270895FC01848592
:101D00009585FC01E05CFF4F408151813296208136
:101D100031814217530741F00190F081E02DE80F27
:101D2000F91F808190E008958FEF9FEF0895FC01E7
:101D300084859585FC01E05CFF4F4081518132969E
:101D4000208131814217530779F0A081B181A80F1A
:101D5000B91F8C91208131812F5F3F4F2F73332723
:101D60003183208390E008958FEF9FEF0895FC0169
:101D700081A1882329F0A489B5898C9186FFFBCFA6
:101D800011A20895CF93DF93FC0126853785D901F1
:101D9000A05CBF4F8D919C91119701968F739927ED
:101DA000E901CE5BDF4F4881598184179507D9F34C
:101DB0000D90BC91A02DA20FB31F6C93A685B78583
:101DC000A05CBF4F11969C938E93A689B7892C91E6
:101DD00081E090E0078C02C0880F991F0A94E2F717
:101DE000282B2C9381E081A30488F589E02D808144
:101DF0008064808381E090E0DF91CF910895089521
:101E00001F920F920FB60F9211242F933F934F936F
:101E10008F939F93EF93FF938091C00082FD1CC02E
:101E20004091C60080916D0390916E0301968F736F
:101E3000992720916F03309170038217930771F0F7
:101E4000E0916D03F0916E03E35DFC4F408390934E
:101E50006E0380936D0302C08091C600FF91EF91E5
:101E60009F918F914F913F912F910F900FBE0F90A7
:101E70001F90189587EC92E00E946E0E892B11F04E
:101E80000C94FF0E08951F920F920FB60F9211241B
:101E90002F933F938F939F93EF93FF932091290369
:101EA00030912A0380912B0390912C032817390736
:101EB00031F48091C1008F7D8093C10014C0E09106
:101EC0002B03F0912C03E751FD4F208180912B03D0
:101ED00090912C0301968F73992790932C038093F4
:101EE0002B032093C600FF91EF919F918F913F911B
:101EF0002F910F900FBE0F901F901895CF92DF92E9
:101F0000EF92FF92CF93DF93EC016A017B014115C1
:101F100081EE580761057105F9F0EC89FD8981E0D2
:101F200090E008A002C0880F991F0A94E2F780830E
:101F300060E079E08DE390E0A70196010E946915C9
:101F400021503109410951095695479537952795F3
:101F5000211580E1380798F0EC89FD89108260E84E
:101F600074E88EE190E0A70196010E946915215066
:101F70003109410951095695479537952795E889C3
:101F8000F9893083EA89FB89208319A2EE89FF89C8
:101F9000408181E090E09C010C8C02C0220F331F35
:101FA0000A94E2F7422B4083EE89FF8940819C012D
:101FB0000D8C02C0220F331F0A94E2F7422B40839C
:101FC000EE89FF8940819C010E8C02C0220F331FD5
:101FD0000A94E2F7422B4083EE89FF8920810F8C1F
:101FE00002C0880F991F0A94E2F7809582238083AC
:101FF000DF91CF91FF90EF90DF90CF9008951092F6
:10200000CA021092C90288EE93E0A0E0B0E080938B
:10201000CB029093CC02A093CD02B093CE028AED76
:1020200091E09093C8028093C7028DE293E0909371
:10203000D4028093D30289EE92E09093D6028093EB
:10204000D50285EC90E09093D8028093D70284EC7F
:1020500090E09093DA028093D90280EC90E0909324
:10206000DC028093DB0281EC90E09093DE028093AF
:10207000DD0282EC90E09093E0028093DF0286EC38
:1020800090E09093E2028093E10284E08093E30287
:1020900083E08093E40287E08093E50285E080930B
:1020A000E60281E08093E70208958091A10390E029
:1020B0002091A203821B910908952091A20380918F
:1020C000A103281750F4E22FF0E0ED55FC4F80817A
:1020D00090E02F5F2093A20308958FEF9FEF089564
:1020E000E091A2038091A103E81730F4F0E0ED55F0
:1020F000FC4F808190E008958FEF9FEF0895089541
:10210000CF92DF92EF92FF920F931F93CF93DF93C3
:102110007C01CB018A0120917D03222389F0EB0110
:102120006B01C40ED51ECC15DD0569F06991D70190
:10213000ED91FC910190F081E02DC7010995F3CF5D
:10214000642F0E94DD11C801DF91CF911F910F9183
:10215000FF90EF90DF90CF900895CF93DF931F9281
:10216000CDB7DEB7698320917D032223D1F0209182
:102170007E03203240F021E030E0FC0133832283F3
:1021800080E090E015C080917F03E82FF0E0E058F8
:10219000FC4F998190838F5F80937F0380937E03B0
:1021A00005C061E0CE0101960E94DD1181E090E062
:1021B0000F90DF91CF910895FC011382128248EEB7
:1021C00053E060E070E044835583668377838AEE52
:1021D00091E09183808308951092A2031092A1034D
:1021E00010927F0310927E030C942811862F4132A7
:1021F00008F040E263EA73E00E9446111092A203E5
:102200008093A10308950C94F61081E080937D03E0
:102210006093A00310927F0310927E0308950C94A4
:1022200005110F93062F21E040917E0360E873E0D3
:102230008091A0030E948A1110927F0310927E0366
:1022400010927D030F91089581E793E00C94DC10C8
:102250001092300481E080932E0410922D0461E0EE
:1022600082E10E94230C61E083E10E94230CE9EBF0
:10227000F0E080818E7F808380818D7F808388E401
:102280008093B80085E48093BC000895413208F043
:102290003FC0909130049111FCCF91E090933004B5
:1022A00020932E042FEF2093C30310920804240FD1
:1022B0002093070490932F0490912F04880F892B6B
:1022C00080932F0480912D04813041F410922D04CD
:1022D00080912F048093BB0085EC01C085EE809334
:1022E000BC00809130048130E1F3809108048417B0
:1022F00010F44091080429E034E0FB01D9018A2F51
:10230000821B841718F48D918193F9CF842F08953F
:1023100080E008950F93413208F046C09091300458
:102320009111FCCF92E09093300400932E049FEF24
:102330009093C3031092080440930704FB0169E0E3
:1023400074E0DB019A2F961B941718F491919D93DA
:10235000F9CF10922F0490912F04880F892B80932E
:102360002F0480912D04813041F410922D0480912E
:102370002F048093BB0085EC01C085EE8093BC00E8
:10238000222321F0809130048230E1F38091C30355
:102390008F3F61F08091C303803251F08091C3037D
:1023A000803341F483E007C081E005C080E003C0D2
:1023B00082E001C084E00F910895613298F4209189
:1023C0003004243089F46093E503FC0187EE93E048
:1023D000DC012A2F281B261718F421912D93F9CF01
:1023E00080E0089581E0089582E0089585ED80936E
:1023F000BC008091BC0084FDFCCF10923004089595
:1024000085EC8093BC001092300408951F920F92C7
:102410000FB60F9211242F933F934F935F936F93B7
:102420007F938F939F93AF93BF93EF93FF9380918D
:10243000B900887F803609F49CC068F5883209F4B9
:102440005BC090F4803109F454C038F4882309F457
:10245000F5C0883009F44DC0F5C0883109F44CC08E
:10246000803209F45DC0EEC0803409F468C048F4DD
:10247000803309F455C0883309F0E4C08093C30366
:10248000A8C0803509F44FC0883509F45DC0883490
:1024900009F0D8C0D5C0883909F4C6C0A8F4883777
:1024A00009F467C038F4883609F463C0803709F44A
:1024B00060C0C8C0883809F4B7C0803909F45FC06B
:1024C000803809F0BFC05BC0803B09F485C038F498
:1024D000803A09F466C0883A09F47EC0B3C0803CF3
:1024E00009F4A6C0883C09F4A3C0883B09F489C05C
:1024F000A9C080912F0410C0909108048091070416
:10250000981770F5E091080481E08E0F809308041D
:10251000F0E0E75FFB4F80818093BB0085EC85C0D6
:102520008093C3038DC0E091080481E08E0F8093F7
:1025300008048091BB00F0E0E75FFB4F808390913F
:102540000804809107046DC0E091080481E08E0FBB
:10255000809308048091BB00F0E0E75FFB4F80832D
:1025600080912E0481116CC081E080932D0484EA57
:1025700060C083E0809330041092C403CFCF809179
:10258000C403803208F050C0E091C40381E08E0F94
:102590008093C4038091BB00F0E0EB53FC4F808339
:1025A000BDCF8091C403803230F4E091C403F0E0E9
:1025B000EB53FC4F10820E94F6116091C40370E04F
:1025C000E0912904F0912A0485EC93E0099510929A
:1025D000C4030E94001236C084E08093300410923D
:1025E000E6031092E503E0912B04F0912C04099589
:1025F0008091E503811105C081E08093E50310928D
:10260000E703E091E60381E08E0F8093E603F0E0BC
:10261000E951FC4F80818093BB009091E60380914B
:10262000E503981708F47ACF85E88093BC000AC0C8
:1026300085EC8093BC001092300404C01092C30358
:102640000E94F611FF91EF91BF91AF919F918F91F1
:102650007F916F915F914F913F912F910F900FBE9E
:102660000F901F901895F8940C94A5155058BB27FF
:10267000AA270ED075C166D130F06BD120F031F4AD
:102680009F3F11F41EF45BC10EF4E095E7FB51C1CE
:10269000E92F77D180F3BA1762077307840795078C
:1026A00018F071F49EF58FC10EF4E0950B2EBA2F41
:1026B000A02D0B01B90190010C01CA01A001112448
:1026C000FF27591B99F0593F50F4503E68F11A16F4
:1026D000F040A22F232F342F4427585FF3CF469585
:1026E00037952795A795F0405395C9F77EF41F16A7
:1026F000BA0B620B730B840BBAF09150A1F0FF0F71
:10270000BB1F661F771F881FC2F70EC0BA0F621F5C
:10271000731F841F48F4879577956795B795F7954C
:102720009E3F08F0B3CF9395880F08F09927EE0FDE
:10273000979587950895D9D008F481E008950CD035
:102740000FC107D140F0FED030F021F45F3F19F007
:10275000F0C0511139C1F3C014D198F39923C9F3D2
:102760005523B1F3951B550BBB27AA276217730797
:10277000840738F09F5F5F4F220F331F441FAA1F4B
:10278000A9F333D00E2E3AF0E0E830D0915050400B
:10279000E695001CCAF729D0FE2F27D0660F771FB9
:1027A000881FBB1F261737074807AB07B0E809F09B
:1027B000BB0B802DBF01FF2793585F4F2AF09E3F30
:1027C000510568F0B6C000C15F3FECF3983EDCF302
:1027D000869577956795B795F7959F5FC9F7880FA9
:1027E000911D9695879597F90895E1E0660F771FFB
:1027F000881FBB1F621773078407BA0720F0621B8C
:10280000730B840BBA0BEE1F88F7E095089504D084
:102810006894B111D9C00895BCD088F09F5790F04A
:10282000B92F9927B751A0F0D1F0660F771F881FF5
:10283000991F1AF0BA95C9F712C0B13081F0C3D010
:10284000B1E00895C0C0672F782F8827B85F39F0AE
:10285000B93FCCF3869577956795B395D9F73EF454
:1028600090958095709561957F4F8F4F9F4F0895FC
:10287000E89409C097FB3EF490958095709561951A
:102880007F4F8F4F9F4F9923A9F0F92F96E9BB27D0
:102890009395F695879577956795B795F111F8CF4C
:1028A000FAF4BB0F11F460FF1BC06F5F7F4F8F4FB7
:1028B0009F4F16C0882311F096E911C0772321F0AD
:1028C0009EE8872F762F05C0662371F096E8862F45
:1028D00070E060E02AF09A95660F771F881FDAF79C
:1028E000880F9695879597F90895990F0008550FC9
:1028F000AA0BE0E8FEEF16161706E807F907C0F086
:1029000012161306E407F50798F0621B730B840B8D
:10291000950B39F40A2661F0232B242B252B21F467
:1029200008950A2609F4A140A6958FEF811D811D07
:10293000089597F99F6780E870E060E008959FEF41
:1029400080EC089500240A94161617061806090646
:10295000089500240A941216130614060506089515
:10296000092E0394000C11F4882352F0BB0F40F49D
:10297000BF2B11F460FF04C06F5F7F4F8F4F9F4FDD
:10298000089557FD9058440F551F59F05F3F71F05F
:102990004795880F97FB991F61F09F3F79F08795C6
:1029A0000895121613061406551FF2CF4695F1DF4F
:1029B00008C0161617061806991FF1CF86957105DF
:1029C000610508940895E894BB2766277727CB0113
:1029D00097F908958ADF08F48FEF08950BD0C0CFE0
:1029E000B1DF28F0B6DF18F0952309F0A2CFA7CF0A
:1029F0001124EACFC6DFA0F3959FD1F3950F50E0E5
:102A0000551F629FF001729FBB27F00DB11D639FA0
:102A1000AA27F00DB11DAA1F649F6627B00DA11D46
:102A2000661F829F2227B00DA11D621F739FB00DEC
:102A3000A11D621F839FA00D611D221F749F33275C
:102A4000A00D611D231F849F600D211D822F762FF5
:102A50006A2F11249F5750408AF0E1F088234AF0F2
:102A6000EE0FFF1FBB1F661F771F881F915050403E
:102A7000A9F79E3F510570F05CCFA6CF5F3FECF306
:102A8000983EDCF3869577956795B795F795E7952A
:102A90009F5FC1F7FE2B880F911D9695879597F93B
:102AA000089523DF880B990B089597FB072E16F4E2
:102AB000009407D077FD09D00E948B1507FC05D044
:102AC0003EF4909581959F4F0895709561957F4F45
:102AD0000895A1E21A2EAA1BBB1BFD010DC0AA1F5F
:102AE000BB1FEE1FFF1FA217B307E407F50720F077
:102AF000A21BB30BE40BF50B661F771F881F991FF2
:102B00001A9469F760957095809590959B01AC013A
:102B1000BD01CF010895AA1BBB1B51E107C0AA1F2D
:102B2000BB1FA617B70710F0A61BB70B881F991F6E
:102B30005A95A9F780959095BC01CD010895EE0FA7
:0E2B4000FF1F0590F491E02D0994F894FFCF4B
:102B4E002464000000A0400AD7A33C0000C03F64EC
:102B5E00000000A040CDCC4C3D9A99993F2020001A
:102B6E00696E69740A006C656E677468206F662002
:102B7E007374727563743A20007374617274696E43
:102B8E0067206779726F2063616C69627261746924
:102B9E006F6E0A00726F6C6C206F66667365743AA6
:102BAE002000646F6E652063616C69627261746986
:102BBE006E67206779726F0A0077616974696E6754
:102BCE00206F6E207573657220696E7075740A00C1
:102BDE00696E697420646F6E650A00207374616794
:102BEE0065203120002073746167652032200073E8
:102BFE007461676520302000726F6C6C2073657491
:102C0E00706F696E743A20006E616E00696E6600B8
:102C1E006F7666002E0000000000C20E820C6E0E53
:102C2E00970E7E0EB70E00000000AD1080105510EE
:062C3E005D1070107F1014
:040000050080026E07
:00000001FF
