:100000000C945F000C9487000C9487000C945E01A4
:100010000C9487000C9487000C9487000C94870044
:100020000C9487000C9487000C9487000C94870034
:100030000C9487000C9487000C9487000C94870024
:100040000C94CF090C9487000C94480C0C948B0CE6
:100050000C9487000C9487000C9487000C94870004
:100060000C94BA120C9487000000000700020100F3
:100070000003040600000000000000000102040864
:100080001020408001020408102001020408102002
:10009000040404040404040402020202020203032E
:1000A00003030303000000002300260029000000D2
:1000B0000000250028002B009209470D6E0E112428
:1000C0001FBECFEFD8E0DEBFCDBF11E0A0E0B1E0B2
:1000D000EEE5FCE202C005900D92AE3BB107D9F708
:1000E00024E0AEEBB1E001C01D92A430B207E1F70D
:1000F00010E0CEEBD0E004C02297FE010E9429164A
:10010000C83BD107C9F70E94A90B0C94E7130C94C4
:100110000000DC01ED91FC910190F081E02D09944B
:1001200040E052EC61E070E08AE992E00E94C60C87
:100130006FE371E08AE992E00E947A0B84E493E035
:100140000E94340E8AB1806F8AB9249A61E08CE0F3
:100150000E94DD0A6AEF70E080E090E00E94480AA9
:1001600082E892E00E94460F65E471E08AE992E03D
:100170000E94970B82E892E00E94760F882319F084
:1001800066E171E002C06DE271E08AE992E00E94EE
:10019000970B60E082E892E00E94810E82E892E094
:1001A0000E94D20F8093E70182E892E00E94EE0F56
:1001B0008093E60182E892E00E940A108093E501B4
:1001C00082E892E00E947E0F8093E40182E892E050
:1001D0000E949A0F8093E30182E892E00E94B60F9A
:1001E0008093E20180916800816080936800809133
:1001F0006B00816080936B0080916B0082608093C4
:100200006B0080916B00846080936B0080916B0029
:10021000886080936B006FE571E08AE992E00E944C
:100220007A0B8091240290912502845893408D3856
:10023000910578F18091EE019091EF0101969093F4
:10024000EF018093EE018BB1806F8BB988EE93E064
:100250000E946E0A8BB18F708BB963E070E080E012
:1002600090E00E94480A8091EE019091EF018D3755
:100270009105B9F68CE00E94130B61E0892B09F01F
:1002800060E08CE00E94DD0A1092EF011092EE0116
:10029000C8CF80912602909127028837954054F26A
:1002A0001092EF011092EE0160E08CE00E94DD0AF6
:1002B00066E771E08AE992E00C947A0B1F920F9244
:1002C0000FB60F9211242F933F934F935F936F9329
:1002D0007F938F939F93AF93BF93EF93FF930E946E
:1002E000250A6093F8017093F9018093FA019093C5
:1002F000FB0120912B02189B0EC021111BC021E095
:1003000020932B02609308027093090280930A02E3
:1003100090930B020FC0213069F410922B022091B0
:10032000080230910902AB01421B530B5093270284
:100330004093260220912A02199B0EC021111BC056
:1003400021E020932A0260930402709305028093B7
:100350000602909307020FC0213069F410922A021E
:100360002091040230910502AB01421B530B5093C4
:10037000250240932402209129021A9B0EC02111CC
:100380001BC021E0209329026093000270930102B8
:1003900080930202909303020FC0213069F41092FF
:1003A00029022091000230910102AB01421B530B44
:1003B0005093230240932202209128021B9B0EC0DF
:1003C00021111AC021E0209328026093FC01709350
:1003D000FD018093FE019093FF010EC0213061F476
:1003E000109228022091FC013091FD01621B730BD9
:1003F0007093210260932002FF91EF91BF91AF9122
:100400009F918F917F916F915F914F913F912F912C
:100410000F900FBE0F901F90189582E892E00E94F7
:10042000E00E2091E701821B910927FD9395BC0105
:10043000882777FD8095982F0E94EE1420E030E009
:1004400043E053E40E9453146093CE017093CF01B4
:100450008093D0019093D10182E892E00E94FC0E3B
:100460002091E601821B910927FD9395BC01882705
:1004700077FD8095982F0E94EE1420E030E043E055
:1004800053E40E9453146093D2017093D30180937C
:10049000D4019093D50182E892E00E94180F209138
:1004A000E501821B910927FD9395BC01882777FD03
:1004B0008095982F0E94EE1420E030E043E053E452
:1004C0000E9453146093D6017093D7018093D80192
:1004D0009093D90182E892E00E948C0E2091E40171
:1004E000821B910927FD9395BC01882777FD809594
:1004F000982F0E94EE1420E030E040E858E30E947C
:10050000A2156093BE017093BF018093C0019093C8
:10051000C10182E892E00E94A80E2091E301821BB3
:10052000910927FD9395BC01882777FD8095982F29
:100530000E94EE1420E030E040E858E30E94A2154B
:100540006093C2017093C3018093C4019093C5016D
:1005500082E892E00E94C40E2091E201821B910980
:1005600027FD9395BC01882777FD8095982F0E94E1
:10057000EE1420E030E040E858E30E94A2156093BA
:10058000C6017093C7018093C8019093C901089573
:100590004F925F926F927F928F929F92AF92BF9293
:1005A000CF92DF92EF92FF920F931F93CF93DF933F
:1005B00000D000D0CDB7DEB720916002309161024B
:1005C000409162025091630260915C0270915D0201
:1005D00080915E0290915F020E94EA136B017C01A0
:1005E00020910C0130910D0140910E0150910F01AD
:1005F0000E94A2152091640230916502409166022A
:10060000509167020E94EB132B013C01609364023E
:1006100070936502809366029093670200910601D1
:1006200010910701B801882777FD8095982F0E94C7
:10063000EE144B015C019B01AC01C301B2010E94AD
:100640009E1518164CF48092640290926502A09256
:100650006602B092670222C066277727601B710B83
:10066000882777FD8095982F0E94EE1469837A83FE
:100670008B839C839B01AC01C301B2010E944F1488
:1006800087FF0CC089819A81AB81BC818093640211
:1006900090936502A0936602B093670220911001C7
:1006A000309111014091120150911301C701B6011F
:1006B0000E94A21520916402309165024091660269
:1006C000509167020E94EB132B013C0120915402D0
:1006D000309155024091560250915702C701B60120
:1006E0000E94EA13209108013091090140910A010A
:1006F00050910B010E94A2159B01AC01C301B201F4
:100700000E94EB132B013C0177FA709477F87094F8
:10071000A5019401C301B2010E949E151816ECF0C8
:1007200066277727601B710B882777FD8095982FA8
:100730000E94EE144B015C019B01AC01C301B201AC
:100740000E944F1487FD09C04092580250925902EE
:1007500060925A0270925B0208C080925802909296
:100760005902A0925A02B0925B02C0925402D092F7
:100770005502E0925602F092570220914C023091BD
:100780004D0240914E0250914F026091480270918B
:10079000490280914A0290914B020E94EA136B0138
:1007A0007C0120917A0230917B0240917C02509131
:1007B0007D020E94A2152091500230915102409179
:1007C0005202509153020E94EB132B013C016093A3
:1007D0005002709351028093520290935302009101
:1007E000740210917502B801882777FD8095982FC3
:1007F0000E94EE144B015C019B01AC01C301B201EC
:100800000E949E1518164CF480925002909251024C
:10081000A0925202B092530222C066277727601B33
:10082000710B882777FD8095982F0E94EE146983BD
:100830007A838B839C839B01AC01C301B2010E942C
:100840004F1487FF0CC089819A81AB81BC81809352
:10085000500290935102A0935202B0935302209100
:100860007E0230917F024091800250918102C70147
:10087000B6010E94A2152091500230915102409180
:100880005202509153020E94EB132B013C01209124
:100890004002309141024091420250914302C7010F
:1008A000B6010E94EA1320917602309177024091BE
:1008B0007802509179020E94A2159B01AC01C301FC
:1008C000B2010E94EB132B013C01A50194010E948F
:1008D0009E151816ECF066277727601B710B88278A
:1008E00077FD8095982F0E94EE144B015C019B01CF
:1008F000AC01C301B2010E944F1487FD09C04092B0
:10090000440250924502609246027092470208C02B
:100910008092440290924502A0924602B092470211
:10092000C0924002D0924102E0924202F092430211
:10093000209138023091390240913A0250913B02A5
:1009400060913402709135028091360290913702A5
:100950000E94EA136B017C01609368027093690244
:1009600080936A0290936B02209170023091710221
:1009700040917202509173020E94A21520913C0294
:1009800030913D0240913E0250913F020E94EB1394
:100990002B013C0160933C0270933D0280933E0228
:1009A00090933F020091000110910101B801882746
:1009B00077FD8095982F0E94EE144B015C019B01FE
:1009C000AC01C301B2010E949E1518164CF480922E
:1009D0003C0290923D02A0923E02B0923F0222C0A1
:1009E00066277727601B710B882777FD8095982FE6
:1009F0000E94EE1469837A838B839C839B01AC01F4
:100A0000C301B2010E944F1487FF0CC089819A81F3
:100A1000AB81BC8180933C0290933D02A0933E0247
:100A2000B0933F02209102013091030140910401F3
:100A300050910501C701B6010E94A21520913C0208
:100A400030913D0240913E0250913F020E94EB13D3
:100A50002B013C0120912C0230912D0240912E025D
:100A600050912F02C701B6010E94EA1320916C0237
:100A700030916D0240916E0250916F020E94A2155A
:100A80009B01AC01C301B2010E94EB132B013C019D
:100A9000A50194010E949E151816ECF06627772791
:100AA000601B710B882777FD8095982F0E94EE14AC
:100AB0004B015C019B01AC01C301B2010E944F14C8
:100AC00087FD09C04092300250923102609232029A
:100AD0007092330208C08092300290923102A0924C
:100AE0003202B0923302C0922C02D0922D02E092D8
:100AF0002E02F0922F020F900F900F900F90DF9127
:100B0000CF911F910F91FF90EF90DF90CF90BF900A
:100B1000AF909F908F907F906F905F904F900895CF
:100B20002F923F924F925F926F927F928F929F92FD
:100B3000AF92BF92CF92DF92EF92FF920F931F93EB
:100B4000CF93DF93CDB7DEB72A970FB6F894DEBF09
:100B50000FBECDBF8DB79EB79A8789870E940D02C1
:100B600080912402909125029093DB018093DA0119
:100B700080912002909121029093DD018093DC010D
:100B800080912202909123029093DF018093DE01F5
:100B900080912602909127029093E1018093E001D9
:100BA000ADB7BEB794970FB6F894BEBF0FBEADBF3A
:100BB0000DB71EB70F5F1F4F84E2EEEBF1E0D801D7
:100BC00001900D928A95E1F763E570E08AE992E081
:100BD0000E948900E0919A02F0919B020280F381C9
:100BE000E02D44E250E0B8018AE992E0099565E41D
:100BF00070E08AE992E00E9489002AE939E949E136
:100C00005FE360915C0270915D0280915E02909161
:100C10005F020E94A2156B017C012DEC3CEC4CECB8
:100C20005EE36091CE017091CF018091D0019091EF
:100C3000D1010E94A2159B01AC01C701B6010E941F
:100C4000EB1360935C0270935D0280935E0290935D
:100C50005F022AE939E949E15FE360914802709156
:100C6000490280914A0290914B020E94A2156B01A9
:100C70007C012DEC3CEC4CEC5EE36091D201709178
:100C8000D3018091D4019091D5010E94A2159B01BE
:100C9000AC01C701B6010E94EB1360934802709348
:100CA000490280934A0290934B022AE939E949E1CB
:100CB0005FE3609134027091350280913602909129
:100CC00037020E94A2156B017C012DEC3CEC4CEC30
:100CD0005EE36091D6017091D7018091D801909127
:100CE000D9010E94A2159B01AC01C701B6010E9467
:100CF000EB13609334027093350280933602909325
:100D0000370280912402909125028A3194409CF40C
:100D100080912602909127028234944064F481E00D
:100D200090E09093EF018093EE0161E871E08AE931
:100D300092E00E947A0B8091EE019091EF01019771
:100D400009F04BC080912402909125028A31944091
:100D50000CF043C080912602909127028B3A954077
:100D6000E4F182E090E09093EF018093EE016BE874
:100D700071E08AE992E00E947A0B1092640210926C
:100D8000650210926602109267021092540210924D
:100D90005502109256021092570210925002109271
:100DA000510210925202109253021092400210927D
:100DB0004102109242021092430210923C021092A1
:100DC0003D0210923E0210923F0210922C021092AD
:100DD0002D0210922E0210922F028091EE0190911E
:100DE000EF010297C1F480912402909125028A318B
:100DF00094408CF48091260290912702893097408C
:100E000054F01092EF011092EE0165E971E08AE969
:100E100092E00E947A0B109260021092610210928E
:100E20006202109263026091200270912102653E7D
:100E3000B5E07B071CF0645E754006C0643D25E0AC
:100E40007207B4F4645D7540882777FD8095982F0C
:100E50000E94EE1420E030E040E450E40E9453147D
:100E600060936002709361028093620290936302C8
:100E700010924C0210924D0210924E0210924F02AC
:100E80006091220270912302653E85E078071CF094
:100E9000645E754006C0643D95E07907B4F4645D16
:100EA0007540882777FD8095982F0E94EE1420E0EA
:100EB00030E040E450E40E94531460934C0270937D
:100EC0004D0280934E0290934F021092380210927E
:100ED000390210923A0210923B0260912602709100
:100EE00027026B31A4E07A070CF1653EB5E07B0781
:100EF0001CF0645E754006C0643D25E07207B4F4E2
:100F0000645D7540882777FD8095982F0E94EE14C8
:100F100020E030E040E450E40E9453146093380233
:100F20007093390280933A0290933B020E94C80268
:100F300080912402909125029093ED018093EC0121
:100F40002091EE013091EF012230310509F0E0C02F
:100F50008937954034F088E795E09093ED018093D0
:100F6000EC016091EC017091ED01882777FD80958F
:100F7000982F0E94EE142B013C0180914402909125
:100F80004502A0914602B091470289839A83AB83C0
:100F9000BC839C01AD01C301B2010E94EA136D83C1
:100FA0007E838F8398878090580290905902A090FA
:100FB0005A02B0905B02C0903002D0903102E090B3
:100FC0003202F0903302A50194010E94EB13A701B5
:100FD00096010E94EA130E94BB148B017093F701E3
:100FE0006093F60129813A814B815C81C301B20192
:100FF0000E94EB132B013C01A50194010E94EB130D
:10100000A70196010E94EB130E94BB141B01709371
:10101000F5016093F401A5019401C301B2010E949E
:10102000EA13A70196010E94EA130E94BB143B0138
:101030007093F3016093F201A50194016D817E81AB
:101040008F8198850E94EA13A70196010E94EB13F5
:101050000E94BB149B017093F1016093F0010E3765
:10106000144034F48EE794E09093F7018093F601F6
:10107000AEE72A16A4E03A0634F48EE794E09093A3
:10108000F5018093F401BEE76B16B4E07B0634F4FF
:101090008EE794E09093F3018093F2012E37344071
:1010A00034F48EE794E09093F1018093F001809105
:1010B000F6019091F7018937954034F088E795E083
:1010C0009093F7018093F6018091F4019091F501DE
:1010D0008937954034F088E795E09093F501809347
:1010E000F4018091F2019091F3018937954034F039
:1010F00088E795E09093F3018093F2018091F001ED
:101100009091F10189379540ACF088E795E00EC0E9
:1011100088EE93E09093F7018093F6019093F501A8
:101120008093F4019093F3018093F2019093F10185
:101130008093F0010E94250A0091E8011091E901D5
:101140002091EA013091EB01601B710B820B930B34
:10115000603A7F408105910568F30E94250A6093FB
:10116000E8017093E9018093EA019093EB018BB160
:10117000806F8BB98091E8019091E901A091EA011B
:10118000B091EB014091F6015091F701662757FDB0
:101190006095762F480F591F6A1F7B1F40931C02D2
:1011A00050931D0260931E0270931F024091F40140
:1011B0005091F501662757FD6095762F480F591F0E
:1011C0006A1F7B1F409318025093190260931A0202
:1011D00070931B024091F2015091F301662757FD75
:1011E0006095762F480F591F6A1F7B1F409314028A
:1011F0005093150260931602709317024091F0010C
:101200005091F101662757FD6095762F480F591FC1
:101210006A1F7B1F409310025093110260931202C9
:10122000709313028BB1803108F45CC00E94250AD0
:1012300060930C0270930D0280930E0290930F0244
:1012400000911C0210911D0220911E0230911F027C
:10125000601771078207930708F05C9840911802A5
:101260005091190260911A0270911B0280910C0238
:1012700090910D02A0910E02B0910F028417950774
:10128000A607B70708F05D98409114025091150227
:10129000609116027091170280910C0290910D02DC
:1012A000A0910E02B0910F0284179507A607B70709
:1012B00008F05E9840911002509111026091120264
:1012C0007091130280910C0290910D02A0910E0278
:1012D000B0910F0284179507A607B70708F4A2CFAD
:1012E0005F98A0CF89859A850FB6F8949EBF0FBEF0
:1012F0008DBF2A960FB6F894DEBF0FBECDBFDF912B
:10130000CF911F910F91FF90EF90DF90CF90BF9002
:10131000AF909F908F907F906F905F904F903F9095
:101320002F90089582E892E00E94720E8091100141
:1013300090911101A0911201B091130180937E024E
:1013400090937F02A0938002B093810280910C0160
:1013500090910D01A0910E01B0910F0180937A023E
:1013600090937B02A0937C02B0937D028091080150
:1013700090910901A0910A01B0910B01809376022E
:1013800090937702A0937802B0937902809106013E
:1013900090910701909375028093740208951F92B3
:1013A0000F920FB60F9211242F933F938F939F9319
:1013B000AF93BF938091920290919302A091940277
:1013C000B09195023091910223E0230F2D3720F444
:1013D0000196A11DB11D05C026E8230F0296A11D8F
:1013E000B11D209391028093920290939302A09357
:1013F0009402B09395028091960290919702A091E9
:101400009802B09199020196A11DB11D8093960298
:1014100090939702A0939802B0939902BF91AF91D5
:101420009F918F913F912F910F900FBE0F901F9022
:1014300018952FB7F8946091920270919302809161
:101440009402909195022FBF08953FB7F894809130
:10145000960290919702A0919802B091990226B5B8
:10146000A89B05C02F3F19F00196A11DB11D3FBFDC
:101470006627782F892F9A2F620F711D811D911D6C
:1014800042E0660F771F881F991F4A95D1F708958C
:10149000CF92DF92EF92FF92CF93DF936B017C01AB
:1014A0000E94250AEB01C114D104E104F10479F092
:1014B0000E94250A6C1B7D0B683E7340A0F381E0FF
:1014C000C81AD108E108F108C851DC4FECCFDF9110
:1014D000CF91FF90EF90DF90CF9008950197009704
:1014E00039F0880F991F880F991F02970197F1F71C
:1014F0000895789484B5826084BD84B5816084BD8C
:1015000085B5826085BD85B5816085BDEEE6F0E07C
:10151000808181608083E1E8F0E0108280818260D8
:101520008083808181608083E0E8F0E08081816059
:101530008083E1EBF0E0808184608083E0EBF0E089
:10154000808181608083EAE7F0E08081846080832D
:1015500080818260808380818160808380818068D7
:1015600080831092C1000895833081F028F4813087
:1015700099F08230A1F008958630A9F08730B9F053
:101580008430D1F4809180008F7D03C080918000F1
:101590008F7780938000089584B58F7702C084B5DB
:1015A0008F7D84BD08958091B0008F7703C08091B6
:1015B000B0008F7D8093B00008950F931F93CF9359
:1015C000DF931F92CDB7DEB7282F30E0F901E8593D
:1015D000FF4F8491F901E458FF4F1491F901E0574E
:1015E000FF4F04910023C9F0882321F069830E94F2
:1015F000B40A6981E02FF0E0EE0FFF1FE255FF4FC4
:10160000A591B4919FB7F8948C91611103C0109586
:10161000812301C0812B8C939FBF0F90DF91CF91CD
:101620001F910F910895CF93DF93282F30E0F90198
:10163000E859FF4F8491F901E458FF4FD491F90123
:10164000E057FF4FC491CC2391F081110E94B40A5E
:10165000EC2FF0E0EE0FFF1FEC55FF4FA591B4917A
:101660002C912D2381E090E021F480E002C080E005
:1016700090E0DF91CF910895CF92DF92EF92FF92A9
:101680000F931F93CF93DF936C017A01EB01E60E6A
:10169000F71E00E010E0CE15DF0561F06991D6017C
:1016A000ED91FC910190F081E02DC6010995080FA4
:1016B000191FF1CFC801DF91CF911F910F91FF90BA
:1016C000EF90DF90CF9008956115710581F0DB01F7
:1016D0000D900020E9F7AD0141505109461B570B11
:1016E000DC01ED91FC910280F381E02D099480E012
:1016F00090E008950C94640BDC01ED91FC91019055
:10170000F081E02D09940F931F93CF93DF93EC01A9
:101710006DE00E947C0B8C016AE0CE010E947C0B84
:10172000800F911FDF91CF911F910F9108950F931B
:101730001F93CF93DF93EC010E94640B8C01CE01C9
:101740000E94830B800F911FDF91CF911F910F910A
:1017500008950E94790A0E949000C2E8DCE00E948D
:1017600090052097E1F30E94820CF9CFFC012485BB
:101770003585F901E05CFF4F8081918132962081AF
:101780003181821B930B8F7399270895FC01848507
:101790009585FC01E05CFF4F4081518132962081AC
:1017A00031814217530741F00190F081E02DE80F9D
:1017B000F91F808190E008958FEF9FEF0895FC015D
:1017C00084859585FC01E05CFF4F40815181329614
:1017D000208131814217530779F0A081B181A80F90
:1017E000B91F8C91208131812F5F3F4F2F73332799
:1017F0003183208390E008958FEF9FEF0895FC01DF
:1018000081A1882329F0A489B5898C9186FFFBCF1B
:1018100011A20895CF93DF93FC0126853785D90166
:10182000A05CBF4F8D919C91119701968F73992762
:10183000E901CE5BDF4F4881598184179507D9F3C1
:101840000D90BC91A02DA20FB31F6C93A685B785F8
:10185000A05CBF4F11969C938E93A689B7892C915B
:1018600081E090E0078C02C0880F991F0A94E2F78C
:10187000282B2C9381E081A30488F589E02D8081B9
:101880008064808381E090E0DF91CF910895089596
:101890001F920F920FB60F9211242F933F934F93E5
:1018A0008F939F93EF93FF938091C00082FD1CC0A4
:1018B0004091C600809140039091410301968F733F
:1018C000992720914203309143038217930771F0C7
:1018D000E0914003F0914103E050FD4F408390932D
:1018E00041038093400302C08091C600FF91EF91B5
:1018F0009F918F914F913F912F910F900FBE0F901D
:101900001F9018958AE992E00E94B60B892B11F07E
:101910000C94470C08951F920F920FB60F9211244A
:101920002F933F938F939F93EF93FF932091FC020C
:101930003091FD028091FE029091FF022817390735
:1019400031F48091C1008F7D8093C10014C0E0917B
:10195000FE02F091FF02E454FD4F20818091FE02CF
:101960009091FF0201968F7399279093FF028093C5
:10197000FE022093C600FF91EF919F918F913F91BE
:101980002F910F900FBE0F901F901895CF92DF925E
:10199000EF92FF92CF93DF93EC016A017B01411537
:1019A00081EE580761057105F9F0EC89FD8981E048
:1019B00090E008A002C0880F991F0A94E2F7808384
:1019C00060E079E08DE390E0A70196010E940516A2
:1019D0002150310941095109569547953795279569
:1019E000211580E1380798F0EC89FD89108260E8C4
:1019F00074E88EE190E0A70196010E94051621503F
:101A00003109410951095695479537952795E88938
:101A1000F9893083EA89FB89208319A2EE89FF893D
:101A2000408181E090E09C010C8C02C0220F331FAA
:101A30000A94E2F7422B4083EE89FF8940819C01A2
:101A40000D8C02C0220F331F0A94E2F7422B408311
:101A5000EE89FF8940819C010E8C02C0220F331F4A
:101A60000A94E2F7422B4083EE89FF8920810F8C94
:101A700002C0880F991F0A94E2F780958223808321
:101A8000DF91CF91FF90EF90DF90CF90089510926B
:101A90009D0210929C0288EE93E0A0E0B0E080935B
:101AA0009E0290939F02A093A002B093A10282EAAB
:101AB00091E090939B0280939A0280E093E0909350
:101AC000A7028093A6028CEB92E09093A9028093E8
:101AD000A80285EC90E09093AB028093AA0284EC7C
:101AE00090E09093AD028093AC0280EC90E09093F4
:101AF000AF028093AE0281EC90E09093B1028093AC
:101B0000B00282EC90E09093B3028093B20286EC34
:101B100090E09093B5028093B40284E08093B60283
:101B200083E08093B70287E08093B80285E08093DA
:101B3000B90281E08093BA0208958091740390E025
:101B400020917503821B910908952091750380915E
:101B50007403281750F4E22FF0E0EA58FC4F80811C
:101B600090E02F5F2093750308958FEF9FEF089506
:101B7000E091750380917403E81730F4F0E0EA58BF
:101B8000FC4F808190E008958FEF9FEF08950895B6
:101B9000CF92DF92EF92FF920F931F93CF93DF9339
:101BA0007C01CB018A0120915003222389F0EB01B3
:101BB0006B01C40ED51ECC15DD0569F06991D70106
:101BC000ED91FC910190F081E02DC7010995F3CFD3
:101BD000642F0E949112C801DF91CF911F910F9144
:101BE000FF90EF90DF90CF900895CF93DF931F92F7
:101BF000CDB7DEB76983209150032223D1F0209125
:101C00005103203240F021E030E0FC013383228395
:101C100080E090E015C080915203E82FF0E0ED5A8B
:101C2000FC4F998190838F5F80935203809351037F
:101C300005C061E0CE0101960E94911281E090E022
:101C40000F90DF91CF910895FC011382128248EE2C
:101C500053E060E070E0448355836683778382EBD2
:101C600091E091838083089510927503109274031C
:101C700010925203109251030C94DC11862F4132C2
:101C800008F040E266E773E00E94FA1110927503D3
:101C900080937403089521E00C943E0E81E08093BC
:101CA00050036093730310925203109251030895EE
:101CB0000F93062F21E04091510363E573E080917B
:101CC00073030E943E12109252031092510310921D
:101CD00050030F91089561E00C94580E84E493E052
:101CE0000C94240E28E6FC01208308950F93062F00
:101CF00022E044E06BE1FC0180810E9496110F918B
:101D000008950F93062F22E044E06CE1FC018081EE
:101D10000E9496110F9108950F931F93CF93DF9315
:101D2000EC0100911401109115019C012F5F3F4FB0
:101D300042E06BE388810E946F10898190E0982FC8
:101D400088272A81822BDF91CF911F910F910895CF
:101D50000F931F93CF93DF93EC0100911401109127
:101D600015019C012F5F3F4F42E06DE388810E9487
:101D70006F10898190E0982F88272A81822BDF912C
:101D8000CF911F910F9108950F931F93CF93DF93DE
:101D9000EC0100911401109115019C012F5F3F4F40
:101DA00042E06FE388810E946F10898190E0982F54
:101DB00088272A81822BDF91CF911F910F9108955F
:101DC0000F931F93CF93DF93EC01009114011091B7
:101DD00015019C012F5F3F4F42E063E488810E9420
:101DE0006F10898190E0982F88272A81822BDF91BC
:101DF000CF911F910F9108950F931F93CF93DF936E
:101E0000EC0100911401109115019C012F5F3F4FCF
:101E100042E065E488810E946F10898190E0982FEC
:101E200088272A81822BDF91CF911F910F910895EE
:101E30000F931F93CF93DF93EC0100911401109146
:101E400015019C012F5F3F4F42E067E488810E94AB
:101E50006F10898190E0982F88272A81822BDF914B
:101E6000CF911F910F910895262F46E06BE6FC015C
:101E700080810C9463110F93062F23E042E06BE600
:101E8000FC0180810E9496110F910895CF93DF93FA
:101E9000EC0161E00E943B0F60E0CE010E94760EF3
:101EA00060E0CE010E94810E60E0CE01DF91CF9113
:101EB0000C94340FEF92FF920F931F93CF93DF9305
:101EC000EC01E0901401F09015018C010F5F1F4FA1
:101ED00026E046E065E788810E9426118981DF912E
:101EE000CF911F910F91FF90EF9008950E945A0F8C
:101EF00091E0843309F090E0892F08950F931F93A8
:101F0000CF93DF93EC0100911401109115019C0116
:101F10002F5F3F4F42E066E088810E946F10898109
:101F200090E0982F88272A81822BDF91CF911F91F3
:101F30000F9108950F931F93CF93DF93EC010091BE
:101F40001401109115019C012F5F3F4F42E068E0A2
:101F500088810E946F10898190E0982F88272A81BC
:101F6000822BDF91CF911F910F9108950F931F93B3
:101F7000CF93DF93EC0100911401109115019C01A6
:101F80002F5F3F4F42E06AE088810E946F10898195
:101F900090E0982F88272A81822BDF91CF911F9183
:101FA0000F9108950F931F93CF93DF93EC0100914E
:101FB0001401109115019C012F5F3F4F42E063E136
:101FC00088810E946F10898190E0982F88272A814C
:101FD000822BDF91CF911F910F9108950F931F9343
:101FE000CF93DF93EC0100911401109115019C0136
:101FF0002F5F3F4F42E065E188810E946F10898129
:1020000090E0982F88272A81822BDF91CF911F9112
:102010000F9108950F931F93CF93DF93EC010091DD
:102020001401109115019C012F5F3F4F42E067E1C1
:1020300088810E946F10898190E0982F88272A81DB
:10204000822BDF91CF911F910F910895EF92FF9214
:102050000F931F93CF93DF9300D0CDB7DEB7062F3A
:10206000142F682F84E493E029833A830E944E0E54
:10207000602F84E493E00E94F50D2981022FE22E67
:102080003A81F32E8E2D801B811740F4F701619168
:102090007F0184E493E00E94F50DF4CF84E493E0A3
:1020A0000E946B0E91E0811190E0892F0F900F90AC
:1020B000DF91CF911F910F91FF90EF900895CF93F3
:1020C000DF931F92CDB7DEB749839E012F5F3F4F4D
:1020D00041E00E9426100F90DF91CF9108953F922A
:1020E0004F925F926F927F928F929F92AF92BF9228
:1020F000CF92DF92EF92FF920F931F93CF93DF93D4
:1021000000D000D000D0CDB7DEB7682E562E742E8A
:102110003A8329830E94190A6B017C01312C412CDE
:10212000872D90E09C838B834801A12CB12C371420
:10213000B0F5662D84E493E00E944E0E652D84E494
:1021400093E00E94F50D84E493E00E946B0E662DEF
:1021500084E493E00E944E0E4B815C814319510947
:102160004132510514F040E250E0662D84E493E0E2
:102170000E944B0E84E493E00E949D0D892B59F13F
:102180000115110579F10E94190A6C197D098E0952
:102190009F09681579058A059B0520F11CC001156A
:1021A000110589F10E94190A6C197D098E099F0990
:1021B00020E030E0601771078207930720F1872D38
:1021C00090E0242D332727FD309528173907DCF4BC
:1021D00044244A9418C0872D90E2971508F480E2B1
:1021E000380EA5CFE981FA81E40DF11D47FCFA957F
:1021F000FE83ED8384E493E00E94A50DED81FE81D2
:1022000080834394B7CF842D26960FB6F894DEBF13
:102210000FBECDBFDF91CF911F910F91FF90EF9037
:10222000DF90CF90BF90AF909F908F907F906F90F6
:102230005F904F903F9008950F931F9389019A01EB
:1022400041E00E946F101F910F910895CF92DF928D
:10225000EF92FF920F931F93CF93DF931F92CDB70F
:10226000DEB7C42ED22E9701AE014F5F5F4F0E94A2
:102270001C118823F1F04C2D50E04D1951094F5F8E
:102280005F4F61E070E002C0660F771FDA94E2F7FB
:1022900061507109042E01C0660F0A94EAF7298182
:1022A000262330E002C0359527954A95E2F7F801DC
:1022B00020830F90DF91CF911F910F91FF90EF90AE
:1022C000DF90CF900895EF92FF920F931F93CF93DB
:1022D000DF931F92CDB7DEB7182F062FF42EE22E14
:1022E0002091140130911501AE014F5F5F4F0E94A4
:1022F0001C11898121E030E00F2C01C0220F0A94CB
:10230000EAF7EE2019F0482F422B03C0422F4095E8
:1023100048234983602F812F0E945F100F90DF9127
:10232000CF911F910F91FF90EF900895DF92EF9260
:10233000FF920F931F93CF93DF931F92CDB7DEB71A
:10234000F82EE62ED42E122F209114013091150173
:10235000AE014F5F5F4F0E941C11882319F14D2D74
:1023600050E0411B51094F5F5F4FE1E0F0E002C0D8
:10237000EE0FFF1F1A95E2F73197042E01C0EE0F02
:102380000A94EAF701C0000F4A95EAF74E2F4095EC
:1023900089814823E0234E2B49836E2D8F2D0E9487
:1023A0005F1001C080E00F90DF91CF911F910F91DE
:1023B000FF90EF90DF9008951092030481E08093E6
:1023C00001041092000461E082E10E94DD0A61E0F4
:1023D00083E10E94DD0AE9EBF0E080818E7F80835B
:1023E00080818D7F808388E48093B80085E480932A
:1023F000BC000895413208F03FC090910304911150
:10240000FCCF91E090930304209301042FEF2093DD
:1024100096031092DB03240F2093DA0390930204B7
:1024200090910204880F892B80930204809100040C
:10243000813041F410920004809102048093BB002B
:1024400085EC01C085EE8093BC008091030481304F
:10245000E1F38091DB03841710F44091DB032CED52
:1024600033E0FB01D9018A2F821B841718F48D9168
:102470008193F9CF842F089580E008950F9341321E
:1024800008F046C0909103049111FCCF92E0909324
:102490000304009301049FEF909396031092DB03D3
:1024A0004093DA03FB016CED73E0DB019A2F961B7E
:1024B000941718F491919D93F9CF10920204909182
:1024C0000204880F892B80930204809100048130DC
:1024D00041F410920004809102048093BB0085ECCB
:1024E00001C085EE8093BC00222321F0809103047B
:1024F0008230E1F3809196038F3F61F080919603E3
:10250000803251F080919603803341F483E007C01C
:1025100081E005C080E003C082E001C084E00F914B
:102520000895613298F420910304243089F4609373
:10253000B803FC018AEB93E0DC012A2F281B261745
:1025400018F421912D93F9CF80E0089581E008954A
:1025500082E0089585ED8093BC008091BC0084FDED
:10256000FCCF10920304089585EC8093BC00109278
:10257000030408951F920F920FB60F9211242F9308
:102580003F934F935F936F937F938F939F93AF93FB
:10259000BF93EF93FF938091B900887F803609F451
:1025A0009CC068F5883209F45BC090F4803109F46E
:1025B00054C038F4882309F4F5C0883009F44DC0BC
:1025C000F5C0883109F44CC0803209F45DC0EEC01A
:1025D000803409F468C048F4803309F455C0883366
:1025E00009F0E4C080939603A8C0803509F44FC079
:1025F000883509F45DC0883409F0D8C0D5C0883961
:1026000009F4C6C0A8F4883709F467C038F48836DE
:1026100009F463C0803709F460C0C8C0883809F481
:10262000B7C0803909F45FC0803809F0BFC05BC013
:10263000803B09F485C038F4803A09F466C0883AD2
:1026400009F47EC0B3C0803C09F4A6C0883C09F4FC
:10265000A3C0883B09F489C0A9C08091020410C0BE
:102660009091DB038091DA03981770F5E091DB031A
:1026700081E08E0F8093DB03F0E0E452FC4F808119
:102680008093BB0085EC85C0809396038DC0E0915C
:10269000DB0381E08E0F8093DB038091BB00F0E0D1
:1026A000E452FC4F80839091DB038091DA036DC08C
:1026B000E091DB0381E08E0F8093DB038091BB0010
:1026C000F0E0E452FC4F80838091010481116CC0E2
:1026D00081E08093000484EA60C083E08093030477
:1026E00010929703CFCF80919703803208F050C0AB
:1026F000E091970381E08E0F809397038091BB0058
:10270000F0E0E856FC4F8083BDCF80919703803284
:1027100030F4E0919703F0E0E856FC4F10820E94FD
:10272000AA126091970370E0E091FC03F091FD0321
:1027300088E993E00995109297030E94B41236C07D
:1027400084E0809303041092B9031092B803E091DF
:10275000FE03F091FF0309958091B803811105C034
:1027600081E08093B8031092BA03E091B90381E04D
:102770008E0F8093B903F0E0E654FC4F8081809384
:10278000BB009091B9038091B803981708F47ACFF1
:1027900085E88093BC000AC085EC8093BC00109251
:1027A000030404C0109296030E94AA12FF91EF91B5
:1027B000BF91AF919F918F917F916F915F914F9159
:1027C0003F912F910F900FBE0F901F901895F89486
:1027D0000C942D165058BB27AA270ED075C166D170
:1027E00030F06BD120F031F49F3F11F41EF45BC147
:1027F0000EF4E095E7FB51C1E92F77D180F3BA17CA
:10280000620773078407950718F071F49EF58FC16E
:102810000EF4E0950B2EBA2FA02D0B01B9019001FB
:102820000C01CA01A0011124FF27591B99F0593F3F
:1028300050F4503E68F11A16F040A22F232F342F87
:102840004427585FF3CF469537952795A795F040D5
:102850005395C9F77EF41F16BA0B620B730B840BEA
:10286000BAF09150A1F0FF0FBB1F661F771F881FA2
:10287000C2F70EC0BA0F621F731F841F48F48795FA
:1028800077956795B795F7959E3F08F0B3CF9395E9
:10289000880F08F09927EE0F979587950895D9D05E
:1028A00008F481E008950CD00FC107D140F0FED0AC
:1028B00030F021F45F3F19F0F0C0511139C1F3C07D
:1028C00014D198F39923C9F35523B1F3951B550BF4
:1028D000BB27AA2762177307840738F09F5F5F4FF3
:1028E000220F331F441FAA1FA9F333D00E2E3AF034
:1028F000E0E830D091505040E695001CCAF729D04E
:10290000FE2F27D0660F771F881FBB1F261737079C
:102910004807AB07B0E809F0BB0B802DBF01FF27CC
:1029200093585F4F2AF09E3F510568F0B6C000C132
:102930005F3FECF3983EDCF3869577956795B79506
:10294000F7959F5FC9F7880F911D9695879597F921
:102950000895E1E0660F771F881FBB1F621773079A
:102960008407BA0720F0621B730B840BBA0BEE1FAF
:1029700088F7E095089504D06894B111D9C00895FE
:10298000BCD088F09F5790F0B92F9927B751A0F08D
:10299000D1F0660F771F881F991F1AF0BA95C9F7F3
:1029A00012C0B13081F0C3D0B1E00895C0C0672F2C
:1029B000782F8827B85F39F0B93FCCF386957795A3
:1029C0006795B395D9F73EF490958095709561958C
:1029D0007F4F8F4F9F4F0895E89409C097FB3EF4B7
:1029E00090958095709561957F4F8F4F9F4F99235C
:1029F000A9F0F92F96E9BB279395F69587957795DA
:102A00006795B795F111F8CFFAF4BB0F11F460FF99
:102A10001BC06F5F7F4F8F4F9F4F16C0882311F0F1
:102A200096E911C0772321F09EE8872F762F05C005
:102A3000662371F096E8862F70E060E02AF09A95A0
:102A4000660F771F881FDAF7880F9695879597F995
:102A50000895990F0008550FAA0BE0E8FEEF16162F
:102A60001706E807F907C0F012161306E407F50782
:102A700098F0621B730B840B950B39F40A2661F0F6
:102A8000232B242B252B21F408950A2609F4A14099
:102A9000A6958FEF811D811D089597F99F6780E8A6
:102AA00070E060E008959FEF80EC089500240A94A0
:102AB0001616170618060906089500240A94121619
:102AC0001306140605060895092E0394000C11F44C
:102AD000882352F0BB0F40F4BF2B11F460FF04C0F9
:102AE0006F5F7F4F8F4F9F4F089557FD9058440F52
:102AF000551F59F05F3F71F04795880F97FB991F5D
:102B000061F09F3F79F08795089512161306140619
:102B1000551FF2CF4695F1DF08C0161617061806A6
:102B2000991FF1CF86957105610508940895E89481
:102B3000BB2766277727CB0197F908958ADF08F42A
:102B40008FEF08950BD0C0CFB1DF28F0B6DF18F0BB
:102B5000952309F0A2CFA7CF1124EACFC6DFA0F3B7
:102B6000959FD1F3950F50E0551F629FF001729F22
:102B7000BB27F00DB11D639FAA27F00DB11DAA1F41
:102B8000649F6627B00DA11D661F829F2227B00D8E
:102B9000A11D621F739FB00DA11D621F839FA00D19
:102BA000611D221F749F3327A00D611D231F849F69
:102BB000600D211D822F762F6A2F11249F575040C0
:102BC0008AF0E1F088234AF0EE0FFF1FBB1F661F5B
:102BD000771F881F91505040A9F79E3F510570F014
:102BE0005CCFA6CF5F3FECF3983EDCF386957795FC
:102BF0006795B795F795E7959F5FC1F7FE2B880F0F
:102C0000911D9695879597F90895A1E21A2EAA1B12
:102C1000BB1BFD010DC0AA1FBB1FEE1FFF1FA2178C
:102C2000B307E407F50720F0A21BB30BE40BF50B89
:102C3000661F771F881F991F1A9469F76095709512
:102C4000809590959B01AC01BD01CF010895EE0FD9
:0E2C5000FF1F0590F491E02D0994F894FFCF3A
:102C5E0068010000803F68010000003F9A99993E8C
:102C6E006666A63FE803636F6E6E656374696F6E8A
:102C7E002065737461626C697368656400636F6E5E
:102C8E006E656374696F6E206661696C6564006958
:102C9E006E69740A0074657374696E6720494D55C8
:102CAE0020636F6D6D756E69636174696F6E007709
:102CBE00616974696E67206F6E2075736572206925
:102CCE006E7075740A00696E697420646F6E650AA1
:102CDE000020737461676520312000207374616772
:102CEE00652032200073746167652030200000007B
:102CFE0000000A0C3C0BB60BDF0BC60BFF0B0000E3
:0E2D0E000000F50DC80D9D0DA50DB80DC70DEB
:04000005008001EE88
:00000001FF
