:100000000C945F000C9487000C9487000C9497006C
:100010000C9487000C9487000C9487000C94870044
:100020000C9487000C9487000C9487000C94870034
:100030000C9487000C9487000C9487000C94870024
:100040000C94BC0A0C9487000C94930E0C94D60E5E
:100050000C9487000C9487000C9487000C94870004
:100060000C949D110C948700000000070002010011
:100070000003040600000000000000000102040864
:100080001020408001020408102001020408102002
:10009000040404040404040402020202020203032E
:1000A00003030303000000002300260029000000D2
:1000B0000000250028002B000E04920FB710112419
:1000C0001FBECFEFD8E0DEBFCDBF11E0A0E0B1E0B2
:1000D000ECE7FAE202C005900D92A03CB107D9F717
:1000E00024E0A0ECB1E001C01D92A631B207E1F717
:1000F00010E0CEEBD0E004C02297FE010E9438153C
:10010000C83BD107C9F70E94F40D0C94CA120C9495
:100110000000DC01ED91FC910190F081E02D09944B
:10012000DC01ED91FC910190F081E02D09941F928A
:100130000F920FB60F9211242F933F934F935F931B
:100140006F937F938F939F93AF93BF93EF93FF939F
:100150000E94060B609311027093120280931302A7
:100160009093140220914402189B0EC021111BC0D1
:1001700021E0209344026093210270932202809335
:100180002302909324020FC0213069F4109244029C
:100190002091210230912202AB01421B530B50935C
:1001A000400240933F0220914302199B0EC021114F
:1001B0001BC021E02093430260931D0270931E0236
:1001C00080931F02909320020FC0213069F4109297
:1001D000430220911D0230911E02AB01421B530BC2
:1001E00050933E0240933D02209142021A9B0EC062
:1001F00021111BC021E020934202609319027093E9
:100200001A0280931B0290931C020FC0213069F4E4
:10021000109242022091190230911A02AB01421B46
:10022000530B50933C0240933B02209141021B9B95
:100230000EC021111AC021E02093410260931502E3
:100240007093160280931702909318020EC021300B
:1002500061F4109241022091150230911602621B46
:10026000730B70933A0260933902FF91EF91BF9143
:10027000AF919F918F917F916F915F914F913F913E
:100280002F910F900FBE0F901F9018954F925F9275
:100290006F927F928F929F92AF92BF92CF92DF9296
:1002A000EF92FF920F931F93CF93DF9300D000D074
:1002B000CDB7DEB72091790230917A0240917B026E
:1002C00050917C0260917502709176028091770264
:1002D000909178020E94CD126B017C0120919F02C7
:1002E0003091A0024091A1025091A2020E94851477
:1002F00020917D0230917E0240917F0250918002D8
:100300000E94CE122B013C0160937D0270937E020D
:1003100080937F0290938002009106011091070163
:10032000B801882777FD8095982F0E94D1134B0143
:100330005C019B01AC01C301B2010E94811418163B
:100340004CF480927D0290927E02A0927F02B09245
:10035000800222C066277727601B710B882777FDF4
:100360008095982F0E94D11369837A838B839C8315
:100370009B01AC01C301B2010E94321387FF0CC084
:1003800089819A81AB81BC8180937D0290937E02AA
:10039000A0937F02B093800220910801309109015F
:1003A00040910A0150910B01C701B6010E948514CA
:1003B00020917D0230917E0240917F025091800217
:1003C0000E94CE122B013C0120916D0230916E02F1
:1003D00040916F0250917002C701B6010E94CD1288
:1003E00020919B0230919C0240919D0250919E026F
:1003F0000E9485149B01AC01C301B2010E94CE1280
:100400002B013C0177FA709477F87094A501940160
:10041000C301B2010E9481141816ECF066277727F9
:10042000601B710B882777FD8095982F0E94D11350
:100430004B015C019B01AC01C301B2010E9432136C
:1004400087FD09C04092710250927202609273025D
:100450007092740208C08092710290927202A0920F
:100460007302B0927402C0926D02D0926E02E0925A
:100470006F02F09270022091650230916602409105
:1004800067025091680260916102709162028091EE
:100490006302909164020E94CD126B017C01209155
:1004A00093023091940240919502509196020E94DD
:1004B00085142091690230916A0240916B0250913B
:1004C0006C020E94CE122B013C0160936902709372
:1004D0006A0280936B0290936C0200918D021091DE
:1004E0008E02B801882777FD8095982F0E94D1133E
:1004F0004B015C019B01AC01C301B2010E9481145C
:1005000018164CF48092690290926A02A0926B02D3
:10051000B0926C0222C066277727601B710B882778
:1005200077FD8095982F0E94D11369837A838B83FE
:100530009C839B01AC01C301B2010E94321387FF6F
:100540000CC089819A81AB81BC81809369029093B0
:100550006A02A0936B02B0936C02209197023091D3
:1005600098024091990250919A02C701B6010E94E7
:1005700085142091690230916A0240916B0250917A
:100580006C020E94CE122B013C0120915902309145
:100590005A0240915B0250915C02C701B6010E9471
:1005A000CD1220918F023091900240919102509192
:1005B00092020E9485149B01AC01C301B2010E940A
:1005C000CE122B013C01A50194010E948114181642
:1005D000ECF066277727601B710B882777FD8095E5
:1005E000982F0E94D1134B015C019B01AC01C30108
:1005F000B2010E94321387FD09C040925D02509201
:100600005E0260925F027092600208C080925D029A
:1006100090925E02A0925F02B0926002C092590274
:10062000D0925A02E0925B02F0925C022091510259
:1006300030915202409153025091540260914D0208
:1006400070914E0280914F02909150020E94CD1203
:100650006B017C016093810270938202809383021C
:10066000909384022091890230918A0240918B02FA
:1006700050918C020E9485142091550230915602AF
:1006800040915702509158020E94CE122B013C011A
:1006900060935502709356028093570290935802CC
:1006A0000091000110910101B801882777FD809524
:1006B000982F0E94D1134B015C019B01AC01C30137
:1006C000B2010E94811418164CF480925502909247
:1006D0005602A0925702B092580222C0662777278E
:1006E000601B710B882777FD8095982F0E94D1138E
:1006F00069837A838B839C839B01AC01C301B20124
:100700000E94321387FF0CC089819A81AB81BC8122
:100710008093550290935602A0935702B0935802CB
:100720002091020130910301409104015091050193
:10073000C701B6010E9485142091550230915602DE
:1007400040915702509158020E94CE122B013C0159
:100750002091450230914602409147025091480253
:10076000C701B6010E94CD12209185023091860208
:1007700040918702509188020E9485149B01AC0130
:10078000C301B2010E94CE122B013C01A5019401CC
:100790000E9481141816ECF066277727601B710BF6
:1007A000882777FD8095982F0E94D1134B015C011B
:1007B0009B01AC01C301B2010E94321387FD09C045
:1007C0004092490250924A0260924B0270924C024F
:1007D00008C08092490290924A02A0924B02B092C5
:1007E0004C02C0924502D0924602E0924702F0923B
:1007F00048020F900F900F900F90DF91CF911F91B3
:100800000F91FF90EF90DF90CF90BF90AF909F90AF
:100810008F907F906F905F904F9008958091080126
:1008200090910901A0910A01B0910B018093970268
:1008300090939802A0939902B0939A0280919F029C
:100840009091A002A091A102B091A2028093930284
:1008500090939402A0939502B093960280919B028C
:1008600090919C02A0919D02B0919E0280938F0274
:1008700090939002A0939102B0939202809106010E
:100880009091070190938E0280938D0280EC91E00D
:100890000C94BB10CF92DF92EF92FF9268E670E06B
:1008A00086E593E00E94A2106BE370E086E593E09A
:1008B0000E94900060E086E593E00E94A41021E091
:1008C00030E04EE050E068E670E086E593E00E949C
:1008D000961086E593E00E94F00FF82E86E593E0EF
:1008E0000E94F00F60E070E07F2D862B972BBC01FB
:1008F000882777FD8095982F0E94D1136093CF01B0
:100900007093D0018093D1019093D20186E593E05A
:100910000E94F00FF82E86E593E00E94F00F60E051
:1009200070E07F2D862B972BBC01882777FD809563
:10093000982F0E94D1136093D3017093D4018093B8
:10094000D5019093D60186E593E00E94F00FF82E32
:1009500086E593E00E94F00F60E070E07F2D862B2B
:10096000972BBC01882777FD8095982F0E94D11383
:100970006093D7017093D8018093D9019093DA01E5
:1009800086E593E00E94F00FF82E86E593E00E9442
:10099000F00F60E070E07F2D862B972BBC0188273D
:1009A00077FD8095982F0E94D1136093DB0170939F
:1009B000DC018093DD019093DE0186E593E00E94E7
:1009C000F00FF82E86E593E00E94F00F60E070E0F3
:1009D0007F2D862B972BBC01882777FD8095982F3C
:1009E0000E94D1136093DF017093E0018093E101D5
:1009F0009093E20186E593E00E94F00FF82E86E5E1
:100A000093E00E94F00F60E070E07F2D862B972B23
:100A1000BC01882777FD8095982F0E94D1136093A1
:100A2000E3017093E4018093E5019093E60186E58C
:100A300093E00E94F00FF82E86E593E00E94F00FFD
:100A400060E070E07F2D862B972BBC01882777FD17
:100A50008095982F0E94D1136B017C016093E70170
:100A60007093E8018093E9019093EA018091070275
:100A700090910802883E934009F048C02091FB0104
:100A80003091FC014091FD015091FE016091DF0128
:100A90007091E0018091E1019091E2010E94CD12FC
:100AA0006093DF017093E0018093E1019093E20194
:100AB0002091F7013091F8014091F9015091FA012C
:100AC0006091E3017091E4018091E5019091E6016C
:100AD0000E94CD126093E3017093E4018093E501DD
:100AE0009093E6012091F3013091F4014091F501DA
:100AF0005091F601C701B6010E94CD126093E70143
:100B00007093E8018093E9019093EA01FF90EF90E0
:100B1000DF90CF900895CF93DF9340E052EC61E0F7
:100B200070E08CEA92E00E94110F6CE071E08CEAB8
:100B300092E00E945B0C86E593E00E947F108AB1F0
:100B4000806F8AB9249A61E08CE00E94BE0B6AEF44
:100B500070E080E090E00E94290B86E593E00E941F
:100B60007F1068E670E086E593E00E94A2106BE6D5
:100B700070E086E593E00E94900060E070E086E51A
:100B800093E00E94900061E086E593E00E94A4104B
:100B90006AEF70E080E090E00E94290B62E171E072
:100BA0008CEA92E00E945B0C1092080210920702FD
:100BB000CFE0D0E08091070290910802883E23E0C8
:100BC00092070CF079C0BE010E94EC14892B51F4FD
:100BD0008CE00E94F40B61E0892B09F060E08CE06E
:100BE0000E94BE0B0E944A042091DF013091E00177
:100BF0004091E1015091E2016091FB017091FC0193
:100C00008091FD019091FE010E94CE126093FB0144
:100C10007093FC018093FD019093FE012091E3010C
:100C20003091E4014091E5015091E6016091F701B6
:100C30007091F8018091F9019091FA010E94CE1211
:100C40006093F7017093F8018093F9019093FA0192
:100C50002091E7013091E8014091E9015091EA01CA
:100C60006091F3017091F4018091F5019091F6018A
:100C70000E94CE126093F3017093F4018093F5010A
:100C80009093F6018BB1806F8BB988EE93E00E9450
:100C90004F0B8BB18F708BB963E070E080E090E018
:100CA0000E94290B8091070290910802019690936F
:100CB0000802809307027ECF20E030E04AE754E448
:100CC0006091FB017091FC018091FD019091FE010A
:100CD0000E9436136093FB017093FC018093FD0129
:100CE0009093FE0120E030E04AE754E46091F70180
:100CF0007091F8018091F9019091FA010E943613E8
:100D00006093F7017093F8018093F9019093FA01D1
:100D100020E030E04AE754E46091F3017091F4017F
:100D20008091F5019091F6010E9436136093F301D2
:100D30007093F4018093F5019093F6016DE271E0F8
:100D40008CEA92E00E945B0C4091FB015091FC0107
:100D50006091FD017091FE0122E030E08CEA92E0AA
:100D60000E94F20D6BE371E08CEA92E00E945B0C52
:100D70008091680081608093680080916B00816041
:100D800080936B0080916B00826080936B008091F8
:100D90006B00846080936B0080916B00886080930F
:100DA0006B0062E571E08CEA92E00E945B0C80913E
:100DB0003D0290913E02845893408D38910578F120
:100DC000809105029091060201969093060280930D
:100DD00005028BB1806F8BB988EE93E00E944F0BB8
:100DE0008BB18F708BB963E070E080E090E00E947F
:100DF000290B80910502909106028D379105B9F675
:100E00008CE00E94F40B61E0892B09F060E08CE03B
:100E10000E94BE0B1092060210920502C8CF80916C
:100E20003F02909140028837954054F2109206029A
:100E30001092050260E08CE00E94BE0B69E671E052
:100E40008CEA92E0DF91CF910C945B0C2F923F9251
:100E50004F925F926F927F928F929F92AF92BF92CA
:100E6000CF92DF92EF92FF920F931F93CF93DF9376
:100E7000CDB7DEB72A970FB6F894DEBF0FBECDBF51
:100E80008DB79EB79A8789870E944A0480913D0258
:100E900090913E029093EC018093EB018091390296
:100EA00090913A029093EE018093ED0180913B0284
:100EB00090913C029093F0018093EF0180913F026A
:100EC000909140029093F2018093F101ADB7BEB7CB
:100ED00094970FB6F894BEBF0FBEADBF0DB71EB747
:100EE0000F5F1F4F84E2EFECF1E0D80101900D920B
:100EF0008A95E1F763E570E08CEA92E00E94890050
:100F0000E091AC02F091AD020280F381E02D44E269
:100F100050E0B8018CEA92E0099565E470E08CEA53
:100F200092E00E948900109275021092760210924F
:100F3000770210927802109261021092620210926F
:100F400063021092640210924D0210924E021092AF
:100F50004F021092500280913D0290913E028A31E0
:100F600094409CF480913F029091400282349440DE
:100F700064F481E090E0909306028093050264E7B8
:100F800071E08CEA92E00E945B0C809105029091E6
:100F90000602019709F04BC080913D0290913E02FC
:100FA0008A3194400CF043C080913F0290914002FE
:100FB0008B3A9540E4F182E090E0909306028093B2
:100FC00005026EE771E08CEA92E00E945B0C1092E1
:100FD0007D0210927E0210927F0210928002109287
:100FE0006D0210926E0210926F02109270021092B7
:100FF000690210926A0210926B0210926C021092B7
:10100000590210925A0210925B0210925C021092E6
:1010100055021092560210925702109258021092E6
:1010200045021092460210924702109248028091A7
:101030000502909106020297C1F480913D029091C1
:101040003E028A3194408CF480913F02909140029C
:101050008930974054F0109206021092050268E819
:1010600071E08CEA92E00E945B0C1092790210927F
:101070007A0210927B0210927C0260913902709188
:101080003A02653EB5E07B071CF0645E754006C021
:10109000643D25E07207B4F4645D7540882777FDF0
:1010A0008095982F0E94D11320E030E040E450E476
:1010B0000E9436136093790270937A0280937B02C8
:1010C00090937C0210926502109266021092670261
:1010D0001092680260913B0270913C02653E85E08F
:1010E00078071CF0645E754006C0643D95E07907A2
:1010F000B4F4645D7540882777FD8095982F0E9431
:10110000D11320E030E040E450E40E9436136093B5
:101110006502709366028093670290936802109252
:101120005102109252021092530210925402609196
:101130003F02709140026B31A4E07A070CF1653EEA
:10114000B5E07B071CF0645E754006C0643D25E099
:101150007207B4F4645D7540882777FD8095982FF9
:101160000E94D11320E030E040E450E40E943613A6
:1011700060935102709352028093530290935402F1
:101180000E94460180913D0290913E02909304029C
:10119000809303022091050230910602223031052E
:1011A00009F0E0C08937954034F088E795E09093E6
:1011B0000402809303026091030270910402882765
:1011C00077FD8095982F0E94D1132B013C018091CF
:1011D0005D0290915E02A0915F02B09160028983EE
:1011E0009A83AB83BC839C01AD01C301B2010E9411
:1011F000CD126D837E838F8398878090710290904B
:101200007202A0907302B0907402C0904902D09014
:101210004A02E0904B02F0904C02A50194010E941A
:10122000CE12A70196010E94CD120E949E138B013F
:101230007093100260930F0229813A814B815C8187
:10124000C301B2010E94CE122B013C01A501940101
:101250000E94CE12A70196010E94CE120E949E13F8
:101260001B0170930E0260930D02A5019401C3014E
:10127000B2010E94CD12A70196010E94CD120E94D8
:101280009E133B0170930C0260930B02A501940125
:101290006D817E818F8198850E94CD12A701960174
:1012A0000E94CE120E949E139B0170930A026093CB
:1012B00009020E37144034F48EE794E09093100244
:1012C00080930F02AEE72A16A4E03A0634F48EE7C4
:1012D00094E090930E0280930D02BEE76B16B4E08B
:1012E0007B0634F48EE794E090930C0280930B021B
:1012F0002E37344034F48EE794E090930A028093C2
:10130000090280910F02909110028937954034F0C4
:1013100088E795E09093100280930F0280910D0270
:1013200090910E028937954034F088E795E09093CC
:101330000E0280930D0280910B0290910C0289376E
:10134000954034F088E795E090930C0280930B026F
:101350008091090290910A0289379540ACF088E7A4
:1013600095E00EC088EE93E09093100280930F02F8
:1013700090930E0280930D0290930C0280930B02C7
:1013800090930A02809309020E94060B0091FF01CC
:10139000109100022091010230910202601B710B3A
:1013A000820B930B603A7F408105910568F30E94A0
:1013B000060B6093FF0170930002809301029093EB
:1013C00002028BB1806F8BB98091FF019091000276
:1013D000A0910102B091020240910F0250911002BF
:1013E000662757FD6095762F480F591F6A1F7B1F90
:1013F000409335025093360260933702709338025F
:1014000040910D0250910E02662757FD6095762F90
:10141000480F591F6A1F7B1F4093310250933202BD
:10142000609333027093340240910B0250910C028E
:10143000662757FD6095762F480F591F6A1F7B1F3F
:1014400040932D0250932E0260932F02709330022E
:101450004091090250910A02662757FD6095762F48
:10146000480F591F6A1F7B1F4093290250932A027D
:1014700060932B0270932C028BB1803108F45CC016
:101480000E94060B60932502709326028093270228
:101490009093280200913502109136022091370274
:1014A00030913802601771078207930708F05C9843
:1014B00040913102509132026091330270913402B6
:1014C0008091250290912602A0912702B0912802D6
:1014D00084179507A607B70708F05D9840912D027D
:1014E00050912E0260912F0270913002809125025E
:1014F00090912602A0912702B091280284179507A7
:10150000A607B70708F05E984091290250912A0279
:1015100060912B0270912C028091250290912602FD
:10152000A0912702B091280284179507A607B70754
:1015300008F4A2CF5F98A0CF89859A850FB6F8945A
:101540009EBF0FBE8DBF2A960FB6F894DEBF0FBEAA
:10155000CDBFDF91CF911F910F91FF90EF90DF9062
:10156000CF90BF90AF909F908F907F906F905F9043
:101570004F903F902F9008951F920F920FB60F92A9
:1015800011242F933F938F939F93AF93BF93809199
:10159000A4029091A502A091A602B091A702309159
:1015A000A30223E0230F2D3720F40196A11DB11DC6
:1015B00005C026E8230F0296A11DB11D2093A302AA
:1015C0008093A4029093A502A093A602B093A702D1
:1015D0008091A8029091A902A091AA02B091AB02B9
:1015E0000196A11DB11D8093A8029093A902A0931A
:1015F000AA02B093AB02BF91AF919F918F913F919F
:101600002F910F900FBE0F901F9018953FB7F89431
:101610008091A8029091A902A091AA02B091AB0278
:1016200026B5A89B05C02F3F19F00196A11DB11D3D
:101630003FBF6627782F892F9A2F620F711D811D5A
:10164000911D42E0660F771F881F991F4A95D1F7B9
:101650000895CF92DF92EF92FF92CF93DF936B01C9
:101660007C010E94060BEB01C114D104E104F104DA
:1016700079F00E94060B6C1B7D0B683E7340A0F353
:1016800081E0C81AD108E108F108C851DC4FECCF5D
:10169000DF91CF91FF90EF90DF90CF900895019769
:1016A000009739F0880F991F880F991F02970197AB
:1016B000F1F70895789484B5826084BD84B5816023
:1016C00084BD85B5826085BD85B5816085BDEEE64A
:1016D000F0E0808181608083E1E8F0E01082808129
:1016E00082608083808181608083E0E8F0E0808197
:1016F00081608083E1EBF0E0808184608083E0EBB7
:10170000F0E0808181608083EAE7F0E0808184609E
:1017100080838081826080838081816080838081FA
:10172000806880831092C1000895833081F028F48E
:10173000813099F08230A1F008958630A9F0873089
:10174000B9F08430D1F4809180008F7D03C0809106
:1017500080008F7780938000089584B58F7702C0D2
:1017600084B58F7D84BD08958091B0008F7703C0CC
:101770008091B0008F7D8093B00008950F931F93E8
:10178000CF93DF931F92CDB7DEB7282F30E0F9015A
:10179000E859FF4F8491F901E458FF4F1491F90182
:1017A000E057FF4F04910023C9F0882321F069839B
:1017B0000E94950B6981E02FF0E0EE0FFF1FE255CC
:1017C000FF4FA591B4919FB7F8948C91611103C01C
:1017D0001095812301C0812B8C939FBF0F90DF91C7
:1017E000CF911F910F910895CF93DF93282F30E071
:1017F000F901E859FF4F8491F901E458FF4FD49162
:10180000F901E057FF4FC491CC2391F081110E9460
:10181000950BEC2FF0E0EE0FFF1FEC55FF4FA5915D
:10182000B4912C912D2381E090E021F480E002C05E
:1018300080E090E0DF91CF910895CF92DF92EF9218
:10184000FF920F931F93CF93DF936C017A01EB010B
:10185000E60EF71E00E010E0CE15DF0561F069919D
:10186000D601ED91FC910190F081E02DC601099522
:10187000080F191FF1CFC801DF91CF911F910F9170
:10188000FF90EF90DF90CF9008956115710581F082
:10189000DB010D900020E9F7AD0141505109461BD5
:1018A000570BDC01ED91FC910280F381E02D09944E
:1018B00080E090E008950C94450CDC01ED91FC91E2
:1018C0000190F081E02D09948F929F92AF92BF9288
:1018D000CF92DF92EF92FF920F931F93CF93DF93FC
:1018E000CDB7DEB7A1970FB6F894DEBF0FBECDBF60
:1018F0007C01C42EE52FCB01D22E19A221E02D159B
:1019000010F02AE0D22E8E010F5D1F4F8D2C912CEE
:10191000A12CB12C6C2D7E2FA50194010E940015E5
:101920008C2DD29E80191124015011098A3014F493
:10193000805D01C0895CF801808321153105410576
:10194000510521F0C22EE32FCA01E4CFB801C7012F
:101950000E94450CA1960FB6F894DEBF0FBECDBF16
:10196000DF91CF911F910F91FF90EF90DF90CF907B
:10197000BF90AF909F908F900895CF92DF92EF929B
:10198000FF920F931F93CF93DF93EC016A017B01CA
:101990002115310579F4E881F9810190F081E02D7C
:1019A000642FDF91CF911F910F91FF90EF90DF9007
:1019B000CF9009942A303105E9F477FF1AC06DE21F
:1019C0000E945D0C8C0144275527BA014C195D0912
:1019D0006E097F092AE0CE010E94640C800F911FDE
:1019E000DF91CF911F910F91FF90EF90DF90CF90FB
:1019F00008952AE0B701A601CE01DF91CF911F9192
:101A00000F91FF90EF90DF90CF900C94640C4F9269
:101A10005F926F927F928F929F92AF92BF92CF927E
:101A2000DF92EF92FF920F931F93CF93DF93EC011E
:101A30006A017B01B22E9A01AB01C701B6010E9477
:101A4000E814882319F061E971E027C02601370105
:101A5000E89477F82FEF3FEF4FE75FE7C301B2015C
:101A60000E94E81481110DC02FEF3FEF4FE75FE7B1
:101A7000C301B2010E94321318161CF465E971E02B
:101A80000CC02FEF3FEF4FE75FE4C701B6010E94A4
:101A900081141816ACF469E971E0CE01DF91CF91A1
:101AA0001F910F91FF90EF90DF90CF90BF90AF907C
:101AB0009F908F907F906F905F904F900C94450C0B
:101AC0002FEF3FEF4FE75FECC701B6010E943213E3
:101AD00087FDE1CF20E030E0A901C701B6010E94F7
:101AE000321387FF0AC06DE2CE010E945D0C8C01AB
:101AF000F7FAF094F7F8F09402C000E010E0A12C9F
:101B000060E070E080E09FE3AB1441F020E030E063
:101B100040E251E40E943613A394F6CF9B01AC013E
:101B2000C701B6010E94CE126B017C010E94A31373
:101B30002B013C010E94CF139B01AC01C701B601F0
:101B40000E94CD126B017C012AE0B301A201CE01FB
:101B50000E94640C080F191FBB2039F06DE971E079
:101B6000CE010E94450C080F191F7B2C772041F1F4
:101B700020E030E040E251E4C701B6010E94851444
:101B80006B017C010E949E134B01AA2497FCA09438
:101B9000BA2C2AE030E0B501A401CE010E94BD0CB0
:101BA000080F191FC501B4010E94D1139B01AC019C
:101BB000C701B6010E94CD126B017C017A94D6CF89
:101BC000C801DF91CF911F910F91FF90EF90DF90AF
:101BD000CF90BF90AF909F908F907F906F905F90CD
:101BE0004F9008950C94070D0E945A0B0E948B058C
:101BF000CDECDEE00E9426072097E1F30E94CD0E97
:101C0000F9CFFC0124853585F901E05CFF4F808127
:101C10009181329620813181821B930B8F7399279A
:101C20000895FC0184859585FC01E05CFF4F4081AF
:101C300051813296208131814217530741F0019042
:101C4000F081E02DE80FF91F808190E008958FEF7B
:101C50009FEF0895FC0184859585FC01E05CFF4FB2
:101C6000408151813296208131814217530779F0AA
:101C7000A081B181A80FB91F8C91208131812F5F84
:101C80003F4F2F7333273183208390E008958FEFE8
:101C90009FEF0895FC0181A1882329F0A489B589CB
:101CA0008C9186FFFBCF11A20895CF93DF93FC01A7
:101CB00026853785D901A05CBF4F8D919C911197E6
:101CC00001968F739927E901CE5BDF4F48815981D7
:101CD00084179507D9F30D90BC91A02DA20FB31FC7
:101CE0006C93A685B785A05CBF4F11969C938E938D
:101CF000A689B7892C9181E090E0078C02C0880FFB
:101D0000991F0A94E2F7282B2C9381E081A3048881
:101D1000F589E02D80818064808381E090E0DF910F
:101D2000CF91089508951F920F920FB60F9211242C
:101D30002F933F934F938F939F93EF93FF938091B4
:101D4000C00082FD1CC04091C6008091520390915A
:101D5000530301968F7399272091540330915503B3
:101D60008217930771F0E0915203F0915303EE5EF6
:101D7000FC4F4083909353038093520302C08091A1
:101D8000C600FF91EF919F918F914F913F912F91BD
:101D90000F900FBE0F901F9018958CEA92E00E9452
:101DA000010E892B11F00C94920E08951F920F9240
:101DB0000FB60F9211242F933F938F939F93EF931E
:101DC000FF9320910E0330910F03809110039091A7
:101DD00011032817390731F48091C1008F7D80935A
:101DE000C10014C0E0911003F0911103E253FD4FC4
:101DF0002081809110039091110301968F73992790
:101E000090931103809310032093C600FF91EF91EC
:101E10009F918F913F912F910F900FBE0F901F9028
:101E20001895CF92DF92EF92FF92CF93DF93EC0160
:101E30006A017B01411581EE580761057105F9F0D2
:101E4000EC89FD8981E090E008A002C0880F991F0D
:101E50000A94E2F7808360E079E08DE390E0A701E7
:101E600096010E94001521503109410951095695EA
:101E7000479537952795211580E1380798F0EC892B
:101E8000FD89108260E874E88EE190E0A701960178
:101E90000E94001521503109410951095695479575
:101EA00037952795E889F9893083EA89FB8920836A
:101EB00019A2EE89FF89408181E090E09C010C8CA1
:101EC00002C0220F331F0A94E2F7422B4083EE89AF
:101ED000FF8940819C010D8C02C0220F331F0A94A0
:101EE000E2F7422B4083EE89FF8940819C010E8CF2
:101EF00002C0220F331F0A94E2F7422B4083EE897F
:101F0000FF8920810F8C02C0880F991F0A94E2F785
:101F1000809582238083DF91CF91FF90EF90DF90B7
:101F2000CF9008951092AF021092AE0288EE93E027
:101F3000A0E0B0E08093B0029093B102A093B2020F
:101F4000B093B30283EA91E09093AD028093AC0228
:101F500082E193E09093B9028093B8028EEC92E014
:101F60009093BB028093BA0285EC90E09093BD02FF
:101F70008093BC0284EC90E09093BF028093BE02F9
:101F800080EC90E09093C1028093C00281EC90E0DD
:101F90009093C3028093C20282EC90E09093C502BA
:101FA0008093C40286EC90E09093C7028093C602AF
:101FB00084E08093C80283E08093C90287E0809325
:101FC000CA0285E08093CB0281E08093CC02089521
:101FD0008091860390E020918703821B91090895E8
:101FE0002091870380918603281750F4E22FF0E0B8
:101FF000E857FC4F808190E02F5F2093870308957E
:102000008FEF9FEF0895E091870380918603E81793
:1020100030F4F0E0E857FC4F808190E008958FEFB6
:102020009FEF08950895CF92DF92EF92FF920F9362
:102030001F93CF93DF937C01CB018A012091620330
:10204000222389F0EB016B01C40ED51ECC15DD05F2
:1020500069F06991D701ED91FC910190F081E02D3B
:10206000C7010995F3CF642F0E947411C801DF9155
:10207000CF911F910F91FF90EF90DF90CF90089537
:10208000CF93DF931F92CDB7DEB7698320916203B0
:102090002223D1F020916303203240F021E030E090
:1020A000FC013383228380E090E015C080916403BB
:1020B000E82FF0E0EB59FC4F998190838F5F80937C
:1020C00064038093630305C061E0CE0101960E9422
:1020D000741181E090E00F90DF91CF910895FC01A1
:1020E0001382128248EE53E060E070E0448355832F
:1020F0006683778383EB91E09183808308951092C8
:1021000087031092860310926403109263030C9469
:10211000BF10862F413208F040E268E873E00E9469
:10212000DD10109287038093860308950C94891024
:1021300081E08093620360938503109264031092A0
:10214000630308950C9498100F93062F21E040919B
:10215000630365E673E0809185030E94211110926C
:10216000640310926303109262030F91089586E551
:1021700093E00C946F1028E6FC01208308951092E0
:10218000150481E0809313041092120461E082E14F
:102190000E94BE0B61E083E10E94BE0BE9EBF0E020
:1021A00080818E7F808380818D7F808388E480938F
:1021B000B80085E48093BC000895413208F03FC028
:1021C000909115049111FCCF91E090931504209308
:1021D00013042FEF2093A8031092ED03240F2093F4
:1021E000EC039093140490911404880F892B80932E
:1021F000140480911204813041F4109212048091F1
:1022000014048093BB0085EC01C085EE8093BC0074
:10221000809115048130E1F38091ED03841710F46F
:102220004091ED032EEE33E0FB01D9018A2F821B92
:10223000841718F48D918193F9CF842F089580E04D
:1022400008950F93413208F046C090911504911102
:10225000FCCF92E090931504009313049FEF9093AA
:10226000A8031092ED034093EC03FB016EEE73E0C4
:10227000DB019A2F961B941718F491919D93F9CF37
:102280001092140490911404880F892B80931404E5
:1022900080911204813041F4109212048091140450
:1022A0008093BB0085EC01C085EE8093BC002223A7
:1022B00021F0809115048230E1F38091A8038F3FD3
:1022C00061F08091A803803251F08091A80380339F
:1022D00041F483E007C081E005C080E003C082E0F4
:1022E00001C084E00F910895613298F420911504A3
:1022F000243089F46093CA03FC018CEC93E0DC0188
:102300002A2F281B261718F421912D93F9CF80E04E
:10231000089581E0089582E0089585ED8093BC00E2
:102320008091BC0084FDFCCF10921504089585ECCB
:102330008093BC001092150408951F920F920FB65F
:102340000F9211242F933F934F935F936F937F933B
:102350008F939F93AF93BF93EF93FF938091B900B7
:10236000887F803609F49CC068F5883209F45BC028
:1023700090F4803109F454C038F4882309F4F5C08E
:10238000883009F44DC0F5C0883109F44CC0803262
:1023900009F45DC0EEC0803409F468C048F48033AD
:1023A00009F455C0883309F0E4C08093A803A8C09D
:1023B000803509F44FC0883509F45DC0883409F0D0
:1023C000D8C0D5C0883909F4C6C0A8F4883709F444
:1023D00067C038F4883609F463C0803709F460C0F8
:1023E000C8C0883809F4B7C0803909F45FC08038A4
:1023F00009F0BFC05BC0803B09F485C038F4803A67
:1024000009F466C0883A09F47EC0B3C0803C09F480
:10241000A6C0883C09F4A3C0883B09F489C0A9C0C0
:102420008091140410C09091ED038091EC039817F3
:1024300070F5E091ED0381E08E0F8093ED03F0E005
:10244000E251FC4F80818093BB0085EC85C0809376
:10245000A8038DC0E091ED0381E08E0F8093ED0322
:102460008091BB00F0E0E251FC4F80839091ED033E
:102470008091EC036DC0E091ED0381E08E0F8093BD
:10248000ED038091BB00F0E0E251FC4F808380912E
:10249000130481116CC081E08093120484EA60C04F
:1024A00083E0809315041092A903CFCF8091A903F4
:1024B000803208F050C0E091A90381E08E0F809334
:1024C000A9038091BB00F0E0E655FC4F8083BDCFAF
:1024D0008091A903803230F4E091A903F0E0E65541
:1024E000FC4F10820E948D116091A90370E0E09171
:1024F0000E04F0910F048AEA93E009951092A90363
:102500000E94971136C084E0809315041092CB038B
:102510001092CA03E0911004F09111040995809182
:10252000CA03811105C081E08093CA031092CC03D5
:10253000E091CB0381E08E0F8093CB03F0E0E45376
:10254000FC4F80818093BB009091CB038091CA03A4
:10255000981708F47ACF85E88093BC000AC085EC10
:102560008093BC001092150404C01092A8030E942E
:102570008D11FF91EF91BF91AF919F918F917F91BD
:102580006F915F914F913F912F910F900FBE0F90E0
:102590001F901895F8940C943C155058BB27AA2707
:1025A0000ED075C166D130F06BD120F031F49F3F71
:1025B00011F41EF45BC10EF4E095E7FB51C1E92F65
:1025C00077D180F3BA17620773078407950718F06D
:1025D00071F49EF58FC10EF4E0950B2EBA2FA02D4D
:1025E0000B01B90190010C01CA01A0011124FF27C0
:1025F000591B99F0593F50F4503E68F11A16F040BB
:10260000A22F232F342F4427585FF3CF46953795B9
:102610002795A795F0405395C9F77EF41F16BA0B7E
:10262000620B730B840BBAF09150A1F0FF0FBB1F2C
:10263000661F771F881FC2F70EC0BA0F621F731F75
:10264000841F48F4879577956795B795F7959E3FD2
:1026500008F0B3CF9395880F08F09927EE0F979560
:1026600087950895D9D008F481E008950CD00FC162
:1026700007D140F0FED030F021F45F3F19F0F0C0F8
:10268000511139C1F3C014D198F39923C9F35523DB
:10269000B1F3951B550BBB27AA2762177307840755
:1026A00038F09F5F5F4F220F331F441FAA1FA9F30B
:1026B00033D00E2E3AF0E0E830D091505040E695FD
:1026C000001CCAF729D0FE2F27D0660F771F881F5E
:1026D000BB1F261737074807AB07B0E809F0BB0B4D
:1026E000802DBF01FF2793585F4F2AF09E3F510571
:1026F00068F0B6C000C15F3FECF3983EDCF386950E
:1027000077956795B795F7959F5FC9F7880F911DE6
:102710009695879597F90895E1E0660F771F881FD2
:10272000BB1F621773078407BA0720F0621B730B85
:10273000840BBA0BEE1F88F7E095089504D06894D7
:10274000B111D9C00895BCD088F09F5790F0B92F2F
:102750009927B751A0F0D1F0660F771F881F991FF6
:102760001AF0BA95C9F712C0B13081F0C3D0B1E008
:102770000895C0C0672F782F8827B85F39F0B93F18
:10278000CCF3869577956795B395D9F73EF49095F8
:102790008095709561957F4F8F4F9F4F0895E89476
:1027A00009C097FB3EF490958095709561957F4F99
:1027B0008F4F9F4F9923A9F0F92F96E9BB27939547
:1027C000F695879577956795B795F111F8CFFAF457
:1027D000BB0F11F460FF1BC06F5F7F4F8F4F9F4F88
:1027E00016C0882311F096E911C0772321F09EE8E6
:1027F000872F762F05C0662371F096E8862F70E04C
:1028000060E02AF09A95660F771F881FDAF7880F25
:102810009695879597F90895990F0008550FAA0B7B
:10282000E0E8FEEF16161706E807F907C0F01216E3
:102830001306E407F50798F0621B730B840B950BE6
:1028400039F40A2661F0232B242B252B21F408953B
:102850000A2609F4A140A6958FEF811D811D0895D8
:1028600097F99F6780E870E060E008959FEF80EC43
:10287000089500240A9416161706180609060895E6
:1028800000240A9412161306140605060895092E4C
:102890000394000C11F4882352F0BB0F40F4BF2BBB
:1028A00011F460FF04C06F5F7F4F8F4F9F4F0895FB
:1028B00057FD9058440F551F59F05F3F71F04795F1
:1028C000880F97FB991F61F09F3F79F087950895D6
:1028D000121613061406551FF2CF4695F1DF08C0F5
:1028E000161617061806991FF1CF86957105610512
:1028F00008940895E894BB2766277727CB0197F9BA
:1029000008958ADF08F48FEF08950BD0C0CFB1DFB0
:1029100028F0B6DF18F0952309F0A2CFA7CF112435
:10292000EACFC6DFA0F3959FD1F3950F50E0551F76
:10293000629FF001729FBB27F00DB11D639FAA2714
:10294000F00DB11DAA1F649F6627B00DA11D661F63
:10295000829F2227B00DA11D621F739FB00DA11D84
:10296000621F839FA00D611D221F749F3327A00D3E
:10297000611D231F849F600D211D822F762F6A2FDA
:1029800011249F5750408AF0E1F088234AF0EE0F5F
:10299000FF1FBB1F661F771F881F91505040A9F76C
:1029A0009E3F510570F05CCFA6CF5F3FECF3983EA1
:1029B000DCF3869577956795B795F795E7959F5FD3
:1029C000C1F7FE2B880F911D9695879597F908956D
:1029D00023DF880B990B089597FB072E16F40094BC
:1029E00007D077FD09D00E94221507FC05D03EF4E0
:1029F000909581959F4F0895709561957F4F0895AB
:102A0000A1E21A2EAA1BBB1BFD010DC0AA1FBB1FF2
:102A1000EE1FFF1FA217B307E407F50720F0A21B64
:102A2000B30BE40BF50B661F771F881F991F1A94D1
:102A300069F760957095809590959B01AC01BD01FB
:102A4000CF010895AA1BBB1B51E107C0AA1FBB1FE2
:102A5000A617B70710F0A61BB70B881F991F5A952A
:102A6000A9F780959095BC01CD010895EE0FFF1F49
:0C2A70000590F491E02D0994F894FFCF3C
:102A7C0064000000803F64000000803F696E697450
:102A8C000A007374617274696E67206779726F20C3
:102A9C0063616C6962726174696F6E0A00726F6C4B
:102AAC006C206F66667365743A2000646F6E6520E7
:102ABC0063616C6962726174696E67206779726FA9
:102ACC000A0077616974696E67206F6E2075736593
:102ADC007220696E7075740A00696E697420646F77
:102AEC006E650A00207374616765203120002073C5
:102AFC007461676520322000737461676520302033
:102B0C00006E616E00696E66006F7666002E0000C6
:102B1C00000000550E1D0C010E2A0E110E4A0E005F
:102B2C0000000040101310E80FF00F0310121000FB
:040000050080020570
:00000001FF
