:100000000C945F000C9487000C9487000C940F07ED
:100010000C9487000C9487000C9487000C94870044
:100020000C9487000C9487000C9487000C94870034
:100030000C9487000C9487000C9487000C94870024
:100040000C94660A0C9487000C94590C0C949C0C2C
:100050000C9487000C9487000C9487000C94870004
:100060000C947B110C948700000000070002010033
:100070000003040600000000000000000102040864
:100080001020408001020408102001020408102002
:10009000040404040404040402020202020203032E
:1000A00003030303000000002300260029000000D2
:1000B0000000250028002B00BE07580D99101124C0
:1000C0001FBECFEFD8E0DEBFCDBF11E0A0E0B1E0B2
:1000D000E8E3FAE202C005900D92AE3AB107D9F713
:1000E00023E0AEEAB1E001C01D92AF3DB207E1F7F7
:1000F00010E0CEEBD0E004C02297FE010E9416155E
:10010000C83BD107C9F70E94AE0D0C94A8120C94FD
:100110000000DC01ED91FC910190F081E02D09944B
:100120004F925F926F927F928F929F92AF92BF9207
:10013000CF92DF92EF92FF920F931F93CF93DF93B3
:1001400000D000D0CDB7DEB72091E2013091E301BD
:100150004091E4015091E5016091DE017091DF0171
:100160008091E0019091E1010E94AB126B017C0152
:10017000209168023091690240916A0250916B02AD
:100180000E9463142091E6013091E7014091E8015B
:100190005091E9010E94AC122B013C016093E601F1
:1001A0007093E7018093E8019093E90100910601C3
:1001B00010910701B801882777FD8095982F0E943C
:1001C000AF134B015C019B01AC01C301B2010E9462
:1001D0005F1418164CF48092E6019092E701A09209
:1001E000E801B092E90122C066277727601B710BF6
:1001F000882777FD8095982F0E94AF1369837A83B3
:100200008B839C839B01AC01C301B2010E9410133C
:1002100087FF0CC089819A81AB81BC818093E60104
:100220009093E701A093E801B093E90120910801C0
:100230003091090140910A0150910B01C701B601AB
:100240000E9463142091E6013091E7014091E8019A
:100250005091E9010E94AC122B013C012091D60182
:100260003091D7014091D8015091D901C701B60111
:100270000E94AB12209164023091650240916602A7
:10028000509167020E9463149B01AC01C301B2014B
:100290000E94AC122B013C01A50194010E945F1445
:1002A0001816ECF066277727601B710B882777FDFF
:1002B0008095982F0E94AF134B015C019B01AC010C
:1002C000C301B2010E94101387FD09C04092DA01F8
:1002D0005092DB016092DC017092DD0108C08092D7
:1002E000DA019092DB01A092DC01B092DD01C092B4
:1002F000D601D092D701E092D801F092D901209195
:10030000CE013091CF014091D0015091D101609147
:10031000CA017091CB018091CC019091CD010E94D6
:10032000AB126B017C0120915C0230915D02409127
:100330005E0250915F020E9463142091D2013091BD
:10034000D3014091D4015091D5010E94AC122B01F0
:100350003C016093D2017093D3018093D4019093B8
:10036000D5010091560210915702B801882777FDF8
:100370008095982F0E94AF134B015C019B01AC014B
:10038000C301B2010E945F1418164CF48092D2018E
:100390009092D301A092D401B092D50122C06627D9
:1003A0007727601B710B882777FD8095982F0E9417
:1003B000AF1369837A838B839C839B01AC01C30158
:1003C000B2010E94101387FF0CC089819A81AB8112
:1003D000BC818093D2019093D301A093D401B093B8
:1003E000D5012091600230916102409162025091EA
:1003F0006302C701B6010E9463142091D2013091BB
:10040000D3014091D4015091D5010E94AC122B012F
:100410003C012091C2013091C3014091C40150912F
:10042000C501C701B6010E94AB122091580230915C
:10043000590240915A0250915B020E9463149B0141
:10044000AC01C301B2010E94AC122B013C01A50119
:1004500094010E945F141816ECF066277727601B42
:10046000710B882777FD8095982F0E94AF134B0161
:100470005C019B01AC01C301B2010E94101387FD16
:1004800009C04092C6015092C7016092C8017092A3
:10049000C90108C08092C6019092C701A092C8010C
:1004A000B092C901C092C201D092C301E092C401CE
:1004B000F092C5012091BA013091BB014091BC017D
:1004C0005091BD016091B6017091B7018091B80162
:1004D0009091B9010E94AB126B017C016093EA011B
:1004E0007093EB018093EC019093ED012091520207
:1004F0003091530240915402509155020E9463146E
:100500002091BE013091BF014091C0015091C101C5
:100510000E94AC122B013C016093BE017093BF019D
:100520008093C0019093C1010091000110910101DD
:10053000B801882777FD8095982F0E94AF134B0153
:100540005C019B01AC01C301B2010E945F1418164B
:100550004CF48092BE019092BF01A092C001B09273
:10056000C10122C066277727601B710B882777FDA2
:100570008095982F0E94AF1369837A838B839C8325
:100580009B01AC01C301B2010E94101387FF0CC094
:1005900089819A81AB81BC818093BE019093BF0118
:1005A000A093C001B093C1012091020130910301D9
:1005B0004091040150910501C701B6010E946314E6
:1005C0002091BE013091BF014091C0015091C10105
:1005D0000E94AC122B013C012091AE013091AF0181
:1005E0004091B0015091B101C701B6010E94AB1218
:1005F00020914E0230914F02409150025091510291
:100600000E9463149B01AC01C301B2010E94AC12B1
:100610002B013C01A50194010E945F141816ECF017
:1006200066277727601B710B882777FD8095982FA9
:100630000E94AF134B015C019B01AC01C301B201ED
:100640000E94101387FD09C04092B2015092B3017D
:100650006092B4017092B50108C08092B20190928C
:10066000B301A092B401B092B501C092AE01D09294
:10067000AF01E092B001F092B1010F900F900F9096
:100680000F90DF91CF911F910F91FF90EF90DF902E
:10069000CF90BF90AF909F908F907F906F905F9022
:1006A0004F9008956DE071E085E792E00E94F90DAA
:1006B00060914802709149024AE050E085E792E07B
:1006C0000E94B90E6DE071E085E792E00E94F90D9D
:1006D00060914602709147024AE050E085E792E05F
:1006E0000E94B90E6DE071E085E792E00E94F90D7D
:1006F00060914402709145024AE050E085E792E043
:100700000E94B90E6CE071E085E792E00E94F90D5D
:1007100060914202709143024AE050E085E792E026
:100720000E94C10E6DE071E085E792E00E94F90D34
:100730004091DE015091DF016091E0017091E10193
:1007400022E030E085E792E00E94C40F6DE071E0A6
:1007500085E792E00E94F90D4091CA015091CB01CA
:100760006091CC017091CD0122E030E085E792E00C
:100770000E94C40F6DE071E085E792E00E94F90DE0
:100780004091CA015091CB016091CC017091CD0193
:1007900022E030E085E792E00E94C40F6FE071E054
:1007A00085E792E00C94F90D2F923F924F925F9261
:1007B0006F927F928F929F92AF92BF92CF92DF9271
:1007C000EF92FF920F931F93CF93DF93CDB7DEB7D6
:1007D00028970FB6F894DEBF0FBECDBF1092DE0192
:1007E0001092DF011092E0011092E1011092CA0113
:1007F0001092CB011092CC011092CD011092B60153
:100800001092B7011092B8011092B9018091440280
:10081000909145028A3194409CF4809142029091DB
:1008200043028234944064F481E090E090930D029E
:1008300080930C0262E171E085E792E00E94F90D7D
:1008400080910C0290910D02019709F04BC08091AC
:100850004402909145028A3194400CF043C080914B
:100860004202909143028B3A9540E4F182E090E09D
:1008700090930D0280930C026CE171E085E792E0A9
:100880000E94F90D1092E6011092E7011092E80122
:100890001092E9011092D6011092D7011092D8015E
:1008A0001092D9011092D2011092D3011092D4016A
:1008B0001092D5011092C2011092C3011092C4018E
:1008C0001092C5011092BE011092BF011092C0019A
:1008D0001092C1011092AE011092AF011092B001BE
:1008E0001092B10180910C0290910D02009144028E
:1008F00010914502029779F40A31F4E01F075CF485
:1009000080914202909143028D36974024F01092DC
:100910000D0210920C021092E2011092E30110926B
:10092000E4011092E5016091480270914902653E30
:1009300085E078071CF0645E754006C0643D95E074
:100940007907B4F4645D7540882777FD8095982F0A
:100950000E94AF1320E030E040E450E40E94141302
:100960006093E2017093E3018093E4019093E501C9
:100970001092CE011092CF011092D0011092D101AD
:100980006091460270914702653EA5E07A071CF02F
:10099000645E754006C0643DB5E07B07B4F4645DF9
:1009A0007540882777FD8095982F0E94AF1320E02F
:1009B00030E040E450E40E9414136093CE01709341
:1009C000CF018093D0019093D1011092BA0110927F
:1009D000BB011092BC011092BD010B3114402CF1EF
:1009E0006091420270914302653EF5E07F071CF082
:1009F000645E754006C0643D25E07207B4F4645D32
:100A00007540882777FD8095982F0E94AF1320E0CE
:100A100030E040E450E40E9414136093BA017093F4
:100A2000BB018093BC019093BD010E949000809116
:100A300044029091450290933902809338020E94BB
:100A4000520380910C0290910D02029709F0E4C0CC
:100A500080913802909139028D3D954034F08CEDB3
:100A600095E090933902809338026091380270913A
:100A70003902882777FD8095982F0E94AF132B01AC
:100A80003C018091C6019091C701A091C801B0912D
:100A9000C90189839A83AB83BC839C01AD01C301E7
:100AA000B2010E94AB126D837E838F839887809002
:100AB000DA019090DB01A090DC01B090DD01C090E4
:100AC000B201D090B301E090B401F090B501A5015E
:100AD00094010E94AC12A70196010E94AB120E94E1
:100AE0007C131B01709341026093400229813A817B
:100AF0004B815C81C301B2010E94AC122B013C010D
:100B0000A50194010E94AC12A70196010E94AC12AB
:100B10000E947C138B0170933F0260933E02A501FB
:100B20009401C301B2010E94AB12A70196010E9479
:100B3000AB120E947C133B0170933D0260933C0218
:100B4000A50194016D817E818F8198850E94AB12F1
:100B5000A70196010E94AC120E947C139B01709326
:100B60003B0260933A029EE7291694E0390634F47A
:100B70008EE794E090934102809340020E37144038
:100B800034F48EE794E090933F0280933E02BEE7F8
:100B90006B16B4E07B0634F48EE794E090933D024C
:100BA00080933C022E37344034F48EE794E09093E7
:100BB0003B0280933A0280914002909141028D3D28
:100BC000954034F08CED95E0909341028093400283
:100BD00080913E0290913F028D3D954034F08CED26
:100BE00095E090933F0280933E0280913C02909169
:100BF0003D028D3D954034F08CED95E090933D02A3
:100C000080933C0280913A0290913B028D3D954049
:100C1000ACF08CED95E00EC088EE93E0909341022D
:100C20008093400290933F0280933E0290933D0256
:100C300080933C0290933B0280933A020E94B00A58
:100C4000009108021091090220910A0230910B02D2
:100C5000601B710B820B930B603A7F4081059105FD
:100C600068F30E94B00A60930802709309028093AF
:100C70000A0290930B028BB1806F8BB980910802AE
:100C800090910902A0910A02B0910B02409140029A
:100C900050914102662757FD6095762F480F591FE6
:100CA0006A1F7B1F409334025093350260933602D3
:100CB0007093370240913E0250913F02662757FDE4
:100CC0006095762F480F591F6A1F7B1F4093300293
:100CD00050933102609332027093330240913C0290
:100CE00050913D02662757FD6095762F480F591F9A
:100CF0006A1F7B1F40932C0250932D0260932E029B
:100D000070932F0240913A0250913B02662757FDA3
:100D10006095762F480F591F6A1F7B1F409328024A
:100D20005093290260932A0270932B028BB1803179
:100D300008F45CC00E94B00A6093240270932502FC
:100D4000809326029093270200913402109135027D
:100D5000209136023091370260177107820793079E
:100D600008F05C984091300250913102609132025B
:100D7000709133028091240290912502A091260265
:100D8000B091270284179507A607B70708F05D986A
:100D900040912C0250912D0260912E0270912F02F1
:100DA0008091240290912502A0912602B091270201
:100DB00084179507A607B70708F05E9840912802A8
:100DC0005091290260912A0270912B028091240295
:100DD00090912502A0912602B091270284179507D1
:100DE000A607B70708F4A2CF5F98A0CF28960FB642
:100DF000F894DEBF0FBECDBFDF91CF911F910F9151
:100E0000FF90EF90DF90CF90BF90AF909F908F902A
:100E10007F906F905F904F903F902F9008951F921A
:100E20000F920FB60F9211242F933F934F935F931E
:100E30006F937F938F939F93AF93BF93EF93FF93A2
:100E40000E94B00A60931002709311028093120204
:100E50009093130220914D02189B0EC021111BC0CC
:100E600021E020934D026093200270932102809331
:100E70002202909323020FC0213069F410924D0298
:100E80002091200230912102AB01421B530B509361
:100E900049024093480220914C02199B0EC0211137
:100EA0001BC021E020934C0260931C0270931D0232
:100EB00080931E0290931F020FC0213069F410929C
:100EC0004C0220911C0230911D02AB01421B530BBE
:100ED000509347024093460220914B021A9B0EC04A
:100EE00021111BC021E020934B02609318027093E4
:100EF000190280931A0290931B020FC0213069F4EB
:100F000010924B022091180230911902AB01421B42
:100F1000530B509345024093440220914A021B9B7D
:100F20000EC021111AC021E020934A0260931402DE
:100F30007093150280931602909317020EC0213011
:100F400061F410924A022091140230911502621B42
:100F5000730B7093430260934202FF91EF91BF9134
:100F6000AF919F918F917F916F915F914F913F9141
:100F70002F910F900FBE0F901F9018958091080130
:100F800090910901A0910A01B0910B018093600238
:100F900090936102A0936202B09363028091680211
:100FA00090916902A0916A02B0916B0280935C02F9
:100FB00090935D02A0935E02B0935F028091640201
:100FC00090916502A0916602B091670280935802E9
:100FD00090935902A0935A02B0935B02809106014C
:100FE0009091070190935702809356020895EF92D3
:100FF000FF920F931F93CF93DF9369E670E08FE129
:1010000093E00E94811068EA70E08FE193E00E9413
:1010100089008FE193E00E94961046E050E069E677
:1010200070E08FE193E00E9474108FE193E00E94E2
:10103000C60F0697D4F38FE193E00E94CE0F809302
:10104000EE018FE193E00E94CE0F8093EF01F82E26
:10105000E12C8091EE01E82AB701882777FD809581
:10106000982F0E94AF136093000270930102809347
:1010700002029093030220910E0230910F02203D54
:10108000374091F42091F8013091F9014091FA0133
:101090005091FB010E94AB12609300027093010219
:1010A00080930202909303028FE193E00E94CE0F9F
:1010B0008093EE018FE193E00E94CE0F8093EF01C9
:1010C000182F00E08091EE01082BB801882777FDEA
:1010D0008095982F0E94AF139058609304027093EC
:1010E0000502809306029093070220910E02309130
:1010F0000F02203D374091F42091F4013091F50129
:101100004091F6015091F7010E94AB1260930402E6
:101110007093050280930602909307028FE193E09B
:101120000E94CE0F8093EE018FE193E00E94CE0FDC
:101130008093EF01D82F80E0C82F8091EE01C82B5B
:10114000BE01882777FD8095982F0E94AF13905895
:101150006093FC017093FD018093FE019093FF0169
:1011600020910E0230910F02203D374091F42091E2
:10117000F0013091F1014091F2015091F3010E9490
:10118000AB126093FC017093FD018093FE0190937C
:10119000FF01DF91CF911F910F91FF90EF90089584
:1011A000CF93DF9340E056E960E070E085E792E09E
:1011B0000E94D70C66E271E085E792E00E94F90D8B
:1011C0008FE193E00E945D108AB1806F8AB9249A02
:1011D00061E08CE00E94680B6AEF70E080E090E0D4
:1011E0000E94D30A69E670E08FE193E00E948110CB
:1011F00060E270E08FE193E00E9489006FE070E0B0
:101200008FE193E00E9489008FE193E00E949610A5
:1012100069E670E08FE193E00E94811063E270E084
:101220008FE193E00E94890060E970E08FE193E034
:101230000E9489008FE193E00E9496106AEF70E0AF
:1012400080E090E00E94D30A6CE271E085E792E0D2
:101250000E94F90D10920F0210920E02CFE0D0E022
:1012600080910E0290910F028A3F91050CF079C097
:10127000BE010E94CA14892B51F48CE00E949E0B7F
:1012800061E0892B09F060E08CE00E94680B0E940D
:10129000F707209100023091010240910202509123
:1012A00003026091F8017091F9018091FA01909127
:1012B000FB010E94AC126093F8017093F9018093D6
:1012C000FA019093FB0120910402309105024091B4
:1012D0000602509107026091F4017091F50180912E
:1012E000F6019091F7010E94AC126093F4017093A3
:1012F000F5018093F6019093F7012091FC01309164
:10130000FD014091FE015091FF016091F00170914B
:10131000F1018091F2019091F3010E94AC1260936F
:10132000F0017093F1018093F2019093F3018BB17E
:10133000806F8BB988EE93E00E94F90A8BB18F70B1
:101340008BB963E070E080E090E00E94D30A809166
:101350000E0290910F02019690930F0280930E025D
:101360007FCF20E030E04AEF54E46091F8017091C3
:10137000F9018091FA019091FB010E94141360938E
:10138000F8017093F9018093FA019093FB0120E03A
:1013900030E04AEF54E46091F4017091F5018091DE
:1013A000F6019091F7010E9414136093F401709379
:1013B000F5018093F6019093F70120E030E04AEFC9
:1013C00054E46091F0017091F1018091F2019091EB
:1013D000F3010E9414136093F0017093F101809364
:1013E000F2019093F30167E471E085E792E00E94D7
:1013F000F90D8091680081608093680080916B0096
:10140000816080936B0080916B00826080936B00A1
:1014100080916B00846080936B0080916B0088608A
:1014200080936B006EE571E085E792E00E94F90D14
:1014300080914402909145028E5D93404F9778F1E0
:1014400080910C0290910D02019690930D02809371
:101450000C028BB1806F8BB988EE93E00E94F90A81
:101460008BB18F708BB963E070E080E090E00E94F8
:10147000D30A80910C0290910D028D379105C1F62F
:101480008CE00E949E0B61E0892B09F060E08CE00B
:101490000E94680B10920D0210920C02C9CF80912D
:1014A0004202909143028837954054F210920D0207
:1014B00010920C0260E08CE00E94680B65E771E01E
:1014C00085E792E0DF91CF910C94F90D1F920F9276
:1014D0000FB60F9211242F933F938F939F93AF9347
:1014E000BF9380916D0290916E02A0916F02B091B6
:1014F000700230916C0223E0230F2D3720F4019607
:10150000A11DB11D05C026E8230F0296A11DB11D26
:1015100020936C0280936D0290936E02A0936F02F1
:10152000B09370028091710290917202A091730247
:10153000B09174020196A11DB11D80937102909328
:101540007202A0937302B0937402BF91AF919F9106
:101550008F913F912F910F900FBE0F901F90189574
:101560003FB7F8948091710290917202A09173023A
:10157000B091740226B5A89B05C02F3F19F00196C3
:10158000A11DB11D3FBF6627782F892F9A2F620FAB
:10159000711D811D911D42E0660F771F881F991FE5
:1015A0004A95D1F70895CF92DF92EF92FF92CF93B1
:1015B000DF936B017C010E94B00AEB01C114D104DE
:1015C000E104F10479F00E94B00A6C1B7D0B683EC7
:1015D0007340A0F381E0C81AD108E108F108C851AE
:1015E000DC4FECCFDF91CF91FF90EF90DF90CF9069
:1015F00008950197009739F0880F991F880F991F58
:1016000002970197F1F70895789484B5826084BDBC
:1016100084B5816084BD85B5826085BD85B58160F6
:1016200085BDEEE6F0E0808181608083E1E8F0E056
:101630001082808182608083808181608083E0E885
:10164000F0E0808181608083E1EBF0E08081846064
:101650008083E0EBF0E0808181608083EAE7F0E066
:1016600080818460808380818260808380818160CA
:1016700080838081806880831092C10008958330C8
:1016800081F028F4813099F08230A1F008958630FD
:10169000A9F08730B9F08430D1F4809180008F7D3B
:1016A00003C0809180008F7780938000089584B577
:1016B0008F7702C084B58F7D84BD08958091B0007E
:1016C0008F7703C08091B0008F7D8093B000089524
:1016D0000F931F93CF93DF931F92CDB7DEB7282FC1
:1016E00030E0F901E859FF4F8491F901E458FF4FC8
:1016F0001491F901E057FF4F04910023C9F08823AA
:1017000021F069830E943F0B6981E02FF0E0EE0F2A
:10171000FF1FE255FF4FA591B4919FB7F8948C91AC
:10172000611103C01095812301C0812B8C939FBF51
:101730000F90DF91CF911F910F910895CF93DF9379
:10174000282F30E0F901E859FF4F8491F901E4585E
:10175000FF4FD491F901E057FF4FC491CC2391F092
:1017600081110E943F0BEC2FF0E0EE0FFF1FEC55B4
:10177000FF4FA591B4912C912D2381E090E021F4AD
:1017800080E002C080E090E0DF91CF910895FC01FD
:1017900024853585F901E05CFF4F80819181329687
:1017A00020813181821B930B8F7399270895FC014F
:1017B00084859585FC01E05CFF4F40815181329624
:1017C000208131814217530741F00190F081E02DD3
:1017D000E80FF91F808190E008958FEF9FEF089543
:1017E000FC0184859585FC01E05CFF4F40815181BF
:1017F0003296208131814217530779F0A081B1815F
:10180000A80FB91F8C91208131812F5F3F4F2F731B
:1018100033273183208390E008958FEF9FEF089561
:10182000FC0181A1882329F0A489B5898C9186FFC8
:10183000FBCF11A20895CF93DF93FC012685378556
:10184000D901A05CBF4F8D919C91119701968F7328
:101850009927E901CE5BDF4F4881598184179507AD
:10186000D9F30D90BC91A02DA20FB31F6C93A68548
:10187000B785A05CBF4F11969C938E93A689B789BC
:101880002C9181E090E0078C02C0880F991F0A9488
:10189000E2F7282B2C9381E081A30488F589E02DC1
:1018A00080818064808381E090E0DF91CF91089512
:1018B00008951F920F920FB60F9211242F933F930A
:1018C0004F938F939F93EF93FF938091C00082FD7E
:1018D0001CC04091C60080911B0390911C0301968F
:1018E0008F73992720911D0330911E038217930750
:1018F00071F0E0911B03F0911C03E552FD4F408312
:1019000090931C0380931B0302C08091C600FF913B
:10191000EF919F918F914F913F912F910F900FBE1B
:101920000F901F90189585E792E00E94C70B892BB6
:1019300011F00C94580C08951F920F920FB60F924D
:1019400011242F933F938F939F93EF93FF932091B5
:10195000D7023091D8028091D9029091DA022817EB
:10196000390731F48091C1008F7D8093C10014C08C
:10197000E091D902F091DA02E956FD4F2081809181
:10198000D9029091DA0201968F7399279093DA0227
:101990008093D9022093C600FF91EF919F918F9180
:1019A0003F912F910F900FBE0F901F901895CF92DF
:1019B000DF92EF92FF92CF93DF93EC016A017B01FC
:1019C000411581EE580761057105F9F0EC89FD8933
:1019D00081E090E008A002C0880F991F0A94E2F706
:1019E000808360E079E08DE390E0A70196010E949A
:1019F000DE14215031094109510956954795379513
:101A00002795211580E1380798F0EC89FD8910822F
:101A100060E874E88EE190E0A70196010E94DE1470
:101A20002150310941095109569547953795279518
:101A3000E889F9893083EA89FB89208319A2EE8934
:101A4000FF89408181E090E09C010C8C02C0220F54
:101A5000331F0A94E2F7422B4083EE89FF894081CD
:101A60009C010D8C02C0220F331F0A94E2F7422B17
:101A70004083EE89FF8940819C010E8C02C0220FB9
:101A8000331F0A94E2F7422B4083EE89FF892081BD
:101A90000F8C02C0880F991F0A94E2F78095822369
:101AA0008083DF91CF91FF90EF90DF90CF900895EA
:101AB000109278021092770288EE93E0A0E0B0E0F6
:101AC0008093790290937A02A0937B02B0937C0278
:101AD00084E891E090937602809375028BED92E01A
:101AE000909382028093810287E992E0909384022E
:101AF0008093830285EC90E0909386028093850228
:101B000084EC90E0909388028093870280EC90E0D0
:101B100090938A028093890281EC90E090938C02EA
:101B200080938B0282EC90E090938E0280938D02E2
:101B300086EC90E09093900280938F0284E08093F3
:101B4000910283E08093920287E08093930285E084
:101B50008093940281E08093950208950E94040B83
:101B60000E94D008C3E9DCE00E94D4032097E1F38F
:101B70000E94930CF9CFCF92DF92EF92FF920F93D6
:101B80001F93CF93DF936C017A01EB01E60EF71EF2
:101B900000E010E0CE15DF0561F06991D601ED910E
:101BA000FC910190F081E02DC6010995080F191FE5
:101BB000F1CFC801DF91CF911F910F91FF90EF906E
:101BC000DF90CF9008956115710581F0DB010D90D4
:101BD0000020E9F7AD0141505109461B570BDC01CC
:101BE000ED91FC910280F381E02D099480E090E07A
:101BF00008950C94E30DDC01ED91FC910190F081CE
:101C0000E02D09940F931F93CF93DF93EC016DE0C8
:101C10000E94FB0D8C016AE0CE010E94FB0D800F3B
:101C2000911FDF91CF911F910F9108958F929F92F5
:101C3000AF92BF92CF92DF92EF92FF920F931F93DA
:101C4000CF93DF93CDB7DEB7A1970FB6F894DEBF81
:101C50000FBECDBF7C01C42EE52FCB01D22E19A221
:101C600021E02D1510F02AE0D22E8E010F5D1F4FBE
:101C70008D2C912CA12CB12C6C2D7E2FA5019401C3
:101C80000E94DE148C2DD29E80191124015011095E
:101C90008A3014F4805D01C0895CF80180832115CD
:101CA00031054105510521F0C22EE32FCA01E4CFD1
:101CB000B801C7010E94E30DA1960FB6F894DEBFEC
:101CC0000FBECDBFDF91CF911F910F91FF90EF908D
:101CD000DF90CF90BF90AF909F908F900895CF925C
:101CE000DF92EF92FF920F931F93CF93DF93EC015C
:101CF0006A017B012115310579F4E881F9810190B0
:101D0000F081E02D642FDF91CF911F910F91FF9013
:101D1000EF90DF90CF9009942A303105E9F477FFF6
:101D20001AC06DE20E94FB0D8C0144275527BA01B1
:101D30004C195D096E097F092AE0CE010E94160E3A
:101D4000800F911FDF91CF911F910F91FF90EF9026
:101D5000DF90CF9008952AE0B701A601CE01DF9170
:101D6000CF911F910F91FF90EF90DF90CF900C9447
:101D7000160E9A01AB01662757FD6095762F0C94DD
:101D80006F0E0F931F93CF93DF93EC019A01AB017A
:101D9000662757FD6095762F0E946F0E8C01CE014D
:101DA0000E94020E800F911FDF91CF911F910F9122
:101DB00008954F925F926F927F928F929F92AF920F
:101DC000BF92CF92DF92EF92FF920F931F93CF9328
:101DD000DF93EC016A017B01B22E9A01AB01C701CE
:101DE000B6010E94C614882319F060E971E027C08B
:101DF00026013701E89477F82FEF3FEF4FE75FE7D1
:101E0000C301B2010E94C61481110DC02FEF3FEF34
:101E10004FE75FE7C301B2010E94101318161CF4CC
:101E200064E971E00CC02FEF3FEF4FE75FE4C701BB
:101E3000B6010E945F141816ACF468E971E0CE0197
:101E4000DF91CF911F910F91FF90EF90DF90CF9096
:101E5000BF90AF909F908F907F906F905F904F90CA
:101E60000C94E30D2FEF3FEF4FE75FECC701B60196
:101E70000E94101387FDE1CF20E030E0A901C701E7
:101E8000B6010E94101387FF0AC06DE2CE010E94C6
:101E9000FB0D8C01F7FAF094F7F8F09402C000E023
:101EA00010E0A12C60E070E080E09FE3AB1441F013
:101EB00020E030E040E251E40E941413A394F6CFF6
:101EC0009B01AC01C701B6010E94AC126B017C0101
:101ED0000E9481132B013C010E94AD139B01AC01B8
:101EE000C701B6010E94AB126B017C012AE0B3016D
:101EF000A201CE010E94160E080F191FBB2039F057
:101F00006CE971E0CE010E94E30D080F191F7B2CD4
:101F1000772041F120E030E040E251E4C701B60112
:101F20000E9463146B017C010E947C134B01AA2464
:101F300097FCA094BA2C2AE030E0B501A401CE01B0
:101F40000E946F0E080F191FC501B4010E94AF1344
:101F50009B01AC01C701B6010E94AB126B017C0171
:101F60007A94D6CFC801DF91CF911F910F91FF9046
:101F7000EF90DF90CF90BF90AF909F908F907F9029
:101F80006F905F904F9008950C94D90E80914F03FD
:101F900090E020915003821B9109089520915003F5
:101FA00080914F03281750F4E22FF0E0EF5AFC4FD6
:101FB000808190E02F5F2093500308958FEF9FEF73
:101FC0000895E091500380914F03E81730F4F0E05A
:101FD000EF5AFC4F808190E008958FEF9FEF0895B6
:101FE0000895CF92DF92EF92FF920F931F93CF93BA
:101FF000DF937C01CB018A0120912B03222389F0FE
:10200000EB016B01C40ED51ECC15DD0569F069919D
:10201000D701ED91FC910190F081E02DC701099568
:10202000F3CF642F0E945211C801DF91CF911F910D
:102030000F91FF90EF90DF90CF900895CF93DF93B3
:102040001F92CDB7DEB7698320912B032223D1F0F5
:1020500020912C03203240F021E030E0FC0133835A
:10206000228380E090E015C080912D03E82FF0E0FE
:10207000E25DFC4F998190838F5F80932D03809365
:102080002C0305C061E0CE0101960E94521181E04F
:1020900090E00F90DF91CF910895FC01138212829E
:1020A00048EE53E060E070E04483558366837783B5
:1020B00082EA91E0918380830895109250031092F8
:1020C0004F0310922D0310922C030C949D10862F19
:1020D000413208F040E261E573E00E94BB101092CB
:1020E000500380934F03089521E00C94671081E022
:1020F00080932B0360934E0310922D0310922C03B8
:1021000008950C9477100F93062F21E040912C0333
:102110006EE273E080914E030E94FF1010922D0337
:1021200010922C0310922B030F91089561E00C94F0
:1021300083108FE193E00C944D101092DE0381E048
:102140008093DC031092DB0361E082E10E94680B64
:1021500061E083E10E94680BE9EBF0E080818E7F13
:10216000808380818D7F808388E48093B80085E4BC
:102170008093BC000895413208F03FC09091DE0387
:102180009111FCCF91E09093DE032093DC032FEFBD
:10219000209371031092B603240F2093B5039093FC
:1021A000DD039091DD03880F892B8093DD038091FF
:1021B000DB03813041F41092DB038091DD038093D7
:1021C000BB0085EC01C085EE8093BC008091DE03EE
:1021D0008130E1F38091B603841710F44091B60387
:1021E00027EB33E0FB01D9018A2F821B841718F4F7
:1021F0008D918193F9CF842F089580E008950F93F6
:10220000413208F046C09091DE039111FCCF92E07C
:102210009093DE030093DC039FEF90937103109281
:10222000B6034093B503FB0167EB73E0DB019A2F24
:10223000961B941718F491919D93F9CF1092DD039A
:102240009091DD03880F892B8093DD038091DB0360
:10225000813041F41092DB038091DD038093BB0059
:1022600085EC01C085EE8093BC00222321F0809193
:10227000DE038230E1F3809171038F3F61F0809142
:102280007103803251F080917103803341F483E017
:1022900007C081E005C080E003C082E001C084E0A7
:1022A0000F910895613298F42091DE03243089F46F
:1022B00060939303FC0185E993E0DC012A2F281B3E
:1022C000261718F421912D93F9CF80E0089581E02D
:1022D000089582E0089585ED8093BC008091BC0054
:1022E00084FDFCCF1092DE03089585EC8093BC0042
:1022F0001092DE0308951F920F920FB60F921124D1
:102300002F933F934F935F936F937F938F939F93FD
:10231000AF93BF93EF93FF938091B900887F80368E
:1023200009F49CC068F5883209F45BC090F48031F0
:1023300009F454C038F4882309F4F5C0883009F44E
:102340004DC0F5C0883109F44CC0803209F45DC03D
:10235000EEC0803409F468C048F4803309F455C0F5
:10236000883309F0E4C080937103A8C0803509F474
:102370004FC0883509F45DC0883409F0D8C0D5C095
:10238000883909F4C6C0A8F4883709F467C038F45E
:10239000883609F463C0803709F460C0C8C0883843
:1023A00009F4B7C0803909F45FC0803809F0BFC0B4
:1023B0005BC0803B09F485C038F4803A09F466C0FC
:1023C000883A09F47EC0B3C0803C09F4A6C0883CBA
:1023D00009F4A3C0883B09F489C0A9C08091DD033A
:1023E00010C09091B6038091B503981770F5E091F5
:1023F000B60381E08E0F8093B603F0E0E954FC4F02
:1024000080818093BB0085EC85C0809371038DC073
:10241000E091B60381E08E0F8093B6038091BB00FC
:10242000F0E0E954FC4F80839091B6038091B503AE
:102430006DC0E091B60381E08E0F8093B60380916A
:10244000BB00F0E0E954FC4F80838091DC038111F4
:102450006CC081E08093DB0384EA60C083E08093FA
:10246000DE0310927203CFCF80917203803208F0A6
:1024700050C0E091720381E08E0F809372038091CF
:10248000BB00F0E0ED58FC4F8083BDCF809172031C
:10249000803230F4E0917203F0E0ED58FC4F10828E
:1024A0000E946B116091720370E0E091D703F0918C
:1024B000D80383E793E00995109272030E94751187
:1024C00036C084E08093DE0310929403109293034D
:1024D000E091D903F091DA0309958091930381117A
:1024E00005C081E08093930310929503E0919403DB
:1024F00081E08E0F80939403F0E0EB56FC4F8081D7
:102500008093BB009091940380919303981708F4F3
:102510007ACF85E88093BC000AC085EC8093BC002C
:102520001092DE0304C0109271030E946B11FF91A0
:10253000EF91BF91AF919F918F917F916F915F913B
:102540004F913F912F910F900FBE0F901F901895B4
:10255000F8940C941A155058BB27AA270ED075C1B1
:1025600066D130F06BD120F031F49F3F11F41EF4AE
:102570005BC10EF4E095E7FB51C1E92F77D180F301
:10258000BA17620773078407950718F071F49EF570
:102590008FC10EF4E0950B2EBA2FA02D0B01B901BF
:1025A00090010C01CA01A0011124FF27591B99F0C9
:1025B000593F50F4503E68F11A16F040A22F232FD5
:1025C000342F4427585FF3CF469537952795A79525
:1025D000F0405395C9F77EF41F16BA0B620B730BCC
:1025E000840BBAF09150A1F0FF0FBB1F661F771F3D
:1025F000881FC2F70EC0BA0F621F731F841F48F4F2
:10260000879577956795B795F7959E3F08F0B3CF77
:102610009395880F08F09927EE0F97958795089561
:10262000D9D008F481E008950CD00FC107D140F053
:10263000FED030F021F45F3F19F0F0C0511139C1E4
:10264000F3C014D198F39923C9F35523B1F3951B23
:10265000550BBB27AA2762177307840738F09F5FC3
:102660005F4F220F331F441FAA1FA9F333D00E2E32
:102670003AF0E0E830D091505040E695001CCAF79F
:1026800029D0FE2F27D0660F771F881FBB1F261764
:1026900037074807AB07B0E809F0BB0B802DBF0137
:1026A000FF2793585F4F2AF09E3F510568F0B6C050
:1026B00000C15F3FECF3983EDCF386957795679514
:1026C000B795F7959F5FC9F7880F911D96958795E8
:1026D00097F90895E1E0660F771F881FBB1F621707
:1026E00073078407BA0720F0621B730B840BBA0BC5
:1026F000EE1F88F7E095089504D06894B111D9C011
:102700000895BCD088F09F5790F0B92F9927B75102
:10271000A0F0D1F0660F771F881F991F1AF0BA95A5
:10272000C9F712C0B13081F0C3D0B1E00895C0C084
:10273000672F782F8827B85F39F0B93FCCF386959B
:1027400077956795B395D9F73EF4909580957095F8
:1027500061957F4F8F4F9F4F0895E89409C097FB75
:102760003EF490958095709561957F4F8F4F9F4F68
:102770009923A9F0F92F96E9BB279395F6958795AC
:1027800077956795B795F111F8CFFAF4BB0F11F46F
:1027900060FF1BC06F5F7F4F8F4F9F4F16C0882316
:1027A00011F096E911C0772321F09EE8872F762F4C
:1027B00005C0662371F096E8862F70E060E02AF08D
:1027C0009A95660F771F881FDAF7880F9695879579
:1027D00097F90895990F0008550FAA0BE0E8FEEF4E
:1027E00016161706E807F907C0F012161306E407D5
:1027F000F50798F0621B730B840B950B39F40A26CE
:1028000061F0232B242B252B21F408950A2609F4AB
:10281000A140A6958FEF811D811D089597F99F67AF
:1028200080E870E060E008959FEF80EC0895002458
:102830000A941616170618060906089500240A9425
:1028400012161306140605060895092E0394000CAB
:1028500011F4882352F0BB0F40F4BF2B11F460FF3A
:1028600004C06F5F7F4F8F4F9F4F089557FD905863
:10287000440F551F59F05F3F71F04795880F97FB44
:10288000991F61F09F3F79F08795089512161306FE
:102890001406551FF2CF4695F1DF08C0161617062D
:1028A0001806991FF1CF8695710561050894089562
:1028B000E894BB2766277727CB0197F908958ADF2D
:1028C00008F48FEF08950BD0C0CFB1DF28F0B6DF4A
:1028D00018F0952309F0A2CFA7CF1124EACFC6DFC5
:1028E000A0F3959FD1F3950F50E0551F629FF00123
:1028F000729FBB27F00DB11D639FAA27F00DB11D7C
:10290000AA1F649F6627B00DA11D661F829F222704
:10291000B00DA11D621F739FB00DA11D621F839F8B
:10292000A00D611D221F749F3327A00D611D231F61
:10293000849F600D211D822F762F6A2F11249F57AF
:1029400050408AF0E1F088234AF0EE0FFF1FBB1FD2
:10295000661F771F881F91505040A9F79E3F510571
:1029600070F05CCFA6CF5F3FECF3983EDCF386952A
:1029700077956795B795F795E7959F5FC1F7FE2B1C
:10298000880F911D9695879597F9089523DF880BF9
:10299000990B089597FB072E16F4009407D077FD46
:1029A00009D00E94001507FC05D03EF49095819552
:1029B0009F4F0895709561957F4F0895A1E21A2E5B
:1029C000AA1BBB1BFD010DC0AA1FBB1FEE1FFF1FD3
:1029D000A217B307E407F50720F0A21BB30BE40B23
:1029E000F50B661F771F881F991F1A9469F760956A
:1029F0007095809590959B01AC01BD01CF01089524
:102A0000AA1BBB1B51E107C0AA1FBB1FA617B70714
:102A100010F0A61BB70B881F991F5A95A9F7809530
:102A20009095BC01CD010895EE0FFF1F0590F49124
:082A3000E02D0994F894FFCF9A
:102A380064000000803F64000000803F20200020E8
:102A48000A00207374616765203120002073746167
:102A5800676520322000696E69740A0073746172B8
:102A680074696E67206779726F2063616C6962723E
:102A78006174696F6E0A00646F6E652063616C69CA
:102A880062726174696E67206779726F0A00776194
:102A98006974696E67206F6E207573657220696E40
:102AA8007075740A00696E697420646F6E650A0037
:102AB800000000001B0CBB0DC70BF00BD70B100C54
:102AC8006E616E00696E66006F7666002E0000000B
:0E2AD80000001E10F10FC60FCE0FE10FF00F21
:040000050080020C69
:00000001FF
