:100000000C945F000C9487000C9487000C945903A7
:100010000C9487000C9487000C9487000C94870044
:100020000C9487000C9487000C9487000C94870034
:100030000C9487000C9487000C9487000C94870024
:100040000C94510B0C9487000C94300F0C94730F8C
:100050000C9487000C9487000C9487000C94870004
:100060000C9436120C948700000000070002010077
:100070000003040600000000000000000102040864
:100080001020408001020408102001020408102002
:10009000040404040404040402020202020203032E
:1000A00003030303000000002300260029000000D2
:1000B0000000250028002B0008042F1054111124E3
:1000C0001FBECFEFD8E0DEBFCDBF11E0A0E0B1E0B2
:1000D000E0ECFBE202C005900D92A63DB107D9F716
:1000E00024E0A6EDB1E001C01D92A132B207E1F714
:1000F00010E0CEEBD0E004C02297FE010E94DA159A
:10010000C83BD107C9F70E94910E0C9463130C945D
:100110000000DC01ED91FC910190F081E02D09944B
:10012000DC01ED91FC910190F081E02D09944F925A
:100130005F926F927F928F929F92AF92BF92CF9277
:10014000DF92EF92FF920F931F93CF93DF9300D034
:1001500000D0CDB7DEB720912E0230912F02409112
:1001600030025091310260912A0270912B028091ED
:100170002C0290912D020E946F136B017C01209143
:10018000AA023091AB024091AC025091AD020E94A4
:100190002715209132023091330240913402509160
:1001A00035020E9470132B013C0160933202709360
:1001B000330280933402909335020091070110912D
:1001C0000801B801882777FD8095982F0E94731445
:1001D0004B015C019B01AC01C301B2010E942315DC
:1001E00018164CF48092320290923302A09234029C
:1001F000B092350222C066277727601B710B8827D3
:1002000077FD8095982F0E94731469837A838B837E
:100210009C839B01AC01C301B2010E94D41387FFF0
:100220000CC089819A81AB81BC818093320290930A
:100230003302A0933402B09335022091090130912A
:100240000A0140910B0150910C01C701B6010E94B7
:10025000271520913202309133024091340250919F
:1002600035020E9470132B013C0120912202309133
:1002700023024091240250912502C701B6010E9439
:100280006F132091A6023091A7024091A8025091CD
:10029000A9020E9427159B01AC01C301B2010E9473
:1002A00070132B013C01A50194010E94231518161F
:1002B000ECF066277727601B710B882777FD809508
:1002C000982F0E9473144B015C019B01AC01C30188
:1002D000B2010E94D41387FD09C0409226025092B9
:1002E0002702609228027092290208C0809226029A
:1002F00090922702A0922802B0922902C092220274
:10030000D0922302E0922402F092250220911A0258
:1003100030911B0240911C0250911D026091160207
:100320007091170280911802909119020E946F1328
:100330006B017C0120919E0230919F024091A002AE
:100340005091A1020E94271520911E0230911F0298
:1003500040912002509121020E9470132B013C0118
:1003600060931E0270931F028093200290932102DB
:100370000091980210919902B801882777FD809525
:10038000982F0E9473144B015C019B01AC01C301C7
:10039000B2010E94231518164CF480921E0290920E
:1003A0001F02A0922002B092210222C06627772766
:1003B000601B710B882777FD8095982F0E9473141E
:1003C00069837A838B839C839B01AC01C301B20157
:1003D0000E94D41387FF0CC089819A81AB81BC81B4
:1003E00080931E0290931F02A0932002B0932102DB
:1003F0002091A2023091A3024091A4025091A50243
:10040000C701B6010E94271520911E0230911F02DC
:1004100040912002509121020E9470132B013C0157
:1004200020910E0230910F02409110025091110262
:10043000C701B6010E946F1320919A0230919B026E
:1004400040919C0250919D020E9427159B01AC0196
:10045000C301B2010E9470132B013C01A50194015C
:100460000E9423151816ECF066277727601B710B86
:10047000882777FD8095982F0E9473144B015C01AB
:100480009B01AC01C301B2010E94D41387FD09C0D6
:10049000409212025092130260921402709215025E
:1004A00008C08092120290921302A0921402B0929D
:1004B0001502C0920E02D0920F02E0921002F0924A
:1004C00011022091060230910702409108025091DA
:1004D00009026091020270910302809104029091DE
:1004E00005020E946F136B017C01609336027093CA
:1004F0003702809338029093390220919402309110
:10050000950240919602509197020E9427152091E2
:100510000A0230910B0240910C0250910D020E9490
:1005200070132B013C0160930A0270930B028093BD
:100530000C0290930D020091010110910201B8018B
:10054000882777FD8095982F0E9473144B015C01DA
:100550009B01AC01C301B2010E94231518164CF493
:1005600080920A0290920B02A0920C02B0920D02AD
:1005700022C066277727601B710B882777FD80953F
:10058000982F0E94731469837A838B839C839B01C9
:10059000AC01C301B2010E94D41387FF0CC0898152
:1005A0009A81AB81BC8180930A0290930B02A09345
:1005B0000C02B0930D02209103013091040140918F
:1005C000050150910601C701B6010E94271520912F
:1005D0000A0230910B0240910C0250910D020E94D0
:1005E00070132B013C012091FA013091FB014091E5
:1005F000FC015091FD01C701B6010E946F132091CB
:1006000090023091910240919202509193020E9487
:1006100027159B01AC01C301B2010E9470132B018D
:100620003C01A50194010E9423151816ECF06627E1
:100630007727601B710B882777FD8095982F0E9484
:1006400073144B015C019B01AC01C301B2010E9418
:10065000D41387FD09C04092FE015092FF016092C1
:1006600000027092010208C08092FE019092FF0188
:10067000A0920002B0920102C092FA01D092FB0156
:10068000E092FC01F092FD010F900F900F900F90FF
:10069000DF91CF911F910F91FF90EF90DF90CF905E
:1006A000BF90AF909F908F907F906F905F904F9092
:1006B00008951F920F920FB60F9211242F933F931C
:1006C0004F935F936F937F938F939F93AF93BF935A
:1006D000EF93FF930E949B0B60935202709353021F
:1006E000809354029093550220918F02189B0EC064
:1006F00021111BC021E020938F026093620270934E
:10070000630280936402909365020FC0213069F404
:1007100010928F022091620230916302AB01421B62
:10072000530B50938B0240938A0220918E02199BA7
:100730000EC021111BC021E020938E0260935E0247
:1007400070935F0280936002909361020FC021302A
:1007500069F410928E0220915E0230915F02AB012B
:10076000421B530B509389024093880220918D02C3
:100770001A9B0EC021111BC021E020938D026093B3
:100780005A0270935B0280935C0290935D020FC0EB
:10079000213069F410928D0220915A0230915B024F
:1007A000AB01421B530B509387024093860220916A
:1007B0008C021B9B0EC021111AC021E020938C02D9
:1007C0006093560270935702809358029093590297
:1007D0000EC0213061F410928C02209156023091AB
:1007E0005702621B730B7093850260938402FF9122
:1007F000EF91BF91AF919F918F917F916F915F9199
:100800004F913F912F910F900FBE0F901F90189511
:100810008091090190910A01A0910B01B0910C0106
:100820008093A2029093A302A093A402B093A50286
:100830008091AA029091AB02A091AC02B091AD025E
:1008400080939E0290939F02A093A002B093A10276
:100850008091A6029091A702A091A802B091A9024E
:1008600080939A0290939B02A0939C02B0939D0266
:1008700080910701909108019093990280939802CA
:100880000895CF9368E670E081E693E00E943F11FF
:100890006BE370E081E693E00E94900060E081E607
:1008A00093E00E94411121E030E04EE050E068E624
:1008B00070E081E693E00E94331181E693E00E94AC
:1008C0008D10C82F81E693E00E948D1060E070E0EB
:1008D0007C2F862B972BBC01882777FD8095982F3E
:1008E0000E9473146093D6017093D7018093D8014E
:1008F0009093D90181E693E00E948D10C82F81E684
:1009000093E00E948D1060E070E07C2F862B972B87
:10091000BC01882777FD8095982F0E9473146093FF
:10092000DA017093DB018093DC019093DD0181E6B5
:1009300093E00E948D10C82F81E693E00E948D10F5
:1009400060E070E07C2F862B972BBC01882777FD19
:100950008095982F0E9473146093DE017093DF01DD
:100960008093E0019093E10181E693E00E948D1075
:10097000C82F81E693E00E948D1060E070E07C2F2C
:10098000862B972BBC01882777FD8095982F0E9496
:1009900073146093E2017093E3018093E4019093F8
:1009A000E50181E693E00E948D10C82F81E693E077
:1009B0000E948D1060E070E07C2F862B972BBC018D
:1009C000882777FD8095982F0E9473146093E60125
:1009D0007093E7018093E8019093E90181E693E049
:1009E0000E948D10C82F81E693E00E948D1060E078
:1009F00070E07C2F862B972BBC01882777FD809594
:100A0000982F0E9473146093EA017093EB01809316
:100A1000EC019093ED0181E693E00E948D10C82FC8
:100A200081E693E00E948D1060E070E07C2F862BC1
:100A3000972BBC01882777FD8095982F0E9473140F
:100A40006093EE017093EF018093F0019093F101B8
:100A500080915002909151028A3F910509F04EC059
:100A6000209142023091430240914402509145024C
:100A70006091E6017091E7018091E8019091E901B0
:100A80000E946F136093E6017093E7018093E80181
:100A90009093E90120913E0230913F024091400243
:100AA000509141026091EA017091EB018091EC015B
:100AB0009091ED010E946F136093EA017093EB0136
:100AC0008093EC019093ED0120913A0230913B022A
:100AD00040913C0250913D02609146027091470264
:100AE00080914802909149020E946F1360934602E0
:100AF000709347028093480290934902CF910895E2
:100B0000CF93DF9340E056E960E070E087EB92E03E
:100B10000E94AE0F60E171E087EB92E00E94F00C62
:100B200066E171E087EB92E00E94F00C60910001B9
:100B3000772767FD70954AE050E087EB92E00E94CE
:100B40009C0D69E871E087EB92E00E94F00C81E671
:100B500093E00E941C118AB1806F8AB9249A61E0E7
:100B60008CE00E94530C6AEF70E080E090E00E94FD
:100B7000BE0B81E693E00E941C1168E670E081E6FE
:100B800093E00E943F116BE670E081E693E00E94E3
:100B9000900060E070E081E693E00E94900061E0E8
:100BA00081E693E00E9441116AEF70E080E090E0FE
:100BB0000E94BE0B69E271E087EB92E00E94F00CAC
:100BC0001092510210925002CFE0D0E0809150027A
:100BD000909151028A3F91050CF079C0BE010E94AC
:100BE0008E15892B51F48CE00E94890C61E0892BD1
:100BF00009F060E08CE00E94530C0E9441042091B7
:100C0000E6013091E7014091E8015091E9016091DE
:100C100042027091430280914402909145020E94E9
:100C20007013609342027093430280934402909346
:100C300045022091EA013091EB014091EC01509185
:100C4000ED0160913E0270913F02809140029091CF
:100C500041020E94701360933E0270933F028093A2
:100C60004002909341022091EE013091EF014091BA
:100C7000F0015091F10160913A0270913B02809134
:100C80003C0290913D020E94701360933A0270936F
:100C90003B0280933C0290933D028BB1806F8BB9F5
:100CA00088EE93E00E94E40B8BB18F708BB963E008
:100CB00070E080E090E00E94BE0B80915002909125
:100CC0005102019690935102809350027FCF20E011
:100CD00030E04AE753E46091420270914302809110
:100CE0004402909145020E94D8136093420270938F
:100CF0004302809344029093450220E030E04AE7AB
:100D000053E460913E0270913F02809140029091C5
:100D100041020E94D81360933E0270933F02809379
:100D200040029093410220E030E04AE753E46091B2
:100D30003A0270913B0280913C0290913D020E94E8
:100D4000D81360933A0270933B0280933C029093D5
:100D50003D0264E471E087EB92E00E94F00C409168
:100D6000420250914302609144027091450222E098
:100D700030E087EB92E00E948F0E62E571E087EB36
:100D800092E00E94F00C809168008160809368007E
:100D900080916B00816080936B0080916B0082601A
:100DA00080936B0080916B00846080936B008091D6
:100DB0006B00886080936B0069E671E087EB92E0DE
:100DC0000E94F00C8091880290918902845893408F
:100DD0008D38910578F180914E0290914F020196E5
:100DE00090934F0280934E028BB1806F8BB988EE47
:100DF00093E00E94E40B8BB18F708BB963E070E0DD
:100E000080E090E00E94BE0B80914E0290914F02D4
:100E10008D379105B9F68CE00E94890C61E0892B31
:100E200009F060E08CE00E94530C10924F02109287
:100E30004E02C8CF80918A0290918B0288379540EC
:100E400054F210924F0210924E0260E08CE00E9429
:100E5000530C60E871E087EB92E0DF91CF910C9446
:100E6000F00C2F923F924F925F926F927F928F92EF
:100E70009F92AF92BF92CF92DF92EF92FF920F9329
:100E80001F93CF93DF93CDB7DEB72A970FB6F894B1
:100E9000DEBF0FBECDBF8DB79EB79A8789870E94F0
:100EA000410480918802909189029093F30180938C
:100EB000F20180918402909185029093F5018093D4
:100EC000F40180918602909187029093F7018093BC
:100ED000F60180918A0290918B029093F9018093A0
:100EE000F80140910001552747FD5095ADB7BEB7B9
:100EF000A41BB50B0FB6F894BEBF0FBEADBF0DB7A8
:100F00001EB70F5F1F4F66ED71E0C8010E946613A8
:100F100063E570E087EB92E00E948900E091B70200
:100F2000F091B80240910001552747FD509502808D
:100F3000F381E02DB80187EB92E0099565E470E05C
:100F400087EB92E00E9489002DEC3CEC4CE45FE3DF
:100F500060912A0270912B0280912C0290912D02B7
:100F60000E9427156B017C012AE432E944E652E431
:100F70006091E6017091E7018091E8019091E901AB
:100F80000E94D8132DEC3CEC4CE45EE30E94271544
:100F90009B01AC01C701B6010E94701360932A0245
:100FA00070932B0280932C0290932D022DEC3CEC3D
:100FB0004CE45FE360911602709117028091180271
:100FC000909119020E9427156B017C012AE432E9F5
:100FD00044E652E46091EA017091EB018091EC01EA
:100FE0009091ED010E94D8132DEC3CEC4CE45EE3B3
:100FF0000E9427159B01AC01C701B6010E94701326
:10100000609316027093170280931802909319024E
:101010002DEC3CEC4CE45FE3609102027091030222
:1010200080910402909105020E9427156B017C01BA
:101030002AE432E944E652E46091EE017091EF0156
:101040008091F0019091F1010E94D8132DEC3CECBD
:101050004CE45EE30E9427159B01AC01C701B60179
:101060000E94701360930202709303028093040243
:101070009093050280918802909189028A31944070
:101080009CF480918A0290918B028234944064F4A3
:1010900081E090E090934F0280934E026BE871E004
:1010A00087EB92E00E94F00C80914E0290914F02EB
:1010B000019709F04BC080918802909189028A3192
:1010C00094400CF043C080918A0290918B028B3A3D
:1010D0009540E4F182E090E090934F0280934E02BD
:1010E00065E971E087EB92E00E94F00C1092320209
:1010F00010923302109234021092350210922202A2
:1011000010922302109224021092250210921E02C5
:1011100010921F02109220021092210210920E02D1
:1011200010920F02109210021092110210920A02F5
:1011300010920B0210920C0210920D021092FA0102
:101140001092FB011092FC011092FD0180914E0261
:1011500090914F020297C1F4809188029091890288
:101160008A3194408CF480918A0290918B0289306C
:10117000974054F010924F0210924E026FE971E0C6
:1011800087EB92E00E94F00C10922E0210922F0238
:1011900010923002109231026091840270918502A7
:1011A000653EB5E07B071CF0645E754006C0643D9B
:1011B00025E07207B4F4645D7540882777FD80955B
:1011C000982F0E94731420E030E040E450E40E9425
:1011D000D81360932E0270932F0280933002909365
:1011E000310210921A0210921B0210921C021092ED
:1011F0001D026091860270918702653E85E0780746
:101200001CF0645E754006C0643D95E07907B4F457
:10121000645D7540882777FD8095982F0E94731430
:1012200020E030E040E450E40E94D81360931A02BA
:1012300070931B0280931C0290931D021092060271
:1012400010920702109208021092090260918A021D
:1012500070918B026B31A4E07A070CF1653EB5E02A
:101260007B071CF0645E754006C0643D25E0720794
:10127000B4F4645D7540882777FD8095982F0E94AF
:10128000731420E030E040E450E40E94D8136093EF
:1012900006027093070280930802909309020E944D
:1012A0009700809188029091890290937B028093AD
:1012B0007A0220914E0230914F022230310509F01E
:1012C000E0C08D3D954034F08CED95E090937B022D
:1012D00080937A0260917A0270917B02882777FD71
:1012E0008095982F0E9473142B013C01809112026B
:1012F00090911302A0911402B091150289839A83F0
:10130000AB83BC839C01AD01C301B2010E946F138A
:101310006D837E838F83988780902602909027022A
:10132000A0902802B0902902C090FE01D090FF0149
:10133000E0900002F0900102A50194010E94701358
:10134000A70196010E946F130E9440148B017093B5
:1013500083026093820229813A814B815C81C301BF
:10136000B2010E9470132B013C01A50194010E945F
:101370007013A70196010E9470130E9440141B0174
:101380007093810260938002A5019401C301B201B0
:101390000E946F13A70196010E946F130E944014D0
:1013A0003B0170937F0260937E02A50194016D81E1
:1013B0007E818F8198850E946F13A70196010E94FC
:1013C00070130E9440149B0170937D0260937C0215
:1013D0000E37144034F48EE794E0909383028093A8
:1013E0008202AEE72A16A4E03A0634F48EE794E0CF
:1013F0009093810280938002BEE76B16B4E07B0677
:1014000034F48EE794E090937F0280937E022E372F
:10141000344034F48EE794E090937D0280937C0214
:1014200080918202909183028D3D954034F08CED45
:1014300095E0909383028093820280918002909144
:1014400081028D3D954034F08CED95E090938102C2
:101450008093800280917E0290917F028D3D954025
:1014600034F08CED95E090937F0280937E02809122
:101470007C0290917D028D3D9540ACF08CED95E025
:101480000EC088EE93E09093830280938202909343
:1014900081028093800290937F0280937E029093DA
:1014A0007D0280937C020E949B0B00914A02109166
:1014B0004B0220914C0230914D02601B710B820B4C
:1014C000930B603A7F408105910568F30E949B0B66
:1014D00060934A0270934B0280934C0290934D02AA
:1014E0008BB1806F8BB980914A0290914B02A09191
:1014F0004C02B0914D0240918202509183026627C6
:1015000057FD6095762F480F591F6A1F7B1F409328
:10151000760250937702609378027093790240913B
:10152000800250918102662757FD6095762F480F03
:10153000591F6A1F7B1F409372025093730260937E
:1015400074027093750240917E0250917F0266276B
:1015500057FD6095762F480F591F6A1F7B1F4093D8
:101560006E0250936F02609370027093710240910B
:101570007C0250917D02662757FD6095762F480FBB
:10158000591F6A1F7B1F40936A0250936B0260933E
:101590006C0270936D028BB1803108F45CC00E94C4
:1015A0009B0B60936602709367028093680290932E
:1015B00069020091760210917702209178023091B1
:1015C0007902601771078207930708F05C984091D1
:1015D0007202509173026091740270917502809151
:1015E000660290916702A0916802B0916902841727
:1015F0009507A607B70708F05D9840916E025091D5
:101600006F026091700270917102809166029091F8
:101610006702A0916802B091690284179507A60736
:10162000B70708F05E9840916A0250916B02609192
:101630006C0270916D028091660290916702A09198
:101640006802B091690284179507A607B70708F4E6
:10165000A2CF5F98A0CF6AEF70E080E090E00E9498
:10166000BE0B89859A850FB6F8949EBF0FBE8DBFBD
:101670002A960FB6F894DEBF0FBECDBFDF91CF9193
:101680001F910F91FF90EF90DF90CF90BF90AF90A0
:101690009F908F907F906F905F904F903F902F9092
:1016A00008951F920F920FB60F9211242F933F931C
:1016B0008F939F93AF93BF938091AF029091B002AD
:1016C000A091B102B091B2023091AE0223E0230F9B
:1016D0002D3720F40196A11DB11D05C026E8230F6A
:1016E0000296A11DB11D2093AE028093AF0290938C
:1016F000B002A093B102B093B2028091B302909174
:10170000B402A091B502B091B6020196A11DB11D1F
:101710008093B3029093B402A093B502B093B60243
:10172000BF91AF919F918F913F912F910F900FBEDD
:101730000F901F9018953FB7F8948091B302909145
:10174000B402A091B502B091B60226B5A89B05C01F
:101750002F3F19F00196A11DB11D3FBF6627782FBD
:10176000892F9A2F620F711D811D911D42E0660F16
:10177000771F881F991F4A95D1F70895CF92DF925E
:10178000EF92FF92CF93DF936B017C010E949B0B42
:10179000EB01C114D104E104F10479F00E949B0B28
:1017A0006C1B7D0B683E7340A0F381E0C81AD10822
:1017B000E108F108C851DC4FECCFDF91CF91FF90E9
:1017C000EF90DF90CF9008950197009739F0880F40
:1017D000991F880F991F02970197F1F70895789440
:1017E00084B5826084BD84B5816084BD85B5826026
:1017F00085BD85B5816085BDEEE6F0E080818160C4
:101800008083E1E8F0E010828081826080838081C3
:1018100081608083E0E8F0E0808181608083E1EB9B
:10182000F0E0808184608083E0EBF0E08081816083
:101830008083EAE7F0E08081846080838081826039
:101840008083808181608083808180688083109222
:10185000C1000895833081F028F4813099F08230FE
:10186000A1F008958630A9F08730B9F08430D1F422
:10187000809180008F7D03C0809180008F7780935E
:101880008000089584B58F7702C084B58F7D84BDB4
:1018900008958091B0008F7703C08091B0008F7D54
:1018A0008093B00008950F931F93CF93DF931F92FF
:1018B000CDB7DEB7282F30E0F901E859FF4F84910A
:1018C000F901E458FF4F1491F901E057FF4F0491DB
:1018D0000023C9F0882321F069830E942A0C6981C2
:1018E000E02FF0E0EE0FFF1FE255FF4FA591B491FE
:1018F0009FB7F8948C91611103C01095812301C0AA
:10190000812B8C939FBF0F90DF91CF911F910F91EF
:101910000895CF93DF93282F30E0F901E859FF4F66
:101920008491F901E458FF4FD491F901E057FF4F3A
:10193000C491CC2391F081110E942A0CEC2FF0E08D
:10194000EE0FFF1FEC55FF4FA591B4912C912D2365
:1019500081E090E021F480E002C080E090E0DF913F
:10196000CF910895CF92DF92EF92FF920F931F9342
:10197000CF93DF936C017A01EB01E60EF71E00E0D6
:1019800010E0CE15DF0561F06991D601ED91FC9173
:101990000190F081E02DC6010995080F191FF1CFC4
:1019A000C801DF91CF911F910F91FF90EF90DF90D1
:1019B000CF9008956115710581F0DB010D90002035
:1019C000E9F7AD0141505109461B570BDC01ED9180
:1019D000FC910280F381E02D099480E090E008956D
:1019E0000C94DA0CDC01ED91FC910190F081E02D7A
:1019F00009948F929F92AF92BF92CF92DF92EF9213
:101A0000FF920F931F93CF93DF93CDB7DEB7A197CC
:101A10000FB6F894DEBF0FBECDBF7C01C42EE52FFC
:101A2000CB01D22E19A221E02D1510F02AE0D22EE2
:101A30008E010F5D1F4F8D2C912CA12CB12C6C2D84
:101A40007E2FA50194010E94A2158C2DD29E801993
:101A50001124015011098A3014F4805D01C0895CA1
:101A6000F8018083211531054105510521F0C22E71
:101A7000E32FCA01E4CFB801C7010E94DA0CA19696
:101A80000FB6F894DEBF0FBECDBFDF91CF911F918F
:101A90000F91FF90EF90DF90CF90BF90AF909F900D
:101AA0008F900895CF92DF92EF92FF920F931F9342
:101AB000CF93DF93EC016A017B012115310579F4A5
:101AC000E881F9810190F081E02D642FDF91CF91C1
:101AD0001F910F91FF90EF90DF90CF9009942A30E3
:101AE0003105E9F477FF1AC06DE20E94F20C8C0117
:101AF00044275527BA014C195D096E097F092AE070
:101B0000CE010E94F90C800F911FDF91CF911F91A0
:101B10000F91FF90EF90DF90CF9008952AE0B701EA
:101B2000A601CE01DF91CF911F910F91FF90EF9011
:101B3000DF90CF900C94F90C9A01AB01662757FD0A
:101B40006095762F0C94520D4F925F926F927F9218
:101B50008F929F92AF92BF92CF92DF92EF92FF92BD
:101B60000F931F93CF93DF93EC016A017B01B22E99
:101B70009A01AB01C701B6010E948A15882319F0AA
:101B800068EA71E027C026013701E89477F82FEF63
:101B90003FEF4FE75FE7C301B2010E948A15811151
:101BA0000DC02FEF3FEF4FE75FE7C301B2010E9487
:101BB000D41318161CF46CEA71E00CC02FEF3FEF41
:101BC0004FE75FE4C701B6010E9423151816ACF475
:101BD00060EB71E0CE01DF91CF911F910F91FF90EB
:101BE000EF90DF90CF90BF90AF909F908F907F90BD
:101BF0006F905F904F900C94DA0C2FEF3FEF4FE710
:101C00005FECC701B6010E94D41387FDE1CF20E04D
:101C100030E0A901C701B6010E94D41387FF0AC0B2
:101C20006DE2CE010E94F20C8C01F7FAF094F7F805
:101C3000F09402C000E010E0A12C60E070E080E0D1
:101C40009FE3AB1441F020E030E040E251E40E9419
:101C5000D813A394F6CF9B01AC01C701B6010E9433
:101C600070136B017C010E9445142B013C010E9402
:101C700071149B01AC01C701B6010E946F136B0187
:101C80007C012AE0B301A201CE010E94F90C080FE9
:101C9000191FBB2039F064EB71E0CE010E94DA0C11
:101CA000080F191F7B2C772041F120E030E040E243
:101CB00051E4C701B6010E9427156B017C010E9407
:101CC00040144B01AA2497FCA094BA2C2AE030E0DF
:101CD000B501A401CE010E94520D080F191FC501C4
:101CE000B4010E9473149B01AC01C701B6010E94AC
:101CF0006F136B017C017A94D6CFC801DF91CF912D
:101D00001F910F91FF90EF90DF90CF90BF90AF9019
:101D10009F908F907F906F905F904F9008950C945C
:101D2000A40D0E94EF0B0E948005CAE6DFE00E942E
:101D300031072097E1F30E946A0FF9CFFC01248557
:101D40003585F901E05CFF4F8081918132962081D9
:101D50003181821B930B8F7399270895FC01848531
:101D60009585FC01E05CFF4F4081518132962081D6
:101D700031814217530741F00190F081E02DE80FC7
:101D8000F91F808190E008958FEF9FEF0895FC0187
:101D900084859585FC01E05CFF4F4081518132963E
:101DA000208131814217530779F0A081B181A80FBA
:101DB000B91F8C91208131812F5F3F4F2F733327C3
:101DC0003183208390E008958FEF9FEF0895FC0109
:101DD00081A1882329F0A489B5898C9186FFFBCF46
:101DE00011A20895CF93DF93FC0126853785D90191
:101DF000A05CBF4F8D919C91119701968F7399278D
:101E0000E901CE5BDF4F4881598184179507D9F3EB
:101E10000D90BC91A02DA20FB31F6C93A685B78522
:101E2000A05CBF4F11969C938E93A689B7892C9185
:101E300081E090E0078C02C0880F991F0A94E2F7B6
:101E4000282B2C9381E081A30488F589E02D8081E3
:101E50008064808381E090E0DF91CF9108950895C0
:101E60001F920F920FB60F9211242F933F934F930F
:101E70008F939F93EF93FF938091C00082FD1CC0CE
:101E80004091C60080915D0390915E0301968F732F
:101E9000992720915F03309160038217930771F0B7
:101EA000E0915D03F0915E03E35EFC4F408390930D
:101EB0005E0380935D0302C08091C600FF91EF91A5
:101EC0009F918F914F913F912F910F900FBE0F9047
:101ED0001F90189587EB92E00E949E0E892B11F0BF
:101EE0000C942F0F08951F920F920FB60F9211248A
:101EF0002F933F938F939F93EF93FF932091190319
:101F000030911A0380911B0390911C032817390705
:101F100031F48091C1008F7D8093C10014C0E091A5
:101F20001B03F0911C03E752FD4F208180911B039E
:101F300090911C0301968F73992790931C038093B3
:101F40001B032093C600FF91EF919F918F913F91CA
:101F50002F910F900FBE0F901F901895CF92DF9288
:101F6000EF92FF92CF93DF93EC016A017B01411561
:101F700081EE580761057105F9F0EC89FD8981E072
:101F800090E008A002C0880F991F0A94E2F78083AE
:101F900060E079E08DE390E0A70196010E94A21530
:101FA0002150310941095109569547953795279593
:101FB000211580E1380798F0EC89FD89108260E8EE
:101FC00074E88EE190E0A70196010E94A2152150CD
:101FD0003109410951095695479537952795E88963
:101FE000F9893083EA89FB89208319A2EE89FF8968
:101FF000408181E090E09C010C8C02C0220F331FD5
:102000000A94E2F7422B4083EE89FF8940819C01CC
:102010000D8C02C0220F331F0A94E2F7422B40833B
:10202000EE89FF8940819C010E8C02C0220F331F74
:102030000A94E2F7422B4083EE89FF8920810F8CBE
:1020400002C0880F991F0A94E2F78095822380834B
:10205000DF91CF91FF90EF90DF90CF900895109295
:10206000BA021092B90288EE93E0A0E0B0E080934B
:10207000BB029093BC02A093BD02B093BE028AEB58
:1020800091E09093B8028093B7028DE193E0909332
:10209000C4028093C30289ED92E09093C6028093BC
:1020A000C50285EC90E09093C8028093C70284EC4F
:1020B00090E09093CA028093C90280EC90E09093E4
:1020C000CC028093CB0281EC90E09093CE0280937F
:1020D000CD0282EC90E09093D0028093CF0286EC08
:1020E00090E09093D2028093D10284E08093D30257
:1020F00083E08093D40287E08093D50285E08093CB
:10210000D60281E08093D70208958091910390E0F8
:1021100020919203821B910908952091920380914E
:102120009103281750F4E22FF0E0ED56FC4F808128
:1021300090E02F5F2093920308958FEF9FEF089513
:10214000E091920380919103E81730F4F0E0ED56AE
:10215000FC4F808190E008958FEF9FEF08950895E0
:10216000CF92DF92EF92FF920F931F93CF93DF9363
:102170007C01CB018A0120916D03222389F0EB01C0
:102180006B01C40ED51ECC15DD0569F06991D70130
:10219000ED91FC910190F081E02DC7010995F3CFFD
:1021A000642F0E940D12C801DF91CF911F910F91F2
:1021B000FF90EF90DF90CF900895CF93DF931F9221
:1021C000CDB7DEB7698320916D032223D1F0209132
:1021D0006E03203240F021E030E0FC0133832283A3
:1021E00080E090E015C080916F03E82FF0E0E059A7
:1021F000FC4F998190838F5F80936F0380936E0370
:1022000005C061E0CE0101960E940D1281E090E0D0
:102210000F90DF91CF910895FC011382128248EE56
:1022200053E060E070E044835583668377838AECF3
:1022300091E091838083089510929203109291030C
:1022400010926F0310926E030C945811862F413236
:1022500008F040E263E973E00E9476111092920365
:102260008093910308950C94261181E080936D036F
:102270006093900310926F0310926E0308950C9474
:1022800035110F93062F21E040916E0360E773E054
:10229000809190030E94BA1110926F0310926E0306
:1022A00010926D030F91089581E693E00C940C1148
:1022B0001092200481E080931E0410921D0461E0BE
:1022C00082E10E94530C61E083E10E94530CE9EB30
:1022D000F0E080818E7F808380818D7F808388E4A1
:1022E0008093B80085E48093BC000895413208F0E3
:1022F0003FC0909120049111FCCF91E09093200475
:1023000020931E042FEF2093B3031092F803240FA1
:102310002093F70390931F0490911F04880F892B3B
:1023200080931F0480911D04813041F410921D049C
:1023300080911F048093BB0085EC01C085EE8093E3
:10234000BC00809120048130E1F38091F803841770
:1023500010F44091F80329EF33E0FB01D9018A2FF3
:10236000821B841718F48D918193F9CF842F0895DF
:1023700080E008950F93413208F046C09091200408
:102380009111FCCF92E09093200400931E049FEFE4
:102390009093B3031092F8034093F703FB0169EFA6
:1023A00073E0DB019A2F961B941718F491919D937B
:1023B000F9CF10921F0490911F04880F892B8093EE
:1023C0001F0480911D04813041F410921D048091FE
:1023D0001F048093BB0085EC01C085EE8093BC0098
:1023E000222321F0809120048230E1F38091B30315
:1023F0008F3F61F08091B303803251F08091B3033D
:10240000803341F483E007C081E005C080E003C071
:1024100082E001C084E00F910895613298F4209128
:102420002004243089F46093D503FC0187ED93E008
:10243000DC012A2F281B261718F421912D93F9CFA0
:1024400080E0089581E0089582E0089585ED80930D
:10245000BC008091BC0084FDFCCF10922004089544
:1024600085EC8093BC001092200408951F920F9277
:102470000FB60F9211242F933F934F935F936F9357
:102480007F938F939F93AF93BF93EF93FF9380912D
:10249000B900887F803609F49CC068F5883209F459
:1024A0005BC090F4803109F454C038F4882309F4F7
:1024B000F5C0883009F44DC0F5C0883109F44CC02E
:1024C000803209F45DC0EEC0803409F468C048F47D
:1024D000803309F455C0883309F0E4C08093B30316
:1024E000A8C0803509F44FC0883509F45DC0883430
:1024F00009F0D8C0D5C0883909F4C6C0A8F4883717
:1025000009F467C038F4883609F463C0803709F4E9
:1025100060C0C8C0883809F4B7C0803909F45FC00A
:10252000803809F0BFC05BC0803B09F485C038F437
:10253000803A09F466C0883A09F47EC0B3C0803C92
:1025400009F4A6C0883C09F4A3C0883B09F489C0FB
:10255000A9C080911F0410C09091F8038091F703E7
:10256000981770F5E091F80381E08E0F8093F803DF
:10257000F0E0E750FC4F80818093BB0085EC85C084
:102580008093B3038DC0E091F80381E08E0F8093B8
:10259000F8038091BB00F0E0E750FC4F80839091FE
:1025A000F8038091F7036DC0E091F80381E08E0F8E
:1025B0008093F8038091BB00F0E0E750FC4F8083EC
:1025C00080911E0481116CC081E080931D0484EA17
:1025D00060C083E0809320041092B403CFCF809139
:1025E000B403803208F050C0E091B40381E08E0F54
:1025F0008093B4038091BB00F0E0EB54FC4F8083E8
:10260000BDCF8091B403803230F4E091B403F0E0A8
:10261000EB54FC4F10820E9426126091B40370E0CC
:10262000E0911904F0911A0485EB93E0099510925A
:10263000B4030E94301236C084E0809320041092CC
:10264000D6031092D503E0911B04F0911C04099568
:102650008091D503811105C081E08093D50310924C
:10266000D703E091D60381E08E0F8093D603F0E08C
:10267000E952FC4F80818093BB009091D6038091FA
:10268000D503981708F47ACF85E88093BC000AC078
:1026900085EC8093BC001092200404C01092B30318
:1026A0000E942612FF91EF91BF91AF919F918F9160
:1026B0007F916F915F914F913F912F910F900FBE3E
:1026C0000F901F901895F8940C94DE15FB01DC0117
:1026D00002C001900D9241505040D8F708955058D3
:1026E000BB27AA270ED075C166D130F06BD120F080
:1026F00031F49F3F11F41EF45BC10EF4E095E7FB4B
:1027000051C1E92F77D180F3BA17620773078407A5
:10271000950718F071F49EF58FC10EF4E0950B2E1D
:10272000BA2FA02D0B01B90190010C01CA01A00123
:102730001124FF27591B99F0593F50F4503E68F17E
:102740001A16F040A22F232F342F4427585FF3CFBF
:10275000469537952795A795F0405395C9F77EF490
:102760001F16BA0B620B730B840BBAF09150A1F0D9
:10277000FF0FBB1F661F771F881FC2F70EC0BA0F5F
:10278000621F731F841F48F4879577956795B795E7
:10279000F7959E3F08F0B3CF9395880F08F09927DF
:1027A000EE0F979587950895D9D008F481E00895A4
:1027B0000CD00FC107D140F0FED030F021F45F3FC4
:1027C00019F0F0C0511139C1F3C014D198F3992315
:1027D000C9F35523B1F3951B550BBB27AA276217E5
:1027E0007307840738F09F5F5F4F220F331F441F2A
:1027F000AA1FA9F333D00E2E3AF0E0E830D0915062
:102800005040E695001CCAF729D0FE2F27D0660F4E
:10281000771F881FBB1F261737074807AB07B0E88D
:1028200009F0BB0B802DBF01FF2793585F4F2AF0A3
:102830009E3F510568F0B6C000C15F3FECF3983E83
:10284000DCF3869577956795B795F7959F5FC9F700
:10285000880F911D9695879597F90895E1E0660F89
:10286000771F881FBB1F621773078407BA0720F002
:10287000621B730B840BBA0BEE1F88F7E09508956B
:1028800004D06894B111D9C00895BCD088F09F5786
:1028900090F0B92F9927B751A0F0D1F0660F771FAC
:1028A000881F991F1AF0BA95C9F712C0B13081F08C
:1028B000C3D0B1E00895C0C0672F782F8827B85FD4
:1028C00039F0B93FCCF3869577956795B395D9F7ED
:1028D0003EF490958095709561957F4F8F4F9F4FF7
:1028E0000895E89409C097FB3EF490958095709503
:1028F00061957F4F8F4F9F4F9923A9F0F92F96E94C
:10290000BB279395F695879577956795B795F111C0
:10291000F8CFFAF4BB0F11F460FF1BC06F5F7F4F5D
:102920008F4F9F4F16C0882311F096E911C077236F
:1029300021F09EE8872F762F05C0662371F096E878
:10294000862F70E060E02AF09A95660F771F881F47
:10295000DAF7880F9695879597F90895990F0008EB
:10296000550FAA0BE0E8FEEF16161706E807F90761
:10297000C0F012161306E407F50798F0621B730BFC
:10298000840B950B39F40A2661F0232B242B252B7D
:1029900021F408950A2609F4A140A6958FEF811D20
:1029A000811D089597F99F6780E870E060E00895C1
:1029B0009FEF80EC089500240A9416161706180657
:1029C0000906089500240A94121613061406050633
:1029D0000895092E0394000C11F4882352F0BB0FC4
:1029E00040F4BF2B11F460FF04C06F5F7F4F8F4F27
:1029F0009F4F089557FD9058440F551F59F05F3F62
:102A000071F04795880F97FB991F61F09F3F79F010
:102A100087950895121613061406551FF2CF469592
:102A2000F1DF08C0161617061806991FF1CF869514
:102A30007105610508940895E894BB2766277727F8
:102A4000CB0197F908958ADF08F48FEF08950BD032
:102A5000C0CFB1DF28F0B6DF18F0952309F0A2CF80
:102A6000A7CF1124EACFC6DFA0F3959FD1F3950F2E
:102A700050E0551F629FF001729FBB27F00DB11D02
:102A8000639FAA27F00DB11DAA1F649F6627B00D92
:102A9000A11D661F829F2227B00DA11D621F739F7B
:102AA000B00DA11D621F839FA00D611D221F749F89
:102AB0003327A00D611D231F849F600D211D822FD0
:102AC000762F6A2F11249F5750408AF0E1F0882317
:102AD0004AF0EE0FFF1FBB1F661F771F881F915024
:102AE0005040A9F79E3F510570F05CCFA6CF5F3FE5
:102AF000ECF3983EDCF3869577956795B795F79557
:102B0000E7959F5FC1F7FE2B880F911D96958795DE
:102B100097F9089523DF880B990B089597FB072EEB
:102B200016F4009407D077FD09D00E94C41507FC65
:102B300005D03EF4909581959F4F089570956195CD
:102B40007F4F0895A1E21A2EAA1BBB1BFD010DC0E9
:102B5000AA1FBB1FEE1FFF1FA217B307E407F5074D
:102B600020F0A21BB30BE40BF50B661F771F881F29
:102B7000991F1A9469F760957095809590959B01BF
:102B8000AC01BD01CF010895AA1BBB1B51E107C0D9
:102B9000AA1FBB1FA617B70710F0A61BB70B881FED
:102BA000991F5A95A9F780959095BC01CD0108957C
:102BB000EE0FFF1F0590F491E02D0994F894FFCFDC
:102BC0002464000000803F64000000803F2020005B
:102BD000696E69740A006C656E677468206F6620A0
:102BE0007374727563743A20007374617274696EE1
:102BF00067206779726F2063616C696272617469C2
:102C00006F6E0A00726F6C6C206F66667365743A43
:102C10002000646F6E652063616C69627261746923
:102C20006E67206779726F0A0077616974696E67F1
:102C3000206F6E207573657220696E7075740A005E
:102C4000696E697420646F6E650A00207374616731
:102C50006520312000207374616765203220007385
:102C600074616765203020006E616E00696E6600D9
:102C70006F7666002E0000000000F20EB20C9E0E71
:102C8000C70EAE0EE70E00000000DD10B01085107C
:062C90008D10A010AF1032
:040000050080024E27
:00000001FF
