:100000000C945F000C9487000C9487000C944B07B1
:100010000C9487000C9487000C9487000C94870044
:100020000C9487000C9487000C9487000C94870034
:100030000C9487000C9487000C9487000C94870024
:100040000C9433080C9487000C94730A0C94B60A31
:100050000C9487000C9487000C9487000C94870004
:100060000C94290D0C948700000000070002010089
:100070000003040600000000000000000102040864
:100080001020408001020408102001020408102002
:10009000040404040404040402020202020203032E
:1000A00003030303000000002300260029000000D2
:1000B0000000250028002B00FA07720B8B0C11247E
:1000C0001FBECFEFD8E0DEBFCDBF11E0A0E0B1E0B2
:1000D000ECE3F1E202C005900D92A837B107D9F721
:1000E00023E0A8E7B1E001C01D92AD38B207E1F707
:1000F00010E0CEEBD0E004C02297FE010E949810E1
:10010000C83BD107C9F70E94D4090C94560E0C9431
:100110000000DC01ED91FC910190F081E02D09944B
:100120004F925F926F927F928F929F92AF92BF9207
:10013000CF92DF92EF92FF920F931F93CF93DF93B3
:1001400000D000D0CDB7DEB72091AC013091AD0129
:100150004091AE015091AF016091A8017091A90149
:100160008091AA019091AB010E94590E6B017C0114
:1001700020911602309117024091180250911902F5
:100180000E9411102091B0013091B1014091B20153
:100190005091B3010E945A0E2B013C016093B001B3
:1001A0007093B1018093B2019093B3010091060165
:1001B00010910701B801882777FD8095982F0E943C
:1001C0005D0F4B015C019B01AC01C301B2010E94B8
:1001D0000D1018164CF48092B0019092B101A092CB
:1001E000B201B092B30122C066277727601B710B62
:1001F000882777FD8095982F0E945D0F69837A8309
:100200008B839C839B01AC01C301B2010E94BE0E93
:1002100087FF0CC089819A81AB81BC818093B0013A
:100220009093B101A093B201B093B3012091080162
:100230003091090140910A0150910B01C701B601AB
:100240000E9411102091B0013091B1014091B20192
:100250005091B3010E945A0E2B013C012091A00144
:100260003091A1014091A2015091A301C701B601B3
:100270000E94590E209112023091130240911402F3
:10028000509115020E9411109B01AC01C301B201F3
:100290000E945A0E2B013C01A50194010E940D10F1
:1002A0001816ECF066277727601B710B882777FDFF
:1002B0008095982F0E945D0F4B015C019B01AC0162
:1002C000C301B2010E94BE0E87FD09C04092A40185
:1002D0005092A5016092A6017092A70108C0809279
:1002E000A4019092A501A092A601B092A701C0928C
:1002F000A001D092A101E092A201F092A30120916D
:1003000098013091990140919A0150919B0160911F
:1003100094017091950180919601909197010E94AE
:10032000590E6B017C0120910A0230910B02409121
:100330000C0250910D020E94111020919C013091ED
:100340009D0140919E0150919F010E945A0E2B01E8
:100350003C0160939C0170939D0180939E0190935A
:100360009F010091040210910502B801882777FDD2
:100370008095982F0E945D0F4B015C019B01AC01A1
:10038000C301B2010E940D1018164CF480929C011A
:1003900090929D01A0929E01B0929F0122C066277B
:1003A0007727601B710B882777FD8095982F0E9417
:1003B0005D0F69837A838B839C839B01AC01C301AE
:1003C000B2010E94BE0E87FF0CC089819A81AB8169
:1003D000BC8180939C0190939D01A0939E01B0935A
:1003E0009F0120910E0230910F0240911002509116
:1003F0001102C701B6010E94111020919C01309199
:100400009D0140919E0150919F010E945A0E2B0127
:100410003C0120918C0130918D0140918E015091D1
:100420008F01C701B6010E94590E2091060230913A
:10043000070240910802509109020E9411109B018D
:10044000AC01C301B2010E945A0E2B013C01A5016F
:1004500094010E940D101816ECF066277727601B98
:10046000710B882777FD8095982F0E945D0F4B01B7
:100470005C019B01AC01C301B2010E94BE0E87FD6D
:1004800009C0409290015092910160929201709245
:10049000930108C08092900190929101A0929201E4
:1004A000B0929301C0928C01D0928D01E0928E01A6
:1004B000F0928F0120918401309185014091860155
:1004C000509187016091800170918101809182013A
:1004D000909183010E94590E6B017C016093B401DD
:1004E0007093B5018093B6019093B70120910002FB
:1004F0003091010240910202509103020E941110BA
:10050000209188013091890140918A0150918B019D
:100510000E945A0E2B013C0160938801709389015F
:1005200080938A0190938B01009100011091010149
:10053000B801882777FD8095982F0E945D0F4B01A9
:100540005C019B01AC01C301B2010E940D101816A1
:100550004CF48092880190928901A0928A01B09215
:100560008B0122C066277727601B710B882777FDD8
:100570008095982F0E945D0F69837A838B839C837B
:100580009B01AC01C301B2010E94BE0E87FF0CC0EB
:1005900089819A81AB81BC81809388019093890184
:1005A000A0938A01B0938B01209102013091030145
:1005B0004091040150910501C701B6010E9411103C
:1005C000209188013091890140918A0150918B01DD
:1005D0000E945A0E2B013C01209178013091790143
:1005E00040917A0150917B01C701B6010E94590EDA
:1005F0002091FC013091FD014091FE015091FF01DD
:100600000E9411109B01AC01C301B2010E945A0E5D
:100610002B013C01A50194010E940D101816ECF06D
:1006200066277727601B710B882777FD8095982FA9
:100630000E945D0F4B015C019B01AC01C301B20143
:100640000E94BE0E87FD09C040927C0150927D0140
:1006500060927E0170927F0108C080927C0190922E
:100660007D01A0927E01B0927F01C0927801D0926C
:100670007901E0927A01F0927B010F900F900F9038
:100680000F90DF91CF911F910F91FF90EF90DF902E
:10069000CF90BF90AF909F908F907F906F905F9022
:1006A0004F90089540E056E960E070E083E292E008
:1006B0000E94F10A62E171E083E292E00E94D209B5
:1006C0008DEC92E00E945F0C8AB1806F8AB9249A07
:1006D00061E08CE00E9435096AEF70E080E090E014
:1006E0000E94A00869E670E08DEC92E00E94730C15
:1006F00060E270E08DEC92E00E9489006FE070E0B3
:100700008DEC92E00E9489008DEC92E00E94880CB2
:1007100069E670E08DEC92E00E94730C63E270E099
:100720008DEC92E00E94890060E970E08DEC92E02F
:100730000E9489008DEC92E00E94880C6AEF70E0C4
:1007400080E090E00E94A008809168008160809322
:10075000680080916B00816080936B0080916B00DA
:10076000826080936B0080916B00846080936B004B
:1007700080916B00886080936B0068E171E083E298
:1007800092E00E94D2098091F4019091F5018E5D72
:1007900093404F9778F18091BC019091BD010196F3
:1007A0009093BD018093BC018BB1806F8BB988EEB3
:1007B00093E00E94C6088BB18F708BB963E070E044
:1007C00080E090E00E94A0088091BC019091BD0162
:1007D0008D379105C1F68CE00E946B0961E0892B91
:1007E00009F060E08CE00E9435091092BD01109282
:1007F000BC01C9CF8091F6019091F70188379540EF
:1008000054F21092BD011092BC0160E08CE00E9495
:1008100035096FE271E083E292E00C94D2092F92E5
:100820003F924F925F926F927F928F929F92AF9280
:10083000BF92CF92DF92EF92FF920F931F93CF93CD
:10084000DF93CDB7DEB728970FB6F894DEBF0FBEA3
:10085000CDBF1092A8011092A9011092AA01109286
:10086000AB01109294011092950110929601109292
:1008700097011092800110928101109282011092D2
:1008800083018091F4019091F5018A3194409CF4A8
:100890008091F6019091F7018234944064F481E0F4
:1008A00090E09093BD018093BC016AE371E083E224
:1008B00092E00E94D2098091BC019091BD01019704
:1008C00009F04BC08091F4019091F5018A31944078
:1008D0000CF043C08091F6019091F7018B3A95405E
:1008E000E4F182E090E09093BD018093BC0164E468
:1008F00071E083E292E00E94D2091092B00110925E
:10090000B1011092B2011092B3011092A0011092A5
:10091000A1011092A2011092A30110929C011092C9
:100920009D0110929E0110929F0110928C011092D5
:100930008D0110928E0110928F01109288011092F9
:10094000890110928A0110928B0110927801109205
:10095000790110927A0110927B018091BC019091F3
:10096000BD010297C1F48091F4019091F5018A31A3
:1009700094408CF48091F6019091F7018930974072
:1009800054F01092BD011092BC016EE471E083E25C
:1009900092E00E94D2091092AC011092AD01109227
:1009A000AE011092AF016091F0017091F101653ECE
:1009B00085E078071CF0645E754006C0643D95E0F4
:1009C0007907B4F4645D7540882777FD8095982F8A
:1009D0000E945D0F20E030E040E450E40E94C20E2F
:1009E0006093AC017093AD018093AE019093AF0121
:1009F000109298011092990110929A0110929B0105
:100A00006091F2017091F301653EA5E07A071CF058
:100A1000645E754006C0643DB5E07B07B4F4645D78
:100A20007540882777FD8095982F0E945D0F20E004
:100A300030E040E450E40E94C20E6093980170934D
:100A4000990180939A0190939B01109284011092D6
:100A5000850110928601109287016091F6017091D4
:100A6000F7016B31E4E07E070CF1653EF5E07F07AE
:100A70001CF0645E754006C0643D25E07207B4F466
:100A8000645D7540882777FD8095982F0E945D0FE3
:100A900020E030E040E450E40E94C20E6093840104
:100AA0007093850180938601909387010E94900046
:100AB0008091F4019091F5019093E7018093E60114
:100AC0002091BC013091BD012230310509F0E0C018
:100AD0008D3D954034F08CED95E09093E701809347
:100AE000E6016091E6017091E701882777FD809526
:100AF000982F0E945D0F2B013C01809190019091F5
:100B00009101A0919201B091930189839A83AB8363
:100B1000BC839C01AD01C301B2010E94590E6D83DB
:100B20007E838F8398878090A4019090A501A090E8
:100B3000A601B090A701C0907C01D0907D01E0900B
:100B40007E01F0907F01A50194010E945A0EA70139
:100B500096010E94590E0E942A0F1B017093EF010B
:100B60006093EE0129813A814B815C81C301B2011E
:100B70000E945A0E2B013C01A50194010E945A0EBD
:100B8000A70196010E945A0E0E942A0F8B017093B2
:100B9000ED016093EC01A5019401C301B2010E9433
:100BA000590EA70196010E94590E0E942A0F3B017F
:100BB0007093EB016093EA01A50194016D817E8140
:100BC0008F8198850E94590EA70196010E945A0EA6
:100BD0000E942A0F9B017093E9016093E8019EE750
:100BE000291694E0390634F48EE794E09093EF01EF
:100BF0008093EE010E37144034F48EE794E0909326
:100C0000ED018093EC01BEE76B16B4E07B0634F493
:100C10008EE794E09093EB018093EA012E37344005
:100C200034F48EE794E09093E9018093E801809199
:100C3000EE019091EF018D3D954034F08CED95E003
:100C40009093EF018093EE018091EC019091ED0182
:100C50008D3D954034F08CED95E09093ED018093BF
:100C6000EC018091EA019091EB018D3D954034F0CB
:100C70008CED95E09093EB018093EA018091E8017F
:100C80009091E9018D3D9540ACF08CED95E00EC062
:100C900088EE93E09093EF018093EE019093ED0145
:100CA0008093EC019093EB018093EA019093E9012A
:100CB0008093E8010E947D080091B8011091B9016C
:100CC0002091BA013091BB01601B710B820B930B19
:100CD000603A7F408105910568F30E947D0860932A
:100CE000B8017093B9018093BA019093BB018BB1A5
:100CF000806F8BB98091B8019091B901A091BA0130
:100D0000B091BB014091EE015091EF01662757FD74
:100D10006095762F480F591F6A1F7B1F4093E20191
:100D20005093E3016093E4017093E5014091EC017D
:100D30005091ED01662757FD6095762F480F591F9A
:100D40006A1F7B1F4093DE015093DF016093E00137
:100D50007093E1014091EA015091EB01662757FD44
:100D60006095762F480F591F6A1F7B1F4093DA0149
:100D70005093DB016093DC017093DD014091E80149
:100D80005091E901662757FD6095762F480F591F4E
:100D90006A1F7B1F4093D6015093D7016093D801FF
:100DA0007093D9018BB1803108F45CC00E947D083A
:100DB0006093D2017093D3018093D4019093D501B5
:100DC0000091E2011091E3012091E4013091E501ED
:100DD000601771078207930708F05C984091DE0165
:100DE0005091DF016091E0017091E1018091D201A9
:100DF0009091D301A091D401B091D50184179507AA
:100E0000A607B70708F05D984091DA015091DB0121
:100E10006091DC017091DD018091D2019091D3014C
:100E2000A091D401B091D50184179507A607B70703
:100E300008F05E984091D6015091D7016091D80199
:100E40007091D9018091D2019091D301A091D401E8
:100E5000B091D50184179507A607B70708F4A2CF6C
:100E60005F98A0CF28960FB6F894DEBF0FBECDBF17
:100E7000DF91CF911F910F91FF90EF90DF90CF9076
:100E8000BF90AF909F908F907F906F905F904F90AA
:100E90003F902F9008951F920F920FB60F9211243A
:100EA0002F933F934F935F936F937F938F939F9372
:100EB000AF93BF93EF93FF930E947D086093BE01B1
:100EC0007093BF018093C0019093C1012091FB01F9
:100ED000189B0EC021111BC021E02093FB016093E1
:100EE000CE017093CF018093D0019093D1010FC0B8
:100EF000213069F41092FB012091CE013091CF0195
:100F0000AB01421B530B5093F7014093F601209124
:100F1000FA01199B0EC021111BC021E02093FA0198
:100F20006093CA017093CB018093CC019093CD0163
:100F30000FC0213069F41092FA012091CA0130915A
:100F4000CB01AB01421B530B5093F5014093F401CD
:100F50002091F9011A9B0EC021111BC021E02093A2
:100F6000F9016093C6017093C7018093C801909303
:100F7000C9010FC0213069F41092F9012091C60116
:100F80003091C701AB01421B530B5093F3014093C7
:100F9000F2012091F8011B9B0EC021111AC021E023
:100FA0002093F8016093C2017093C3018093C40140
:100FB0009093C5010EC0213061F41092F801209188
:100FC000C2013091C301621B730B7093F1016093F6
:100FD000F001FF91EF91BF91AF919F918F917F9120
:100FE0006F915F914F913F912F910F900FBE0F9096
:100FF0001F9018958091080190910901A0910A0114
:10100000B0910B0180930E0290930F02A0931002F7
:10101000B09311028091160290911702A0911802CC
:10102000B091190280930A0290930B02A0930C02D4
:10103000B0930D028091120290911302A0911402BC
:10104000B09115028093060290930702A0930802C4
:10105000B0930902809106019091070190930502D7
:101060008093040208951F920F920FB60F921124DD
:101070002F933F938F939F93AF93BF9380911B02C6
:1010800090911C02A0911D02B0911E0230911A0293
:1010900023E0230F2D3720F40196A11DB11D05C0BB
:1010A00026E8230F0296A11DB11D20931A028093FA
:1010B0001B0290931C02A0931D02B0931E0280910C
:1010C0001F0290912002A0912102B091220201966C
:1010D000A11DB11D80931F0290932002A0932102B5
:1010E000B0932202BF91AF919F918F913F912F9129
:1010F0000F900FBE0F901F9018953FB7F8948091F6
:101100001F0290912002A0912102B091220226B5E7
:10111000A89B05C02F3F19F00196A11DB11D3FBF2F
:101120006627782F892F9A2F620F711D811D911DBF
:1011300042E0660F771F881F991F4A95D1F70895DF
:10114000CF92DF92EF92FF92CF93DF936B017C01FE
:101150000E947D08EB01C114D104E104F10479F08F
:101160000E947D086C1B7D0B683E7340A0F381E0FC
:10117000C81AD108E108F108C851DC4FECCFDF9163
:10118000CF91FF90EF90DF90CF9008950197009757
:1011900039F0880F991F880F991F02970197F1F76F
:1011A0000895789484B5826084BD84B5816084BDDF
:1011B00085B5826085BD85B5816085BDEEE6F0E0D0
:1011C000808181608083E1E8F0E01082808182602C
:1011D0008083808181608083E0E8F0E080818160AD
:1011E0008083E1EBF0E0808184608083E0EBF0E0DD
:1011F000808181608083EAE7F0E080818460808381
:10120000808182608083808181608083808180682A
:1012100080831092C1000895833081F028F48130DA
:1012200099F08230A1F008958630A9F08730B9F0A6
:101230008430D1F4809180008F7D03C08091800044
:101240008F7780938000089584B58F7702C084B52E
:101250008F7D84BD08958091B0008F7703C0809109
:10126000B0008F7D8093B00008950F931F93CF93AC
:10127000DF931F92CDB7DEB7282F30E0F901E85990
:10128000FF4F8491F901E458FF4F1491F901E057A1
:10129000FF4F04910023C9F0882321F069830E9445
:1012A0000C096981E02FF0E0EE0FFF1FE255FF4FC0
:1012B000A591B4919FB7F8948C91611103C01095DA
:1012C000812301C0812B8C939FBF0F90DF91CF9121
:1012D0001F910F910895CF93DF93282F30E0F901EC
:1012E000E859FF4F8491F901E458FF4FD491F90177
:1012F000E057FF4FC491CC2391F081110E940C095B
:10130000EC2FF0E0EE0FFF1FEC55FF4FA591B491CD
:101310002C912D2381E090E021F480E002C080E058
:1013200090E0DF91CF910895CF92DF92EF92FF92FC
:101330000F931F93CF93DF936C017A01EB01E60EBD
:10134000F71E00E010E0CE15DF0561F06991D601CF
:10135000ED91FC910190F081E02DC6010995080FF7
:10136000191FF1CFC801DF91CF911F910F91FF900D
:10137000EF90DF90CF9008956115710581F0DB014A
:101380000D900020E9F7AD0141505109461B570B64
:10139000DC01ED91FC910280F381E02D099480E065
:1013A00090E008950C94BC090E94D1080E94520359
:1013B000CDEADAE00E940F042097E1F30E94AD0A23
:1013C000F9CFFC0124853585F901E05CFF4F808170
:1013D0009181329620813181821B930B8F739927E3
:1013E0000895FC0184859585FC01E05CFF4F4081F8
:1013F00051813296208131814217530741F001908B
:10140000F081E02DE80FF91F808190E008958FEFC3
:101410009FEF0895FC0184859585FC01E05CFF4FFA
:10142000408151813296208131814217530779F0F2
:10143000A081B181A80FB91F8C91208131812F5FCC
:101440003F4F2F7333273183208390E008958FEF30
:101450009FEF0895FC0181A1882329F0A489B58913
:101460008C9186FFFBCF11A20895CF93DF93FC01EF
:1014700026853785D901A05CBF4F8D919C9111972E
:1014800001968F739927E901CE5BDF4F488159811F
:1014900084179507D9F30D90BC91A02DA20FB31F0F
:1014A0006C93A685B785A05CBF4F11969C938E93D5
:1014B000A689B7892C9181E090E0078C02C0880F43
:1014C000991F0A94E2F7282B2C9381E081A30488CA
:1014D000F589E02D80818064808381E090E0DF9158
:1014E000CF91089508951F920F920FB60F92112475
:1014F0002F933F934F938F939F93EF93FF938091FD
:10150000C00082FD1CC04091C6008091C90290912C
:10151000CA0201968F7399272091CB023091CC0299
:101520008217930771F0E091C902F091CA02E75760
:10153000FD4F40839093CA028093C90202C08091FC
:10154000C600FF91EF919F918F914F913F912F9105
:101550000F900FBE0F901F90189583E292E00E94AB
:10156000E109892B11F00C94720A08951F920F92D1
:101570000FB60F9211242F933F938F939F93EF9366
:10158000FF9320918502309186028091870290918D
:1015900088022817390731F48091C1008F7D80932C
:1015A000C10014C0E0918702F0918802EB5BFD4F0F
:1015B0002081809187029091880201968F739927EC
:1015C00090938802809387022093C600FF91EF9149
:1015D0009F918F913F912F910F900FBE0F901F9071
:1015E0001895CF92DF92EF92FF92CF93DF93EC01A9
:1015F0006A017B01411581EE580761057105F9F01B
:10160000EC89FD8981E090E008A002C0880F991F55
:101610000A94E2F7808360E079E08DE390E0A7012F
:1016200096010E94741021503109410951095695C3
:10163000479537952795211580E1380798F0EC8973
:10164000FD89108260E874E88EE190E0A7019601C0
:101650000E9474102150310941095109569547954E
:1016600037952795E889F9893083EA89FB892083B2
:1016700019A2EE89FF89408181E090E09C010C8CE9
:1016800002C0220F331F0A94E2F7422B4083EE89F7
:10169000FF8940819C010D8C02C0220F331F0A94E8
:1016A000E2F7422B4083EE89FF8940819C010E8C3A
:1016B00002C0220F331F0A94E2F7422B4083EE89C7
:1016C000FF8920810F8C02C0880F991F0A94E2F7CE
:1016D000809582238083DF91CF91FF90EF90DF9000
:1016E000CF900895109226021092250288EE93E082
:1016F000A0E0B0E08093270290932802A0932902F3
:10170000B0932A028BE591E0909324028093230208
:1017100089E892E09093300280932F0285E492E072
:10172000909332028093310285EC90E090933402E2
:101730008093330284EC90E09093360280933502DC
:1017400080EC90E0909338028093370281EC90E037
:1017500090933A028093390282EC90E090933C029D
:1017600080933B0286EC90E090933E0280933D0292
:1017700084E080933F0283E08093400287E080937F
:10178000410285E08093420281E080934302089504
:101790008091FD0290E02091FE02821B9109089544
:1017A0002091FE028091FD02281750F4E22FF0E014
:1017B000E150FD4F808190E02F5F2093FE0208955D
:1017C0008FEF9FEF0895E091FE028091FD02E817F0
:1017D00030F4F0E0E150FD4F808190E008958FEF0C
:1017E0009FEF08950895CF92DF92EF92FF920F93AB
:1017F0001F93CF93DF937C01CB018A012091D90203
:10180000222389F0EB016B01C40ED51ECC15DD053A
:1018100069F06991D701ED91FC910190F081E02D83
:10182000C7010995F3CF642F0E94000DC801DF9115
:10183000CF911F910F91FF90EF90DF90CF9008957F
:10184000CF93DF931F92CDB7DEB769832091D90282
:101850002223D1F02091DA02203240F021E030E062
:10186000FC013383228380E090E015C08091DB028D
:10187000E82FF0E0E452FD4F998190838F5F8093D1
:10188000DB028093DA0205C061E0CE0101960E947E
:10189000000D81E090E00F90DF91CF910895FC0161
:1018A0001382128248EE53E060E070E04483558377
:1018B000668377838BE691E091838083089510920D
:1018C000FE021092FD021092DB021092DA020C94DA
:1018D0008F0C81E08093D9026093FC021092DB02AE
:1018E0001092DA0208950C94690C0F93062F21E0F0
:1018F0004091DA026CED72E08091FC020E94AD0C26
:101900001092DB021092DA021092D9020F91089520
:1019100061E00C94750C8DEC92E00C944F0C1092DD
:101920008C0381E080938A031092890361E082E155
:101930000E94350961E083E10E943509E9EBF0E09E
:1019400080818E7F808380818D7F808388E48093F7
:10195000B80085E48093BC0008950F93413208F0ED
:1019600046C090918C039111FCCF92E090938C0330
:1019700000938A039FEF90931F0310926403409398
:101980006303FB0165E673E0DB019A2F961B941756
:1019900018F491919D93F9CF10928B0390918B0342
:1019A000880F892B80938B0380918903813041F4C8
:1019B0001092890380918B038093BB0085EC01C05A
:1019C00085EE8093BC00222321F080918C0382302D
:1019D000E1F380911F038F3F61F080911F038032FC
:1019E00051F080911F03803341F483E007C081E010
:1019F00005C080E003C082E001C084E00F9108953B
:101A0000613298F420918C03243089F4609341036F
:101A1000FC0183E493E0DC012A2F281B261718F42D
:101A200021912D93F9CF80E0089581E0089582E01F
:101A3000089585ED8093BC008091BC0084FDFCCFAF
:101A400010928C03089585EC8093BC0010928C0357
:101A500008951F920F920FB60F9211242F933F9368
:101A60004F935F936F937F938F939F93AF93BF93A6
:101A7000EF93FF938091B900887F803609F49CC072
:101A800068F5883209F45BC090F4803109F454C0E1
:101A900038F4882309F4F5C0883009F44DC0F5C046
:101AA000883109F44CC0803209F45DC0EEC0803446
:101AB00009F468C048F4803309F455C0883309F04C
:101AC000E4C080931F03A8C0803509F44FC0883557
:101AD00009F45DC0883409F0D8C0D5C0883909F44C
:101AE000C6C0A8F4883709F467C038F4883609F40A
:101AF00063C0803709F460C0C8C0883809F4B7C033
:101B0000803909F45FC0803809F0BFC05BC0803BFA
:101B100009F485C038F4803A09F466C0883A09F4BB
:101B20007EC0B3C0803C09F4A6C0883C09F4A3C0C1
:101B3000883B09F489C0A9C080918B0310C09091A3
:101B4000640380916303981770F5E091640381E06A
:101B50008E0F80936403F0E0EB59FC4F80818093FB
:101B6000BB0085EC85C080931F038DC0E0916403AA
:101B700081E08E0F809364038091BB00F0E0EB590D
:101B8000FC4F808390916403809163036DC0E0916A
:101B9000640381E08E0F809364038091BB00F0E0CA
:101BA000EB59FC4F808380918A0381116CC081E0E6
:101BB0008093890384EA60C083E080938C03109251
:101BC0002003CFCF80912003803208F050C0E091F5
:101BD000200381E08E0F809320038091BB00F0E012
:101BE000EF5DFC4F8083BDCF80912003803230F4C5
:101BF000E0912003F0E0EF5DFC4F10820E94190D90
:101C00006091200370E0E0918503F091860381E20A
:101C100093E00995109220030E94230D36C084E0C2
:101C200080938C031092420310924103E09187034A
:101C3000F0918803099580914103811105C081E0ED
:101C40008093410310924303E091420381E08E0FA1
:101C500080934203F0E0ED5BFC4F80818093BB00FA
:101C60009091420380914103981708F47ACF85E858
:101C70008093BC000AC085EC8093BC0010928C035A
:101C800004C010921F030E94190DFF91EF91BF91A4
:101C9000AF919F918F917F916F915F914F913F9104
:101CA0002F910F900FBE0F901F901895F8940C94E1
:101CB0009C105058BB27AA270ED075C166D130F0B2
:101CC0006BD120F031F49F3F11F41EF45BC10EF490
:101CD000E095E7FB51C1E92F77D180F3BA1762078E
:101CE00073078407950718F071F49EF58FC10EF401
:101CF000E0950B2EBA2FA02D0B01B90190010C011C
:101D0000CA01A0011124FF27591B99F0593F50F433
:101D1000503E68F11A16F040A22F232F342F44278B
:101D2000585FF3CF469537952795A795F040539583
:101D3000C9F77EF41F16BA0B620B730B840BBAF053
:101D40009150A1F0FF0FBB1F661F771F881FC2F7BE
:101D50000EC0BA0F621F731F841F48F487957795D2
:101D60006795B795F7959E3F08F0B3CF9395880F89
:101D700008F09927EE0F979587950895D9D008F424
:101D800081E008950CD00FC107D140F0FED030F0B3
:101D900021F45F3F19F0F0C0511139C1F3C014D1E3
:101DA00098F39923C9F35523B1F3951B550BBB2722
:101DB000AA2762177307840738F09F5F5F4F220FCF
:101DC000331F441FAA1FA9F333D00E2E3AF0E0E8C8
:101DD00030D091505040E695001CCAF729D0FE2F14
:101DE00027D0660F771F881FBB1F261737074807A6
:101DF000AB07B0E809F0BB0B802DBF01FF2793585C
:101E00005F4F2AF09E3F510568F0B6C000C15F3FAA
:101E1000ECF3983EDCF3869577956795B795F79543
:101E20009F5FC9F7880F911D9695879597F908953B
:101E3000E1E0660F771F881FBB1F621773078407D7
:101E4000BA0720F0621B730B840BBA0BEE1F88F7E6
:101E5000E095089504D06894B111D9C00895BCD01C
:101E600088F09F5790F0B92F9927B751A0F0D1F083
:101E7000660F771F881F991F1AF0BA95C9F712C00D
:101E8000B13081F0C3D0B1E00895C0C0672F782F82
:101E90008827B85F39F0B93FCCF386957795679579
:101EA000B395D9F73EF490958095709561957F4FE5
:101EB0008F4F9F4F0895E89409C097FB3EF490958B
:101EC0008095709561957F4F8F4F9F4F9923A9F013
:101ED000F92F96E9BB279395F695879577956795A2
:101EE000B795F111F8CFFAF4BB0F11F460FF1BC0E6
:101EF0006F5F7F4F8F4F9F4F16C0882311F096E979
:101F000011C0772321F09EE8872F762F05C0662326
:101F100071F096E8862F70E060E02AF09A95660FDF
:101F2000771F881FDAF7880F9695879597F9089598
:101F3000990F0008550FAA0BE0E8FEEF16161706DA
:101F4000E807F907C0F012161306E407F50798F042
:101F5000621B730B840B950B39F40A2661F0232B5B
:101F6000242B252B21F408950A2609F4A140A695D7
:101F70008FEF811D811D089597F99F6780E870E0BC
:101F800060E008959FEF80EC089500240A941616EF
:101F9000170618060906089500240A941216130657
:101FA000140605060895092E0394000C11F48823E5
:101FB00052F0BB0F40F4BF2B11F460FF04C06F5F01
:101FC0007F4F8F4F9F4F089557FD9058440F551FD7
:101FD00059F05F3F71F04795880F97FB991F61F0AB
:101FE0009F3F79F087950895121613061406551F22
:101FF000F2CF4695F1DF08C0161617061806991F8E
:10200000F1CF86957105610508940895E894BB2782
:1020100066277727CB0197F908958ADF08F48FEFB9
:1020200008950BD0C0CFB1DF28F0B6DF18F09523AC
:1020300009F0A2CFA7CF1124EACFC6DFA0F3959F66
:10204000D1F3950F50E0551F629FF001729FBB279F
:10205000F00DB11D639FAA27F00DB11DAA1F649F4B
:102060006627B00DA11D661F829F2227B00DA11DFE
:10207000621F739FB00DA11D621F839FA00D611D84
:10208000221F749F3327A00D611D231F849F600DA5
:10209000211D822F762F6A2F11249F5750408AF0DE
:1020A000E1F088234AF0EE0FFF1FBB1F661F771F6A
:1020B000881F91505040A9F79E3F510570F05CCFAA
:1020C000A6CF5F3FECF3983EDCF386957795679556
:1020D000B795F795E7959F5FC1F7FE2B880F911D88
:1020E0009695879597F90895A1E21A2EAA1BBB1B16
:1020F000FD010DC0AA1FBB1FEE1FFF1FA217B307D4
:10210000E407F50720F0A21BB30BE40BF50B661FE9
:10211000771F881F991F1A9469F7609570958095AD
:1021200090959B01AC01BD01CF010895EE0FFF1FFB
:0C2130000590F491E02D0994F894FFCF85
:10213C0064000000803F64000000803F20200020ED
:10214C000A00696E69740A0077616974696E6720A8
:10215C006F6E207573657220696E7075740A0069F4
:10216C006E697420646F6E650A0020737461676514
:10217C002031200020737461676520322000737455
:10218C006167652030200000000000350A9409E1E9
:10219C00090A0AF1092A0A00000000200CF30BC8F6
:0821AC000BD00BE30BF20B005A
:04000005008001BCBA
:00000001FF
