:100000000C945F000C9487000C9487000C9497006C
:100010000C9487000C9487000C9487000C94870044
:100020000C9487000C9487000C9487000C94870034
:100030000C9487000C9487000C9487000C94870024
:100040000C94D00A0C9487000C94AF0E0C94F20E12
:100050000C9487000C9487000C9487000C94870004
:100060000C94B5110C9487000000000700020100F9
:100070000003040600000000000000000102040864
:100080001020408001020408102001020408102002
:10009000040404040404040402020202020203032E
:1000A00003030303000000002300260029000000D2
:1000B0000000250028002B000E04AE0FD3101124E1
:1000C0001FBECFEFD8E0DEBFCDBF11E0A0E0B1E0B2
:1000D000ECEAFAE202C005900D92A43DB107D9F70F
:1000E00024E0A4EDB1E001C01D92AB31B207E1F70D
:1000F00010E0CEEBD0E004C02297FE010E94501524
:10010000C83BD107C9F70E94100E0C94E2120C9460
:100110000000DC01ED91FC910190F081E02D09944B
:10012000DC01ED91FC910190F081E02D09941F928A
:100130000F920FB60F9211242F933F934F935F931B
:100140006F937F938F939F93AF93BF93EF93FF939F
:100150000E941A0B60931602709317028093180284
:100160009093190220914902189B0EC021111BC0C7
:1001700021E0209349026093260270932702809326
:100180002802909329020FC0213069F4109249028D
:100190002091260230912702AB01421B530B509352
:1001A00045024093440220914802199B0EC0211140
:1001B0001BC021E020934802609322027093230227
:1001C00080932402909325020FC0213069F410928D
:1001D00048022091220230912302AB01421B530BB3
:1001E0005093430240934202209147021A9B0EC053
:1001F00021111BC021E02093470260931E027093DF
:100200001F0280932002909321020FC0213069F4D5
:100210001092470220911E0230911F02AB01421B37
:10022000530B5093410240934002209146021B9B86
:100230000EC021111AC021E02093460260931A02D9
:1002400070931B0280931C0290931D020EC02130FC
:1002500061F41092460220911A0230911B02621B37
:10026000730B70933F0260933E02FF91EF91BF9139
:10027000AF919F918F917F916F915F914F913F913E
:100280002F910F900FBE0F901F9018954F925F9275
:100290006F927F928F929F92AF92BF92CF92DF9296
:1002A000EF92FF920F931F93CF93DF9300D000D074
:1002B000CDB7DEB720917E0230917F02409180025F
:1002C0005091810260917A0270917B0280917C0250
:1002D00090917D020E94E5126B017C012091A402A5
:1002E0003091A5024091A6025091A7020E949D1450
:1002F00020918202309183024091840250918502C4
:100300000E94E6122B013C016093820270938302EB
:100310008093840290938502009107011091080157
:10032000B801882777FD8095982F0E94E9134B012B
:100330005C019B01AC01C301B2010E949914181623
:100340004CF48092820290928302A0928402B09236
:10035000850222C066277727601B710B882777FDEF
:100360008095982F0E94E91369837A838B839C83FD
:100370009B01AC01C301B2010E944A1387FF0CC06C
:1003800089819A81AB81BC818093820290938302A0
:10039000A0938402B09385022091090130910A0153
:1003A00040910B0150910C01C701B6010E949D14B0
:1003B0002091820230918302409184025091850203
:1003C0000E94E6122B013C012091720230917302CF
:1003D0004091740250917502C701B6010E94E51266
:1003E0002091A0023091A1024091A2025091A3025B
:1003F0000E949D149B01AC01C301B2010E94E61250
:100400002B013C0177FA709477F87094A501940160
:10041000C301B2010E9499141816ECF066277727E1
:10042000601B710B882777FD8095982F0E94E91338
:100430004B015C019B01AC01C301B2010E944A1354
:1004400087FD09C04092760250927702609278024E
:100450007092790208C08092760290927702A09200
:100460007802B0927902C0927202D0927302E09246
:100470007402F092750220916A0230916B024091F1
:100480006C0250916D0260916602709167028091DA
:100490006802909169020E94E5126B017C01209133
:1004A00098023091990240919A0250919B020E94C9
:1004B0009D1420916E0230916F0240917002509114
:1004C00071020E94E6122B013C0160936E02709350
:1004D0006F028093700290937102009192021091CA
:1004E0009302B801882777FD8095982F0E94E91321
:1004F0004B015C019B01AC01C301B2010E94991444
:1005000018164CF480926E0290926F02A0927002C4
:10051000B092710222C066277727601B710B882773
:1005200077FD8095982F0E94E91369837A838B83E6
:100530009C839B01AC01C301B2010E944A1387FF57
:100540000CC089819A81AB81BC8180936E029093AB
:100550006F02A0937002B093710220919C023091BF
:100560009D0240919E0250919F02C701B6010E94D8
:100570009D1420916E0230916F0240917002509153
:1005800071020E94E6122B013C0120915E02309123
:100590005F024091600250916102C701B6010E9462
:1005A000E51220919402309195024091960250916B
:1005B00097020E949D149B01AC01C301B2010E94ED
:1005C000E6122B013C01A50194010E949914181612
:1005D000ECF066277727601B710B882777FD8095E5
:1005E000982F0E94E9134B015C019B01AC01C301F0
:1005F000B2010E944A1387FD09C0409262025092E4
:100600006302609264027092650208C08092620286
:1006100090926302A0926402B0926502C0925E0260
:10062000D0925F02E0926002F09261022091560245
:1006300030915702409158025091590260915202F4
:100640007091530280915402909155020E94E512DC
:100650006B017C016093860270938702809388020D
:100660009093890220918E0230918F0240919002E6
:10067000509191020E949D1420915A0230915B0288
:1006800040915C0250915D020E94E6122B013C01F8
:1006900060935A0270935B0280935C0290935D02B8
:1006A0000091010110910201B801882777FD809522
:1006B000982F0E94E9134B015C019B01AC01C3011F
:1006C000B2010E94991418164CF480925A0290922A
:1006D0005B02A0925C02B0925D0222C0662777277F
:1006E000601B710B882777FD8095982F0E94E91376
:1006F00069837A838B839C839B01AC01C301B20124
:100700000E944A1387FF0CC089819A81AB81BC810A
:1007100080935A0290935B02A0935C02B0935D02B7
:10072000209103013091040140910501509106018F
:10073000C701B6010E949D1420915A0230915B02BC
:1007400040915C0250915D020E94E6122B013C0137
:1007500020914A0230914B0240914C0250914D023F
:10076000C701B6010E94E51220918A0230918B02E6
:1007700040918C0250918D020E949D149B01AC010E
:10078000C301B2010E94E6122B013C01A5019401B4
:100790000E9499141816ECF066277727601B710BDE
:1007A000882777FD8095982F0E94E9134B015C0103
:1007B0009B01AC01C301B2010E944A1387FD09C02D
:1007C00040924E0250924F0260925002709251023B
:1007D00008C080924E0290924F02A0925002B092B6
:1007E0005102C0924A02D0924B02E0924C02F09227
:1007F0004D020F900F900F900F90DF91CF911F91AE
:100800000F91FF90EF90DF90CF90BF90AF909F90AF
:100810008F907F906F905F904F9008958091090125
:1008200090910A01A0910B01B0910C0180939C0260
:1008300090939D02A0939E02B0939F028091A40288
:100840009091A502A091A602B091A7028093980270
:1008500090939902A0939A02B0939B028091A00278
:100860009091A102A091A202B091A3028093940260
:1008700090939502A0939602B093970280910701FE
:100880009091080190939302809392020895CF92E1
:10089000DF92EF92FF9268E670E08BE593E00E94B2
:1008A000BE106BE370E08BE593E00E94900060E087
:1008B0008BE593E00E94C01021E030E04EE050E074
:1008C00068E670E08BE593E00E94B2108BE593E060
:1008D0000E940C10F82E8BE593E00E940C1060E053
:1008E00070E07F2D862B972BBC01882777FD8095A4
:1008F000982F0E94E9136093D4017093D5018093DF
:10090000D6019093D7018BE593E00E940C10F82E4E
:100910008BE593E00E940C1060E070E07F2D862B49
:10092000972BBC01882777FD8095982F0E94E913AB
:100930006093D8017093D9018093DA019093DB0121
:100940008BE593E00E940C10F82E8BE593E00E945B
:100950000C1060E070E07F2D862B972BBC01882760
:1009600077FD8095982F0E94E9136093DC017093C6
:10097000DD018093DE019093DF018BE593E00E941F
:100980000C10F82E8BE593E00E940C1060E070E0F4
:100990007F2D862B972BBC01882777FD8095982F7C
:1009A0000E94E9136093E0017093E1018093E201FA
:1009B0009093E3018BE593E00E940C10F82E8BE5F9
:1009C00093E00E940C1060E070E07F2D862B972B47
:1009D000BC01882777FD8095982F0E94E9136093CA
:1009E000E4017093E5018093E6019093E7018BE5C4
:1009F00093E00E940C10F82E8BE593E00E940C10FF
:100A000060E070E07F2D862B972BBC01882777FD57
:100A10008095982F0E94E9136093E8017093E90193
:100A20008093EA019093EB018BE593E00E940C1018
:100A3000F82E8BE593E00E940C1060E070E07F2DB3
:100A4000862B972BBC01882777FD8095982F0E94D5
:100A5000E9136B017C016093EC017093ED018093CD
:100A6000EE019093EF0180910C0290910D02883E6F
:100A7000934009F048C0209100023091010240915A
:100A80000202509103026091E4017091E5018091AE
:100A9000E6019091E7010E94E5126093E4017093F2
:100AA000E5018093E6019093E7012091FC013091EC
:100AB000FD014091FE015091FF016091E8017091AC
:100AC000E9018091EA019091EB010E94E5126093A7
:100AD000E8017093E9018093EA019093EB01209182
:100AE000F8013091F9014091FA015091FB01C701E1
:100AF000B6010E94E5126093EC017093ED018093C2
:100B0000EE019093EF01FF90EF90DF90CF9008956A
:100B1000CF93DF9340E052EC61E070E081EB92E034
:100B20000E942D0F6DE071E081EB92E00E946F0C4E
:100B300063E171E081EB92E00E946F0C6091000133
:100B4000772767FD70954AE050E081EB92E00E94C4
:100B50001B0D66E871E081EB92E00E946F0C8BE563
:100B600093E00E949B108AB1806F8AB9249A61E059
:100B70008CE00E94D20B6AEF70E080E090E00E946F
:100B80003D0B8BE593E00E949B1068E670E08BE5DF
:100B900093E00E94BE106BE670E08BE593E00E944C
:100BA000900060E070E08BE593E00E94900061E0CF
:100BB0008BE593E00E94C0106AEF70E080E090E067
:100BC0000E943D0B66E271E081EB92E00E946F0CA7
:100BD00010920D0210920C02CFE0D0E080910C0236
:100BE00090910D02883E23E092070CF079C0BE017F
:100BF0000E940415892B51F48CE00E94080C61E0DE
:100C0000892B09F060E08CE00E94D20B0E9447041F
:100C10002091E4013091E5014091E6015091E70116
:100C20006091000270910102809102029091030292
:100C30000E94E61260930002709301028093020208
:100C4000909303022091E8013091E9014091EA017B
:100C50005091EB016091FC017091FD018091FE01CA
:100C60009091FF010E94E6126093FC017093FD01D8
:100C70008093FE019093FF012091EC013091ED01F2
:100C80004091EE015091EF016091F8017091F901EE
:100C90008091FA019091FB010E94E6126093F801A5
:100CA0007093F9018093FA019093FB018BB1806FEF
:100CB0008BB988EE93E00E94630B8BB18F708BB978
:100CC00063E070E080E090E00E943D0B80910C02B8
:100CD00090910D02019690930D0280930C027ECFAD
:100CE00020E030E04AE754E4609100027091010294
:100CF00080910202909103020E944E1360930002C1
:100D000070930102809302029093030220E030E08E
:100D10004AE754E46091FC017091FD018091FE016D
:100D20009091FF010E944E136093FC017093FD01AE
:100D30008093FE019093FF0120E030E04AE754E405
:100D40006091F8017091F9018091FA019091FB0195
:100D50000E944E136093F8017093F9018093FA0199
:100D60009093FB0161E471E081EB92E00E946F0CD3
:100D700040910002509101026091020270910302C1
:100D800022E030E081EB92E00E940E0E6FE471E011
:100D900081EB92E00E946F0C8091680081608093EB
:100DA000680080916B00816080936B0080916B0084
:100DB000826080936B0080916B00846080936B00F5
:100DC00080916B00886080936B0066E671E081EB38
:100DD00092E00E946F0C80914202909143028458ED
:100DE00093408D38910578F180910A0290910B0221
:100DF000019690930B0280930A028BB1806F8BB99E
:100E000088EE93E00E94630B8BB18F708BB963E027
:100E100070E080E090E00E943D0B80910A0290918A
:100E20000B028D379105B9F68CE00E94080C61E049
:100E3000892B09F060E08CE00E94D20B10920B022B
:100E400010920A02C8CF80914402909145028837DF
:100E5000954054F210920B0210920A0260E08CE06E
:100E60000E94D20B6DE771E081EB92E0DF91CF91B0
:100E70000C946F0C2F923F924F925F926F927F92E1
:100E80008F929F92AF92BF92CF92DF92EF92FF929A
:100E90000F931F93CF93DF93CDB7DEB72A970FB68B
:100EA000F894DEBF0FBECDBF8DB79EB79A878987F6
:100EB0000E94470480914202909143029093F10175
:100EC0008093F00180913E0290913F029093F30154
:100ED0008093F20180914002909141029093F5013C
:100EE0008093F40180914402909145029093F70120
:100EF0008093F601ADB7BEB794970FB6F894BEBF16
:100F00000FBEADBF0DB71EB70F5F1F4F84E2E4EDFC
:100F1000F1E0D80101900D928A95E1F763E570E068
:100F200081EB92E00E948900E091B102F091B2025F
:100F30000280F381E02D44E250E0B80181EB92E0C1
:100F4000099565E470E081EB92E00E9489001092BF
:100F50007A0210927B0210927C0210927D02109213
:100F60006602109267021092680210926902109253
:100F70005202109253021092540210925502809124
:100F80004202909143028A3194409CF48091440241
:100F9000909145028234944064F481E090E0909313
:100FA0000B0280930A0268E871E081EB92E00E94F4
:100FB0006F0C80910A0290910B02019709F04BC0CF
:100FC00080914202909143028A3194400CF043C0D8
:100FD00080914402909145028B3A9540E4F182E081
:100FE00090E090930B0280930A0262E971E081EB3A
:100FF00092E00E946F0C1092820210928302109273
:101000008402109285021092720210927302109262
:1010100074021092750210926E0210926F0210927A
:1010200070021092710210925E0210925F02109292
:1010300060021092610210925A0210925B021092AA
:101040005C0210925D0210924A0210924B021092C2
:101050004C0210924D0280910A0290910B0202976D
:10106000C1F480914202909143028A3194408CF401
:1010700080914402909145028930974054F010923B
:101080000B0210920A026CE971E081EB92E00E947F
:101090006F0C10927E0210927F02109280021092CA
:1010A000810260913E0270913F02653EB5E07B0790
:1010B0001CF0645E754006C0643D25E07207B4F420
:1010C000645D7540882777FD8095982F0E94E9130D
:1010D00020E030E040E450E40E944E1360937E0232
:1010E00070937F02809380029093810210926A0233
:1010F00010926B0210926C0210926D02609140028D
:1011000070914102653E85E078071CF0645E754091
:1011100006C0643D95E07907B4F4645D75408827A6
:1011200077FD8095982F0E94E91320E030E040E49D
:1011300050E40E944E1360936A0270936B02809396
:101140006C0290936D021092560210925702109208
:1011500058021092590260914402709145026B311D
:10116000A4E07A070CF1653EB5E07B071CF0645EF5
:10117000754006C0643D25E07207B4F4645D7540B7
:10118000882777FD8095982F0E94E91320E030E0B2
:1011900040E450E40E944E1360935602709357024D
:1011A00080935802909359020E9446018091420216
:1011B00090914302909309028093080220910A02C1
:1011C00030910B022230310509F0E0C0893795409B
:1011D00034F088E795E090930902809308026091CB
:1011E000080270910902882777FD8095982F0E9448
:1011F000E9132B013C018091620290916302A0915E
:101200006402B091650289839A83AB83BC839C019D
:10121000AD01C301B2010E94E5126D837E838F830D
:1012200098878090760290907702A0907802B09094
:101230007902C0904E02D0904F02E0905002F090A0
:101240005102A50194010E94E612A70196010E9495
:10125000E5120E94B6138B0170931502609314027D
:1012600029813A814B815C81C301B2010E94E6125F
:101270002B013C01A50194010E94E612A7019601F1
:101280000E94E6120E94B6131B0170931302609332
:101290001202A5019401C301B2010E94E512A70147
:1012A00096010E94E5120E94B6133B017093110251
:1012B00060931002A50194016D817E818F819885D4
:1012C0000E94E512A70196010E94E6120E94B61341
:1012D0009B0170930F0260930E020E37144034F49A
:1012E0008EE794E09093150280931402AEE72A16DD
:1012F000A4E03A0634F48EE794E0909313028093CE
:101300001202BEE76B16B4E07B0634F48EE794E07D
:1013100090931102809310022E37344034F48EE7FC
:1013200094E090930F0280930E02809114029091AA
:1013300015028937954034F088E795E090931502BF
:101340008093140280911202909113028937954084
:1013500034F088E795E09093130280931202809115
:101360001002909111028937954034F088E795E09A
:10137000909311028093100280910E0290910F02BF
:1013800089379540ACF088E795E00EC088EE93E091
:10139000909315028093140290931302809312028B
:1013A000909311028093100290930F0280930E028B
:1013B0000E941A0B0091040210910502209106026E
:1013C00030910702601B710B820B930B603A7F40D8
:1013D0008105910568F30E941A0B609304027093D3
:1013E000050280930602909307028BB1806F8BB940
:1013F0008091040290910502A0910602B09107022B
:101400004091140250911502662757FD6095762F82
:10141000480F591F6A1F7B1F40933A0250933B02AB
:1014200060933C0270933D0240911202509113026E
:10143000662757FD6095762F480F591F6A1F7B1F3F
:10144000409336025093370260933802709339020A
:101450004091100250911102662757FD6095762F3A
:10146000480F591F6A1F7B1F40933202509333026B
:10147000609334027093350240910E0250910F0236
:10148000662757FD6095762F480F591F6A1F7B1FEF
:1014900040932E0250932F026093300270933102DA
:1014A0008BB1803108F45CC00E941A0B60932A0251
:1014B00070932B0280932C0290932D0200913A029C
:1014C00010913B0220913C0230913D026017710760
:1014D0008207930708F05C984091360250913702DA
:1014E000609138027091390280912A0290912B020A
:1014F000A0912C02B0912D0284179507A607B7077B
:1015000008F05D98409132025091330260913402AC
:101510007091350280912A0290912B02A0912C02A9
:10152000B0912D0284179507A607B70708F05E98BB
:1015300040912E0250912F02609130027091310241
:1015400080912A0290912B02A0912C02B0912D0241
:1015500084179507A607B70708F4A2CF5F98A0CF16
:1015600089859A850FB6F8949EBF0FBE8DBF2A96C7
:101570000FB6F894DEBF0FBECDBFDF91CF911F91A4
:101580000F91FF90EF90DF90CF90BF90AF909F9022
:101590008F907F906F905F904F903F902F90089525
:1015A0001F920F920FB60F9211242F933F938F9398
:1015B0009F93AF93BF938091A9029091AA02A091AB
:1015C000AB02B091AC023091A80223E0230F2D377B
:1015D00020F40196A11DB11D05C026E8230F029637
:1015E000A11DB11D2093A8028093A9029093AA0285
:1015F000A093AB02B093AC028091AD029091AE0289
:10160000A091AF02B091B0020196A11DB11D8093CF
:10161000AD029093AE02A093AF02B093B002BF911F
:10162000AF919F918F913F912F910F900FBE0F908F
:101630001F9018953FB7F8948091AD029091AE023B
:10164000A091AF02B091B00226B5A89B05C02F3F74
:1016500019F00196A11DB11D3FBF6627782F892F74
:101660009A2F620F711D811D911D42E0660F771F39
:10167000881F991F4A95D1F70895CF92DF92EF9274
:10168000FF92CF93DF936B017C010E941A0BEB0159
:10169000C114D104E104F10479F00E941A0B6C1B0F
:1016A0007D0B683E7340A0F381E0C81AD108E108C1
:1016B000F108C851DC4FECCFDF91CF91FF90EF9054
:1016C000DF90CF9008950197009739F0880F991F08
:1016D000880F991F02970197F1F70895789484B5C0
:1016E000826084BD84B5816084BD85B5826085BD1E
:1016F00085B5816085BDEEE6F0E080818160808304
:10170000E1E8F0E0108280818260808380818160E6
:101710008083E0E8F0E0808181608083E1EBF0E0AD
:10172000808184608083E0EBF0E080818160808351
:10173000EAE7F0E08081846080838081826080833A
:101740008081816080838081806880831092C10065
:101750000895833081F028F4813099F08230A1F02F
:1017600008958630A9F08730B9F08430D1F48091A3
:1017700080008F7D03C0809180008F7780938000F0
:10178000089584B58F7702C084B58F7D84BD089598
:101790008091B0008F7703C08091B0008F7D8093DF
:1017A000B00008950F931F93CF93DF931F92CDB78F
:1017B000DEB7282F30E0F901E859FF4F8491F90195
:1017C000E458FF4F1491F901E057FF4F04910023B3
:1017D000C9F0882321F069830E94A90B6981E02F59
:1017E000F0E0EE0FFF1FE255FF4FA591B4919FB7B8
:1017F000F8948C91611103C01095812301C0812B55
:101800008C939FBF0F90DF91CF911F910F910895FF
:10181000CF93DF93282F30E0F901E859FF4F8491EF
:10182000F901E458FF4FD491F901E057FF4FC491FB
:10183000CC2391F081110E94A90BEC2FF0E0EE0F68
:10184000FF1FEC55FF4FA591B4912C912D2381E002
:1018500090E021F480E002C080E090E0DF91CF9141
:101860000895CF92DF92EF92FF920F931F93CF9341
:10187000DF936C017A01EB01E60EF71E00E010E049
:10188000CE15DF0561F06991D601ED91FC910190D3
:10189000F081E02DC6010995080F191FF1CFC8018D
:1018A000DF91CF911F910F91FF90EF90DF90CF903C
:1018B00008956115710581F0DB010D900020E9F7B5
:1018C000AD0141505109461B570BDC01ED91FC91D4
:1018D0000280F381E02D099480E090E008950C945B
:1018E000590CDC01ED91FC910190F081E02D0994FF
:1018F0008F929F92AF92BF92CF92DF92EF92FF9220
:101900000F931F93CF93DF93CDB7DEB7A1970FB699
:10191000F894DEBF0FBECDBF7C01C42EE52FCB01F6
:10192000D22E19A221E02D1510F02AE0D22E8E0120
:101930000F5D1F4F8D2C912CA12CB12C6C2D7E2F67
:10194000A50194010E9418158C2DD29E8019112496
:10195000015011098A3014F4805D01C0895CF801DE
:101960008083211531054105510521F0C22EE32F59
:10197000CA01E4CFB801C7010E94590CA1960FB665
:10198000F894DEBF0FBECDBFDF91CF911F910F91B5
:10199000FF90EF90DF90CF90BF90AF909F908F908F
:1019A0000895CF92DF92EF92FF920F931F93CF9300
:1019B000DF93EC016A017B012115310579F4E8819F
:1019C000F9810190F081E02D642FDF91CF911F917B
:1019D0000F91FF90EF90DF90CF9009942A3031055E
:1019E000E9F477FF1AC06DE20E94710C8C01442764
:1019F0005527BA014C195D096E097F092AE0CE010D
:101A00000E94780C800F911FDF91CF911F910F9151
:101A1000FF90EF90DF90CF9008952AE0B701A601E4
:101A2000CE01DF91CF911F910F91FF90EF90DF904A
:101A3000CF900C94780C9A01AB01662757FD609506
:101A4000762F0C94D10C4F925F926F927F928F926F
:101A50009F92AF92BF92CF92DF92EF92FF920F933D
:101A60001F93CF93DF93EC016A017B01B22E9A01A1
:101A7000AB01C701B6010E940015882319F065EA81
:101A800071E027C026013701E89477F82FEF3FEF88
:101A90004FE75FE7C301B2010E94001581110DC03D
:101AA0002FEF3FEF4FE75FE7C301B2010E944A13F8
:101AB00018161CF469EA71E00CC02FEF3FEF4FE7F6
:101AC0005FE4C701B6010E9499141816ACF46DEAE0
:101AD00071E0CE01DF91CF911F910F91FF90EF90B8
:101AE000DF90CF90BF90AF909F908F907F906F903E
:101AF0005F904F900C94590C2FEF3FEF4FE75FEC46
:101B0000C701B6010E944A1387FDE1CF20E030E013
:101B1000A901C701B6010E944A1387FF0AC06DE2FE
:101B2000CE010E94710C8C01F7FAF094F7F8F09452
:101B300002C000E010E0A12C60E070E080E09FE3D4
:101B4000AB1441F020E030E040E251E40E944E133B
:101B5000A394F6CF9B01AC01C701B6010E94E61227
:101B60006B017C010E94BB132B013C010E94E71317
:101B70009B01AC01C701B6010E94E5126B017C011B
:101B80002AE0B301A201CE010E94780C080F191FB0
:101B9000BB2039F061EB71E0CE010E94590C080FB7
:101BA000191F7B2C772041F120E030E040E251E426
:101BB000C701B6010E949D146B017C010E94B613FF
:101BC0004B01AA2497FCA094BA2C2AE030E0B5017E
:101BD000A401CE010E94D10C080F191FC501B40148
:101BE0000E94E9139B01AC01C701B6010E94E512F6
:101BF0006B017C017A94D6CFC801DF91CF911F9100
:101C00000F91FF90EF90DF90CF90BF90AF909F909B
:101C10008F907F906F905F904F9008950C94230D5C
:101C20000E946E0B0E948805C9EEDEE00E943A0712
:101C30002097E1F30E94E90EF9CFFC012485358558
:101C4000F901E05CFF4F80819181329620813181E2
:101C5000821B930B8F7399270895FC0184859585CA
:101C6000FC01E05CFF4F408151813296208131813F
:101C70004217530741F00190F081E02DE80FF91F62
:101C8000808190E008958FEF9FEF0895FC01848597
:101C90009585FC01E05CFF4F4081518132962081A7
:101CA00031814217530779F0A081B181A80FB91F84
:101CB0008C91208131812F5F3F4F2F7333273183E8
:101CC000208390E008958FEF9FEF0895FC0181A19C
:101CD000882329F0A489B5898C9186FFFBCF11A2B6
:101CE0000895CF93DF93FC0126853785D901A05C49
:101CF000BF4F8D919C91119701968F739927E901A0
:101D0000CE5BDF4F4881598184179507D9F30D9039
:101D1000BC91A02DA20FB31F6C93A685B785A05CC4
:101D2000BF4F11969C938E93A689B7892C9181E021
:101D300090E0078C02C0880F991F0A94E2F7282BC5
:101D40002C9381E081A30488F589E02D8081806453
:101D5000808381E090E0DF91CF91089508951F92F4
:101D60000F920FB60F9211242F933F934F938F939F
:101D70009F93EF93FF938091C00082FD1CC0409120
:101D8000C600809157039091580301968F7399274D
:101D90002091590330915A038217930771F0E09113
:101DA0005703F0915803E95EFC4F4083909358032A
:101DB0008093570302C08091C600FF91EF919F91DD
:101DC0008F914F913F912F910F900FBE0F901F90C9
:101DD000189581EB92E00E941D0E892B11F00C9456
:101DE000AE0E08951F920F920FB60F9211242F93EB
:101DF0003F938F939F93EF93FF9320911303309121
:101E0000140380911503909116032817390731F4B4
:101E10008091C1008F7D8093C10014C0E0911503B3
:101E2000F0911603ED52FD4F2081809115039091A2
:101E3000160301968F7399279093160380931503C9
:101E40002093C600FF91EF919F918F913F912F9129
:101E50000F900FBE0F901F901895CF92DF92EF92C8
:101E6000FF92CF93DF93EC016A017B01411581EE74
:101E7000580761057105F9F0EC89FD8981E090E072
:101E800008A002C0880F991F0A94E2F7808360E0DF
:101E900079E08DE390E0A70196010E94181521508A
:101EA00031094109510956954795379527952115CF
:101EB00080E1380798F0EC89FD89108260E874E8C9
:101EC0008EE190E0A70196010E941815215031097A
:101ED000410951095695479537952795E889F9891C
:101EE0003083EA89FB89208319A2EE89FF8940812A
:101EF00081E090E09C010C8C02C0220F331F0A94F9
:101F0000E2F7422B4083EE89FF8940819C010D8CD2
:101F100002C0220F331F0A94E2F7422B4083EE895E
:101F2000FF8940819C010E8C02C0220F331F0A944E
:101F3000E2F7422B4083EE89FF8920810F8C02C09B
:101F4000880F991F0A94E2F7809582238083DF919E
:101F5000CF91FF90EF90DF90CF9008951092B40250
:101F60001092B30288EE93E0A0E0B0E08093B50257
:101F70009093B602A093B702B093B80287EB91E0BA
:101F80009093B2028093B10287E193E09093BE02F6
:101F90008093BD0283ED92E09093C0028093BF02D4
:101FA00085EC90E09093C2028093C10284EC90E0B3
:101FB0009093C4028093C30280EC90E09093C60299
:101FC0008093C50281EC90E09093C8028093C70291
:101FD00082EC90E09093CA028093C90286EC90E074
:101FE0009093CC028093CB0284E08093CD0283E077
:101FF0008093CE0287E08093CF0285E08093D00269
:1020000081E08093D102089580918B0390E020912C
:102010008C03821B9109089520918C0380918B037E
:10202000281750F4E22FF0E0E357FC4F808190E056
:102030002F5F20938C0308958FEF9FEF0895E09119
:102040008C0380918B03E81730F4F0E0E357FC4FEA
:10205000808190E008958FEF9FEF08950895CF92CB
:10206000DF92EF92FF920F931F93CF93DF937C0148
:10207000CB018A0120916703222389F0EB016B01D8
:10208000C40ED51ECC15DD0569F06991D701ED911F
:10209000FC910190F081E02DC7010995F3CF642FE9
:1020A0000E948C11C801DF91CF911F910F91FF9079
:1020B000EF90DF90CF900895CF93DF931F92CDB72D
:1020C000DEB76983209167032223D1F02091680352
:1020D000203240F021E030E0FC013383228380E0B5
:1020E00090E015C080916903E82FF0E0E659FC4FBD
:1020F000998190838F5F809369038093680305C003
:1021000061E0CE0101960E948C1181E090E00F9079
:10211000DF91CF910895FC011382128248EE53E0C3
:1021200060E070E0448355836683778387EC91E0B9
:1021300091838083089510928C0310928B031092E8
:102140006903109268030C94D710862F413208F06F
:1021500040E26DE873E00E94F51010928C038093CA
:102160008B0308950C94A51081E08093670360931E
:102170008A03109269031092680308950C94B410B6
:102180000F93062F21E0409168036AE673E0809187
:102190008A030E9439111092690310926803109209
:1021A00067030F9108958BE593E00C948B101092C8
:1021B0001A0481E0809318041092170461E082E110
:1021C0000E94D20B61E083E10E94D20BE9EBF0E0C8
:1021D00080818E7F808380818D7F808388E480935F
:1021E000B80085E48093BC000895413208F03FC0F8
:1021F00090911A049111FCCF91E090931A042093CE
:1022000018042FEF2093AD031092F203240F2093B4
:10221000F1039093190490911904880F892B8093EE
:10222000190480911704813041F4109217048091B1
:1022300019048093BB0085EC01C085EE8093BC003F
:1022400080911A048130E1F38091F203841710F435
:102250004091F20323EF33E0FB01D9018A2F821B67
:10226000841718F48D918193F9CF842F089580E01D
:1022700008950F93413208F046C090911A049111CD
:10228000FCCF92E090931A04009318049FEF909370
:10229000AD031092F2034093F103FB0163EF73E08F
:1022A000DB019A2F961B941718F491919D93F9CF07
:1022B0001092190490911904880F892B80931904A6
:1022C00080911704813041F4109217048091190411
:1022D0008093BB0085EC01C085EE8093BC00222377
:1022E00021F080911A048230E1F38091AD038F3F99
:1022F00061F08091AD03803251F08091AD03803365
:1023000041F483E007C081E005C080E003C082E0C3
:1023100001C084E00F910895613298F420911A046D
:10232000243089F46093CF03FC0181ED93E0DC015C
:102330002A2F281B261718F421912D93F9CF80E01E
:10234000089581E0089582E0089585ED8093BC00B2
:102350008091BC0084FDFCCF10921A04089585EC96
:102360008093BC0010921A0408951F920F920FB62A
:102370000F9211242F933F934F935F936F937F930B
:102380008F939F93AF93BF93EF93FF938091B90087
:10239000887F803609F49CC068F5883209F45BC0F8
:1023A00090F4803109F454C038F4882309F4F5C05E
:1023B000883009F44DC0F5C0883109F44CC0803232
:1023C00009F45DC0EEC0803409F468C048F480337D
:1023D00009F455C0883309F0E4C08093AD03A8C068
:1023E000803509F44FC0883509F45DC0883409F0A0
:1023F000D8C0D5C0883909F4C6C0A8F4883709F414
:1024000067C038F4883609F463C0803709F460C0C7
:10241000C8C0883809F4B7C0803909F45FC0803873
:1024200009F0BFC05BC0803B09F485C038F4803A36
:1024300009F466C0883A09F47EC0B3C0803C09F450
:10244000A6C0883C09F4A3C0883B09F489C0A9C090
:102450008091190410C09091F2038091F1039817B4
:1024600070F5E091F20381E08E0F8093F203F0E0CB
:10247000ED50FC4F80818093BB0085EC85C080933C
:10248000AD038DC0E091F20381E08E0F8093F203E3
:102490008091BB00F0E0ED50FC4F80839091F203FF
:1024A0008091F1036DC0E091F20381E08E0F809383
:1024B000F2038091BB00F0E0ED50FC4F80838091EF
:1024C000180481116CC081E08093170484EA60C015
:1024D00083E080931A041092AE03CFCF8091AE03B5
:1024E000803208F050C0E091AE0381E08E0F8093FF
:1024F000AE038091BB00F0E0E155FC4F8083BDCF7F
:102500008091AE03803230F4E091AE03F0E0E1550B
:10251000FC4F10820E94A5116091AE0370E0E09123
:102520001304F09114048FEA93E009951092AE031E
:102530000E94AF1136C084E080931A041092D00339
:102540001092CF03E0911504F09116040995809143
:10255000CF03811105C081E08093CF031092D10396
:10256000E091D00381E08E0F8093D003F0E0EF5232
:10257000FC4F80818093BB009091D0038091CF036A
:10258000981708F47ACF85E88093BC000AC085ECE0
:102590008093BC0010921A0404C01092AD030E94F4
:1025A000A511FF91EF91BF91AF919F918F917F9175
:1025B0006F915F914F913F912F910F900FBE0F90B0
:1025C0001F901895F8940C9454155058BB27AA27BF
:1025D0000ED075C166D130F06BD120F031F49F3F41
:1025E00011F41EF45BC10EF4E095E7FB51C1E92F35
:1025F00077D180F3BA17620773078407950718F03D
:1026000071F49EF58FC10EF4E0950B2EBA2FA02D1C
:102610000B01B90190010C01CA01A0011124FF278F
:10262000591B99F0593F50F4503E68F11A16F0408A
:10263000A22F232F342F4427585FF3CF4695379589
:102640002795A795F0405395C9F77EF41F16BA0B4E
:10265000620B730B840BBAF09150A1F0FF0FBB1FFC
:10266000661F771F881FC2F70EC0BA0F621F731F45
:10267000841F48F4879577956795B795F7959E3FA2
:1026800008F0B3CF9395880F08F09927EE0F979530
:1026900087950895D9D008F481E008950CD00FC132
:1026A00007D140F0FED030F021F45F3F19F0F0C0C8
:1026B000511139C1F3C014D198F39923C9F35523AB
:1026C000B1F3951B550BBB27AA2762177307840725
:1026D00038F09F5F5F4F220F331F441FAA1FA9F3DB
:1026E00033D00E2E3AF0E0E830D091505040E695CD
:1026F000001CCAF729D0FE2F27D0660F771F881F2E
:10270000BB1F261737074807AB07B0E809F0BB0B1C
:10271000802DBF01FF2793585F4F2AF09E3F510540
:1027200068F0B6C000C15F3FECF3983EDCF38695DD
:1027300077956795B795F7959F5FC9F7880F911DB6
:102740009695879597F90895E1E0660F771F881FA2
:10275000BB1F621773078407BA0720F0621B730B55
:10276000840BBA0BEE1F88F7E095089504D06894A7
:10277000B111D9C00895BCD088F09F5790F0B92FFF
:102780009927B751A0F0D1F0660F771F881F991FC6
:102790001AF0BA95C9F712C0B13081F0C3D0B1E0D8
:1027A0000895C0C0672F782F8827B85F39F0B93FE8
:1027B000CCF3869577956795B395D9F73EF49095C8
:1027C0008095709561957F4F8F4F9F4F0895E89446
:1027D00009C097FB3EF490958095709561957F4F69
:1027E0008F4F9F4F9923A9F0F92F96E9BB27939517
:1027F000F695879577956795B795F111F8CFFAF427
:10280000BB0F11F460FF1BC06F5F7F4F8F4F9F4F57
:1028100016C0882311F096E911C0772321F09EE8B5
:10282000872F762F05C0662371F096E8862F70E01B
:1028300060E02AF09A95660F771F881FDAF7880FF5
:102840009695879597F90895990F0008550FAA0B4B
:10285000E0E8FEEF16161706E807F907C0F01216B3
:102860001306E407F50798F0621B730B840B950BB6
:1028700039F40A2661F0232B242B252B21F408950B
:102880000A2609F4A140A6958FEF811D811D0895A8
:1028900097F99F6780E870E060E008959FEF80EC13
:1028A000089500240A9416161706180609060895B6
:1028B00000240A9412161306140605060895092E1C
:1028C0000394000C11F4882352F0BB0F40F4BF2B8B
:1028D00011F460FF04C06F5F7F4F8F4F9F4F0895CB
:1028E00057FD9058440F551F59F05F3F71F04795C1
:1028F000880F97FB991F61F09F3F79F087950895A6
:10290000121613061406551FF2CF4695F1DF08C0C4
:10291000161617061806991FF1CF869571056105E1
:1029200008940895E894BB2766277727CB0197F989
:1029300008958ADF08F48FEF08950BD0C0CFB1DF80
:1029400028F0B6DF18F0952309F0A2CFA7CF112405
:10295000EACFC6DFA0F3959FD1F3950F50E0551F46
:10296000629FF001729FBB27F00DB11D639FAA27E4
:10297000F00DB11DAA1F649F6627B00DA11D661F33
:10298000829F2227B00DA11D621F739FB00DA11D54
:10299000621F839FA00D611D221F749F3327A00D0E
:1029A000611D231F849F600D211D822F762F6A2FAA
:1029B00011249F5750408AF0E1F088234AF0EE0F2F
:1029C000FF1FBB1F661F771F881F91505040A9F73C
:1029D0009E3F510570F05CCFA6CF5F3FECF3983E71
:1029E000DCF3869577956795B795F795E7959F5FA3
:1029F000C1F7FE2B880F911D9695879597F908953D
:102A000023DF880B990B089597FB072E16F400948B
:102A100007D077FD09D00E943A1507FC05D03EF497
:102A2000909581959F4F0895709561957F4F08957A
:102A3000A1E21A2EAA1BBB1BFD010DC0AA1FBB1FC2
:102A4000EE1FFF1FA217B307E407F50720F0A21B34
:102A5000B30BE40BF50B661F771F881F991F1A94A1
:102A600069F760957095809590959B01AC01BD01CB
:102A7000CF010895AA1BBB1B51E107C0AA1FBB1FB2
:102A8000A617B70710F0A61BB70B881F991F5A95FA
:102A9000A9F780959095BC01CD010895EE0FFF1F19
:0C2AA0000590F491E02D0994F894FFCF0C
:102AAC002464000000803F64000000803F696E6970
:102ABC00740A006C656E677468206F66207374729C
:102ACC007563743A20007374617274696E67206761
:102ADC0079726F2063616C6962726174696F6E0ADE
:102AEC0000726F6C6C206F66667365743A200064BC
:102AFC006F6E652063616C6962726174696E6720C8
:102B0C006779726F0A0077616974696E67206F6EFE
:102B1C00207573657220696E7075740A00696E6930
:102B2C007420646F6E650A002073746167652031D0
:102B3C002000207374616765203220007374616714
:102B4C0065203020006E616E00696E66006F7666DF
:102B5C00002E0000000000710E310C1D0E460E2DD3
:102B6C000E660E000000005C102F1004100C101FDD
:042B7C00102E100007
:040000050080020A6B
:00000001FF
