:100000000C945F000C9487000C9487000C945803A8
:100010000C9487000C9487000C9487000C94870044
:100020000C9487000C9487000C9487000C94870034
:100030000C9487000C9487000C9487000C94870024
:100040000C94210B0C9487000C94000F0C94430F1C
:100050000C9487000C9487000C9487000C94870004
:100060000C9406120C9487000000000700020100A7
:100070000003040600000000000000000102040864
:100080001020408001020408102001020408102002
:10009000040404040404040402020202020203032E
:1000A00003030303000000002300260029000000D2
:1000B0000000250028002B000704FF0F2411112445
:1000C0001FBECFEFD8E0DEBFCDBF11E0A0E0B1E0B2
:1000D000EEE4FBE202C005900D92A43FB107D9F710
:1000E00024E0A4EFB1E001C01D92AF32B207E1F706
:1000F00010E0CEEBD0E004C02297FE010E94A115D3
:10010000C83BD107C9F70E94610E0C9433130C94BD
:100110000000DC01ED91FC910190F081E02D09944B
:100120004F925F926F927F928F929F92AF92BF9207
:10013000CF92DF92EF92FF920F931F93CF93DF93B3
:1001400000D000D0CDB7DEB72091A2023091A3023B
:100150004091A4025091A50260919E0270919F026D
:100160008091A0029091A1020E9436136B017C0144
:1001700020911501309116014091170150911801FD
:100180000E94EE142091A6023091A7024091A8028D
:100190005091A9020E9437132B013C016093A602E3
:1001A0007093A7028093A8029093A90200910F0177
:1001B00010911001B801882777FD8095982F0E9433
:1001C0003A144B015C019B01AC01C301B2010E94D6
:1001D000EA1418164CF48092A6029092A702A092FC
:1001E000A802B092A90222C066277727601B710B74
:1001F000882777FD8095982F0E943A1469837A8327
:100200008B839C839B01AC01C301B2010E949B13B1
:1002100087FF0CC089819A81AB81BC818093A60243
:100220009093A702A093A802B093A902209119016C
:1002300030911A0140911B0150911C01C701B60178
:100240000E94EE142091A6023091A7024091A802CC
:100250005091A9020E9437132B013C012091960274
:10026000309197024091980250919902C701B601CE
:100270000E94361320911101309112014091130117
:10028000509114010E94EE149B01AC01C301B20114
:100290000E9437132B013C0177FA709477F8709421
:1002A000A5019401C301B2010E94EA141816ECF0F2
:1002B00066277727601B710B882777FD8095982F1D
:1002C0000E943A144B015C019B01AC01C301B201D5
:1002D0000E949B1387FD09C040929A0250929B0294
:1002E00060929C0270929D0208C080929A02909245
:1002F0009B02A0929C02B0929D02C0929602D09264
:100300009702E0929802F092990220918E02309129
:100310008F02409190025091910260918A027091F7
:100320008B0280918C0290918D020E9436136B019A
:100330007C012091B4023091B5024091B6025091F7
:10034000B7020E94EE1420919202309193024091E4
:100350009402509195020E9437132B013C01609347
:10036000920270939302809394029093950200916D
:10037000AE021091AF02B801882777FD8095982FC3
:100380000E943A144B015C019B01AC01C301B20114
:100390000E94EA1418164CF48092920290929302F2
:1003A000A0929402B092950222C066277727601B24
:1003B000710B882777FD8095982F0E943A146983E6
:1003C0007A838B839C839B01AC01C301B2010E94A1
:1003D0009B1387FF0CC089819A81AB81BC8180937C
:1003E000920290939302A0939402B093950220916D
:1003F000B8023091B9024091BA025091BB02C701D4
:10040000B6010E94EE142091920230919302409125
:100410009402509195020E9437132B013C012091C8
:100420008202309183024091840250918502C7017B
:10043000B6010E9436132091B0023091B102409172
:10044000B2025091B3020E94EE149B01AC01C301B1
:10045000B2010E9437132B013C01A50194010E94B7
:10046000EA141816ECF066277727601B710B8827B3
:1004700077FD8095982F0E943A144B015C019B01F7
:10048000AC01C301B2010E949B1387FD09C04092D9
:10049000860250928702609288027092890208C098
:1004A0008092860290928702A0928802B09289027E
:1004B000C0928202D0928302E0928402F09285027E
:1004C00020917A0230917B0240917C0250917D0212
:1004D0006091760270917702809178029091790212
:1004E0000E9436136B017C016093AA027093AB02E9
:1004F0008093AC029093AD022091070130910801E6
:100500004091090150910A010E94EE1420917E024F
:1005100030917F0240918002509181020E943713F6
:100520002B013C0160937E0270937F0280938002D6
:10053000909381020091010110910201B801882776
:1005400077FD8095982F0E943A144B015C019B0126
:10055000AC01C301B2010E94EA1418164CF4809257
:100560007E0290927F02A0928002B092810222C00D
:1005700066277727601B710B882777FD8095982F5A
:100580000E943A1469837A838B839C839B01AC011C
:10059000C301B2010E949B1387FF0CC089819A811D
:1005A000AB81BC8180937E0290937F02A0938002F6
:1005B000B093810220910B0130910C0140910D010B
:1005C00050910E01C701B6010E94EE1420917E02E7
:1005D00030917F0240918002509181020E94371336
:1005E0002B013C0120916E0230916F02409170020C
:1005F00050917102C701B6010E9436132091030188
:100600003091040140910501509106010E94EE14C1
:100610009B01AC01C301B2010E9437132B013C01C5
:10062000A50194010E94EA141816ECF066277727BA
:10063000601B710B882777FD8095982F0E943A14D4
:100640004B015C019B01AC01C301B2010E949B13F1
:1006500087FD09C040927202509273026092740248
:100660007092750208C08092720290927302A092FA
:100670007402B0927502C0926E02D0926F02E09244
:100680007002F09271020F900F900F900F90DF9117
:10069000CF911F910F91FF90EF90DF90CF90BF907F
:1006A000AF909F908F907F906F905F904F90089544
:1006B0001F920F920FB60F9211242F933F934F93D7
:1006C0005F936F937F938F939F93AF93BF93EF93BA
:1006D000FF930E946B0B60933A0270933B028093EE
:1006E0003C0290933D0220916D02189B0EC0211197
:1006F0001BC021E020936D0260934A0270934B026D
:1007000080934C0290934D020FC0213069F41092F7
:100710006D0220914A0230914B02AB01421B530BF8
:10072000509369024093680220916C02199B0EC09D
:1007300021111BC021E020936C026093460270934C
:10074000470280934802909349020FC0213069F418
:1007500010926C022091460230914702AB01421B7D
:10076000530B509367024093660220916B021A9BD1
:100770000EC021111BC021E020936B026093420246
:100780007093430280934402909345020FC021303E
:1007900069F410926B022091420230914302AB0146
:1007A000421B530B509365024093640220916A02EE
:1007B0001B9B0EC021111AC021E020936A02609396
:1007C0003E0270933F0280934002909341020EC01C
:1007D000213061F410926A0220913E0230913F0272
:1007E000621B730B7093630260936202FF91EF913F
:1007F000BF91AF919F918F917F916F915F914F9139
:100800003F912F910F900FBE0F901F9018958091E0
:10081000190190911A01A0911B01B0911C018093C4
:10082000B8029093B902A093BA02B093BB02809130
:10083000150190911601A0911701B09118018093B4
:10084000B4029093B502A093B602B093B702809120
:10085000110190911201A0911301B09114018093A4
:10086000B0029093B102A093B202B093B302809110
:100870000F01909110019093AF028093AE02089502
:10088000CF9368E670E08FE693E00E940F116BE370
:1008900070E08FE693E00E94890060E08FE693E0CD
:1008A0000E94111121E030E04EE050E068E670E077
:1008B0008FE693E00E9403118FE693E00E945D10A3
:1008C000C82F8FE693E00E945D1060E070E07C2FFF
:1008D000862B972BBC01882777FD8095982F0E9447
:1008E0003A146093F4017093F5018093F6019093AC
:1008F000F7018FE693E00E945D10C82F8FE693E02A
:100900000E945D1060E070E07C2F862B972BBC016D
:10091000882777FD8095982F0E943A146093F801FC
:100920007093F9018093FA019093FB018FE693E0B5
:100930000E945D10C82F8FE693E00E945D1060E07A
:1009400070E07C2F862B972BBC01882777FD809544
:10095000982F0E943A146093FC017093FD018093DC
:10096000FE019093FF018FE693E00E945D10C82F77
:100970008FE693E00E945D1060E070E07C2F862B94
:10098000972BBC01882777FD8095982F0E943A14F9
:10099000609300027093010280930202909303021D
:1009A0008FE693E00E945D10C82F8FE693E00E94CF
:1009B0005D1060E070E07C2F862B972BBC018827B0
:1009C00077FD8095982F0E943A14609304027093EB
:1009D000050280930602909307028FE693E00E943F
:1009E0005D10C82F8FE693E00E945D1060E070E01C
:1009F0007C2F862B972BBC01882777FD8095982F1D
:100A00000E943A14609308027093090280930A02CC
:100A100090930B028FE693E00E945D10C82F8FE643
:100A200093E00E945D1060E070E07C2F862B972B96
:100A3000BC01882777FD8095982F0E943A14609317
:100A40000C0270930D0280930E0290930F0280911E
:100A5000300290913102883E934009F04EC02091BF
:100A60002002309121024091220250912302609194
:100A700004027091050280910602909107020E9483
:100A800036136093040270930502809306029093DC
:100A9000070220911C0230911D0240911E025091CC
:100AA0001F02609108027091090280910A029091E0
:100AB0000B020E9436136093080270930902809320
:100AC0000A0290930B022091180230911902409172
:100AD0001A0250911B0260912402709125028091AC
:100AE0002602909127020E9436136093240270938D
:100AF00025028093260290932702CF910895CF93E9
:100B0000DF9340E052EC61E070E085EC92E00E94FF
:100B10007E0F6DE171E085EC92E00E94C00C63E213
:100B200071E085EC92E00E94C00C60910001772793
:100B300067FD70954AE050E085EC92E00E946C0DF4
:100B400066E971E085EC92E00E94C00C8FE693E0CC
:100B50000E94EC108AB1806F8AB9249A61E08CE01F
:100B60000E94230C6AEF70E080E090E00E948E0B00
:100B70008FE693E00E94EC1068E670E08FE693E069
:100B80000E940F116BE670E08FE693E00E948900EF
:100B900060E070E08FE693E00E94890061E08FE6FC
:100BA00093E00E9411116AEF70E080E090E00E94F3
:100BB0008E0B66E371E085EC92E00E94C00C10920F
:100BC000310210923002CFE0D0E08091300290915B
:100BD0003102883E23E092070CF079C0BE010E94EA
:100BE0005515892B51F48CE00E94590C61E0892B3A
:100BF00009F060E08CE00E94230C0E9440042091E8
:100C00000402309105024091060250910702609162
:100C100020027091210280912202909123020E9471
:100C200037136093200270932102809322029093E5
:100C30002302209108023091090240910A0250914A
:100C40000B0260911C0270911D0280911E02909116
:100C50001F020E94371360931C0270931D02809341
:100C60001E0290931F0220910C0230910D024091C0
:100C70000E0250910F02609118027091190280913A
:100C80001A0290911B020E9437136093180270930E
:100C9000190280931A0290931B028BB1806F8BB95B
:100CA00088EE93E00E94B40B8BB18F708BB963E038
:100CB00070E080E090E00E948E0B80913002909175
:100CC0003102019690933102809330027ECF20E072
:100CD00030E04AE754E46091200270912102809153
:100CE0002202909123020E949F136093200270932E
:100CF0002102809322029093230220E030E04AE711
:100D000054E460911C0270911D0280911E0290912A
:100D10001F020E949F1360931C0270931D02809318
:100D20001E0290931F0220E030E04AE754E46091F5
:100D300018027091190280911A0290911B020E9470
:100D40009F13609318027093190280931A02909374
:100D50001B0261E571E085EC92E00E94C00C4091BD
:100D6000200250912102609122027091230222E020
:100D700030E085EC92E00E945F0E6FE571E085EC5B
:100D800092E00E94C00C80916800816080936800AE
:100D900080916B00816080936B0080916B0082601A
:100DA00080936B0080916B00846080936B008091D6
:100DB0006B00886080936B0066E771E085EC92E0E1
:100DC0000E94C00C80916602909167028458934003
:100DD0008D38910578F180912E0290912F02019625
:100DE00090932F0280932E028BB1806F8BB988EE87
:100DF00093E00E94B40B8BB18F708BB963E070E00D
:100E000080E090E00E948E0B80912E0290912F0244
:100E10008D379105B9F68CE00E94590C61E0892B61
:100E200009F060E08CE00E94230C10922F021092D7
:100E30002E02C8CF80916802909169028837954050
:100E400054F210922F0210922E0260E08CE00E9469
:100E5000230C6DE871E085EC92E0DF91CF910C946A
:100E6000C00C2F923F924F925F926F927F928F921F
:100E70009F92AF92BF92CF92DF92EF92FF920F9329
:100E80001F93CF93DF93CDB7DEB728970FB6F894B3
:100E9000DEBF0FBECDBF0E944004009166021091DC
:100EA00067021093110200931002809162029091E8
:100EB00063029093130280931202809164029091D6
:100EC00065029093150280931402A0906802B0907E
:100ED0006902B0921702A09216022DEC3CEC4CE491
:100EE0005FE360919E0270919F028091A0029091B9
:100EF000A1020E94EE146B017C012AE432E944E66F
:100F000052E4609104027091050280910602909172
:100F100007020E949F132DEC3CEC4CE45EE30E9420
:100F2000EE149B01AC01C701B6010E943713609318
:100F30009E0270939F028093A0029093A1022DECD9
:100F40003CEC4CE45FE360918A0270918B028091EB
:100F50008C0290918D020E94EE146B017C012AE4B8
:100F600032E944E652E460910802709109028091EE
:100F70000A0290910B020E949F132DEC3CEC4CE472
:100F80005EE30E94EE149B01AC01C701B6010E9412
:100F9000371360938A0270938B0280938C02909334
:100FA0008D022DEC3CEC4CE45FE360917602709195
:100FB000770280917802909179020E94EE146B0181
:100FC0007C012AE432E944E652E460910C0270911B
:100FD0000D0280910E0290910F020E949F132DEC42
:100FE0003CEC4CE45EE30E94EE149B01AC01C701B3
:100FF000B6010E9437136093760270937702809354
:101000007802909379020A3114408CF482E4A81695
:1010100084E0B80664F481E090E090932F0280931E
:101020002E0268E971E085EC92E00E94C00C80918C
:101030002E0290912F02019709F04BC08091660219
:10104000909167028A3194400CF043C0809168020D
:10105000909169028B3A9540E4F182E090E09093A0
:101060002F0280932E0262EA71E085EC92E00E94EA
:10107000C00C1092A6021092A7021092A802109221
:10108000A902109296021092970210929802109262
:10109000990210929202109293021092940210926E
:1010A0009502109282021092830210928402109292
:1010B000850210927E0210927F021092800210929E
:1010C000810210926E0210926F02109270021092C2
:1010D000710280912E0290912F020297C1F48091AB
:1010E0006602909167028A3194408CF48091680284
:1010F000909169028930974054F010922F0210921B
:101100002E026CEA71E085EC92E00E94C00C109215
:10111000A2021092A3021092A4021092A502609162
:10112000620270916302653E25E072071CF0645E06
:10113000754006C0643D85E07807B4F4645D754091
:10114000882777FD8095982F0E943A1420E030E0A0
:1011500040E450E40E949F136093A2027093A302A4
:101160008093A4029093A50265EB71E085EC92E078
:101170000E94C00C4091A2025091A3026091A4026F
:101180007091A50222E030E085EC92E00E945F0EB3
:1011900066E971E085EC92E00E94C00C10928E022C
:1011A00010928F021092900210929102609164024C
:1011B00070916502653E95E079071CF0645E7540AC
:1011C00006C0643DA5E07A07B4F4645D75408827E5
:1011D00077FD8095982F0E943A1420E030E040E49B
:1011E00050E40E949F1360938E0270938F0280934D
:1011F00090029093910210927A0210927B021092C8
:101200007C0210927D0260916802709169026B31DC
:10121000B4E07B070CF1653EE5E07E071CF0645E00
:10122000754006C0643DF5E07F07B4F4645D754029
:10123000882777FD8095982F0E943A1420E030E0AF
:1012400040E450E40E949F1360937A0270937B0203
:1012500080937C0290937D020E94900080916602B0
:101260009091670290932D0280932C0220912E0280
:1012700030912F022230310509F0E0C089379540C6
:1012800034F088E795E090932D0280932C026091D2
:101290002C0270912D02882777FD8095982F0E944F
:1012A0003A142B013C018091860290918702A09113
:1012B0008802B091890289839A83AB83BC839C01A5
:1012C000AD01C301B2010E9436136D837E838F830B
:1012D000988780909A0290909B02A0909C02B09078
:1012E0009D02C0907202D0907302E0907402F09060
:1012F0007502A50194010E943713A70196010E946F
:1013000036130E9407141B01709339026093380250
:1013100029813A814B815C81C301B2010E9437135C
:101320002B013C01A50194010E943713A7019601EE
:101330000E9437130E9407148B0170933702609349
:101340003602A5019401C301B2010E943613A70120
:1013500096010E9436130E9407143B0170933502D8
:1013600060933402A50194016D817E818F819885FF
:101370000E943613A70196010E9437130E9407149A
:101380009B0170933302609332029EE7291694E02A
:10139000390634F48EE794E0909339028093380252
:1013A0000E37144034F48EE794E090933702809324
:1013B0003602BEE76B16B4E07B0634F48EE794E0A9
:1013C00090933502809334022E37344034F48EE704
:1013D00094E090933302809332028091380290918E
:1013E00039028937954034F088E795E090933902C7
:1013F0008093380280913602909137028937954068
:1014000034F088E795E0909337028093360280911C
:101410003402909135028937954034F088E795E0A1
:10142000909335028093340280913202909133027E
:1014300089379540ACF088E795E00EC088EE93E0E0
:10144000909339028093380290933702809336024A
:10145000909335028093340290933302809332024A
:101460000E946B0B009128021091290220912A0200
:1014700030912B02601B710B820B930B603A7F4003
:101480008105910568F30E946B0B609328027093AD
:10149000290280932A0290932B028BB1806F8BB923
:1014A0008091280290912902A0912A02B0912B02EA
:1014B0004091380250913902662757FD6095762F8A
:1014C000480F591F6A1F7B1F40935E0250935F02B3
:1014D000609360027093610240913602509137022E
:1014E000662757FD6095762F480F591F6A1F7B1F8F
:1014F00040935A0250935B0260935C0270935D02CA
:101500004091340250913502662757FD6095762F41
:10151000480F591F6A1F7B1F409356025093570272
:1015200060935802709359024091320250913302F5
:10153000662757FD6095762F480F591F6A1F7B1F3E
:101540004093520250935302609354027093550299
:101550008BB1803108F45CC00E946B0B60934E022B
:1015600070934F02809350029093510200915E025B
:1015700010915F0220916002309161026017710743
:101580008207930708F05C9840915A0250915B02E1
:1015900060915C0270915D0280914E0290914F02C9
:1015A000A0915002B091510284179507A607B70782
:1015B00008F05D9840915602509157026091580290
:1015C0007091590280914E0290914F02A091500269
:1015D000B091510284179507A607B70708F05E98E7
:1015E0004091520250915302609154027091550201
:1015F00080914E0290914F02A0915002B091510201
:1016000084179507A607B70708F4A2CF5F98A0CF65
:1016100028960FB6F894DEBF0FBECDBFDF91CF91F5
:101620001F910F91FF90EF90DF90CF90BF90AF9000
:101630009F908F907F906F905F904F903F902F90F2
:1016400008951F920F920FB60F9211242F933F937C
:101650008F939F93AF93BF938091BD029091BE02F1
:10166000A091BF02B091C0023091BC0223E0230FD1
:101670002D3720F40196A11DB11D05C026E8230FCA
:101680000296A11DB11D2093BC028093BD029093D0
:10169000BE02A093BF02B093C0028091C10290919C
:1016A000C202A091C302B091C4020196A11DB11D56
:1016B0008093C1029093C202A093C302B093C4026C
:1016C000BF91AF919F918F913F912F910F900FBE3E
:1016D0000F901F9018953FB7F8948091C102909198
:1016E000C202A091C302B091C40226B5A89B05C056
:1016F0002F3F19F00196A11DB11D3FBF6627782F1E
:10170000892F9A2F620F711D811D911D42E0660F76
:10171000771F881F991F4A95D1F70895CF92DF92BE
:10172000EF92FF92CF93DF936B017C010E946B0BD2
:10173000EB01C114D104E104F10479F00E946B0BB8
:101740006C1B7D0B683E7340A0F381E0C81AD10882
:10175000E108F108C851DC4FECCFDF91CF91FF9049
:10176000EF90DF90CF9008950197009739F0880FA0
:10177000991F880F991F02970197F1F708957894A0
:1017800084B5826084BD84B5816084BD85B5826086
:1017900085BD85B5816085BDEEE6F0E08081816024
:1017A0008083E1E8F0E01082808182608083808124
:1017B00081608083E0E8F0E0808181608083E1EBFC
:1017C000F0E0808184608083E0EBF0E080818160E4
:1017D0008083EAE7F0E0808184608083808182609A
:1017E0008083808181608083808180688083109283
:1017F000C1000895833081F028F4813099F082305F
:10180000A1F008958630A9F08730B9F08430D1F482
:10181000809180008F7D03C0809180008F778093BE
:101820008000089584B58F7702C084B58F7D84BD14
:1018300008958091B0008F7703C08091B0008F7DB4
:101840008093B00008950F931F93CF93DF931F925F
:10185000CDB7DEB7282F30E0F901E859FF4F84916A
:10186000F901E458FF4F1491F901E057FF4F04913B
:101870000023C9F0882321F069830E94FA0B698153
:10188000E02FF0E0EE0FFF1FE255FF4FA591B4915E
:101890009FB7F8948C91611103C01095812301C00A
:1018A000812B8C939FBF0F90DF91CF911F910F9150
:1018B0000895CF93DF93282F30E0F901E859FF4FC7
:1018C0008491F901E458FF4FD491F901E057FF4F9B
:1018D000C491CC2391F081110E94FA0BEC2FF0E01F
:1018E000EE0FFF1FEC55FF4FA591B4912C912D23C6
:1018F00081E090E021F480E002C080E090E0DF91A0
:10190000CF910895CF92DF92EF92FF920F931F93A2
:10191000CF93DF936C017A01EB01E60EF71E00E036
:1019200010E0CE15DF0561F06991D601ED91FC91D3
:101930000190F081E02DC6010995080F191FF1CF24
:10194000C801DF91CF911F910F91FF90EF90DF9031
:10195000CF9008956115710581F0DB010D90002095
:10196000E9F7AD0141505109461B570BDC01ED91E0
:10197000FC910280F381E02D099480E090E00895CD
:101980000C94AA0CDC01ED91FC910190F081E02D0A
:1019900009948F929F92AF92BF92CF92DF92EF9273
:1019A000FF920F931F93CF93DF93CDB7DEB7A1972D
:1019B0000FB6F894DEBF0FBECDBF7C01C42EE52F5D
:1019C000CB01D22E19A221E02D1510F02AE0D22E43
:1019D0008E010F5D1F4F8D2C912CA12CB12C6C2DE5
:1019E0007E2FA50194010E9469158C2DD29E80192D
:1019F0001124015011098A3014F4805D01C0895C02
:101A0000F8018083211531054105510521F0C22ED1
:101A1000E32FCA01E4CFB801C7010E94AA0CA19626
:101A20000FB6F894DEBF0FBECDBFDF91CF911F91EF
:101A30000F91FF90EF90DF90CF90BF90AF909F906D
:101A40008F900895CF92DF92EF92FF920F931F93A2
:101A5000CF93DF93EC016A017B012115310579F405
:101A6000E881F9810190F081E02D642FDF91CF9121
:101A70001F910F91FF90EF90DF90CF9009942A3043
:101A80003105E9F477FF1AC06DE20E94C20C8C01A7
:101A900044275527BA014C195D096E097F092AE0D0
:101AA000CE010E94C90C800F911FDF91CF911F9131
:101AB0000F91FF90EF90DF90CF9008952AE0B7014B
:101AC000A601CE01DF91CF911F910F91FF90EF9072
:101AD000DF90CF900C94C90C9A01AB01662757FD9B
:101AE0006095762F0C94220D4F925F926F927F92A9
:101AF0008F929F92AF92BF92CF92DF92EF92FF921E
:101B00000F931F93CF93DF93EC016A017B01B22EF9
:101B10009A01AB01C701B6010E945115882319F043
:101B200065EC71E027C026013701E89477F82FEFC4
:101B30003FEF4FE75FE7C301B2010E9451158111EA
:101B40000DC02FEF3FEF4FE75FE7C301B2010E94E7
:101B50009B1318161CF469EC71E00CC02FEF3FEFDB
:101B60004FE75FE4C701B6010E94EA141816ACF40F
:101B70006DEC71E0CE01DF91CF911F910F91FF903D
:101B8000EF90DF90CF90BF90AF909F908F907F901D
:101B90006F905F904F900C94AA0C2FEF3FEF4FE7A0
:101BA0005FECC701B6010E949B1387FDE1CF20E0E7
:101BB00030E0A901C701B6010E949B1387FF0AC04C
:101BC0006DE2CE010E94C20C8C01F7FAF094F7F896
:101BD000F09402C000E010E0A12C60E070E080E032
:101BE0009FE3AB1441F020E030E040E251E40E947A
:101BF0009F13A394F6CF9B01AC01C701B6010E94CD
:101C000037136B017C010E940C142B013C010E94D4
:101C100038149B01AC01C701B6010E9436136B0159
:101C20007C012AE0B301A201CE010E94C90C080F79
:101C3000191FBB2039F061ED71E0CE010E94AA0CA2
:101C4000080F191F7B2C772041F120E030E040E2A3
:101C500051E4C701B6010E94EE146B017C010E94A1
:101C600007144B01AA2497FCA094BA2C2AE030E078
:101C7000B501A401CE010E94220D080F191FC50154
:101C8000B4010E943A149B01AC01C701B6010E9445
:101C900036136B017C017A94D6CFC801DF91CF91C6
:101CA0001F910F91FF90EF90DF90CF90BF90AF907A
:101CB0009F908F907F906F905F904F9008950C94BD
:101CC000740D0E94BF0B0E947F05CAE3DFE00E94F3
:101CD00031072097E1F30E943A0FF9CFFC012485E8
:101CE0003585F901E05CFF4F80819181329620813A
:101CF0003181821B930B8F7399270895FC01848592
:101D00009585FC01E05CFF4F408151813296208136
:101D100031814217530741F00190F081E02DE80F27
:101D2000F91F808190E008958FEF9FEF0895FC01E7
:101D300084859585FC01E05CFF4F4081518132969E
:101D4000208131814217530779F0A081B181A80F1A
:101D5000B91F8C91208131812F5F3F4F2F73332723
:101D60003183208390E008958FEF9FEF0895FC0169
:101D700081A1882329F0A489B5898C9186FFFBCFA6
:101D800011A20895CF93DF93FC0126853785D901F1
:101D9000A05CBF4F8D919C91119701968F739927ED
:101DA000E901CE5BDF4F4881598184179507D9F34C
:101DB0000D90BC91A02DA20FB31F6C93A685B78583
:101DC000A05CBF4F11969C938E93A689B7892C91E6
:101DD00081E090E0078C02C0880F991F0A94E2F717
:101DE000282B2C9381E081A30488F589E02D808144
:101DF0008064808381E090E0DF91CF910895089521
:101E00001F920F920FB60F9211242F933F934F936F
:101E10008F939F93EF93FF938091C00082FD1CC02E
:101E20004091C60080916B0390916C0301968F7373
:101E3000992720916D0330916E038217930771F0FB
:101E4000E0916B03F0916C03E55DFC4F4083909350
:101E50006C0380936B0302C08091C600FF91EF91E9
:101E60009F918F914F913F912F910F900FBE0F90A7
:101E70001F90189585EC92E00E946E0E892B11F050
:101E80000C94FF0E08951F920F920FB60F9211241B
:101E90002F933F938F939F93EF93FF93209127036B
:101EA000309128038091290390912A03281739073C
:101EB00031F48091C1008F7D8093C10014C0E09106
:101EC0002903F0912A03E951FD4F208180912903D4
:101ED00090912A0301968F73992790932A038093F8
:101EE00029032093C600FF91EF919F918F913F911D
:101EF0002F910F900FBE0F901F901895CF92DF92E9
:101F0000EF92FF92CF93DF93EC016A017B014115C1
:101F100081EE580761057105F9F0EC89FD8981E0D2
:101F200090E008A002C0880F991F0A94E2F780830E
:101F300060E079E08DE390E0A70196010E946915C9
:101F400021503109410951095695479537952795F3
:101F5000211580E1380798F0EC89FD89108260E84E
:101F600074E88EE190E0A70196010E946915215066
:101F70003109410951095695479537952795E889C3
:101F8000F9893083EA89FB89208319A2EE89FF89C8
:101F9000408181E090E09C010C8C02C0220F331F35
:101FA0000A94E2F7422B4083EE89FF8940819C012D
:101FB0000D8C02C0220F331F0A94E2F7422B40839C
:101FC000EE89FF8940819C010E8C02C0220F331FD5
:101FD0000A94E2F7422B4083EE89FF8920810F8C1F
:101FE00002C0880F991F0A94E2F7809582238083AC
:101FF000DF91CF91FF90EF90DF90CF9008951092F6
:10200000C8021092C70288EE93E0A0E0B0E080938F
:10201000C9029093CA02A093CB02B093CC0287ED81
:1020200091E09093C6028093C5028BE293E0909377
:10203000D2028093D10287EE92E09093D4028093F3
:10204000D30285EC90E09093D6028093D50284EC85
:1020500090E09093D8028093D70280EC90E0909328
:10206000DA028093D90281EC90E09093DC028093B5
:10207000DB0282EC90E09093DE028093DD0286EC3E
:1020800090E09093E0028093DF0284E08093E1028D
:1020900083E08093E20287E08093E30285E080930F
:1020A000E40281E08093E502089580919F0390E02F
:1020B0002091A003821B910908952091A003809193
:1020C0009F03281750F4E22FF0E0EF55FC4F80817A
:1020D00090E02F5F2093A00308958FEF9FEF089566
:1020E000E091A00380919F03E81730F4F0E0EF55F2
:1020F000FC4F808190E008958FEF9FEF0895089541
:10210000CF92DF92EF92FF920F931F93CF93DF93C3
:102110007C01CB018A0120917B03222389F0EB0112
:102120006B01C40ED51ECC15DD0569F06991D70190
:10213000ED91FC910190F081E02DC7010995F3CF5D
:10214000642F0E94DD11C801DF91CF911F910F9183
:10215000FF90EF90DF90CF900895CF93DF931F9281
:10216000CDB7DEB7698320917B032223D1F0209184
:102170007C03203240F021E030E0FC0133832283F5
:1021800080E090E015C080917D03E82FF0E0E258F8
:10219000FC4F998190838F5F80937D0380937C03B4
:1021A00005C061E0CE0101960E94DD1181E090E062
:1021B0000F90DF91CF910895FC011382128248EEB7
:1021C00053E060E070E0448355836683778387EE55
:1021D00091E09183808308951092A00310929F0351
:1021E00010927D0310927C030C942811862F4132AB
:1021F00008F040E261EA73E00E9446111092A003E9
:1022000080939F0308950C94F61081E080937B03E4
:1022100060939E0310927D0310927C0308950C94AA
:1022200005110F93062F21E040917C036EE773E0C8
:1022300080919E030E948A1110927D0310927C036C
:1022400010927B030F9108958FE693E00C94DC10BD
:1022500010922E0481E080932C0410922B0461E0F4
:1022600082E10E94230C61E083E10E94230CE9EBF0
:10227000F0E080818E7F808380818D7F808388E401
:102280008093B80085E48093BC000895413208F043
:102290003FC090912E049111FCCF91E090932E04B9
:1022A00020932C042FEF2093C10310920604240FD7
:1022B0002093050490932D0490912D04880F892B71
:1022C00080932D0480912B04813041F410922B04D3
:1022D00080912D048093BB0085EC01C085EE809336
:1022E000BC0080912E048130E1F3809106048417B4
:1022F00010F44091060427E034E0FB01D9018A2F55
:10230000821B841718F48D918193F9CF842F08953F
:1023100080E008950F93413208F046C090912E045A
:102320009111FCCF92E090932E0400932C049FEF28
:102330009093C1031092060440930504FB0167E0EB
:1023400074E0DB019A2F961B941718F491919D93DA
:10235000F9CF10922D0490912D04880F892B809332
:102360002D0480912B04813041F410922B04809134
:102370002D048093BB0085EC01C085EE8093BC00EA
:10238000222321F080912E048230E1F38091C10359
:102390008F3F61F08091C103803251F08091C10381
:1023A000803341F483E007C081E005C080E003C0D2
:1023B00082E001C084E00F910895613298F4209189
:1023C0002E04243089F46093E303FC0185EE93E04E
:1023D000DC012A2F281B261718F421912D93F9CF01
:1023E00080E0089581E0089582E0089585ED80936E
:1023F000BC008091BC0084FDFCCF10922E04089597
:1024000085EC8093BC0010922E0408951F920F92C9
:102410000FB60F9211242F933F934F935F936F93B7
:102420007F938F939F93AF93BF93EF93FF9380918D
:10243000B900887F803609F49CC068F5883209F4B9
:102440005BC090F4803109F454C038F4882309F457
:10245000F5C0883009F44DC0F5C0883109F44CC08E
:10246000803209F45DC0EEC0803409F468C048F4DD
:10247000803309F455C0883309F0E4C08093C10368
:10248000A8C0803509F44FC0883509F45DC0883490
:1024900009F0D8C0D5C0883909F4C6C0A8F4883777
:1024A00009F467C038F4883609F463C0803709F44A
:1024B00060C0C8C0883809F4B7C0803909F45FC06B
:1024C000803809F0BFC05BC0803B09F485C038F498
:1024D000803A09F466C0883A09F47EC0B3C0803CF3
:1024E00009F4A6C0883C09F4A3C0883B09F489C05C
:1024F000A9C080912D0410C090910604809105041C
:10250000981770F5E091060481E08E0F8093060421
:10251000F0E0E95FFB4F80818093BB0085EC85C0D4
:102520008093C1038DC0E091060481E08E0F8093FB
:1025300006048091BB00F0E0E95FFB4F808390913F
:102540000604809105046DC0E091060481E08E0FC1
:10255000809306048091BB00F0E0E95FFB4F80832D
:1025600080912C0481116CC081E080932B0484EA5B
:1025700060C083E080932E041092C203CFCF80917D
:10258000C203803208F050C0E091C20381E08E0F98
:102590008093C2038091BB00F0E0ED53FC4F808339
:1025A000BDCF8091C203803230F4E091C203F0E0ED
:1025B000ED53FC4F10820E94F6116091C20370E04F
:1025C000E0912704F091280483EC93E009951092A0
:1025D000C2030E94001236C084E080932E04109241
:1025E000E4031092E303E0912904F0912A04099591
:1025F0008091E303811105C081E08093E303109291
:10260000E503E091E40381E08E0F8093E403F0E0C2
:10261000EB51FC4F80818093BB009091E40380914B
:10262000E303981708F47ACF85E88093BC000AC0CA
:1026300085EC8093BC0010922E0404C01092C1035C
:102640000E94F611FF91EF91BF91AF919F918F91F1
:102650007F916F915F914F913F912F910F900FBE9E
:102660000F901F901895F8940C94A5155058BB27FF
:10267000AA270ED075C166D130F06BD120F031F4AD
:102680009F3F11F41EF45BC10EF4E095E7FB51C1CE
:10269000E92F77D180F3BA1762077307840795078C
:1026A00018F071F49EF58FC10EF4E0950B2EBA2F41
:1026B000A02D0B01B90190010C01CA01A001112448
:1026C000FF27591B99F0593F50F4503E68F11A16F4
:1026D000F040A22F232F342F4427585FF3CF469585
:1026E00037952795A795F0405395C9F77EF41F16A7
:1026F000BA0B620B730B840BBAF09150A1F0FF0F71
:10270000BB1F661F771F881FC2F70EC0BA0F621F5C
:10271000731F841F48F4879577956795B795F7954C
:102720009E3F08F0B3CF9395880F08F09927EE0FDE
:10273000979587950895D9D008F481E008950CD035
:102740000FC107D140F0FED030F021F45F3F19F007
:10275000F0C0511139C1F3C014D198F39923C9F3D2
:102760005523B1F3951B550BBB27AA276217730797
:10277000840738F09F5F5F4F220F331F441FAA1F4B
:10278000A9F333D00E2E3AF0E0E830D0915050400B
:10279000E695001CCAF729D0FE2F27D0660F771FB9
:1027A000881FBB1F261737074807AB07B0E809F09B
:1027B000BB0B802DBF01FF2793585F4F2AF09E3F30
:1027C000510568F0B6C000C15F3FECF3983EDCF302
:1027D000869577956795B795F7959F5FC9F7880FA9
:1027E000911D9695879597F90895E1E0660F771FFB
:1027F000881FBB1F621773078407BA0720F0621B8C
:10280000730B840BBA0BEE1F88F7E095089504D084
:102810006894B111D9C00895BCD088F09F5790F04A
:10282000B92F9927B751A0F0D1F0660F771F881FF5
:10283000991F1AF0BA95C9F712C0B13081F0C3D010
:10284000B1E00895C0C0672F782F8827B85F39F0AE
:10285000B93FCCF3869577956795B395D9F73EF454
:1028600090958095709561957F4F8F4F9F4F0895FC
:10287000E89409C097FB3EF490958095709561951A
:102880007F4F8F4F9F4F9923A9F0F92F96E9BB27D0
:102890009395F695879577956795B795F111F8CF4C
:1028A000FAF4BB0F11F460FF1BC06F5F7F4F8F4FB7
:1028B0009F4F16C0882311F096E911C0772321F0AD
:1028C0009EE8872F762F05C0662371F096E8862F45
:1028D00070E060E02AF09A95660F771F881FDAF79C
:1028E000880F9695879597F90895990F0008550FC9
:1028F000AA0BE0E8FEEF16161706E807F907C0F086
:1029000012161306E407F50798F0621B730B840B8D
:10291000950B39F40A2661F0232B242B252B21F467
:1029200008950A2609F4A140A6958FEF811D811D07
:10293000089597F99F6780E870E060E008959FEF41
:1029400080EC089500240A94161617061806090646
:10295000089500240A941216130614060506089515
:10296000092E0394000C11F4882352F0BB0F40F49D
:10297000BF2B11F460FF04C06F5F7F4F8F4F9F4FDD
:10298000089557FD9058440F551F59F05F3F71F05F
:102990004795880F97FB991F61F09F3F79F08795C6
:1029A0000895121613061406551FF2CF4695F1DF4F
:1029B00008C0161617061806991FF1CF86957105DF
:1029C000610508940895E894BB2766277727CB0113
:1029D00097F908958ADF08F48FEF08950BD0C0CFE0
:1029E000B1DF28F0B6DF18F0952309F0A2CFA7CF0A
:1029F0001124EACFC6DFA0F3959FD1F3950F50E0E5
:102A0000551F629FF001729FBB27F00DB11D639FA0
:102A1000AA27F00DB11DAA1F649F6627B00DA11D46
:102A2000661F829F2227B00DA11D621F739FB00DEC
:102A3000A11D621F839FA00D611D221F749F33275C
:102A4000A00D611D231F849F600D211D822F762FF5
:102A50006A2F11249F5750408AF0E1F088234AF0F2
:102A6000EE0FFF1FBB1F661F771F881F915050403E
:102A7000A9F79E3F510570F05CCFA6CF5F3FECF306
:102A8000983EDCF3869577956795B795F795E7952A
:102A90009F5FC1F7FE2B880F911D9695879597F93B
:102AA000089523DF880B990B089597FB072E16F4E2
:102AB000009407D077FD09D00E948B1507FC05D044
:102AC0003EF4909581959F4F0895709561957F4F45
:102AD0000895A1E21A2EAA1BBB1BFD010DC0AA1F5F
:102AE000BB1FEE1FFF1FA217B307E407F50720F077
:102AF000A21BB30BE40BF50B661F771F881F991FF2
:102B00001A9469F760957095809590959B01AC013A
:102B1000BD01CF010895AA1BBB1B51E107C0AA1F2D
:102B2000BB1FA617B70710F0A61BB70B881F991F6E
:102B30005A95A9F780959095BC01CD010895EE0FA7
:0E2B4000FF1F0590F491E02D0994F894FFCF4B
:102B4E002464000000A0400AD7A33C0000C03F64EC
:102B5E00000000A040CDCC4C3D9A99993F696E691A
:102B6E00740A006C656E677468206F6620737472E9
:102B7E007563743A20007374617274696E672067AE
:102B8E0079726F2063616C6962726174696F6E0A2B
:102B9E0000726F6C6C206F66667365743A20006409
:102BAE006F6E652063616C6962726174696E672015
:102BBE006779726F0A0077616974696E67206F6E4C
:102BCE00207573657220696E7075740A00696E697E
:102BDE007420646F6E650A0020737461676520311E
:102BEE002000207374616765203220007374616762
:102BFE006520302000726F6C6C20736574706F6985
:102C0E006E743A20006E616E00696E66006F7666B5
:102C1E00002E0000000000C20E820C6E0E970E7E7B
:102C2E000EB70E00000000AD10801055105D107034
:042C3E00107F1000F3
:040000050080022E47
:00000001FF
