:100000000C945B000C9483000C9483000C9483008C
:100010000C9483000C9483000C9483000C94830054
:100020000C9483000C9483000C9483000C94830044
:100030000C9483000C9483000C9483000C94830034
:100040000C9472040C9483000C941C080C945F08AC
:100050000C9483000C9483000C9483000C94830014
:100060000C94B3100C948300000000070002010000
:100070000003040600000000000000000102040864
:100080001020408001020408102001020408102002
:10009000040404040404040402020202020203032E
:1000A0000303030300000000250028002B00D303F6
:1000B0001B09420A5A0411241FBECFEFD8E0DEBF4D
:1000C000CDBF11E0A0E0B1E0ECE2F9E202C00590A2
:1000D0000D92A63CB107D9F723E0A6ECB1E001C030
:1000E0001D92AE3EB207E1F710E0C4EBD0E004C0D1
:1000F0002297FE010E948514CE3AD107C9F70E94CB
:100100007D070C943F120C9400008F929F92AF9247
:10011000BF92CF92DF92EF92FF92CF93DF93EC01E9
:10012000C880D980EA80FB809A01AB01C701B60183
:100130000E94FA134B015C01A701960160E070E098
:1001400080E89FE30E9442122C813D814E815F81B5
:100150000E94FA139B01AC01C501B4010E94431235
:100160006C837D838E839F83DF91CF91FF90EF908F
:10017000DF90CF90BF90AF909F908F900895CF93D6
:10018000DF938BE492E00E94B00D8AE392E00E943C
:10019000B00D89E292E00E94B00D88E192E00E94E9
:1001A000B00D87E092E00E94B00D86EF91E00E94D2
:1001B000B00D8AE293E00E94080A40E052EC61E050
:1001C00070E080E892E00E949A0862E371E080E8C3
:1001D00092E00E94A7058CE592E00E94120B67E373
:1001E00071E080E892E00E94A7058CE592E00E9411
:1001F000420B882319F068E071E002C06FE171E002
:1002000080E892E00E94A7058CE592E00E94710AC6
:10021000D82F8CE592E00E944A0AC82F64E571E06D
:1002200080E892E00E94A7054AE050E06D2F80E848
:1002300092E00E94890660E771E080E892E00E9407
:100240008A0562E771E080E892E00E94A7054AE033
:1002500050E06C2F80E892E00E94890660E771E030
:1002600080E892E00E948A056DE871E080E892E003
:100270000E94A7058CE592E00E944A0B4AE050E0FC
:10028000BC0180E892E00E945C066EE671E080E8C6
:1002900092E00E948A058CE592E00E94660B4AE09B
:1002A00050E0BC0180E892E00E945C066EE671E0DE
:1002B00080E892E00E948A058CE592E00E94820B21
:1002C0004AE050E0BC0180E892E00E945C066EE6E5
:1002D00071E080E892E00E948A058CE592E00E943D
:1002E0009E0B4AE050E0BC0180E892E00E945C0670
:1002F0006EE671E080E892E00E948A058CE592E06B
:100300000E94BA0B4AE050E0BC0180E892E00E94F3
:100310005C066EE671E080E892E00E948A058CE55A
:1003200092E00E94D60B4AE050E0BC0180E892E0E7
:100330000E94640662E370E080E090E00E94EB04BB
:1003400060E08CE592E0DF91CF910C948D0A8F9262
:100350009F92AF92BF92CF92DF92EF92FF920F9354
:100360001F93CF93DF9385E7C82E82E0D82E93E7C3
:10037000E92E92E0F92E01E712E02FE632E04DE699
:1003800052E06BE672E08CE592E00E94980A2BE660
:10039000822E22E0922EF40160817181882777FD00
:1003A0008095982F0E944613AB01BC018BE492E02C
:1003B0000E94EA0D3DE6A32E32E0B32EF5016081E6
:1003C0007181882777FD8095982F0E944613AB0195
:1003D000BC018AE392E00E94EA0D4FE6C42E42E09F
:1003E000D42EF60160817181882777FD8095982F42
:1003F0000E944613AB01BC0189E292E00E94EA0D23
:10040000F40160817181882777FD8095982F0E9483
:100410004613AB01BC018EEE91E00E948500F50110
:1004200060817181882777FD8095982F0E944613FF
:10043000AB01BC0186EE91E00E948500F60160816F
:100440007181882777FD8095982F0E944613AB0114
:10045000BC018EED91E00E9485007801F801608179
:100460007181882777FD8095982F0E944613AB01F4
:10047000BC0188E192E00E94EA0D03E712E0F80176
:1004800060817181882777FD8095982F0E9446139F
:10049000AB01BC0187E092E00E94EA0DC5E7D2E023
:1004A00068817981882777FD8095982F0E9446136F
:1004B000AB01BC0186EF91E00E94EA0DF70160817B
:1004C0007181882777FD8095982F0E944613AB0194
:1004D000BC0186ED91E00E948500F8016081718188
:1004E000882777FD8095982F0E944613AB01BC01A9
:1004F0008EEC91E00E94850068817981882777FDE4
:100500008095982F0E944613AB01BC0186EC91E0C8
:100510000E948500F401608171814AE050E080E82A
:1005200092E00E945C066EE671E080E892E00E9434
:100530008A05F501608171814AE050E080E892E02F
:100540000E945C066EE671E080E892E00E948A05F7
:10055000F601608171814AE050E080E892E00E94FB
:100560005C066EE671E080E892E00E948A05F70181
:10057000608171814AE050E080E892E00E945C0670
:100580006EE671E080E892E00E948A05F8016081E1
:1005900071814AE050E080E892E00E945C066EE6DD
:1005A00071E080E892E00E948A05688179814AE0E2
:1005B00050E080E892E00E945C066EE671E080E820
:1005C00092E00E948A058BE492E00E94670EAB01E4
:1005D000BC0122E030E080E892E00E947B076EE6FA
:1005E00071E080E892E00E948A058AE392E00E942E
:1005F000670EAB01BC0122E030E080E892E00E948F
:100600007B076EE671E080E892E00E948A0589E24D
:1006100092E00E94670EAB01BC0122E030E080E86E
:1006200092E00E947B076EE671E080E892E00E9413
:100630008A0588E192E00E94670EAB01BC0122E0CE
:1006400030E080E892E00E947B076EE671E080E88F
:1006500092E00E948A0587E092E00E94670EAB015B
:10066000BC0122E030E080E892E00E947B076EE669
:1006700071E080E892E00E948A0586EF91E00E9496
:10068000670EAB01BC0122E030E080E892E00E94FE
:100690007B076EE671E080E892E00E948A05409157
:1006A000F2015091F3016091F4017091F50122E0A3
:1006B00030E080E892E00E947B076EE671E080E81F
:1006C00092E00E948A054091EA015091EB0160910D
:1006D000EC017091ED0122E030E080E892E00E94B0
:1006E0007B076EE671E080E892E00E948A05409107
:1006F000E2015091E3016091E4017091E50122E093
:1007000030E080E892E00E947B076EE671E080E8CE
:1007100092E00E948A054091DA015091DB016091DC
:10072000DC017091DD0122E030E080E892E00E947F
:100730007B076EE671E080E892E00E948A054091B6
:10074000D2015091D3016091D4017091D50122E082
:1007500030E080E892E00E947B076EE671E080E87E
:1007600092E00E948A054091CA015091CB016091AC
:10077000CC017091CD0122E030E080E892E00E944F
:100780007B0760E771E080E892E0DF91CF911F91F5
:100790000F91FF90EF90DF90CF90BF90AF909F9020
:1007A0008F900C948A058CE592E00E94460A65E0E1
:1007B0008BE492E00E94D60D65E08AE392E00E940D
:1007C000D60D65E089E292E00E94D60D65E088E1F1
:1007D00092E00E94D60D65E087E092E00E94D60D7F
:1007E00065E086EF91E00E94D60D8DEC9CECACECC0
:1007F000BEE38093EE019093EF01A093F001B093DC
:10080000F1011092F2011092F3011092F401109292
:10081000F5018093E6019093E701A093E801B0937E
:10082000E9011092EA011092EB011092EC01109292
:10083000ED018093DE019093DF01A093E001B0937E
:10084000E1011092E2011092E3011092E401109292
:10085000E5018093D6019093D701A093D801B0937E
:10086000D9011092DA011092DB011092DC01109292
:10087000DD018093CE019093CF01A093D001B0937E
:10088000D1011092D2011092D3011092D401109292
:10089000D5018093C6019093C701A093C801B0937E
:1008A000C9011092CA011092CB011092CC01109292
:1008B000CD01089586EF91E00E94A80D87E092E0B7
:1008C0000E94A80D88E192E00E94A80D89E292E0C2
:1008D0000E94A80D8AE392E00E94A80D8BE492E0AA
:1008E0000C94A80D1F920F920FB60F9211242F9304
:1008F0003F938F939F93AF93BF9380917802909192
:100900007902A0917A02B0917B023091770223E0C4
:10091000230F2D3720F40196A11DB11D05C026E837
:10092000230F0296A11DB11D2093770280937802B8
:1009300090937902A0937A02B0937B0280917C021B
:1009400090917D02A0917E02B0917F020196A11D3F
:10095000B11D80937C0290937D02A0937E02B093A0
:100960007F02BF91AF919F918F913F912F910F90F7
:100970000FBE0F901F9018952FB7F89460917802D2
:100980007091790280917A0290917B022FBF089535
:100990003FB7F89480917C0290917D02A0917E02F5
:1009A000B0917F0226B5A89B05C02F3F19F0019694
:1009B000A11DB11D3FBF6627782F892F9A2F620F87
:1009C000711D811D911D42E0660F771F881F991FC1
:1009D0004A95D1F70895CF92DF92EF92FF92CF938D
:1009E000DF936B017C010E94C804EB01C114D104A8
:1009F000E104F10479F00E94C8046C1B7D0B683E91
:100A00007340A0F381E0C81AD108E108F108C85189
:100A1000DC4FECCFDF91CF91FF90EF90DF90CF9044
:100A20000895789484B5826084BD84B5816084BD66
:100A300085B5826085BD85B5816085BDEEE6F0E057
:100A4000808181608083E1E8F0E0108280818260B3
:100A50008083808181608083E0E8F0E08081816034
:100A60008083E1EBF0E0808184608083E0EBF0E064
:100A7000808181608083EAE7F0E080818460808308
:100A800080818260808380818160808380818068B2
:100A900080831092C1000895CF92DF92EF92FF926F
:100AA0000F931F93CF93DF936C017A01EB01E60E56
:100AB000F71E00E010E0CE15DF0561F06991D60168
:100AC000ED91FC910190F081E02DC6010995080F90
:100AD000191FF1CFC801DF91CF911F910F91FF90A6
:100AE000EF90DF90CF9008956115710581F0DB01E3
:100AF0000D900020E9F7AD0141505109461B570BFD
:100B0000DC01ED91FC910280F381E02D099480E0FD
:100B100090E008950C947405DC01ED91FC91019036
:100B2000F081E02D09940F931F93CF93DF93EC0195
:100B30006DE00E948C058C016AE0CE010E948C055C
:100B4000800F911FDF91CF911F910F9108950F9307
:100B50001F93CF93DF93EC010E9474058C01CE01AB
:100B60000E949305800F911FDF91CF911F910F91EC
:100B700008958F929F92AF92BF92CF92DF92EF92A1
:100B8000FF920F931F93CF93DF93CDB7DEB7A1975B
:100B90000FB6F894DEBF0FBECDBF7C01C42EE52F8B
:100BA000CB01D22E19A221E02D1510F02AE0D22E71
:100BB0008E010F5D1F4F8D2C912CA12CB12C6C2D13
:100BC0007E2FA50194010E9461148C2DD29E801964
:100BD0001124015011098A3014F4805D01C0895C30
:100BE000F8018083211531054105510521F0C22E00
:100BF000E32FCA01E4CFB801C7010E947405A19692
:100C00000FB6F894DEBF0FBECDBFDF91CF911F911D
:100C10000F91FF90EF90DF90CF90BF90AF909F909B
:100C20008F900895CF92DF92EF92FF920F931F93D0
:100C3000CF93DF93EC016A017B012115310579F433
:100C4000E881F9810190F081E02D642FDF91CF914F
:100C50001F910F91FF90EF90DF90CF9009942A3071
:100C60003105E9F477FF1AC06DE20E948C058C0112
:100C700044275527BA014C195D096E097F092AE0FE
:100C8000CE010E94B905800F911FDF91CF911F9176
:100C90000F91FF90EF90DF90CF9008952AE0B70179
:100CA000A601CE01DF91CF911F910F91FF90EF90A0
:100CB000DF90CF900C94B9059A01AB01662757FDE0
:100CC0006095762F0C9412060F931F93CF93DF93AA
:100CD000EC019A01AB01662757FD6095762F0E94C3
:100CE00012068C01CE010E949305800F911FDF91A7
:100CF000CF911F910F9108952115310541F4DC0129
:100D0000ED91FC910190F081E02D642F09940C94F9
:100D1000B9059A01462F50E060E070E00C947C0623
:100D20004F925F926F927F928F929F92AF92BF92FB
:100D3000CF92DF92EF92FF920F931F93CF93DF93A7
:100D4000EC016A017B01B22E9A01AB01C701B60129
:100D50000E945D14882319F067E971E027C026011D
:100D60003701E89477F82FEF3FEF4FE75FE7C301D4
:100D7000B2010E945D1481110DC02FEF3FEF4FE7CC
:100D80005FE7C301B2010E94A71218161CF46BE9B9
:100D900071E00CC02FEF3FEF4FE75FE4C701B601F2
:100DA0000E94F6131816ACF46FE971E0CE01DF91E2
:100DB000CF911F910F91FF90EF90DF90CF90BF9058
:100DC000AF909F908F907F906F905F904F900C941A
:100DD00074052FEF3FEF4FE75FECC701B6010E94AC
:100DE000A71287FDE1CF20E030E0A901C701B601DD
:100DF0000E94A71287FF0AC06DE2CE010E948C05F7
:100E00008C01F7FAF094F7F8F09402C000E010E0DB
:100E1000A12C60E070E080E09FE3AB1441F020E0A3
:100E200030E040E251E40E94AB12A394F6CF9B0164
:100E3000AC01C701B6010E9443126B017C010E9404
:100E400018132B013C010E9444139B01AC01C70104
:100E5000B6010E9442126B017C012AE0B301A2019B
:100E6000CE010E94B905080F191FBB2039F063EAB3
:100E700071E0CE010E947405080F191F7B2C7720AA
:100E800041F120E030E040E251E4C701B6010E94A8
:100E9000FA136B017C010E9413134B01AA2497FCE7
:100EA000A094BA2C2AE030E0B501A401CE010E9442
:100EB0001206080F191FC501B4010E9446139B01B9
:100EC000AC01C701B6010E9442126B017C017A9409
:100ED000D6CFC801DF91CF911F910F91FF90EF9076
:100EE000DF90CF90BF90AF909F908F907F906F904A
:100EF0005F904F9008950C9490060E9411050E94F7
:100F0000BF00C6E5D8E00E94A7012097E1F30E9448
:100F10005608F9CFFC0124853585F901E05CFF4FC7
:100F200080819181329620813181821B930B8F7356
:100F300099270895FC0184859585FC01E05CFF4FAD
:100F4000408151813296208131814217530741F00F
:100F50000190F081E02DE80FF91F808190E0089565
:100F60008FEF9FEF0895FC0184859585FC01E05C7F
:100F7000FF4F4081518132962081318142175307C2
:100F800079F0A081B181A80FB91F8C9120813181A6
:100F90002F5F3F4F2F7333273183208390E00895D5
:100FA0008FEF9FEF0895FC0181A1882329F0A48988
:100FB000B5898C9186FFFBCF11A20895CF93DF9363
:100FC000FC0126853785D901A05CBF4F8D919C918E
:100FD000119701968F739927E901CE5BDF4F488106
:100FE000598184179507D9F30D90BC91A02DA20FBC
:100FF000B31F6C93A685B785A05CBF4F11969C93D9
:101000008E93A689B7892C9181E090E0078C02C06D
:10101000880F991F0A94E2F7282B2C9381E081A373
:101020000488F589E02D80818064808381E090E0F0
:10103000DF91CF91089508951F920F920FB60F92EE
:1010400011242F933F934F938F939F93EF93FF938D
:101050008091C00082FD1CC04091C6008091260393
:101060009091270301968F7399272091280330913F
:1010700029038217930771F0E0912603F09127036B
:10108000EA51FD4F4083909327038093260302C0CB
:101090008091C600FF91EF919F918F914F913F9169
:1010A0002F910F900FBE0F901F90189580E892E03F
:1010B0000E948A07892B11F00C941B0808951F9237
:1010C0000F920FB60F9211242F933F938F939F93FC
:1010D000EF93FF932091E2023091E3028091E402CA
:1010E0009091E5022817390731F48091C1008F7D76
:1010F0008093C10014C0E091E402F091E502EE5546
:10110000FD4F20818091E4029091E50201968F735A
:1011100099279093E5028093E4022093C600FF9103
:10112000EF919F918F913F912F910F900FBE0F9054
:101130001F901895CF92DF92EF92FF92CF93DF939B
:10114000EC016A017B01411581EE580761057105CB
:10115000F9F0EC89FD8981E090E008A002C0880FD9
:10116000991F0A94E2F7808360E079E08DE390E0D4
:10117000A70196010E9461142150310941095109CA
:101180005695479537952795211580E1380798F0B2
:10119000EC89FD89108260E874E88EE190E0A70197
:1011A00096010E9461142150310941095109569557
:1011B000479537952795E889F9893083EA89FB892E
:1011C000208319A2EE89FF89408181E090E09C0193
:1011D0000C8C02C0220F331F0A94E2F7422B40838B
:1011E000EE89FF8940819C010D8C02C0220F331FC4
:1011F0000A94E2F7422B4083EE89FF8940819C01EB
:101200000E8C02C0220F331F0A94E2F7422B408358
:10121000EE89FF8920810F8C02C0880F991F0A94E4
:10122000E2F7809582238083DF91CF91FF90EF904A
:10123000DF90CF900895109283021092820288EE80
:1012400093E0A0E0B0E08093840290938502A093A5
:101250008602B093870289EA91E09093810280939D
:10126000800286EE92E090938D0280938C0282EA57
:1012700092E090938F0280938E0285EC90E09093A1
:1012800091028093900284EC90E09093930280937B
:10129000920280EC90E0909395028093940281EC0E
:1012A00090E0909397028093960282EC90E0909366
:1012B00099028093980286EC90E090939B02809331
:1012C0009A0284E080939C0283E080939D0287E0F1
:1012D00080939E0285E080939F0281E08093A0022C
:1012E000089580915A0390E020915B03821B91093D
:1012F000089520915B0380915A03281750F4E22F40
:10130000F0E0E45AFC4F808190E02F5F20935B0374
:1013100008958FEF9FEF0895E0915B0380915A034A
:10132000E81730F4F0E0E45AFC4F808190E0089533
:101330008FEF9FEF08950895CF92DF92EF92FF9283
:101340000F931F93CF93DF937C01CB018A012091F0
:101350003603222389F0EB016B01C40ED51ECC1598
:10136000DD0569F06991D701ED91FC910190F08163
:10137000E02DC7010995F3CF642F0E948A10C801A0
:10138000DF91CF911F910F91FF90EF90DF90CF9061
:101390000895CF93DF931F92CDB7DEB76983209175
:1013A00036032223D1F020913703203240F021E090
:1013B00030E0FC013383228380E090E015C080910F
:1013C0003803E82FF0E0E75CFC4F998190838F5F52
:1013D000809338038093370305C061E0CE01019606
:1013E0000E948A1081E090E00F90DF91CF910895E4
:1013F000FC011382128248EE53E060E070E0448307
:1014000055836683778389EB91E091838083089588
:1014100010925B0310925A03109238031092370314
:101420000C94D50F862F413208F040E26CE573E052
:101430000E94F30F10925B0380935A03089521E0FA
:101440000C94120A81E08093360360935903109242
:1014500038031092370308950F93062F21E040912F
:10146000370369E373E0809159030E9437101092AB
:10147000380310923703109236030F91089561E0FC
:101480000C942C0A8AE293E00C94F80928E6FC01FB
:1014900020830895EF92FF920F931F93CF93DF93D2
:1014A000EC01E0900001F09001018C010F5F1F4FF3
:1014B00022E044E06BE188810E94F20C8981DF9197
:1014C000CF911F910F91FF90EF9008950F93062FEA
:1014D00022E044E06BE1FC0180810E94620D0F91EB
:1014E0000895EF92FF920F931F93CF93DF93EC0138
:1014F000E0900001F09001018C010F5F1F4F22E08E
:1015000044E06CE188810E94F20C8981DF91CF91E7
:101510001F910F91FF90EF9008950F93062F22E0F7
:1015200044E06CE1FC0180810E94620D0F910895FE
:101530004F925F926F927F928F929F92AF92BF92E3
:10154000CF92DF92EF92FF920F931F93CF93DF938F
:10155000EC015B013A014901280100910001109161
:1015600001019C012F5F3F4F4EE06BE388810E9499
:101570003B0C898190E0982F88272A81822BF501E6
:10158000918380838B8190E0982F88272C81822BF8
:10159000F301918380838D8190E0982F88272E819D
:1015A000822BF40191838083898590E0982F88278E
:1015B0002A85822BF201918380838B8590E0982F7E
:1015C00088272C85822BF701918380838D8590E07D
:1015D000982F88272E85822BF60191838083DF91B7
:1015E000CF911F910F91FF90EF90DF90CF90BF9020
:1015F000AF909F908F907F906F905F904F900895E5
:10160000262F46E06BE6FC0180810C942F0D0F9392
:10161000062F23E042E06BE6FC0180810E94620D10
:101620000F910895CF93DF93EC0161E00E94070BC7
:1016300060E0CE010E94660A60E0CE010E948D0A41
:1016400060E0CE01DF91CF910C94000BEF92FF92FE
:101650000F931F93CF93DF93EC01E0900001F09084
:1016600001018C010F5F1F4F26E046E065E788818E
:101670000E94F20C8981DF91CF911F910F91FF9011
:10168000EF9008950E94260B91E0843309F090E0DA
:10169000892F08950F931F93CF93DF93EC0100914F
:1016A0000001109101019C012F5F3F4F42E066E075
:1016B00088810E943B0C898190E0982F88272A819D
:1016C000822BDF91CF911F910F9108950F931F935C
:1016D000CF93DF93EC0100910001109101019C0177
:1016E0002F5F3F4F42E068E088810E943B0C898178
:1016F00090E0982F88272A81822BDF91CF911F912C
:101700000F9108950F931F93CF93DF93EC010091F6
:101710000001109101019C012F5F3F4F42E06AE000
:1017200088810E943B0C898190E0982F88272A812C
:10173000822BDF91CF911F910F9108950F931F93EB
:10174000CF93DF93EC0100910001109101019C0106
:101750002F5F3F4F42E063E188810E943B0C89810B
:1017600090E0982F88272A81822BDF91CF911F91BB
:101770000F9108950F931F93CF93DF93EC01009186
:101780000001109101019C012F5F3F4F42E065E194
:1017900088810E943B0C898190E0982F88272A81BC
:1017A000822BDF91CF911F910F9108950F931F937B
:1017B000CF93DF93EC0100910001109101019C0196
:1017C0002F5F3F4F42E067E188810E943B0C898197
:1017D00090E0982F88272A81822BDF91CF911F914B
:1017E0000F910895EF92FF920F931F93CF93DF9382
:1017F00000D0CDB7DEB7062F142F682F8AE293E012
:1018000029833A830E94220A602F8AE293E00E9491
:10181000C9092981022FE22E3A81F32E8E2D801BD9
:10182000811740F4F70161917F018AE293E00E9401
:10183000C909F4CF8AE293E00E943F0A91E0811146
:1018400090E0892F0F900F90DF91CF911F910F9112
:10185000FF90EF900895CF93DF931F92CDB7DEB73F
:1018600049839E012F5F3F4F41E00E94F20B0F9092
:10187000DF91CF9108953F924F925F926F927F9246
:101880008F929F92AF92BF92CF92DF92EF92FF9290
:101890000F931F93CF93DF9300D000D000D0CDB72C
:1018A000DEB7682E562E742E3A8329830E94BC041C
:1018B0006B017C01312C412C872D90E09C838B8324
:1018C0004801A12CB12C3714B0F5662D8AE293E0C3
:1018D0000E94220A652D8AE293E00E94C9098AE2E9
:1018E00093E00E943F0A662D8AE293E00E94220A5A
:1018F0004B815C81431951094132510514F040E29A
:1019000050E0662D8AE293E00E941F0A8AE293E08B
:101910000E947109892B59F10115110579F10E9475
:10192000BC046C197D098E099F09681579058A0523
:101930009B0520F11CC00115110589F10E94BC0412
:101940006C197D098E099F0920E030E0601771074E
:101950008207930720F1872D90E0242D332727FD60
:10196000309528173907DCF444244A9418C0872D91
:1019700090E2971508F480E2380EA5CFE981FA814C
:10198000E40DF11D47FCFA95FE83ED838AE293E0B6
:101990000E947909ED81FE8180834394B7CF842D25
:1019A00026960FB6F894DEBF0FBECDBFDF91CF9164
:1019B0001F910F91FF90EF90DF90CF90BF90AF906D
:1019C0009F908F907F906F905F904F903F90089581
:1019D0000F931F9389019A0141E00E943B0C1F91D4
:1019E0000F910895CF92DF92EF92FF920F931F9382
:1019F000CF93DF931F92CDB7DEB7C42ED22E9701BF
:101A0000AE014F5F5F4F0E94E80C8823F1F04C2D30
:101A100050E04D1951094F5F5F4F61E070E002C027
:101A2000660F771FDA94E2F761507109042E01C046
:101A3000660F0A94EAF72981262330E002C0359523
:101A400027954A95E2F7F80120830F90DF91CF9117
:101A50001F910F91FF90EF90DF90CF900895EF923C
:101A6000FF920F931F93CF93DF931F92CDB7DEB7F3
:101A7000182F062FF42EE22E209100013091010143
:101A8000AE014F5F5F4F0E94E80C898121E030E09A
:101A90000F2C01C0220F0A94EAF7EE2019F0482F0C
:101AA000422B03C0422F409548234983602F812F4A
:101AB0000E942B0C0F90DF91CF911F910F91FF90FF
:101AC000EF900895DF92EF92FF920F931F93CF93C1
:101AD000DF931F92CDB7DEB7F82EE62ED42E122F4D
:101AE0002091000130910101AE014F5F5F4F0E94D4
:101AF000E80C882319F14D2D50E0411B51094F5F2F
:101B00005F4FE1E0F0E002C0EE0FFF1F1A95E2F731
:101B10003197042E01C0EE0F0A94EAF701C0000FBE
:101B20004A95EAF74E2F409589814823E0234E2BB2
:101B300049836E2D8F2D0E942B0C01C080E00F90E9
:101B4000DF91CF911F910F91FF90EF90DF9008955B
:101B5000FC0187819085009711F00C94460F089541
:101B6000FC0111821282138214821582168240E0D7
:101B700050E060EC7FE74187528763877487458731
:101B800056876787708B80E09081891770F4A781F2
:101B9000B08594E0899FA00DB11D11241D921D9266
:101BA0001D921C9213978F5FEFCF0895CF93DF9311
:101BB000EC01688324E0629FC00111240E94AE0EF4
:101BC00098878F83892B09F41882CE01DF91CF91FA
:101BD0000C94B00DAF92BF92CF92DF92EF92FF9232
:101BE0000F931F93CF93DF93EC016A017B010F8169
:101BF00018850115110509F45FC08A81580194E028
:101C0000899FA00CB11C1124F501208131814281F2
:101C100053816B817C818D819E810E9442126B83F6
:101C20007C838D839E83F501C082D182E282F38220
:101C3000BA80F80184E0B89EE00DF11D11242081E6
:101C40003181428153816B817C818D819E810E9493
:101C500043126B837C838D839E83B394BA82088105
:101C6000B01201C01A821981111105C0CD86DE861D
:101C7000EF86F88A0AC029853A854B855C85C701BD
:101C8000B6010E94A71287FF05C0C986DA86EB86D7
:101C9000FC860EC02D853E854F855889C701B6014B
:101CA0000E94F613181624F4CD86DE86EF86F88A95
:101CB000101710F41F5F1983DF91CF911F910F91BF
:101CC000FF90EF90DF90CF90BF90AF900895AF92CC
:101CD000BF92CF92DF92EF92FF920F931F93CF9319
:101CE000DF938C01DC011196AC90A11005C060E07F
:101CF00070E080EC9FE727C0C0E0D0E0B12CC12CA1
:101D0000D12C7601D8011796ED91FC911897EC0F24
:101D1000FD1F2081318142815381C701B6010E949C
:101D200043126B017C01B3942496BA10EBCF6B2D58
:101D300070E080E090E00E9446139B01AC01C70177
:101D4000B6010E94AB12DF91CF911F910F91FF90CE
:101D5000EF90DF90CF90BF90AF900895CF93DF9337
:101D60008230910510F482E090E0E091EC03F09174
:101D7000ED0320E030E0A0E0B0E0309739F14081A1
:101D8000518148175907B8F04817590771F48281F3
:101D90009381109729F013969C938E9312972CC0E1
:101DA0009093ED038093EC0327C02115310531F0AA
:101DB0004217530718F0A901DB0101C0EF019A0196
:101DC000BD01DF010280F381E02DD7CF2115310560
:101DD000F9F0281B390B2430310580F48A819B816E
:101DE0006115710521F0FB019383828304C09093F8
:101DF000ED038093EC03FE01329644C0FE01E20F36
:101E0000F31F8193919322503109398328833AC07B
:101E10002091EA033091EB03232B41F4209104013C
:101E2000309105013093EB032093EA0320910201E6
:101E3000309103012115310541F42DB73EB7409192
:101E4000060150910701241B350BE091EA03F09144
:101E5000EB03E217F307A0F42E1B3F0B28173907FB
:101E600078F0AC014E5F5F4F2417350748F04E0FF6
:101E70005F1F5093EB034093EA038193919302C059
:101E8000E0E0F0E0CF01DF91CF910895CF93DF93B1
:101E9000009709F487C0FC01329713821282C09127
:101EA000EC03D091ED03209781F420813181280F3C
:101EB000391F8091EA039091EB038217930779F51C
:101EC000F093EB03E093EA036DC0DE0120E030E025
:101ED000AE17BF0750F412964D915C9113979D0178
:101EE0004115510509F1DA01F3CFB383A283408193
:101EF0005181840F951F8A179B0771F48D919C91D6
:101F00001197840F951F02969183808312968D916D
:101F10009C911397938382832115310529F4F093C3
:101F2000ED03E093EC033EC0D9011396FC93EE93CE
:101F300012974D915D91A40FB51FEA17FB0779F435
:101F400080819181840F951F0296D90111969C93EF
:101F50008E938281938113969C938E931297E0E0E7
:101F6000F0E08A819B81009719F0FE01EC01F9CF26
:101F7000CE01029628813981820F931F2091EA03B6
:101F80003091EB032817390769F4309729F4109240
:101F9000ED031092EC0302C013821282D093EB0384
:101FA000C093EA03DF91CF9108951092E90381E095
:101FB0008093E7031092E60361E082E10E94091238
:101FC00061E083E10E940912E9EBF0E080818E7FFD
:101FD000808380818D7F808388E48093B80085E44E
:101FE0008093BC000895413208F03FC09091E9030E
:101FF0009111FCCF91E09093E9032093E7032FEF39
:1020000020937C031092C103240F2093C00390936C
:10201000E8039091E803880F892B8093E80380916F
:10202000E603813041F41092E6038091E803809347
:10203000BB0085EC01C085EE8093BC008091E90374
:102040008130E1F38091C103841710F44091C10302
:1020500022EC33E0FB01D9018A2F821B841718F48C
:102060008D918193F9CF842F089580E008950F9387
:10207000413208F046C09091E9039111FCCF92E003
:102080009093E9030093E7039FEF90937C031092F2
:10209000C1034093C003FB0162EC73E0DB019A2FA4
:1020A000961B941718F491919D93F9CF1092E80321
:1020B0009091E803880F892B8093E8038091E603D1
:1020C000813041F41092E6038091E8038093BB00D5
:1020D00085EC01C085EE8093BC00222321F0809125
:1020E000E9038230E1F380917C038F3F61F08091BE
:1020F0007C03803251F080917C03803341F483E093
:1021000007C081E005C080E003C082E001C084E038
:102110000F910895613298F42091E903243089F4F5
:1021200060939E03FC0180EA93E0DC012A2F281BC8
:10213000261718F421912D93F9CF80E0089581E0BE
:10214000089582E0089585ED8093BC008091BC00E5
:1021500084FDFCCF1092E903089585EC8093BC00C8
:102160001092E90308951F920F920FB60F92112457
:102170002F933F934F935F936F937F938F939F938F
:10218000AF93BF93EF93FF938091B900887F803620
:1021900009F49CC068F5883209F45BC090F4803182
:1021A00009F454C038F4882309F4F5C0883009F4E0
:1021B0004DC0F5C0883109F44CC0803209F45DC0CF
:1021C000EEC0803409F468C048F4803309F455C087
:1021D000883309F0E4C080937C03A8C0803509F4FB
:1021E0004FC0883509F45DC0883409F0D8C0D5C027
:1021F000883909F4C6C0A8F4883709F467C038F4F0
:10220000883609F463C0803709F460C0C8C08838D4
:1022100009F4B7C0803909F45FC0803809F0BFC045
:102220005BC0803B09F485C038F4803A09F466C08D
:10223000883A09F47EC0B3C0803C09F4A6C0883C4B
:1022400009F4A3C0883B09F489C0A9C08091E803C0
:1022500010C09091C1038091C003981770F5E09170
:10226000C10381E08E0F8093C103F0E0EE53FC4F79
:1022700080818093BB0085EC85C080937C038DC0FA
:10228000E091C10381E08E0F8093C1038091BB0078
:10229000F0E0EE53FC4F80839091C1038091C00326
:1022A0006DC0E091C10381E08E0F8093C1038091E6
:1022B000BB00F0E0EE53FC4F80838091E703811177
:1022C0006CC081E08093E60384EA60C083E0809381
:1022D000E90310927D03CFCF80917D03803208F017
:1022E00050C0E0917D0381E08E0F80937D0380914B
:1022F000BB00F0E0E258FC4F8083BDCF80917D03AE
:10230000803230F4E0917D03F0E0E258FC4F10821F
:102310000E94A31060917D0370E0E091E203F091D0
:10232000E3038EE793E0099510927D030E94AD10C0
:1023300036C084E08093E90310929F0310929E03BD
:10234000E091E403F091E503099580919E038111EA
:1023500005C081E080939E031092A003E0919F034B
:1023600081E08E0F80939F03F0E0E056FC4F808168
:102370008093BB0090919F0380919E03981708F46F
:102380007ACF85E88093BC000AC085EC8093BC00BE
:102390001092E90304C010927C030E94A310FF91E5
:1023A000EF91BF91AF919F918F917F916F915F91CD
:1023B0004F913F912F910F900FBE0F901F90189546
:1023C000833081F028F4813099F08230A1F00895B3
:1023D0008630A9F08730B9F08430D1F48091800044
:1023E0008F7D03C0809180008F7780938000089557
:1023F00084B58F7702C084B58F7D84BD08958091A8
:10240000B0008F7703C08091B0008F7D8093B000C3
:1024100008950F931F93CF93DF931F92CDB7DEB72D
:10242000282F30E0F901E859FF4F8491F901E45871
:10243000FF4F1491F901E057FF4F04910023C9F0B9
:10244000882321F069830E94E0116981E02FF0E088
:10245000EE0FFF1FEC55FF4FA591B4919FB7F89475
:102460008C91611103C01095812301C0812B8C9345
:102470009FBF0F90DF91CF911F910F910895F89416
:102480000C9489145058BB27AA270ED075C166D169
:1024900030F06BD120F031F49F3F11F41EF45BC19A
:1024A0000EF4E095E7FB51C1E92F77D180F3BA171D
:1024B000620773078407950718F071F49EF58FC1C2
:1024C0000EF4E0950B2EBA2FA02D0B01B90190014F
:1024D0000C01CA01A0011124FF27591B99F0593F93
:1024E00050F4503E68F11A16F040A22F232F342FDB
:1024F0004427585FF3CF469537952795A795F04029
:102500005395C9F77EF41F16BA0B620B730B840B3D
:10251000BAF09150A1F0FF0FBB1F661F771F881FF5
:10252000C2F70EC0BA0F621F731F841F48F487954D
:1025300077956795B795F7959E3F08F0B3CF93953C
:10254000880F08F09927EE0F979587950895D9D0B1
:1025500008F481E008950CD00FC107D140F0FED0FF
:1025600030F021F45F3F19F0F0C0511139C1F3C0D0
:1025700014D198F39923C9F35523B1F3951B550B47
:10258000BB27AA2762177307840738F09F5F5F4F46
:10259000220F331F441FAA1FA9F333D00E2E3AF087
:1025A000E0E830D091505040E695001CCAF729D0A1
:1025B000FE2F27D0660F771F881FBB1F26173707F0
:1025C0004807AB07B0E809F0BB0B802DBF01FF2720
:1025D00093585F4F2AF09E3F510568F0B6C000C186
:1025E0005F3FECF3983EDCF3869577956795B7955A
:1025F000F7959F5FC9F7880F911D9695879597F975
:102600000895E1E0660F771F881FBB1F62177307ED
:102610008407BA0720F0621B730B840BBA0BEE1F02
:1026200088F7E095089504D06894B111D9C0089551
:10263000BCD088F09F5790F0B92F9927B751A0F0E0
:10264000D1F0660F771F881F991F1AF0BA95C9F746
:1026500012C0B13081F0C3D0B1E00895C0C0672F7F
:10266000782F8827B85F39F0B93FCCF386957795F6
:102670006795B395D9F73EF49095809570956195DF
:102680007F4F8F4F9F4F0895E89409C097FB3EF40A
:1026900090958095709561957F4F8F4F9F4F9923AF
:1026A000A9F0F92F96E9BB279395F695879577952D
:1026B0006795B795F111F8CFFAF4BB0F11F460FFED
:1026C0001BC06F5F7F4F8F4F9F4F16C0882311F045
:1026D00096E911C0772321F09EE8872F762F05C059
:1026E000662371F096E8862F70E060E02AF09A95F4
:1026F000660F771F881FDAF7880F9695879597F9E9
:102700000895990F0008550FAA0BE0E8FEEF161682
:102710001706E807F907C0F012161306E407F507D5
:1027200098F0621B730B840B950B39F40A2661F049
:10273000232B242B252B21F408950A2609F4A140EC
:10274000A6958FEF811D811D089597F99F6780E8F9
:1027500070E060E008959FEF80EC089500240A94F3
:102760001616170618060906089500240A9412166C
:102770001306140605060895092E0394000C11F49F
:10278000882352F0BB0F40F4BF2B11F460FF04C04C
:102790006F5F7F4F8F4F9F4F089557FD9058440FA5
:1027A000551F59F05F3F71F04795880F97FB991FB0
:1027B00061F09F3F79F0879508951216130614066D
:1027C000551FF2CF4695F1DF08C0161617061806FA
:1027D000991FF1CF86957105610508940895E894D5
:1027E000BB2766277727CB0197F908958ADF08F47E
:1027F0008FEF08950BD0C0CFB1DF28F0B6DF18F00F
:10280000952309F0A2CFA7CF1124EACFC6DFA0F30A
:10281000959FD1F3950F50E0551F629FF001729F75
:10282000BB27F00DB11D639FAA27F00DB11DAA1F94
:10283000649F6627B00DA11D661F829F2227B00DE1
:10284000A11D621F739FB00DA11D621F839FA00D6C
:10285000611D221F749F3327A00D611D231F849FBC
:10286000600D211D822F762F6A2F11249F57504013
:102870008AF0E1F088234AF0EE0FFF1FBB1F661FAE
:10288000771F881F91505040A9F79E3F510570F067
:102890005CCFA6CF5F3FECF3983EDCF3869577954F
:1028A0006795B795F795E7959F5FC1F7FE2B880F62
:1028B000911D9695879597F9089523DF880B990BBD
:1028C0000895A1E21A2EAA1BBB1BFD010DC0AA1F71
:1028D000BB1FEE1FFF1FA217B307E407F50720F089
:1028E000A21BB30BE40BF50B661F771F881F991F04
:1028F0001A9469F760957095809590959B01AC014D
:10290000BD01CF010895EE0FFF1F0590F491E02D5A
:10291000099410E0C4EBD0E004C0FE010E948514CD
:0C2920002296C63BD107C9F7F894FFCF00
:10292C00E8030000EE038000636F6E6E65637469EC
:10293C006F6E2065737461626C69736865640063A3
:10294C006F6E6E656374696F6E206661696C75720B
:10295C006500494E49540074657374696E67206450
:10296C00657669636520636F6D6D756E69636174FF
:10297C00696F6E006765742063757272656E742082
:10298C00616363656C2073657474696E673A2000CB
:10299C000A006765742063757272656E74206779BE
:1029AC00726F2073657474696E673A20006F666687
:1029BC00736574733A20006E616E00696E66006F09
:1029CC007666002E0000000000DE074C058A07B377
:1029DC00079A07D30700000000C9099C09710979FF
:0629EC00098C099B0900A3
:00000001FF
