:100000000C945B000C9483000C9483000C9483008C
:100010000C9483000C9483000C9483000C94830054
:100020000C9483000C9483000C9483000C94830044
:100030000C9483000C9483000C9483000C94830034
:100040000C9410020C9483000C94BA050C94FD05DA
:100050000C9483000C9483000C9483000C94830014
:100060000C94510E0C948300000000070002010064
:100070000003040600000000000000000102040864
:100080001020408001020408102001020408102002
:10009000040404040404040402020202020203032E
:1000A0000303030300000000250028002B00F801D3
:1000B000B906E0070C0211241FBECFEFD8E0DEBF67
:1000C000CDBF12E0A0E0B1E0E8EBF4E202C00590A1
:1000D0000D92A030B107D9F723E0A0E0B2E001C053
:1000E0001D92A73AB207E1F710E0C4EBD0E004C0DC
:1000F0002297FE010E944B12CE3AD107C9F70E9407
:100100001B050C94DD0F0C940000CF93DF9384E06B
:1001100092E00E944E0B83EE92E00E94A60740E020
:1001200052EC61E070E089E392E00E94380662E3FD
:1001300071E089E392E00E94450385E192E00E942C
:10014000B00867E371E089E392E00E94450385E12E
:1001500092E00E94E008882319F068E071E002C094
:100160006FE171E089E392E00E94450385E192E04E
:100170000E940F08D82F85E192E00E94E807C82F5F
:1001800064E571E089E392E00E9445034AE050E0B3
:100190006D2F89E392E00E94270460E771E089E314
:1001A00092E00E94280362E771E089E392E00E94F6
:1001B00045034AE050E06C2F89E392E00E94270457
:1001C00060E771E089E392E00E9428036DE871E046
:1001D00089E392E00E94450385E192E00E94E808ED
:1001E0004AE050E0BC0189E392E00E94FA0366EB2A
:1001F00071E089E392E00E94280385E192E00E9489
:1002000004094AE050E0BC0189E392E00E94FA034D
:1002100066EB71E089E392E00E94280385E192E0B9
:100220000E9420094AE050E0BC0189E392E00E946C
:10023000FA0366EB71E089E392E00E94280385E10E
:1002400092E00E943C094AE050E0BC0189E392E060
:100250000E94FA0366EB71E089E392E00E942803B2
:1002600085E192E00E9458094AE050E0BC0189E330
:1002700092E00E94FA0366EB71E089E392E00E944B
:10028000280385E192E00E9474094AE050E0BC0135
:1002900089E392E00E94020464EF71E080E090E064
:1002A0000E94890260E085E192E0DF91CF910C9499
:1002B0002B08CF92DF92EF92FF920F931F93CF9371
:1002C000DF938EE2C82E82E0D82E9CE2E92E92E0E7
:1002D000F92E0AE212E028E232E046E252E064E25D
:1002E00072E085E192E00E943608C4E2D2E06881C3
:1002F0007981882777FD8095982F0E94E410AB01C3
:10030000BC0184E092E00E94880B00E012E0F8015A
:1003100020813181E2E0F2E048815981249FC001CF
:10032000259F900D349F900D112464E670E0DB0151
:10033000A21BB30B40815181A49F9001A59F300D5A
:10034000B49F300D1124820F931F0E94FF117183FF
:10035000608367E971E089E392E00E942803688185
:1003600079814AE050E089E392E00E94FA0360E775
:1003700071E089E392E00E9428036DE971E089E36E
:1003800092E00E94280384E092E00E94050CAB01F9
:10039000BC0122E030E089E392E00E94190560E7A9
:1003A00071E089E392E00E94280368EB71E089E341
:1003B00092E00E942803F801628173814AE050E0D4
:1003C00089E392E00E94FA0360E771E089E392E03A
:1003D0000E94280362E370E080E090E0DF91CF911B
:1003E0001F910F91FF90EF90DF90CF900C948902B6
:1003F00085E192E00E94E4076AE084E092E00E94D6
:10040000740B85E090E090930102809300021092BB
:10041000030210920202089584E092E00C94460BCD
:100420001F920F920FB60F9211242F933F938F9329
:100430009F93AF93BF938091310290913202A0912C
:100440003302B09134023091300223E0230F2D3774
:1004500020F40196A11DB11D05C026E8230F0296C8
:10046000A11DB11D2093300280933102909332027E
:10047000A0933302B09334028091350290913602FA
:10048000A0913702B09138020196A11DB11D809351
:10049000350290933602A0933702B0933802BF9191
:1004A000AF919F918F913F912F910F900FBE0F9021
:1004B0001F9018952FB7F894609131027091320215
:1004C00080913302909134022FBF08953FB7F89482
:1004D0008091350290913602A0913702B091380296
:1004E00026B5A89B05C02F3F19F00196A11DB11D8F
:1004F0003FBF6627782F892F9A2F620F711D811DAC
:10050000911D42E0660F771F881F991F4A95D1F70A
:100510000895CF92DF92EF92FF92CF93DF936B011A
:100520007C010E946602EB01C114D104E104F104D4
:1005300079F00E9466026C1B7D0B683E7340A0F34D
:1005400081E0C81AD108E108F108C851DC4FECCFAE
:10055000DF91CF91FF90EF90DF90CF900895789446
:1005600084B5826084BD84B5816084BD85B58260B8
:1005700085BD85B5816085BDEEE6F0E08081816056
:100580008083E1E8F0E01082808182608083808156
:1005900081608083E0E8F0E0808181608083E1EB2E
:1005A000F0E0808184608083E0EBF0E08081816016
:1005B0008083EAE7F0E080818460808380818260CC
:1005C00080838081816080838081806880831092B5
:1005D000C1000895CF92DF92EF92FF920F931F9385
:1005E000CF93DF936C017A01EB01E60EF71E00E07A
:1005F00010E0CE15DF0561F06991D601ED91FC9117
:100600000190F081E02DC6010995080F191FF1CF67
:10061000C801DF91CF911F910F91FF90EF90DF9074
:10062000CF9008956115710581F0DB010D900020D8
:10063000E9F7AD0141505109461B570BDC01ED9123
:10064000FC910280F381E02D099480E090E0089510
:100650000C941203DC01ED91FC910190F081E02DEE
:1006600009940F931F93CF93DF93EC016DE00E94E9
:100670002A038C016AE0CE010E942A03800F911F99
:10068000DF91CF911F910F9108950F931F93CF93F7
:10069000DF93EC010E9412038C01CE010E94310312
:1006A000800F911FDF91CF911F910F9108958F922D
:1006B0009F92AF92BF92CF92DF92EF92FF920F93F1
:1006C0001F93CF93DF93CDB7DEB7A1970FB6F89402
:1006D000DEBF0FBECDBF7C01C42EE52FCB01D22ED5
:1006E00019A221E02D1510F02AE0D22E8E010F5D07
:1006F0001F4F8D2C912CA12CB12C6C2D7E2FA50180
:1007000094010E9413128C2DD29E80191124015045
:1007100011098A3014F4805D01C0895CF80180837E
:10072000211531054105510521F0C22EE32FCA01E3
:10073000E4CFB801C7010E941203A1960FB6F89446
:10074000DEBF0FBECDBFDF91CF911F910F91FF9004
:10075000EF90DF90CF90BF90AF909F908F900895D3
:10076000CF92DF92EF92FF920F931F93CF93DF937D
:10077000EC016A017B012115310579F4E881F981E9
:100780000190F081E02D642FDF91CF911F910F91A7
:10079000FF90EF90DF90CF9009942A303105E9F473
:1007A00077FF1AC06DE20E942A038C014427552767
:1007B000BA014C195D096E097F092AE0CE010E9439
:1007C0005703800F911FDF91CF911F910F91FF90E1
:1007D000EF90DF90CF9008952AE0B701A601CE01F7
:1007E000DF91CF911F910F91FF90EF90DF90CF900D
:1007F0000C9457039A01AB01662757FD6095762F3D
:100800000C94B0030F931F93CF93DF93EC019A01E5
:10081000AB01662757FD6095762F0E94B0038C01CF
:10082000CE010E943103800F911FDF91CF911F9164
:100830000F9108952115310541F4DC01ED91FC91F2
:100840000190F081E02D642F09940C9457039A01D4
:10085000462F50E060E070E00C941A044F925F92D3
:100860006F927F928F929F92AF92BF92CF92DF92C0
:10087000EF92FF920F931F93CF93DF93EC016A01E6
:100880007B01B22E9A01AB01C701B6010E94FB1198
:10089000882319F061ED71E027C026013701E89443
:1008A00077F82FEF3FEF4FE75FE7C301B2010E94F8
:1008B000FB1181110DC02FEF3FEF4FE75FE7C30141
:1008C000B2010E94451018161CF465ED71E00CC0D1
:1008D0002FEF3FEF4FE75FE4C701B6010E9494118D
:1008E0001816ACF469ED71E0CE01DF91CF911F9144
:1008F0000F91FF90EF90DF90CF90BF90AF909F90BF
:100900008F907F906F905F904F900C9412032FEF19
:100910003FEF4FE75FECC701B6010E94451087FD2E
:10092000E1CF20E030E0A901C701B6010E944510E7
:1009300087FF0AC06DE2CE010E942A038C01F7FAFC
:10094000F094F7F8F09402C000E010E0A12C60E011
:1009500070E080E09FE3AB1441F020E030E040E243
:1009600051E40E944910A394F6CF9B01AC01C7014A
:10097000B6010E94E10F6B017C010E94B6102B01B1
:100980003C010E94E2109B01AC01C701B6010E942C
:10099000E00F6B017C012AE0B301A201CE010E94AD
:1009A0005703080F191FBB2039F06DED71E0CE0120
:1009B0000E941203080F191F7B2C772041F120E0C1
:1009C00030E040E251E4C701B6010E9498116B018A
:1009D0007C010E94B1104B01AA2497FCA094BA2C70
:1009E0002AE030E0B501A401CE010E94B003080F57
:1009F000191FC501B4010E94E4109B01AC01C7019D
:100A0000B6010E94E00F6B017C017A94D6CFC80139
:100A1000DF91CF911F910F91FF90EF90DF90CF90DA
:100A2000BF90AF909F908F907F906F905F904F900E
:100A300008950C942E040E94AF020E948500C4EF1A
:100A4000D5E00E9459012097E1F30E94F405F9CF07
:100A5000FC0124853585F901E05CFF4F808191819F
:100A6000329620813181821B930B8F7399270895D1
:100A7000FC0184859585FC01E05CFF4F408151813C
:100A80003296208131814217530741F00190F08165
:100A9000E02DE80FF91F808190E008958FEF9FEF20
:100AA0000895FC0184859585FC01E05CFF4F408141
:100AB00051813296208131814217530779F0A0810C
:100AC000B181A80FB91F8C91208131812F5F3F4FD9
:100AD0002F7333273183208390E008958FEF9FEFAA
:100AE0000895FC0181A1882329F0A489B5898C91FE
:100AF00086FFFBCF11A20895CF93DF93FC012685DB
:100B00003785D901A05CBF4F8D919C9111970196BB
:100B10008F739927E901CE5BDF4F48815981841794
:100B20009507D9F30D90BC91A02DA20FB31F6C9324
:100B3000A685B785A05CBF4F11969C938E93A6891E
:100B4000B7892C9181E090E0078C02C0880F991F33
:100B50000A94E2F7282B2C9381E081A30488F5897D
:100B6000E02D80818064808381E090E0DF91CF91EF
:100B7000089508951F920F920FB60F9211242F938C
:100B80003F934F938F939F93EF93FF938091C00078
:100B900082FD1CC04091C6008091DF029091E0026E
:100BA00001968F7399272091E1023091E20282171A
:100BB000930771F0E091DF02F091E002E156FD4F02
:100BC00040839093E0028093DF0202C08091C600D0
:100BD000FF91EF919F918F914F913F912F910F90A6
:100BE0000FBE0F901F90189589E392E00E94280590
:100BF000892B11F00C94B90508951F920F920FB62E
:100C00000F9211242F933F938F939F93EF93FF9312
:100C100020919B0230919C0280919D0290919E02B6
:100C20002817390731F48091C1008F7D8093C1006E
:100C300014C0E0919D02F0919E02E55AFD4F208183
:100C400080919D0290919E0201968F7399279093B7
:100C50009E0280939D022093C600FF91EF919F9189
:100C60008F913F912F910F900FBE0F901F9018956D
:100C7000CF92DF92EF92FF92CF93DF93EC016A0164
:100C80007B01411581EE580761057105F9F0EC898A
:100C9000FD8981E090E008A002C0880F991F0A94A6
:100CA000E2F7808360E079E08DE390E0A7019601B0
:100CB0000E94131221503109410951095695479557
:100CC00037952795211580E1380798F0EC89FD8943
:100CD000108260E874E88EE190E0A70196010E941E
:100CE00013122150310941095109569547953795FD
:100CF0002795E889F9893083EA89FB89208319A23D
:100D0000EE89FF89408181E090E09C010C8C02C05B
:100D1000220F331F0A94E2F7422B4083EE89FF89AA
:100D200040819C010D8C02C0220F331F0A94E2F710
:100D3000422B4083EE89FF8940819C010E8C02C0CA
:100D4000220F331F0A94E2F7422B4083EE89FF897A
:100D500020810F8C02C0880F991F0A94E2F78095BA
:100D600082238083DF91CF91FF90EF90DF90CF902F
:100D7000089510923C0210923B0288EE93E0A0E0AE
:100D8000B0E080933D0290933E02A0933F02B09367
:100D9000400283EE91E090933A02809339028FE90A
:100DA00092E090934602809345028BE592E0909307
:100DB00048028093470285EC90E090934A0280932A
:100DC000490284EC90E090934C0280934B0280ECBB
:100DD00090E090934E0280934D0281EC90E09093CE
:100DE000500280934F0282EC90E0909352028093E5
:100DF000510286EC90E0909354028093530284E079
:100E00008093550283E08093560287E080935702D7
:100E100085E08093580281E0809359020895809183
:100E2000130390E020911403821B910908952091EF
:100E3000140380911303281750F4E22FF0E0EB5EC7
:100E4000FC4F808190E02F5F2093140308958FEF73
:100E50009FEF0895E091140380911303E81730F495
:100E6000F0E0EB5EFC4F808190E008958FEF9FEF04
:100E700008950895CF92DF92EF92FF920F931F9300
:100E8000CF93DF937C01CB018A012091EF022223D3
:100E900089F0EB016B01C40ED51ECC15DD0569F0A0
:100EA0006991D701ED91FC910190F081E02DC7018E
:100EB0000995F3CF642F0E94280EC801DF91CF91CE
:100EC0001F910F91FF90EF90DF90CF900895CF93F7
:100ED000DF931F92CDB7DEB769832091EF02222303
:100EE000D1F02091F002203240F021E030E0FC010E
:100EF0003383228380E090E015C08091F102E82FD7
:100F0000F0E0EE50FD4F998190838F5F8093F10266
:100F10008093F00205C061E0CE0101960E94280E88
:100F200081E090E00F90DF91CF910895FC01138252
:100F3000128248EE53E060E070E04483558366839C
:100F4000778383EF91E09183808308951092140357
:100F5000109213031092F1021092F0020C94730D90
:100F6000862F413208F040E265E173E00E94910D66
:100F70001092140380931303089521E00C94B0079A
:100F800081E08093EF02609312031092F1021092BD
:100F9000F00208950F93062F21E04091F00262EFD6
:100FA00072E0809112030E94D50D1092F10210920E
:100FB000F0021092EF020F91089561E00C94CA07BD
:100FC00083EE92E00C94960728E6FC0120830895B6
:100FD000EF92FF920F931F93CF93DF93EC01E0907A
:100FE0000001F09001018C010F5F1F4F22E044E0EF
:100FF0006BE188810E94900A8981DF91CF911F91D6
:101000000F91FF90EF9008950F93062F22E044E098
:101010006BE1FC0180810E94000B0F910895EF921B
:10102000FF920F931F93CF93DF93EC01E0900001A9
:10103000F09001018C010F5F1F4F22E044E06CE152
:1010400088810E94900A8981DF91CF911F910F9131
:10105000FF90EF9008950F93062F22E044E06CE19B
:10106000FC0180810E94000B0F9108954F925F92C6
:101070006F927F928F929F92AF92BF92CF92DF92A8
:10108000EF92FF920F931F93CF93DF93EC015B01DD
:101090003A014901280100910001109101019C01D0
:1010A0002F5F3F4F4EE06BE388810E94D909898111
:1010B00090E0982F88272A81822BF50191838083E5
:1010C0008B8190E0982F88272C81822BF3019183CC
:1010D00080838D8190E0982F88272E81822BF401C8
:1010E00091838083898590E0982F88272A85822B99
:1010F000F201918380838B8590E0982F88272C853F
:10110000822BF701918380838D8590E0982F88272B
:101110002E85822BF60191838083DF91CF911F91E1
:101120000F91FF90EF90DF90CF90BF90AF909F9086
:101130008F907F906F905F904F900895262F46E09C
:101140006BE6FC0180810C94CD0A0F93062F23E0FF
:1011500042E06BE6FC0180810E94000B0F91089534
:10116000CF93DF93EC0161E00E94A50860E0CE011F
:101170000E94040860E0CE010E942B0860E0CE01CE
:10118000DF91CF910C949E08EF92FF920F931F93E3
:10119000CF93DF93EC01E0900001F09001018C010E
:1011A0000F5F1F4F26E046E065E788810E94900AA6
:1011B0008981DF91CF911F910F91FF90EF9008955A
:1011C0000E94C40891E0843309F090E0892F0895CB
:1011D0000F931F93CF93DF93EC01009100011091C7
:1011E00001019C012F5F3F4F42E066E088810E9431
:1011F000D909898190E0982F88272A81822BDF9155
:10120000CF911F910F9108950F931F93CF93DF9369
:10121000EC0100910001109101019C012F5F3F4FF3
:1012200042E068E088810E94D909898190E0982F86
:1012300088272A81822BDF91CF911F910F910895EA
:101240000F931F93CF93DF93EC0100910001109156
:1012500001019C012F5F3F4F42E06AE088810E94BC
:10126000D909898190E0982F88272A81822BDF91E4
:10127000CF911F910F9108950F931F93CF93DF93F9
:10128000EC0100910001109101019C012F5F3F4F83
:1012900042E063E188810E94D909898190E0982F1A
:1012A00088272A81822BDF91CF911F910F9108957A
:1012B0000F931F93CF93DF93EC01009100011091E6
:1012C00001019C012F5F3F4F42E065E188810E9450
:1012D000D909898190E0982F88272A81822BDF9174
:1012E000CF911F910F9108950F931F93CF93DF9389
:1012F000EC0100910001109101019C012F5F3F4F13
:1013000042E067E188810E94D909898190E0982FA5
:1013100088272A81822BDF91CF911F910F91089509
:10132000EF92FF920F931F93CF93DF9300D0CDB72F
:10133000DEB7062F142F682F83EE92E029833A83BD
:101340000E94C007602F83EE92E00E946707298108
:10135000022FE22E3A81F32E8E2D801B811740F44E
:10136000F70161917F0183EE92E00E946707F4CF5D
:1013700083EE92E00E94DD0791E0811190E0892FD9
:101380000F900F90DF91CF911F910F91FF90EF90F1
:101390000895CF93DF931F92CDB7DEB749839E01A7
:1013A0002F5F3F4F41E00E9490090F90DF91CF9156
:1013B00008953F924F925F926F927F928F929F9289
:1013C000AF92BF92CF92DF92EF92FF920F931F9353
:1013D000CF93DF9300D000D000D0CDB7DEB7682E1A
:1013E000562E742E3A8329830E945A026B017C0187
:1013F000312C412C872D90E09C838B834801A12CBC
:10140000B12C3714B0F5662D83EE92E00E94C00730
:10141000652D83EE92E00E94670783EE92E00E94C2
:10142000DD07662D83EE92E00E94C0074B815C8150
:10143000431951094132510514F040E250E0662D44
:1014400083EE92E00E94BD0783EE92E00E940F07B8
:10145000892B59F10115110579F10E945A026C1975
:101460007D098E099F09681579058A059B0520F17C
:101470001CC00115110589F10E945A026C197D09E1
:101480008E099F0920E030E06017710782079307FB
:1014900020F1872D90E0242D332727FD3095281744
:1014A0003907DCF444244A9418C0872D90E297153C
:1014B00008F480E2380EA5CFE981FA81E40DF11D30
:1014C00047FCFA95FE83ED8383EE92E00E941707B6
:1014D000ED81FE8180834394B7CF842D26960FB68D
:1014E000F894DEBF0FBECDBFDF91CF911F910F915A
:1014F000FF90EF90DF90CF90BF90AF909F908F9034
:101500007F906F905F904F903F9008950F931F933F
:1015100089019A0141E00E94D9091F910F91089514
:10152000CF92DF92EF92FF920F931F93CF93DF93AF
:101530001F92CDB7DEB7C42ED22E9701AE014F5FFA
:101540005F4F0E94860A8823F1F04C2D50E04D1920
:1015500051094F5F5F4F61E070E002C0660F771F77
:10156000DA94E2F761507109042E01C0660F0A9403
:10157000EAF72981262330E002C0359527954A9560
:10158000E2F7F80120830F90DF91CF911F910F9127
:10159000FF90EF90DF90CF900895EF92FF920F931E
:1015A0001F93CF93DF931F92CDB7DEB7182F062F6F
:1015B000F42EE22E2091000130910101AE014F5F27
:1015C0005F4F0E94860A898121E030E00F2C01C024
:1015D000220F0A94EAF7EE2019F0482F422B03C09D
:1015E000422F409548234983602F812F0E94C909CB
:1015F0000F90DF91CF911F910F91FF90EF90089581
:10160000DF92EF92FF920F931F93CF93DF931F927E
:10161000CDB7DEB7F82EE62ED42E122F2091000182
:1016200030910101AE014F5F5F4F0E94860A88230F
:1016300019F14D2D50E0411B51094F5F5F4FE1E023
:10164000F0E002C0EE0FFF1F1A95E2F73197042E6B
:1016500001C0EE0F0A94EAF701C0000F4A95EAF7BD
:101660004E2F409589814823E0234E2B49836E2DD0
:101670008F2D0E94C90901C080E00F90DF91CF91AA
:101680001F910F91FF90EF90DF900895FC018781EB
:101690009085009711F00C94E40C0895FC011182E0
:1016A0001282138214821582168240E050E060ECB0
:1016B0007FE74187528763877487458756876787A7
:1016C000708B80E09081891770F4A781B08594E0D9
:1016D000899FA00DB11D11241D921D921D921C9277
:1016E00013978F5FEFCF0895CF93DF93EC0168835B
:1016F00024E0629FC00111240E944C0C98878F83C4
:10170000892B09F41882CE01DF91CF910C944E0BF6
:10171000AF92BF92CF92DF92EF92FF920F931F93FF
:10172000CF93DF93EC016A017B010F8118850115CE
:10173000110509F45FC08A81580194E0899FA00CCB
:10174000B11C1124F50120813181428153816B81CB
:101750007C818D819E810E94E00F6B837C838D83D1
:101760009E83F501C082D182E282F382BA80F801C1
:1017700084E0B89EE00DF11D112420813181428169
:1017800053816B817C818D819E810E94E10F6B83EF
:101790007C838D839E83B394BA820881B01201C08A
:1017A0001A821981111105C0CD86DE86EF86F88A6E
:1017B0000AC029853A854B855C85C701B6010E9420
:1017C000451087FF05C0C986DA86EB86FC860EC009
:1017D0002D853E854F855889C701B6010E94941119
:1017E000181624F4CD86DE86EF86F88A101710F4DA
:1017F0001F5F1983DF91CF911F910F91FF90EF90A1
:10180000DF90CF90BF90AF900895AF92BF92CF92EC
:10181000DF92EF92FF920F931F93CF93DF938C0190
:10182000DC011196AC90A11005C060E070E080EC86
:101830009FE727C0C0E0D0E0B12CC12CD12C7601AD
:10184000D8011796ED91FC911897EC0FFD1F2081A0
:10185000318142815381C701B6010E94E10F6B01C2
:101860007C01B3942496BA10EBCF6B2D70E080E02E
:1018700090E00E94E4109B01AC01C701B6010E94F8
:101880004910DF91CF911F910F91FF90EF90DF9062
:10189000CF90BF90AF900895CF93DF9382309105A2
:1018A00010F482E090E0E091A503F091A60320E01F
:1018B00030E0A0E0B0E0309739F140815181481725
:1018C0005907B8F04817590771F48281938110972E
:1018D00029F013969C938E9312972CC09093A60395
:1018E0008093A50327C02115310531F04217530716
:1018F00018F0A901DB0101C0EF019A01BD01DF0170
:101900000280F381E02DD7CF21153105F9F0281B96
:10191000390B2430310580F48A819B816115710572
:1019200021F0FB019383828304C09093A6038093EC
:10193000A503FE01329644C0FE01E20FF31F81931E
:10194000919322503109398328833AC02091A3030F
:101950003091A403232B41F420910401309105011F
:101960003093A4032093A30320910201309103013B
:101970002115310541F42DB73EB740910601509134
:101980000701241B350BE091A303F091A403E21798
:10199000F307A0F42E1B3F0B2817390778F0AC0192
:1019A0004E5F5F4F2417350748F04E0F5F1F50936F
:1019B000A4034093A3038193919302C0E0E0F0E07D
:1019C000CF01DF91CF910895CF93DF93009709F472
:1019D00087C0FC01329713821282C091A503D09177
:1019E000A603209781F420813181280F391F80912F
:1019F000A3039091A4038217930779F5F093A403AE
:101A0000E093A3036DC0DE0120E030E0AE17BF0716
:101A100050F412964D915C9113979D01411551051B
:101A200009F1DA01F3CFB383A28340815181840F9E
:101A3000951F8A179B0771F48D919C911197840FC4
:101A4000951F02969183808312968D919C91139796
:101A5000938382832115310529F4F093A603E09343
:101A6000A5033EC0D9011396FC93EE9312974D91B6
:101A70005D91A40FB51FEA17FB0779F4808191816E
:101A8000840F951F0296D90111969C938E938281A3
:101A9000938113969C938E931297E0E0F0E08A81F5
:101AA0009B81009719F0FE01EC01F9CFCE0102965F
:101AB00028813981820F931F2091A3033091A403C1
:101AC0002817390769F4309729F41092A603109269
:101AD000A50302C013821282D093A403C093A30370
:101AE000DF91CF9108951092A20381E08093A0032B
:101AF00010929F0361E082E10E94A70F61E083E101
:101B00000E94A70FE9EBF0E080818E7F80838081C7
:101B10008D7F808388E48093B80085E48093BC0047
:101B20000895413208F03FC09091A2039111FCCF7B
:101B300091E09093A2032093A0032FEF209335030D
:101B400010927A03240F209379039093A10390912C
:101B5000A103880F892B8093A10380919F0381307B
:101B600041F410929F038091A1038093BB0085EC08
:101B700001C085EE8093BC008091A2038130E1F327
:101B800080917A03841710F440917A032BE733E0B5
:101B9000FB01D9018A2F821B841718F48D91819340
:101BA000F9CF842F089580E008950F93413208F013
:101BB00046C09091A2039111FCCF92E09093A203B2
:101BC0000093A0039FEF9093350310927A03409304
:101BD0007903FB016BE773E0DB019A2F961B9417E7
:101BE00018F491919D93F9CF1092A1039091A103C4
:101BF000880F892B8093A10380919F03813041F44A
:101C000010929F038091A1038093BB0085EC01C0DB
:101C100085EE8093BC00222321F08091A2038230C4
:101C2000E1F3809135038F3F61F08091350380327D
:101C300051F080913503803341F483E007C081E0A7
:101C400005C080E003C082E001C084E00F910895E8
:101C5000613298F42091A203243089F460935703F1
:101C6000FC0189E593E0DC012A2F281B261718F4D4
:101C700021912D93F9CF80E0089581E0089582E0CD
:101C8000089585ED8093BC008091BC0084FDFCCF5D
:101C90001092A203089585EC8093BC001092A203D9
:101CA00008951F920F920FB60F9211242F933F9316
:101CB0004F935F936F937F938F939F93AF93BF9354
:101CC000EF93FF938091B900887F803609F49CC020
:101CD00068F5883209F45BC090F4803109F454C08F
:101CE00038F4882309F4F5C0883009F44DC0F5C0F4
:101CF000883109F44CC0803209F45DC0EEC08034F4
:101D000009F468C048F4803309F455C0883309F0F9
:101D1000E4C080933503A8C0803509F44FC08835EE
:101D200009F45DC0883409F0D8C0D5C0883909F4F9
:101D3000C6C0A8F4883709F467C038F4883609F4B7
:101D400063C0803709F460C0C8C0883809F4B7C0E0
:101D5000803909F45FC0803809F0BFC05BC0803BA8
:101D600009F485C038F4803A09F466C0883A09F469
:101D70007EC0B3C0803C09F4A6C0883C09F4A3C06F
:101D8000883B09F489C0A9C08091A10310C090913B
:101D90007A0380917903981770F5E0917A0381E0D6
:101DA0008E0F80937A03F0E0E558FC4F808180939A
:101DB000BB0085EC85C0809335038DC0E0917A032C
:101DC00081E08E0F80937A038091BB00F0E0E558AC
:101DD000FC4F808390917A03809179036DC0E091EC
:101DE0007A0381E08E0F80937A038091BB00F0E04C
:101DF000E558FC4F80838091A00381116CC081E085
:101E000080939F0384EA60C083E08093A2031092D2
:101E10003603CFCF80913603803208F050C0E09176
:101E2000360381E08E0F809336038091BB00F0E093
:101E3000E95CFC4F8083BDCF80913603803230F463
:101E4000E0913603F0E0E95CFC4F10820E94410E05
:101E50006091360370E0E0919B03F0919C0387E36F
:101E600093E00995109236030E944B0E36C084E031
:101E70008093A2031092580310925703E0919D03A0
:101E8000F0919E03099580915703811105C081E06F
:101E90008093570310925903E091580381E08E0F0D
:101EA00080935803F0E0E75AFC4F80818093BB0099
:101EB0009091580380915703981708F47ACF85E8DA
:101EC0008093BC000AC085EC8093BC001092A203F2
:101ED00004C0109235030E94410EFF91EF91BF9113
:101EE000AF919F918F917F916F915F914F913F91B2
:101EF0002F910F900FBE0F901F901895833081F097
:101F000028F4813099F08230A1F008958630A9F04C
:101F10008730B9F08430D1F4809180008F7D03C088
:101F2000809180008F7780938000089584B58F77AB
:101F300002C084B58F7D84BD08958091B0008F77F5
:101F400003C08091B0008F7D8093B00008950F93FF
:101F50001F93CF93DF931F92CDB7DEB7282F30E0CA
:101F6000F901E859FF4F8491F901E458FF4F1491AA
:101F7000F901E057FF4F04910023C9F0882321F0B5
:101F800069830E947E0F6981E02FF0E0EE0FFF1F52
:101F9000EC55FF4FA591B4919FB7F8948C916111C6
:101FA00003C01095812301C0812B8C939FBF0F909C
:101FB000DF91CF911F910F910895F8940C944F12D7
:101FC0005058BB27AA270ED075C166D130F06BD10F
:101FD00020F031F49F3F11F41EF45BC10EF4E09544
:101FE000E7FB51C1E92F77D180F3BA176207730776
:101FF0008407950718F071F49EF58FC10EF4E095F3
:102000000B2EBA2FA02D0B01B90190010C01CA01B2
:10201000A0011124FF27591B99F0593F50F4503E5D
:1020200068F11A16F040A22F232F342F4427585F4F
:10203000F3CF469537952795A795F0405395C9F767
:102040007EF41F16BA0B620B730B840BBAF091501F
:10205000A1F0FF0FBB1F661F771F881FC2F70EC0BE
:10206000BA0F621F731F841F48F487957795679591
:10207000B795F7959E3F08F0B3CF9395880F08F07A
:102080009927EE0F979587950895D9D008F481E0A8
:1020900008950CD00FC107D140F0FED030F021F4EC
:1020A0005F3F19F0F0C0511139C1F3C014D198F35A
:1020B0009923C9F35523B1F3951B550BBB27AA27C9
:1020C00062177307840738F09F5F5F4F220F331F3B
:1020D000441FAA1FA9F333D00E2E3AF0E0E830D007
:1020E00091505040E695001CCAF729D0FE2F27D00A
:1020F000660F771F881FBB1F261737074807AB07D8
:10210000B0E809F0BB0B802DBF01FF2793585F4F4C
:102110002AF09E3F510568F0B6C000C15F3FECF366
:10212000983EDCF3869577956795B795F7959F5F11
:10213000C9F7880F911D9695879597F90895E1E065
:10214000660F771F881FBB1F621773078407BA07C4
:1021500020F0621B730B840BBA0BEE1F88F7E0951F
:10216000089504D06894B111D9C00895BCD088F006
:102170009F5790F0B92F9927B751A0F0D1F0660F73
:10218000771F881F991F1AF0BA95C9F712C0B1308E
:1021900081F0C3D0B1E00895C0C0672F782F8827A1
:1021A000B85F39F0B93FCCF3869577956795B395CD
:1021B000D9F73EF490958095709561957F4F8F4F3C
:1021C0009F4F0895E89409C097FB3EF49095809541
:1021D000709561957F4F8F4F9F4F9923A9F0F92FED
:1021E00096E9BB279395F695879577956795B7956B
:1021F000F111F8CFFAF4BB0F11F460FF1BC06F5F51
:102200007F4F8F4F9F4F16C0882311F096E911C062
:10221000772321F09EE8872F762F05C0662371F083
:1022200096E8862F70E060E02AF09A95660F771F97
:10223000881FDAF7880F9695879597F90895990F73
:102240000008550FAA0BE0E8FEEF16161706E80780
:10225000F907C0F012161306E407F50798F0621BA1
:10226000730B840B950B39F40A2661F0232B242B76
:10227000252B21F408950A2609F4A140A6958FEF95
:10228000811D811D089597F99F6780E870E060E0E7
:1022900008959FEF80EC089500240A9416161706FF
:1022A00018060906089500240A9412161306140647
:1022B00005060895092E0394000C11F4882352F0AA
:1022C000BB0F40F4BF2B11F460FF04C06F5F7F4F62
:1022D0008F4F9F4F089557FD9058440F551F59F049
:1022E0005F3F71F04795880F97FB991F61F09F3F03
:1022F00079F087950895121613061406551FF2CF2C
:102300004695F1DF08C0161617061806991FF1CF7B
:1023100086957105610508940895E894BB276627A2
:102320007727CB0197F908958ADF08F48FEF089596
:102330000BD0C0CFB1DF28F0B6DF18F0952309F03D
:10234000A2CFA7CF1124EACFC6DFA0F3959FD1F388
:10235000950F50E0551F629FF001729FBB27F00D53
:10236000B11D639FAA27F00DB11DAA1F649F6627A8
:10237000B00DA11D661F829F2227B00DA11D621FF7
:10238000739FB00DA11D621F839FA00D611D221FB1
:10239000749F3327A00D611D231F849F600D211D95
:1023A000822F762F6A2F11249F5750408AF0E1F038
:1023B00088234AF0EE0FFF1FBB1F661F771F881F81
:1023C00091505040A9F79E3F510570F05CCFA6CFC9
:1023D0005F3FECF3983EDCF3869577956795B7956C
:1023E000F795E7959F5FC1F7FE2B880F911D969596
:1023F000879597F9089523DF880B990B089597FB2C
:10240000072E16F4009407D077FD09D00E943512EC
:1024100007FC05D03EF4909581959F4F08957095E7
:1024200061957F4F0895A1E21A2EAA1BBB1BFD01E7
:102430000DC0AA1FBB1FEE1FFF1FA217B307E407A3
:10244000F50720F0A21BB30BE40BF50B661F771FFB
:10245000881F991F1A9469F76095709580959095DB
:102460009B01AC01BD01CF010895AA1BBB1B51E12B
:1024700007C0AA1FBB1FA617B70710F0A61BB70BF4
:10248000881F991F5A95A9F780959095BC01CD0199
:102490000895EE0FFF1F0590F491E02D099410E0D0
:1024A000C4EBD0E004C0FE010E944B122296C63B52
:0824B000D107C9F7F894FFCF32
:1024B800E8030000A7038000636F6E6E65637469AC
:1024C8006F6E2065737461626C697368656400631C
:1024D8006F6E6E656374696F6E206661696C757284
:1024E8006500494E49540074657374696E672064C9
:1024F800657669636520636F6D6D756E6963617478
:10250800696F6E006765742063757272656E7420FA
:10251800616363656C2073657474696E673A200043
:102528000A006765742063757272656E7420677936
:10253800726F2073657474696E673A20006F6666FF
:10254800736574733A20007261773A090072756E88
:102558006E696E6720617665726167652066696C71
:1025680074657265643A09006578706F6E656E749B
:1025780069616C6C792066696C74657265643A0986
:10258800006E616E00696E66006F7666002E000050
:102598000000007C05EA0228055105380571050090
:1025A80000000067073A070F0717072A07390700CF
:00000001FF
