:100000000C9459000C9481000C9481000C94810094
:100010000C9481000C9481000C9481000C9481005C
:100020000C9481000C9481000C9481000C9481004C
:100030000C9481000C9481000C9481000C9481003C
:100040000C94BF030C9481000C941F070C9462075E
:100050000C9481000C9481000C9481000C9481001C
:100060000C94290A0C948100000000070002010092
:100070000003040600000000000000000102040864
:100080001020408001020408102001020408102002
:10009000040404040404040402020202020203032E
:1000A0000303030300000000250028002B001E08A6
:1000B000470911241FBECFEFD8E0DEBFCDBF11E04E
:1000C000A0E0B1E0EEEEFCE102C005900D92A63991
:1000D000B107D9F723E0A6E9B1E001C01D92A7332B
:1000E000B207E1F710E0C2EBD0E004C02297FE01B6
:1000F0000E94710ECE3AD107C9F70E9480060C9477
:10010000B50B0C94000066E071E08DEC91E00E946C
:10011000CB044091B2015091B3016091B401709150
:10012000B50122E030E08DEC91E00E947E066EE0A9
:1001300071E08DEC91E00E94CB044091B6015091AA
:10014000B7016091B8017091B90122E030E08DEC07
:1001500091E00E947E0664E171E08DEC91E00E94E6
:10016000CB044091BA015091BB016091BC017091E8
:10017000BD0122E030E08DEC91E00C947E066AE156
:1001800071E08DEC91E00E94CB044091A60150916A
:10019000A7016091A8017091A90122E030E08DECE7
:1001A00091E00E947E066EE071E08DEC91E00E948D
:1001B000CB044091AA015091AB016091AC017091C8
:1001C000AD0122E030E08DEC91E00E947E0664E11A
:1001D00071E08DEC91E00E94CB044091AE01509112
:1001E000AF016091B0017091B10122E030E08DEC7F
:1001F00091E00C947E06CF92DF92EF92FF920F93E4
:100200001F930E9409048B019C014091960150911B
:100210009701609198017091990168017901C41A60
:10022000D50AE60AF70AC701B601009396011093B2
:10023000970120939801309399011F910F91FF909E
:10024000EF90DF90CF900895CF92DF92EF92FF92E0
:100250000F931F93CF93DF930E94FB000E94BA0C71
:100260006B017C0102EB11E0C6EAD1E0F80161917B
:100270007191819191918F01A70196010E94700D5A
:1002800020E034E244E759E40E94210C9B01AC01D8
:10029000688179818A819B810E94B80B69937993E7
:1002A00089939993F1E00E3B1F0701F7DF91CF91FE
:1002B0001F910F91FF90EF90DF90CF900895CF9313
:1002C000DF93D82FC62F609104017091050187E755
:1002D00092E00E942F096D2F87E792E00E94CC08E0
:1002E0006C2F87E792E00E94CC0887E792E00E949B
:1002F0004409DF91CF91089589E29CE5AFE0BCE32A
:100300008093000190930101A0930201B093030137
:1003100060E883E20C945F016FE180E20E945F017C
:1003200068E082E20E945F010E947C0164E670E066
:1003300080E090E00C942C04CF93C82F60910401CE
:100340007091050187E792E00E942F096C2F87E7E3
:1003500092E00E94CC0887E792E00E9444096091F5
:1003600004017091050141E050E087E792E00E94AE
:10037000220987E792E00E947408892BD1F387E76E
:1003800092E0CF910C947C082F923F924F925F9213
:100390006F927F928F929F92AF92BF92CF92DF9295
:1003A000EF92FF920F931F93CF93DF9300D000D073
:1003B00000D0CDB7DEB787E20E949C0183FFFBCF60
:1003C0005EEBE52E51E0F52E68E2B62E8B2D0E94F5
:1003D0009C016C0181E08B0D0E949C01182F00E0B4
:1003E000C02AD12AF701C192D1927F01B394B3946C
:1003F000FEE2BF12EBCF40900001509001016090EF
:1004000002017090030180EAC82E81E0D82E8E018F
:100410000F5F1F4F9AE9A92E91E0B92E22EB222EF1
:1004200021E0322E3EEB832E31E0932E43E0E42E8A
:10043000F12CF401819191914F01F60121913191BB
:100440006F01821B930BF80191838083F501219149
:1004500031915F0197FF03C09195819591098217B2
:1004600093071CF4F80111821082F80161917191D7
:100470008F01882777FD8095982F0E94BC0C9B01E7
:10048000AC01C301B2010E94700DF101619371933F
:10049000819391931F01F1E0EF1AF108E114F10447
:1004A00041F626960FB6F894DEBF0FBECDBFDF91A2
:1004B000CF911F910F91FF90EF90DF90CF90BF9061
:1004C000AF909F908F907F906F905F904F903F90F4
:1004D0002F9008952F923F924F925F926F927F924A
:1004E0008F929F92AF92BF92CF92DF92EF92FF9244
:1004F0000F931F93CF93DF93CDB7DEB76E970FB6F1
:10050000F894DEBF0FBECDBF8CE08E01035F1F4F9E
:10051000F801282F11922A95E9F7FE0131967F0103
:1005200011928A95E9F7F2E3CF2ED12C0E94C401F3
:10053000EEEB6E2EE1E07E2E9701A801F3016191B2
:1005400071913F014B01AA2497FCA094BA2CFA01A7
:1005500080819181A281B381880D991DAA1DBB1D47
:1005600081939193A193B193AF01669F4001679FDF
:10057000900C900C1124AA2497FCA094BA2CF90199
:1005800080819181A281B381880D991DAA1DBB1D17
:1005900081939193A193B1939F01F4EC6F16F1E0D5
:1005A0007F0661F621E0C21AD108C114D10409F016
:1005B000BDCF80EA91E09E8F8D8FEAE9F1E0FA8F5E
:1005C000E98F1E01F9E12F0E311CFC8EEB8E72E3D8
:1005D000472E512C612C712CF80161917191819100
:1005E00091918F01A30192010E94500E69017A013D
:1005F000ED8DFE8D21933193FE8FED8FEB8DFC8D74
:100600006191719181919191FC8FEB8F0E94BC0C53
:1006100020E030E048E452E40E94210C4B015C01F0
:10062000CC9CB001CD9C700D700D1124882777FDF6
:100630008095982F0E94BC0C9B01AC01C501B401B0
:100640000E94B80B0E94D70D20E030E040E450E457
:100650000E94700D0E94890CE98DFA8D619371934F
:10066000FA8FE98F0215130509F0B6CF6E960FB613
:10067000F894DEBF0FBECDBFDF91CF911F910F91D8
:10068000FF90EF90DF90CF90BF90AF909F908F90B2
:100690007F906F905F904F903F902F9008950F93B1
:1006A0001F93CF93DF930E946A02C0EAD1E00AE968
:1006B00011E0699179914AE050E08DEC91E00E945F
:1006C0008B0564E671E08DEC91E00E94CB04F801AB
:1006D000619171918F014AE050E08DEC91E00E94B0
:1006E0008B0564E671E08DEC91E00E94CB04F1E0B3
:1006F000C63ADF07F1F68DEC91E0DF91CF911F91C3
:100700000F910C94D40440E855E260E070E08DEC69
:1007100091E00E949D0766E271E08DEC91E00E94FD
:10072000CB0487E792E00E940B0962E371E08DEC55
:1007300091E00E94CB040E948C016DE371E08DEC8E
:1007400091E00E94CB040E946A026FE471E08DEC9C
:1007500091E00E94CB040C944F030E94C4010E94BC
:1007600024010E9483006DE571E08DEC91E00E9410
:10077000CB040E94BF008DEC91E00C94D4041F9236
:100780000F920FB60F9211242F933F938F939F9345
:10079000AF93BF938091C5019091C601A091C7010D
:1007A000B091C8013091C40123E0230F2D3720F40C
:1007B0000196A11DB11D05C026E8230F0296A11DBB
:1007C000B11D2093C4018093C5019093C601A093ED
:1007D000C701B093C8018091C9019091CA01A0914D
:1007E000CB01B091CC010196A11DB11D8093C9012F
:1007F0009093CA01A093CB01B093CC01BF91AF916C
:100800009F918F913F912F910F900FBE0F901F904E
:1008100018953FB7F8948091C9019091CA01A091B1
:10082000CB01B091CC0126B5A89B05C02F3F19F094
:100830000196A11DB11D3FBF6627782F892F9A2FE2
:10084000620F711D811D911D42E0660F771F881F89
:10085000991F4A95D1F70895CF92DF92EF92FF92B8
:10086000CF93DF936B017C010E940904EB01C1145B
:10087000D104E104F10479F00E9409046C1B7D0BA2
:10088000683E7340A0F381E0C81AD108E108F1087E
:10089000C851DC4FECCFDF91CF91FF90EF90DF900C
:1008A000CF900895789484B5826084BD84B58160CA
:1008B00084BD85B5826085BD85B5816085BDEEE668
:1008C000F0E0808181608083E1E8F0E01082808147
:1008D00082608083808181608083E0E8F0E08081B5
:1008E00081608083E1EBF0E0808184608083E0EBD5
:1008F000F0E0808181608083EAE7F0E080818460BD
:100900008083808182608083808181608083808118
:10091000806880831092C1000895CF92DF92EF9299
:10092000FF920F931F93CF93DF936C017A01EB013A
:10093000E60EF71E00E010E0CE15DF0561F06991CC
:10094000D601ED91FC910190F081E02DC601099551
:10095000080F191FF1CFC801DF91CF911F910F919F
:10096000FF90EF90DF90CF9008956115710581F0B1
:10097000DB010D900020E9F7AD0141505109461B04
:10098000570BDC01ED91FC910280F381E02D09947D
:1009900080E090E008950C94B504DC01ED91FC91A9
:1009A0000190F081E02D09940F931F93CF93DF9373
:1009B000EC016DE00E94CD048C016AE0CE010E9442
:1009C000CD04800F911FDF91CF911F910F9108955A
:1009D0008F929F92AF92BF92CF92DF92EF92FF924F
:1009E0000F931F93CF93DF93CDB7DEB7A1970FB6C9
:1009F000F894DEBF0FBECDBF7C01C42EE52FCB0126
:100A0000D22E19A221E02D1510F02AE0D22E8E014F
:100A10000F5D1F4F8D2C912CA12CB12C6C2D7E2F96
:100A2000A50194010E942E0E8C2DD29E80191124B6
:100A3000015011098A3014F4805D01C0895CF8010D
:100A40008083211531054105510521F0C22EE32F88
:100A5000CA01E4CFB801C7010E94B504A1960FB640
:100A6000F894DEBF0FBECDBFDF91CF911F910F91E4
:100A7000FF90EF90DF90CF90BF90AF909F908F90BE
:100A80000895CF92DF92EF92FF920F931F93CF932F
:100A9000DF93EC016A017B012115310579F4E881CE
:100AA000F9810190F081E02D642FDF91CF911F91AA
:100AB0000F91FF90EF90DF90CF9009942A3031058D
:100AC000E9F477FF1AC06DE20E94CD048C0144273F
:100AD0005527BA014C195D096E097F092AE0CE013C
:100AE0000E94E804800F911FDF91CF911F910F9119
:100AF000FF90EF90DF90CF9008952AE0B701A60114
:100B0000CE01DF91CF911F910F91FF90EF90DF9079
:100B1000CF900C94E8049A01AB01662757FD6095CD
:100B2000762F0C9441054F925F926F927F928F9235
:100B30009F92AF92BF92CF92DF92EF92FF920F936C
:100B40001F93CF93DF93EC016A017B01B22E9A01D0
:100B5000AB01C701B6010E94150E882319F067E6A4
:100B600071E027C026013701E89477F82FEF3FEFB7
:100B70004FE75FE7C301B2010E94150E81110DC05E
:100B80002FEF3FEF4FE75FE7C301B2010E941D0C5B
:100B900018161CF46BE671E00CC02FEF3FEF4FE727
:100BA0005FE4C701B6010E946C0D1816ACF46FE645
:100BB00071E0CE01DF91CF911F910F91FF90EF90E7
:100BC000DF90CF90BF90AF909F908F907F906F906D
:100BD0005F904F900C94B5042FEF3FEF4FE75FEC21
:100BE000C701B6010E941D0C87FDE1CF20E030E077
:100BF000A901C701B6010E941D0C87FF0AC06DE262
:100C0000CE010E94CD048C01F7FAF094F7F8F0942D
:100C100002C000E010E0A12C60E070E080E09FE303
:100C2000AB1441F020E030E040E251E40E94210C9E
:100C3000A394F6CF9B01AC01C701B6010E94B90B8A
:100C40006B017C010E948E0C2B013C010E94BA0CAE
:100C50009B01AC01C701B6010E94B80B6B017C017E
:100C60002AE0B301A201CE010E94E804080F191F77
:100C7000BB2039F063E771E0CE010E94B504080F94
:100C8000191F7B2C772041F120E030E040E251E455
:100C9000C701B6010E94700D6B017C010E94890C96
:100CA0004B01AA2497FCA094BA2C2AE030E0B501AD
:100CB000A401CE010E944105080F191FC501B4010E
:100CC0000E94BC0C9B01AC01C701B6010E94B80B8D
:100CD0006B017C017A94D6CFC801DF91CF911F912F
:100CE0000F91FF90EF90DF90CF90BF90AF909F90CB
:100CF0008F907F906F905F904F9008950C94930524
:100D00000E9452040E948303C9E5D7E00E94AD030C
:100D10002097E1F30E945907F9CFFC01248535851E
:100D2000F901E05CFF4F8081918132962081318111
:100D3000821B930B8F7399270895FC0184859585F9
:100D4000FC01E05CFF4F408151813296208131816E
:100D50004217530741F00190F081E02DE80FF91F91
:100D6000808190E008958FEF9FEF0895FC018485C6
:100D70009585FC01E05CFF4F4081518132962081D6
:100D800031814217530779F0A081B181A80FB91FB3
:100D90008C91208131812F5F3F4F2F733327318317
:100DA000208390E008958FEF9FEF0895FC0181A1CB
:100DB000882329F0A489B5898C9186FFFBCF11A2E5
:100DC0000895CF93DF93FC0126853785D901A05C78
:100DD000BF4F8D919C91119701968F739927E901CF
:100DE000CE5BDF4F4881598184179507D9F30D9069
:100DF000BC91A02DA20FB31F6C93A685B785A05CF4
:100E0000BF4F11969C938E93A689B7892C9181E050
:100E100090E0078C02C0880F991F0A94E2F7282BF4
:100E20002C9381E081A30488F589E02D8081806482
:100E3000808381E090E0DF91CF91089508951F9223
:100E40000F920FB60F9211242F933F934F938F93CE
:100E50009F93EF93FF938091C00082FD1CC040914F
:100E6000C600809173029091740201968F73992746
:100E700020917502309176028217930771F0E0910C
:100E80007302F0917402ED5CFD4F40839093740205
:100E90008093730202C08091C600FF91EF919F91F1
:100EA0008F914F913F912F910F900FBE0F901F90F8
:100EB00018958DEC91E00E948D06892B11F00C9411
:100EC0001E0708951F920F920FB60F9211242F93B1
:100ED0003F938F939F93EF93FF9320912F02309135
:100EE000300280913102909132022817390731F493
:100EF0008091C1008F7D8093C10014C0E0913102C8
:100F0000F0913202E151FE4F2081809131029091A7
:100F1000320201968F7399279093320280933102A7
:100F20002093C600FF91EF919F918F913F912F9158
:100F30000F900FBE0F901F901895CF92DF92EF92F7
:100F4000FF92CF93DF93EC016A017B01411581EEA3
:100F5000580761057105F9F0EC89FD8981E090E0A1
:100F600008A002C0880F991F0A94E2F7808360E00E
:100F700079E08DE390E0A70196010E942E0E2150AA
:100F800031094109510956954795379527952115FE
:100F900080E1380798F0EC89FD89108260E874E8F8
:100FA0008EE190E0A70196010E942E0E215031099A
:100FB000410951095695479537952795E889F9894B
:100FC0003083EA89FB89208319A2EE89FF89408159
:100FD00081E090E09C010C8C02C0220F331F0A9428
:100FE000E2F7422B4083EE89FF8940819C010D8C02
:100FF00002C0220F331F0A94E2F7422B4083EE898E
:10100000FF8940819C010E8C02C0220F331F0A947D
:10101000E2F7422B4083EE89FF8920810F8C02C0CA
:10102000880F991F0A94E2F7809582238083DF91CD
:10103000CF91FF90EF90DF90CF9008951092D00164
:101040001092CF0188EE93E0A0E0B0E08093D10150
:101050009093D201A093D301B093D40189E791E09A
:101060009093CE018093CD0183E392E09093DA01D7
:101070008093D9018FEE91E09093DC018093DB01A6
:1010800085EC90E09093DE018093DD0184EC90E0AC
:101090009093E0018093DF0180EC90E09093E20177
:1010A0008093E10181EC90E09093E4018093E3016F
:1010B00082EC90E09093E6018093E50186EC90E06D
:1010C0009093E8018093E70184E08093E90183E055
:1010D0008093EA0187E08093EB0185E08093EC0147
:1010E00081E08093ED0108958091A70290E0209126
:1010F000A802821B910908952091A8028091A7025D
:10110000281750F4E22FF0E0E755FD4F808190E082
:101110002F5F2093A80208958FEF9FEF0895E0912D
:10112000A8028091A702E81730F4F0E0E755FD4FE0
:10113000808190E008958FEF9FEF08950895CF92FA
:10114000DF92EF92FF920F931F93CF93DF937C0177
:10115000CB018A0120918302222389F0EB016B01EC
:10116000C40ED51ECC15DD0569F06991D701ED914E
:10117000FC910190F081E02DC7010995F3CF642F18
:101180000E94000AC801DF91CF911F910F91FF903B
:10119000EF90DF90CF900895CF93DF931F92CDB75C
:1011A000DEB76983209183022223D1F0209184024B
:1011B000203240F021E030E0FC013383228380E0E4
:1011C00090E015C080918502E82FF0E0EA57FD4FCE
:1011D000998190838F5F809385028093840205C0FC
:1011E00061E0CE0101960E94000A81E090E00F903C
:1011F000DF91CF910895FC011382128248EE53E0F3
:1012000060E070E0448355836683778389E891E0EA
:101210009183808308951092A8021092A7021092E1
:101220008502109284020C944B09862F413208F0FB
:1012300040E269EA72E00E9469091092A802809374
:10124000A702089521E00C94150981E080938302A0
:101250006093A602109285021092840208950C9465
:1012600025090F93062F21E04091840266E872E081
:101270008091A6020E94AD0910928502109284020C
:10128000109283020F91089561E00C94310987E771
:1012900092E00C94FB081092360381E080933403B3
:1012A0001092330361E082E10E947F0B61E083E1F1
:1012B0000E947F0BE9EBF0E080818E7F808380814C
:1012C0008D7F808388E48093B80085E48093BC00A0
:1012D0000895413208F03FC0909136039111FCCF40
:1012E00091E090933603209334032FEF2093C902AB
:1012F00010920E03240F20930D03909335039091C9
:101300003503880F892B8093350380913303813017
:1013100041F410923303809135038093BB0085EC38
:1013200001C085EE8093BC00809136038130E1F3EB
:1013300080910E03841710F440910E032FE033E0E8
:10134000FB01D9018A2F821B841718F48D91819398
:10135000F9CF842F089580E008950F93413208F06B
:1013600046C0909136039111FCCF92E090933603E2
:10137000009334039FEF9093C90210920E034093A1
:101380000D03FB016FE073E0DB019A2F961B9417AE
:1013900018F491919D93F9CF1092350390913503F4
:1013A000880F892B8093350380913303813041F47A
:1013B00010923303809135038093BB0085EC01C00C
:1013C00085EE8093BC00222321F080913603823089
:1013D000E1F38091C9028F3F61F08091C9028032B0
:1013E00051F08091C902803341F483E007C081E06D
:1013F00005C080E003C082E001C084E00F91089541
:10140000613298F420913603243089F46093EB0222
:10141000FC018DEE92E0DC012A2F281B261718F420
:1014200021912D93F9CF80E0089581E0089582E025
:10143000089585ED8093BC008091BC0084FDFCCFB5
:1014400010923603089585EC8093BC001092360309
:1014500008951F920F920FB60F9211242F933F936E
:101460004F935F936F937F938F939F93AF93BF93AC
:10147000EF93FF938091B900887F803609F49CC078
:1014800068F5883209F45BC090F4803109F454C0E7
:1014900038F4882309F4F5C0883009F44DC0F5C04C
:1014A000883109F44CC0803209F45DC0EEC080344C
:1014B00009F468C048F4803309F455C0883309F052
:1014C000E4C08093C902A8C0803509F44FC08835B4
:1014D00009F45DC0883409F0D8C0D5C0883909F452
:1014E000C6C0A8F4883709F467C038F4883609F410
:1014F00063C0803709F460C0C8C0883809F4B7C039
:10150000803909F45FC0803809F0BFC05BC0803B00
:1015100009F485C038F4803A09F466C0883A09F4C1
:101520007EC0B3C0803C09F4A6C0883C09F4A3C0C7
:10153000883B09F489C0A9C08091350310C09091FF
:101540000E0380910D03981770F5E0910E0381E072
:101550008E0F80930E03F0E0E15FFC4F808180935B
:10156000BB0085EC85C08093C9028DC0E0910E035D
:1015700081E08E0F80930E038091BB00F0E0E15F6D
:10158000FC4F808390910E0380910D036DC0E0911C
:101590000E0381E08E0F80930E038091BB00F0E07C
:1015A000E15FFC4F80838091340381116CC081E046
:1015B0008093330384EA60C083E080933603109203
:1015C000CA02CFCF8091CA02803208F050C0E091A9
:1015D000CA0281E08E0F8093CA028091BB00F0E0C6
:1015E000E553FD4F8083BDCF8091CA02803230F435
:1015F000E091CA02F0E0E553FD4F10820E94190A03
:101600006091CA0270E0E0912F03F09130038BECFF
:1016100092E009951092CA020E94230A36C084E023
:10162000809336031092EC021092EB02E0913103AA
:10163000F091320309958091EB02811105C081E0A0
:101640008093EB021092ED02E091EC0281E08E0FAC
:101650008093EC02F0E0E351FD4F80818093BB006A
:101660009091EC028091EB02981708F47ACF85E80C
:101670008093BC000AC085EC8093BC0010923603B6
:1016800004C01092C9020E94190AFF91EF91BF9104
:10169000AF919F918F917F916F915F914F913F910A
:1016A0002F910F900FBE0F901F901895833081F0EF
:1016B00028F4813099F08230A1F008958630A9F0A5
:1016C0008730B9F08430D1F4809180008F7D03C0E1
:1016D000809180008F7780938000089584B58F7704
:1016E00002C084B58F7D84BD08958091B0008F774E
:1016F00003C08091B0008F7D8093B00008950F9358
:101700001F93CF93DF931F92CDB7DEB7282F30E022
:10171000F901E859FF4F8491F901E458FF4F149102
:10172000F901E057FF4F04910023C9F0882321F00D
:1017300069830E94560B6981E02FF0E0EE0FFF1FD6
:10174000EC55FF4FA591B4919FB7F8948C9161111E
:1017500003C01095812301C0812B8C939FBF0F90F4
:10176000DF91CF911F910F910895F8940C94750E0D
:101770005058BB27AA270ED075C166D130F06BD167
:1017800020F031F49F3F11F41EF45BC10EF4E0959C
:10179000E7FB51C1E92F77D180F3BA1762077307CE
:1017A0008407950718F071F49EF58FC10EF4E0954B
:1017B0000B2EBA2FA02D0B01B90190010C01CA010B
:1017C000A0011124FF27591B99F0593F50F4503EB6
:1017D00068F11A16F040A22F232F342F4427585FA8
:1017E000F3CF469537952795A795F0405395C9F7C0
:1017F0007EF41F16BA0B620B730B840BBAF0915078
:10180000A1F0FF0FBB1F661F771F881FC2F70EC016
:10181000BA0F621F731F841F48F4879577956795E9
:10182000B795F7959E3F08F0B3CF9395880F08F0D2
:101830009927EE0F979587950895D9D008F481E000
:1018400008950CD00FC107D140F0FED030F021F444
:101850005F3F19F0F0C0511139C1F3C014D198F3B2
:101860009923C9F35523B1F3951B550BBB27AA2721
:1018700062177307840738F09F5F5F4F220F331F93
:10188000441FAA1FA9F333D00E2E3AF0E0E830D05F
:1018900091505040E695001CCAF729D0FE2F27D062
:1018A000660F771F881FBB1F261737074807AB0730
:1018B000B0E809F0BB0B802DBF01FF2793585F4FA5
:1018C0002AF09E3F510568F0B6C000C15F3FECF3BF
:1018D000983EDCF3869577956795B795F7959F5F6A
:1018E000C9F7880F911D9695879597F90895E1E0BE
:1018F000660F771F881FBB1F621773078407BA071D
:1019000020F0621B730B840BBA0BEE1F88F7E09577
:10191000089504D06894B111D9C00895BCD088F05E
:101920009F5790F0B92F9927B751A0F0D1F0660FCB
:10193000771F881F991F1AF0BA95C9F712C0B130E6
:1019400081F0C3D0B1E00895C0C0672F782F8827F9
:10195000B85F39F0B93FCCF3869577956795B39525
:10196000D9F73EF490958095709561957F4F8F4F94
:101970009F4F0895E89409C097FB3EF49095809599
:10198000709561957F4F8F4F9F4F9923A9F0F92F45
:1019900096E9BB279395F695879577956795B795C3
:1019A000F111F8CFFAF4BB0F11F460FF1BC06F5FA9
:1019B0007F4F8F4F9F4F16C0882311F096E911C0BB
:1019C000772321F09EE8872F762F05C0662371F0DC
:1019D00096E8862F70E060E02AF09A95660F771FF0
:1019E000881FDAF7880F9695879597F90895990FCC
:1019F0000008550FAA0BE0E8FEEF16161706E807D9
:101A0000F907C0F012161306E407F50798F0621BF9
:101A1000730B840B950B39F40A2661F0232B242BCE
:101A2000252B21F408950A2609F4A140A6958FEFED
:101A3000811D811D089597F99F6780E870E060E03F
:101A400008959FEF80EC089500240A941616170657
:101A500018060906089500240A941216130614069F
:101A600005060895092E0394000C11F4882352F002
:101A7000BB0F40F4BF2B11F460FF04C06F5F7F4FBA
:101A80008F4F9F4F089557FD9058440F551F59F0A1
:101A90005F3F71F04795880F97FB991F61F09F3F5B
:101AA00079F087950895121613061406551FF2CF84
:101AB0004695F1DF08C0161617061806991FF1CFD4
:101AC00086957105610508940895E894BB276627FB
:101AD0007727CB0197F908958ADF08F48FEF0895EF
:101AE0000BD0C0CFB1DF28F0B6DF18F0952309F096
:101AF000A2CFA7CF1124EACFC6DFA0F3959FD1F3E1
:101B0000950F50E0551F629FF001729FBB27F00DAB
:101B1000B11D639FAA27F00DB11DAA1F649F662700
:101B2000B00DA11D661F829F2227B00DA11D621F4F
:101B3000739FB00DA11D621F839FA00D611D221F09
:101B4000749F3327A00D611D231F849F600D211DED
:101B5000822F762F6A2F11249F5750408AF0E1F090
:101B600088234AF0EE0FFF1FBB1F661F771F881FD9
:101B700091505040A9F79E3F510570F05CCFA6CF21
:101B80005F3FECF3983EDCF3869577956795B795C4
:101B9000F795E7959F5FC1F7FE2B880F911D9695EE
:101BA000879597F9089511F40EF44BCF42C073DF77
:101BB000D0F39923D9F3CEF39F57550B87FF47D026
:101BC0000024A0E640EA900180585695979528F4A5
:101BD000805C660F771F881F20F02617370748079D
:101BE00030F4621B730B840B202931294A2BA695F4
:101BF00017940794202531254A2758F7660F771F39
:101C0000881F20F026173707480730F4620B730B44
:101C1000840B200D311D411DA09581F7B901842F42
:101C20009158880F969587950895E1DE880B990B5A
:101C300008959F3F31F0915020F4879577956795EF
:101C4000B795880F911D9695879597F908959150AE
:101C50005040660F771F881FD2F70895A1E21A2E11
:101C6000AA1BBB1BFD010DC0AA1FBB1FEE1FFF1F40
:101C7000A217B307E407F50720F0A21BB30BE40B90
:101C8000F50B661F771F881F991F1A9469F76095D7
:101C90007095809590959B01AC01BD01CF01089591
:101CA000052E97FB1EF400940E94670E57FD07D087
:101CB0000E942E0E07FC03D04EF40C94670E509534
:101CC0004095309521953F4F4F4F5F4F0895909528
:101CD0008095709561957F4F8F4F9F4F0895EE0FC0
:0E1CE000FF1F0590F491E02D0994F894FFCFBA
:101CEE00295C0F3C690044505320583A20002020B4
:101CFE00593A200020205A3A200048656164696EE6
:101D0E006720583A2000696E69742073746172748A
:101D1E000A00696E6974206779726F0A0063616CDC
:101D2E006962726174696E67206779726F0A006901
:101D3E006E69742066696E69736865640020202080
:101D4E002D2D3E202020006E616E00696E66006FA4
:101D5E007666002E0000000000E1068D048D06B6AA
:101D6E00069D06D60600000000CC089F0874087C6D
:061D7E00088F089E08001A
:00000001FF
