:100000000C9435000C945D000C945D000C945D0024
:100010000C945D000C945D000C945D000C945D00EC
:100020000C945D000C945D000C945D000C945D00DC
:100030000C945D000C945D000C945D000C945D00CC
:100040000C9479000C945D000C9426020C946902C7
:100050000C945D000C945D000C945D000C945D00AC
:100060000C945D000C945D00250311241FBECFEF9E
:10007000D8E0DEBFCDBF11E0A0E0B1E0E0E5F7E001
:1000800002C005900D92AC31B107D9F721E0ACE187
:10009000B1E001C01D92AF3CB207E1F710E0CAE643
:1000A000D0E004C02297FE010E94A203C836D10707
:1000B000C9F70E9487010C947B030C94000040E870
:1000C00055E260E070E085E291E00E94A40260E009
:1000D00071E085E291E00C94850166E071E085E2D3
:1000E00091E00E9485016AEF70E080E090E00C945E
:1000F000E6001F920F920FB60F9211242F933F9399
:100100008F939F93AF93BF9380911D0190911E0198
:10011000A0911F01B091200130911C0123E0230F19
:100120002D3720F40196A11DB11D05C026E8230F2F
:100130000296A11DB11D20931C0180931D01909377
:100140001E01A0931F01B093200180912101909185
:100150002201A0912301B09124010196A11DB11D9E
:100160008093210190932201A0932301B093240155
:10017000BF91AF919F918F913F912F910F900FBEA3
:100180000F901F9018953FB7F8948091210190919E
:100190002201A0912301B091240126B5A89B05C09E
:1001A0002F3F19F00196A11DB11D3FBF6627782F83
:1001B000892F9A2F620F711D811D911D42E0660FDC
:1001C000771F881F991F4A95D1F70895CF92DF9224
:1001D000EF92FF92CF93DF936B017C010E94C300EB
:1001E000EB01C114D104E104F10479F00E94C300D1
:1001F0006C1B7D0B683E7340A0F381E0C81AD108E8
:10020000E108F108C851DC4FECCFDF91CF91FF90AE
:10021000EF90DF90CF900895789484B5826084BD8C
:1002200084B5816084BD85B5826085BD85B58160FA
:1002300085BDEEE6F0E0808181608083E1E8F0E05A
:100240001082808182608083808181608083E0E889
:10025000F0E0808181608083E1EBF0E08081846068
:100260008083E0EBF0E0808181608083EAE7F0E06A
:1002700080818460808380818260808380818160CE
:1002800080838081806880831092C1000895CF921E
:10029000DF92EF92FF920F931F93CF93DF936C0146
:1002A0007A01EB01E60EF71E00E010E0CE15DF0547
:1002B00061F06991D601ED91FC910190F081E02D02
:1002C000C6010995080F191FF1CFC801DF91CF9121
:1002D0001F910F91FF90EF90DF90CF9008956115DF
:1002E000710581F0DB010D900020E9F7AD0141506F
:1002F0005109461B570BDC01ED91FC910280F38103
:10030000E02D099480E090E008950C946F010E9424
:100310000C010E945F00C0E6D2E00E946D002097B1
:10032000E1F30E946002F9CFFC0124853585F901D3
:10033000E05CFF4F80819181329620813181821B68
:10034000930B8F7399270895FC0184859585FC0193
:10035000E05CFF4F4081518132962081318142170C
:10036000530741F00190F081E02DE80FF91F8081E3
:1003700090E008958FEF9FEF0895FC0184859585A7
:10038000FC01E05CFF4F4081518132962081318138
:100390004217530779F0A081B181A80FB91F8C9142
:1003A000208131812F5F3F4F2F733327318320838B
:1003B00090E008958FEF9FEF0895FC0181A18823BD
:1003C00029F0A489B5898C9186FFFBCF11A20895ED
:1003D000CF93DF93FC0126853785D901A05CBF4F01
:1003E0008D919C91119701968F739927E901CE5BAE
:1003F000DF4F4881598184179507D9F30D90BC913F
:10040000A02DA20FB31F6C93A685B785A05CBF4F2C
:1004100011969C938E93A689B7892C9181E090E0E8
:10042000078C02C0880F991F0A94E2F7282B2C939F
:1004300081E081A30488F589E02D80818064808338
:1004400081E090E0DF91CF91089508951F920F927F
:100450000FB60F9211242F933F934F938F939F9337
:10046000EF93FF938091C00082FD1CC04091C600B5
:100470008091CB019091CC0101968F7399272091A7
:10048000CD013091CE018217930771F0E091CB013D
:10049000F091CC01E557FE4F40839093CC018093BF
:1004A000CB0102C08091C600FF91EF919F918F9187
:1004B0004F913F912F910F900FBE0F901F90189565
:1004C00085E291E00E949401892B11F00C942502A1
:1004D00008951F920F920FB60F9211242F933F93FE
:1004E0008F939F93EF93FF93209187013091880121
:1004F0008091890190918A012817390731F4809100
:10050000C1008F7D8093C10014C0E0918901F091FA
:100510008A01E95BFE4F20818091890190918A01D7
:1005200001968F73992790938A0180938901209374
:10053000C600FF91EF919F918F913F912F910F9066
:100540000FBE0F901F901895CF92DF92EF92FF92FF
:10055000CF93DF93EC016A017B01411581EE5807CF
:1005600061057105F9F0EC89FD8981E090E008A052
:1005700002C0880F991F0A94E2F7808360E079E057
:100580008DE390E0A70196010E947E03215031097E
:10059000410951095695479537952795211580E1D1
:1005A000380798F0EC89FD89108260E874E88EE1E4
:1005B00090E0A70196010E947E0321503109410974
:1005C00051095695479537952795E889F9893083DC
:1005D000EA89FB89208319A2EE89FF89408181E0A5
:1005E00090E09C010C8C02C0220F331F0A94E2F7AA
:1005F000422B4083EE89FF8940819C010D8C02C013
:10060000220F331F0A94E2F7422B4083EE89FF89C1
:1006100040819C010E8C02C0220F331F0A94E2F726
:10062000422B4083EE89FF8920810F8C02C0880F06
:10063000991F0A94E2F7809582238083DF91CF91FE
:10064000FF90EF90DF90CF900895109228011092C4
:10065000270188EE93E0A0E0B0E080932901909319
:100660002A01A0932B01B0932C0180E191E090939B
:100670002601809325018BE891E0909332018093CD
:10068000310187E491E0909334018093330185EC4C
:1006900090E0909336018093350184EC90E0909344
:1006A00038018093370180EC90E090933A01809379
:1006B000390181EC90E090933C0180933B0182EC06
:1006C00090E090933E0180933D0186EC90E0909302
:1006D000400180933F0184E08093410183E0809357
:1006E000420187E08093430185E08093440181E0EB
:1006F000809345010895F8940C94A603A1E21A2E64
:10070000AA1BBB1BFD010DC0AA1FBB1FEE1FFF1FB5
:10071000A217B307E407F50720F0A21BB30BE40B05
:10072000F50B661F771F881F991F1A9469F760954C
:100730007095809590959B01AC01BD01CF01089506
:10074000EE0FFF1F0590F491E02D0994F894FFCF70
:10075000696E69740A0069646C652000000000001D
:0C076000E80147019401BD01A401DD0186
:00000001FF
