:100000000C9471000C9499000C9499000C94990034
:100010000C9499000C9499000C9499000C949900FC
:100020000C9499000C9499000C9499000C949900EC
:100030000C9499000C9499000C9499000C949900DC
:100040000C94A5040C9499000C9407080C944A088D
:100050000C9499000C9499000C9499000C949900BC
:100060000C946D0D0C949900084AD73B3BCE016E61
:1000700084BCBFFDC12F3D6C74319ABD56833DDAFF
:100080003D00C77F11BED9E4BB4C3E916BAAAABE0E
:10009000000000803F000000000700020100000394
:1000A0000406000000000000000001020408102007
:1000B00040800102040810200102040810200404FA
:1000C0000404040404040202020202020303030300
:1000D000030300000000250028002B0099040609F6
:1000E0002D0A11241FBECFEFD8E0DEBFCDBF11E037
:1000F000A0E0B1E0ECEAF3E202C005900D92AA376D
:10010000B107D9F723E0AAE7B1E001C01D92A238F8
:10011000B207E1F710E0C2EED0E004C02297FE0182
:100120000E94D011CC3DD107C9F70E9468070C94FA
:10013000F90E0C9400004F925F926F927F928F9213
:100140009F92AF92BF92CF92DF92EF92FF920F9366
:100150001F93CF93DF93EC018C0109581F4FC80107
:100160000E94940ABC01882777FD8095982F0E94F1
:1001700062102BA13CA14DA15EA10E94FC0E20E0CB
:1001800030E043E053E40E94C70F6BAF7CAF8DAF0C
:100190009EAFC8010E94B00A7E012FE3E20EF11C5F
:1001A000BC01882777FD8095982F0E9462102FA1AF
:1001B00038A549A55AA50E94FC0E20E030E043E096
:1001C00053E40E94C70FF701608371838283938396
:1001D000C8010E94CC0A7E01F3E4EF0EF11CBC01C1
:1001E000882777FD8095982F0E9462102BA53CA54B
:1001F0004DA55EA50E94FC0E20E030E043E053E4F4
:100200000E94C70FF7016083718382839383C801C3
:100210000E94400A5E01FFE5AF0EB11CF501C080EF
:10022000D180E280F380BC01882777FD8095982FEC
:100230000E9462109B01AC01C701B6010E944211ED
:100240002B013C01A701960160E070E080E89FE38C
:100250000E94FC0EF50124813581468157810E9460
:1002600042119B01AC01C301B2010E94FD0EF501D8
:1002700064837583868397836FA778AB89AB9AABCA
:10028000C8010E945C0A5E01F7E6AF0EB11CF501E1
:10029000C080D180E280F380BC01882777FD809503
:1002A000982F0E9462109B01AC01C701B6010E9409
:1002B00042112B013C01A701960160E070E080E84B
:1002C0009FE30E94FC0EF501248135814681578110
:1002D0000E9442119B01AC01C301B2010E94FD0EBC
:1002E000F50164837583868397836BAB7CAB8DABA1
:1002F0009EABC8010E94780A08501109F801C0801D
:10030000D180E280F380BC01882777FD8095982F0B
:100310000E9462109B01AC01C701B6010E9442110C
:100320004B015C01A701960160E070E080E89FE36B
:100330000E94FC0EF80124813581468157810E947C
:1003400042119B01AC01C501B4010E94FD0EF801F0
:1003500064837583868397836FAB78AF89AF9AAFD9
:10036000DF91CF911F910F91FF90EF90DF90CF9091
:10037000BF90AF909F908F907F906F905F904F90C5
:100380000895CF93DF93EC01FC01ED5AFF4FDC01A0
:10039000A55ABF4F2D913D914D915C916081718126
:1003A000828193810E94FC0E20E034E244E759E40C
:1003B0000E94C70FAB01BC0122E030E088E192E06F
:1003C0000E94540769E471E088E192E00E94970579
:1003D000FE01E95BFF4F408151816281738122E020
:1003E00030E088E192E00E94540769E471E088E11E
:1003F00092E00E949705FE01E55BFF4F408151812D
:100400006281738122E030E088E192E00E9454072B
:1004100069E471E088E192E00E949705FE01E15BEA
:10042000FF4F408151816281738122E030E088E199
:1004300092E00E94540769E471E088E192E00E9432
:1004400097054FA558A969A97AA922E030E088E16B
:1004500092E00E94540769E471E088E192E00E9412
:1004600097054BA95CA96DA97EA922E030E088E13F
:1004700092E00E94540769E471E088E192E00E94F2
:1004800097054FA958AD69AD7AAD22E030E088E11B
:1004900092E0DF91CF910C945607CF92DF92EF92CA
:1004A000FF92CF93DF931092C1011092C20110927C
:1004B000C3011092C4011092C5011092C60110929E
:1004C000C7011092C8011092C9011092CA0110927E
:1004D000CB011092CC011092CD011092CE0110925E
:1004E000CF011092D0011092D1011092D20110923E
:1004F000D3011092D4011092D5011092D60110921E
:10050000D7011092D801C8EED3E081EF91E00E94AC
:10051000940ABC01882777FD8095982F0E9462106D
:100520009B01AC0160919D0170919E0180919F01A2
:100530009091A0010E94FD0E60939D0170939E0119
:1005400080939F019093A00181EF91E00E94B00AF7
:10055000BC01882777FD8095982F0E9462109B012F
:10056000AC016091A1017091A2018091A3019091D1
:10057000A4010E94FD0E6093A1017093A2018093DB
:10058000A3019093A40181EF91E00E94CC0ABC01E9
:10059000882777FD8095982F0E9462102091A501F1
:1005A0003091A6014091A7015091A8010E94FD0E33
:1005B0006B017C016093A5017093A6018093A70154
:1005C0009093A8012197209709F09FCF20E030E079
:1005D0004AE754E460919D0170919E0180919F01D2
:1005E0009091A0010E94C70F60939D0170939E019E
:1005F00080939F019093A00120E030E04AE754E40B
:100600006091A1017091A2018091A3019091A40138
:100610000E94C70F6093A1017093A2018093A30170
:100620009093A40120E030E04AE754E4C701B6010A
:100630000E94C70F6093A5017093A6018093A70144
:100640009093A8016BE271E088E192E00E94970527
:1006500081EF91E00E94040B882319F062E071E0C1
:1006600002C069E171E088E192E00E94B40560E0B7
:1006700081EF91E00E94350A8DEC9CECACECBDE37F
:100680008093D9019093DA01A093DB01B093DC0150
:100690001092DD011092DE011092DF011092E00154
:1006A0008093E1019093E201A093E301B093E40110
:1006B0001092E5011092E6011092E7011092E80114
:1006C0008093E9019093EA01A093EB01B093EC01D0
:1006D0001092ED011092EE011092EF011092F001D4
:1006E00040E052EC61E070E088E192E00E94850811
:1006F00082EC92E0DF91CF91FF90EF90DF90CF906E
:100700000C94F3094F925F926F927F928F929F9217
:10071000AF92BF92CF92DF92EF92FF920F931F930F
:10072000CF93DF9300D000D0CDB7DEB78AE791E05A
:100730000E949B000DEC11E0F801C080D180E280A6
:10074000F38085ED882E81E0982E91EDA92E91E021
:10075000B92EF5012081318142815381C701B60153
:100760000E94FC0E20E034E244E759E40E94C70FE7
:10077000F4016083718382839383F501C082D18207
:10078000E282F3820E94FB040E946010F801608301
:10079000718382839383C090B101D090B201E090C5
:1007A000B301F090B4016091AD017091AE01809100
:1007B000AF019091B001A70196010E94700F2B012B
:1007C0003C018091A9019091AA01A091AB01B09147
:1007D000AC01BC01CD019058A70196010E94700F99
:1007E00069837A838B839C83F401C080D180E2800B
:1007F000F38001EC11E02091B5013091B6014091F8
:10080000B7015091B801C701B6010E944211F80129
:1008100020813181428153810E94FD0E28E431EE16
:100820004AE75FE30E9442114B015C0121EE3EE288
:1008300045E652E4C301B2010E9442112AE037EDBD
:1008400043EA5CE30E9442119B01AC01C501B40183
:100850000E94FD0EF801608371838283938305EC0F
:1008600011E02091B9013091BA014091BB01509142
:10087000BC01C701B6010E944211F80120813181FB
:10088000428153810E94FD0E28E431EE4AE75FE386
:100890000E9442114B015C0121EE3EE245E652E42A
:1008A00069817A818B819C810E9442112AE037ED17
:1008B00043EA5CE30E9442119B01AC01C501B40113
:1008C0000E94FD0EF801608371838283938309EC9B
:1008D00011E02091BD013091BE014091BF015091C6
:1008E000C001C701B6010E944211F8012081318187
:1008F000428153810E94FD0EF801608371838283DF
:1009000093838AE791E00F900F900F900F90DF9103
:10091000CF911F910F91FF90EF90DF90CF90BF90FC
:10092000AF909F908F907F906F905F904F900C94BE
:10093000C10180E092E00E94310A82E891E00E94C9
:10094000310A81EF91E00C94310A1F920F920FB699
:100950000F9211242F933F938F939F93AF93BF9345
:100960008091100290911102A0911202B091130295
:1009700030910F0223E0230F2D3720F40196A11DA3
:10098000B11D05C026E8230F0296A11DB11D2093BD
:100990000F028093100290931102A0931202B09361
:1009A00013028091140290911502A0911602B09149
:1009B00017020196A11DB11D809314029093150298
:1009C000A0931602B0931702BF91AF919F918F91A0
:1009D0003F912F910F900FBE0F901F9018952FB73A
:1009E000F89460911002709111028091120290911E
:1009F00013022FBF08953FB7F8948091140290918D
:100A00001502A0911602B091170226B5A89B05C049
:100A10002F3F19F00196A11DB11D3FBF6627782F0A
:100A2000892F9A2F620F711D811D911D42E0660F63
:100A3000771F881F991F4A95D1F70895789484B538
:100A4000826084BD84B5816084BD85B5826085BDCA
:100A500085B5816085BDEEE6F0E0808181608083B0
:100A6000E1E8F0E010828081826080838081816093
:100A70008083E0E8F0E0808181608083E1EBF0E05A
:100A8000808184608083E0EBF0E0808181608083FE
:100A9000EAE7F0E0808184608083808182608083E7
:100AA0008081816080838081806880831092C10012
:100AB0000895CF92DF92EF92FF920F931F93CF93FF
:100AC000DF936C017A01EB01E60EF71E00E010E007
:100AD000CE15DF0561F06991D601ED91FC91019091
:100AE000F081E02DC6010995080F191FF1CFC8014B
:100AF000DF91CF911F910F91FF90EF90DF90CF90FA
:100B000008956115710581F0DB010D900020E9F772
:100B1000AD0141505109461B570BDC01ED91FC9191
:100B20000280F381E02D099480E090E008950C9418
:100B30008105DC01ED91FC910190F081E02D09949B
:100B40000F931F93CF93DF93EC016DE00E94990503
:100B50008C016AE0CE010E949905800F911FDF9100
:100B6000CF911F910F9108950F931F93CF93DF9310
:100B7000EC010E9481058C01CE010E94A005800F2E
:100B8000911FDF91CF911F910F9108958F929F92A6
:100B9000AF92BF92CF92DF92EF92FF920F931F938B
:100BA000CF93DF93CDB7DEB7A1970FB6F894DEBF32
:100BB0000FBECDBF7C01C42EE52FCB01D22E19A2D2
:100BC00021E02D1510F02AE0D22E8E010F5D1F4F6F
:100BD0008D2C912CA12CB12C6C2D7E2FA501940174
:100BE0000E94AC118C2DD29E801911240150110944
:100BF0008A3014F4805D01C0895CF801808321157E
:100C000031054105510521F0C22EE32FCA01E4CF81
:100C1000B801C7010E948105A1960FB6F894DEBF06
:100C20000FBECDBFDF91CF911F910F91FF90EF903D
:100C3000DF90CF90BF90AF909F908F900895CF920C
:100C4000DF92EF92FF920F931F93CF93DF93EC010C
:100C50006A017B012115310579F4E881F981019060
:100C6000F081E02D642FDF91CF911F910F91FF90C4
:100C7000EF90DF90CF9009942A303105E9F477FFA7
:100C80001AC06DE20E9499058C0144275527BA01CC
:100C90004C195D096E097F092AE0CE010E94C60544
:100CA000800F911FDF91CF911F910F91FF90EF90D7
:100CB000DF90CF9008952AE0B701A601CE01DF9121
:100CC000CF911F910F91FF90EF90DF90CF900C94F8
:100CD000C6054F925F926F927F928F929F92AF92D2
:100CE000BF92CF92DF92EF92FF920F931F93CF9319
:100CF000DF93EC016A017B01B22E9A01AB01C701BF
:100D0000B6010E94A811882319F06BE471E027C096
:100D100026013701E89477F82FEF3FEF4FE75FE7C1
:100D2000C301B2010E94A81181110DC02FEF3FEF46
:100D30004FE75FE7C301B2010E94C30F18161CF40E
:100D40006FE471E00CC02FEF3FEF4FE75FE4C701A6
:100D5000B6010E9437111816ACF463E571E0CE01BC
:100D6000DF91CF911F910F91FF90EF90DF90CF9087
:100D7000BF90AF909F908F907F906F905F904F90BB
:100D80000C9481052FEF3FEF4FE75FECC701B601F1
:100D90000E94C30F87FDE1CF20E030E0A901C70129
:100DA000B6010E94C30F87FF0AC06DE2CE010E9408
:100DB00099058C01F7FAF094F7F8F09402C000E07E
:100DC00010E0A12C60E070E080E09FE3AB1441F004
:100DD00020E030E040E251E40E94C70FA394F6CF38
:100DE0009B01AC01C701B6010E94FD0E6B017C01A5
:100DF0000E9434102B013C010E9460109B01AC0149
:100E0000C701B6010E94FC0E6B017C012AE0B30110
:100E1000A201CE010E94C605080F191FBB2039F0A0
:100E200067E571E0CE010E948105080F191F7B2C38
:100E3000772041F120E030E040E251E4C701B60103
:100E40000E9442116B017C010E942F104B01AA24C9
:100E500097FCA094BA2C2AE030E0B501A401CE01A1
:100E60000E941F06080F191FC501B4010E946210DD
:100E70009B01AC01C701B6010E94FC0E6B017C0115
:100E80007A94D6CFC801DF91CF911F910F91FF9037
:100E9000EF90DF90CF90BF90AF909F908F907F901A
:100EA0006F905F904F9008950C9469060F931F9375
:100EB000CF93DF93EC010E9469068C01CE010E9462
:100EC000A005800F911FDF91CF911F910F91089581
:100ED0000E941E050E944D02C1E4D8E00E948203D8
:100EE0002097E1F30E944108F9CFFC012485358564
:100EF000F901E05CFF4F8081918132962081318140
:100F0000821B930B8F7399270895FC018485958527
:100F1000FC01E05CFF4F408151813296208131819C
:100F20004217530741F00190F081E02DE80FF91FBF
:100F3000808190E008958FEF9FEF0895FC018485F4
:100F40009585FC01E05CFF4F408151813296208104
:100F500031814217530779F0A081B181A80FB91FE1
:100F60008C91208131812F5F3F4F2F733327318345
:100F7000208390E008958FEF9FEF0895FC0181A1F9
:100F8000882329F0A489B5898C9186FFFBCF11A213
:100F90000895CF93DF93FC0126853785D901A05CA6
:100FA000BF4F8D919C91119701968F739927E901FD
:100FB000CE5BDF4F4881598184179507D9F30D9097
:100FC000BC91A02DA20FB31F6C93A685B785A05C22
:100FD000BF4F11969C938E93A689B7892C9181E07F
:100FE00090E0078C02C0880F991F0A94E2F7282B23
:100FF0002C9381E081A30488F589E02D80818064B1
:10100000808381E090E0DF91CF91089508951F9251
:101010000F920FB60F9211242F933F934F938F93FC
:101020009F93EF93FF938091C00082FD1CC040917D
:10103000C6008091BE029091BF0201968F739927DE
:101040002091C0023091C1028217930771F0E091A4
:10105000BE02F091BF02E258FD4F40839093BF0261
:101060008093BE0202C08091C600FF91EF919F91D4
:101070008F914F913F912F910F900FBE0F901F9026
:10108000189588E192E00E947507892B11F00C9465
:10109000060808951F920F920FB60F9211242F93F6
:1010A0003F938F939F93EF93FF9320917A02309118
:1010B0007B0280917C0290917D022817390731F4E0
:1010C0008091C1008F7D8093C10014C0E0917C02AB
:1010D000F0917D02E65CFD4F208180917C02909131
:1010E0007D0201968F73992790937D0280937C02F5
:1010F0002093C600FF91EF919F918F913F912F9187
:101100000F900FBE0F901F901895CF92DF92EF9225
:10111000FF92CF93DF93EC016A017B01411581EED1
:10112000580761057105F9F0EC89FD8981E090E0CF
:1011300008A002C0880F991F0A94E2F7808360E03C
:1011400079E08DE390E0A70196010E94AC11215057
:10115000310941095109569547953795279521152C
:1011600080E1380798F0EC89FD89108260E874E826
:101170008EE190E0A70196010E94AC112150310947
:10118000410951095695479537952795E889F98979
:101190003083EA89FB89208319A2EE89FF89408187
:1011A00081E090E09C010C8C02C0220F331F0A9456
:1011B000E2F7422B4083EE89FF8940819C010D8C30
:1011C00002C0220F331F0A94E2F7422B4083EE89BC
:1011D000FF8940819C010E8C02C0220F331F0A94AC
:1011E000E2F7422B4083EE89FF8920810F8C02C0F9
:1011F000880F991F0A94E2F7809582238083DF91FC
:10120000CF91FF90EF90DF90CF90089510921B0246
:1012100010921A0288EE93E0A0E0B0E080931C02E6
:1012200090931D02A0931E02B0931F028DE591E0E2
:1012300090931902809318028EE792E09093250212
:10124000809324028AE392E09093270280932602FF
:1012500085EC90E0909329028093280284EC90E042
:1012600090932B0280932A0280EC90E090932D02C1
:1012700080932C0281EC90E090932F0280932E02B9
:1012800082EC90E0909331028093300286EC90E003
:10129000909333028093320284E08093340283E09F
:1012A0008093350287E08093360285E08093370291
:1012B00081E08093380208958091F20290E02091BD
:1012C000F302821B910908952091F3028091F202AA
:1012D000281750F4E22FF0E0EC50FD4F808190E0B1
:1012E0002F5F2093F30208958FEF9FEF0895E09111
:1012F000F3028091F202E81730F4F0E0EC50FD4F79
:10130000808190E008958FEF9FEF08950895CF9228
:10131000DF92EF92FF920F931F93CF93DF937C01A5
:10132000CB018A012091CE02222389F0EB016B01CF
:10133000C40ED51ECC15DD0569F06991D701ED917C
:10134000FC910190F081E02DC7010995F3CF642F46
:101350000E94440DC801DF91CF911F910F91FF9022
:10136000EF90DF90CF900895CF93DF931F92CDB78A
:10137000DEB769832091CE022223D1F02091CF02E3
:10138000203240F021E030E0FC013383228380E012
:1013900090E015C08091D002E82FF0E0EF52FD4FB1
:1013A000998190838F5F8093D0028093CF0205C094
:1013B00061E0CE0101960E94440D81E090E00F9023
:1013C000DF91CF910895FC011382128248EE53E021
:1013D00060E070E044835583668377838DE691E017
:1013E0009183808308951092F3021092F20210927A
:1013F000D0021092CF020C948F0C862F413208F04D
:1014000040E264EF72E00E94AD0C1092F302809310
:10141000F202089521E00C94FD0981E08093CE0250
:101420006093F1021092D0021092CF0208950F93B0
:10143000062F21E04091CF0261ED72E08091F10230
:101440000E94F10C1092D0021092CF021092CE02A4
:101450000F91089561E00C94170A82EC92E00C94CD
:10146000E30928E6FC01208308950F93062F22E06C
:1014700044E06CE1FC0180810E94490C0F910895C9
:101480000F931F93CF93DF93EC0100910001109114
:1014900001019C012F5F3F4F42E06BE388810E9476
:1014A000550B898190E0982F88272A81822BDF9124
:1014B000CF911F910F9108950F931F93CF93DF93B7
:1014C000EC0100910001109101019C012F5F3F4F41
:1014D00042E06DE388810E94550B898190E0982F4E
:1014E00088272A81822BDF91CF911F910F91089538
:1014F0000F931F93CF93DF93EC01009100011091A4
:1015000001019C012F5F3F4F42E06FE388810E9401
:10151000550B898190E0982F88272A81822BDF91B3
:10152000CF911F910F9108950F931F93CF93DF9346
:10153000EC0100910001109101019C012F5F3F4FD0
:1015400042E063E488810E94550B898190E0982FE6
:1015500088272A81822BDF91CF911F910F910895C7
:101560000F931F93CF93DF93EC0100910001109133
:1015700001019C012F5F3F4F42E065E488810E949A
:10158000550B898190E0982F88272A81822BDF9143
:10159000CF911F910F9108950F931F93CF93DF93D6
:1015A000EC0100910001109101019C012F5F3F4F60
:1015B00042E067E488810E94550B898190E0982F72
:1015C00088272A81822BDF91CF911F910F91089557
:1015D000EF92FF920F931F93CF93DF93EC01E09074
:1015E0000001F09001018C010F5F1F4F26E046E0E3
:1015F00065E788810E940C0C8981DF91CF911F9152
:101600000F91FF90EF9008950E94E80A91E08433D3
:1016100009F090E0892F0895EF92FF920F931F93A6
:10162000CF93DF9300D0CDB7DEB7062F142F682FEE
:1016300082EC92E029833A830E940D0A602F82ECAB
:1016400092E00E94B4092981022FE22E3A81F32E02
:101650008E2D801B811740F4F70161917F0182EC90
:1016600092E00E94B409F4CF82EC92E00E942A0A30
:1016700091E0811190E0892F0F900F90DF91CF9131
:101680001F910F91FF90EF900895CF93DF931F92DA
:10169000CDB7DEB749839E012F5F3F4F41E00E94E7
:1016A0000C0B0F90DF91CF9108953F924F925F9274
:1016B0006F927F928F929F92AF92BF92CF92DF9262
:1016C000EF92FF920F931F93CF93DF9300D000D040
:1016D00000D0CDB7DEB7682E562E742E3A832983FC
:1016E0000E94EF046B017C01312C412C872D90E08E
:1016F0009C838B834801A12CB12C3714B0F5662D47
:1017000082EC92E00E940D0A652D82EC92E00E942C
:10171000B40982EC92E00E942A0A662D82EC92E0E3
:101720000E940D0A4B815C814319510941325105D8
:1017300014F040E250E0662D82EC92E00E940A0A2A
:1017400082EC92E00E945C09892B59F10115110588
:1017500079F10E94EF046C197D098E099F096815C3
:1017600079058A059B0520F11CC00115110589F139
:101770000E94EF046C197D098E099F0920E030E07A
:10178000601771078207930720F1872D90E0242DC1
:10179000332727FD309528173907DCF444244A9471
:1017A00018C0872D90E2971508F480E2380EA5CF77
:1017B000E981FA81E40DF11D47FCFA95FE83ED8382
:1017C00082EC92E00E946409ED81FE818083439463
:1017D000B7CF842D26960FB6F894DEBF0FBECDBFCF
:1017E000DF91CF911F910F91FF90EF90DF90CF90FD
:1017F000BF90AF909F908F907F906F905F904F9031
:101800003F9008950F931F9389019A0141E00E9430
:10181000550B1F910F910895CF92DF92EF92FF9297
:101820000F931F93CF93DF931F92CDB7DEB7C42ED4
:10183000D22E9701AE014F5F5F4F0E94020C8823AA
:10184000F1F04C2D50E04D1951094F5F5F4F61E0B1
:1018500070E002C0660F771FDA94E2F761507109F9
:10186000042E01C0660F0A94EAF72981262330E08E
:1018700002C0359527954A95E2F7F80120830F902D
:10188000DF91CF911F910F91FF90EF90DF90CF905C
:101890000895DF92EF92FF920F931F93CF93DF9300
:1018A0001F92CDB7DEB7F82EE62ED42E122F209140
:1018B000000130910101AE014F5F5F4F0E94020CA9
:1018C000882319F14D2D50E0411B51094F5F5F4FA7
:1018D000E1E0F0E002C0EE0FFF1F1A95E2F731974A
:1018E000042E01C0EE0F0A94EAF701C0000F4A95DA
:1018F000EAF74E2F409589814823E0234E2B4983F8
:101900006E2D8F2D0E94450B01C080E00F90DF915E
:10191000CF911F910F91FF90EF90DF90089510925B
:10192000810381E080937F0310927E0361E082E176
:101930000E94C30E61E083E10E94C30EE9EBF0E078
:1019400080818E7F808380818D7F808388E48093F7
:10195000B80085E48093BC000895413208F03FC090
:10196000909181039111FCCF91E09093810320939A
:101970007F032FEF2093140310925903240F209319
:1019800058039093800390918003880F892B809354
:10199000800380917E03813041F410927E03809118
:1019A00080038093BB0085EC01C085EE8093BC0072
:1019B000809181038130E1F380915903841710F401
:1019C000409159032AE533E0FB01D9018A2F821B9C
:1019D000841718F48D918193F9CF842F089580E0B6
:1019E00008950F93413208F046C090918103911100
:1019F000FCCF92E09093810300937F039FEF90933D
:101A000014031092590340935803FB016AE573E0F5
:101A1000DB019A2F961B941718F491919D93F9CF9F
:101A20001092800390918003880F892B809380030C
:101A300080917E03813041F410927E038091800377
:101A40008093BB0085EC01C085EE8093BC0022230F
:101A500021F0809181038230E1F3809114038F3F64
:101A600061F080911403803251F08091140380332F
:101A700041F483E007C081E005C080E003C082E05C
:101A800001C084E00F910895613298F420918103A0
:101A9000243089F460933603FC0188E393E0DC0191
:101AA0002A2F281B261718F421912D93F9CF80E0B7
:101AB000089581E0089582E0089585ED8093BC004B
:101AC0008091BC0084FDFCCF10928103089585ECC9
:101AD0008093BC001092810308951F920F920FB65D
:101AE0000F9211242F933F934F935F936F937F93A4
:101AF0008F939F93AF93BF93EF93FF938091B90020
:101B0000887F803609F49CC068F5883209F45BC090
:101B100090F4803109F454C038F4882309F4F5C0F6
:101B2000883009F44DC0F5C0883109F44CC08032CA
:101B300009F45DC0EEC0803409F468C048F4803315
:101B400009F455C0883309F0E4C080931403A8C099
:101B5000803509F44FC0883509F45DC0883409F038
:101B6000D8C0D5C0883909F4C6C0A8F4883709F4AC
:101B700067C038F4883609F463C0803709F460C060
:101B8000C8C0883809F4B7C0803909F45FC080380C
:101B900009F0BFC05BC0803B09F485C038F4803ACF
:101BA00009F466C0883A09F47EC0B3C0803C09F4E9
:101BB000A6C0883C09F4A3C0883B09F489C0A9C029
:101BC0008091800310C09091590380915803981719
:101BD00070F5E091590381E08E0F80935903F0E096
:101BE000E65AFC4F80818093BB0085EC85C08093D2
:101BF00014038DC0E091590381E08E0F8093590347
:101C00008091BB00F0E0E65AFC4F8083909159032D
:101C1000809158036DC0E091590381E08E0F80934D
:101C200059038091BB00F0E0E65AFC4F808380911D
:101C30007F0381116CC081E080937E0384EA60C0E1
:101C400083E08093810310921503CFCF8091150319
:101C5000803208F050C0E091150381E08E0F809330
:101C600015038091BB00F0E0EA5EFC4F8083BDCF9E
:101C700080911503803230F4E0911503F0E0EA5EC4
:101C8000FC4F10820E945D0D6091150370E0E091A1
:101C90007A03F0917B0386E193E009951092150396
:101CA0000E94670D36C084E0809381031092370351
:101CB00010923603E0917C03F0917D0309958091A9
:101CC0003603811105C081E08093360310923803FA
:101CD000E091370381E08E0F80933703F0E0E85CFA
:101CE000FC4F80818093BB00909137038091360335
:101CF000981708F47ACF85E88093BC000AC085EC79
:101D00008093BC001092810304C0109214030E94BF
:101D10005D0DFF91EF91BF91AF919F918F917F9159
:101D20006F915F914F913F912F910F900FBE0F9048
:101D30001F901895833081F028F4813099F082301B
:101D4000A1F008958630A9F08730B9F08430D1F43D
:101D5000809180008F7D03C0809180008F77809379
:101D60008000089584B58F7702C084B58F7D84BDCF
:101D700008958091B0008F7703C08091B0008F7D6F
:101D80008093B00008950F931F93CF93DF931F921A
:101D9000CDB7DEB7282F30E0F901EA56FF4F849126
:101DA000F901E655FF4F1491F901E254FF4F0491F8
:101DB0000023C9F0882321F069830E949A0E69816B
:101DC000E02FF0E0EE0FFF1FEE52FF4FA591B49110
:101DD0009FB7F8948C91611103C01095812301C0C5
:101DE000812B8C939FBF0F90DF91CF911F910F910B
:101DF0000895F8940C94D4115058BB27AA270ED0FC
:101E0000FCC1EDD130F0F2D120F031F49F3F11F45C
:101E10001EF4BDC10EF4E095E7FBB3C1E92FFED17E
:101E200080F3BA17620773078407950718F071F4F7
:101E30009EF516C20EF4E0950B2EBA2FA02D0B01C5
:101E4000B90190010C01CA01A0011124FF27591BFF
:101E500099F0593F50F4503E68F11A16F040A22F05
:101E6000232F342F4427585FF3CF46953795279576
:101E7000A795F0405395C9F77EF41F16BA0B620B75
:101E8000730B840BBAF09150A1F0FF0FBB1F661FBC
:101E9000771F881FC2F70EC0BA0F621F731F841FFF
:101EA00048F4879577956795B795F7959E3F08F025
:101EB000B3CF9395880F08F09927EE0F97958795E4
:101EC00008958DD158F080E891E009F49EEF8ED10D
:101ED00028F040E851E059F45EEF09C058C1C0C194
:101EE000E92FE0789BD168F3092E052AC1F3261764
:101EF00037074807590738F00E2E07F8E02569F034
:101F0000E025E0640AC0EF6307F8009407FADB01FC
:101F1000B9019D01DC01CA01AD01EF9347D06DD13C
:101F20000AD05F91552331F02BED3FE049E450FD9D
:101F300049EC63CF0895DF93DD27B92FBF7740E8E1
:101F40005FE31616170648075B0710F4D92F93D1E5
:101F50009F938F937F936F93F8D1E8E6F0E01AD1C7
:101F60004CD12F913F914F915F9198D1DD2349F052
:101F70009058A2EA2AED3FE049EC5FE3D0785D2774
:101F80004DDFDF913AC1D9D008F481E008950CD03B
:101F900034C12CD140F023D130F021F45F3F19F04F
:101FA000F0C051115EC1F3C039D198F39923C9F340
:101FB0005523B1F3951B550BBB27AA27621773074F
:101FC000840738F09F5F5F4F220F331F441FAA1F03
:101FD000A9F333D00E2E3AF0E0E830D091505040C3
:101FE000E695001CCAF729D0FE2F27D0660F771F71
:101FF000881FBB1F261737074807AB07B0E809F053
:10200000BB0B802DBF01FF2793585F4F2AF09E3FE7
:10201000510568F0B6C025C15F3FECF3983EDCF394
:10202000869577956795B795F7959F5FC9F7880F60
:10203000911D9695879597F90895E1E0660F771FB2
:10204000881FBB1F621773078407BA0720F0621B43
:10205000730B840BBA0BEE1F88F7E095089504D03C
:102060006894B111FEC00895E1D088F09F5790F0B8
:10207000B92F9927B751A0F0D1F0660F771F881FAD
:10208000991F1AF0BA95C9F712C0B13081F0E8D0A3
:10209000B1E00895E5C0672F782F8827B85F39F041
:1020A000B93FCCF3869577956795B395D9F73EF40C
:1020B00090958095709561957F4F8F4F9F4F0895B4
:1020C000E89409C097FB3EF49095809570956195D2
:1020D0007F4F8F4F9F4F9923A9F0F92F96E9BB2788
:1020E0009395F695879577956795B795F111F8CF04
:1020F000FAF4BB0F11F460FF1BC06F5F7F4F8F4F6F
:102100009F4F16C0882311F096E911C0772321F064
:102110009EE8872F762F05C0662371F096E8862FFC
:1021200070E060E02AF09A95660F771F881FDAF753
:10213000880F9695879597F90895990F0008550F80
:10214000AA0BE0E8FEEF16161706E807F907C0F03D
:1021500012161306E407F50798F0621B730B840B45
:10216000950B39F40A2661F0232B242B252B21F41F
:1021700008950A2609F4A140A6958FEF811D811DBF
:10218000089597F99F6780E870E060E008959FEFF9
:1021900080EC0895DF93CF931F930F93FF92EF92FC
:1021A000DF927B018C01689405C0DA2EEF0176D0B6
:1021B000FE01E894A5912591359145915591AEF395
:1021C000EF012CDEFE019701A801DA9479F7DF9088
:1021D000EF90FF900F911F91CF91DF910895002410
:1021E0000A941616170618060906089500240A947C
:1021F00012161306140605060895092E0394000C02
:1022000011F4882352F0BB0F40F4BF2B11F460FF90
:1022100004C06F5F7F4F8F4F9F4F089557FD9058B9
:10222000440F551F59F05F3F71F04795880F97FB9A
:10223000991F61F09F3F79F0879508951216130654
:102240001406551FF2CF4695F1DF08C01616170683
:102250001806991FF1CF86957105610508940895B8
:10226000E894BB2766277727CB0197F9089565DFA8
:1022700008F48FEF08959B01AC0160E070E080E806
:102280009FE385CE0BD0B9CFAADF28F0AFDF18F0DF
:10229000952309F076CF7BCF1124E3CFBFDFA0F3E6
:1022A000959FD1F3950F50E0551F629FF001729FEB
:1022B000BB27F00DB11D639FAA27F00DB11DAA1F0A
:1022C000649F6627B00DA11D661F829F2227B00D57
:1022D000A11D621F739FB00DA11D621F839FA00DE2
:1022E000611D221F749F3327A00D611D231F849F32
:1022F000600D211D822F762F6A2F11249F57504089
:102300008AF0E1F088234AF0EE0FFF1FBB1F661F23
:10231000771F881F91505040A9F79E3F510570F0DC
:1023200030CF9FCF5F3FECF3983EDCF386957795F7
:102330006795B795F795E7959F5FC1F7FE2B880FD7
:10234000911D9695879597F908959B01AC019ACFB9
:10235000F4DE880B990B0895A1E21A2EAA1BBB1B71
:10236000FD010DC0AA1FBB1FEE1FFF1FA217B30761
:10237000E407F50720F0A21BB30BE40BF50B661F77
:10238000771F881F991F1A9469F76095709580953B
:1023900090959B01AC01BD01CF010895EE0FFF1F89
:0C23A0000590F491E02D0994F894FFCF13
:1023AC00E803636F6E6E656374696F6E206573749A
:1023BC0061626C697368656400636F6E6E656374EB
:1023CC00696F6E206661696C6564002320746573A7
:1023DC0074696E6720494D5520636F6D6D756E691C
:1023EC00636174696F6E2E2E2E20006E616E006913
:1023FC006E66006F7666002E0000000000C907595B
:10240C000575079E078507BE0700000000B4098705
:0A241C00095C0964097709860900CC
:00000001FF
