:100000000C9471000C9499000C9499000C940205C6
:100010000C9499000C9499000C9499000C949900FC
:100020000C9499000C9499000C9499000C949900EC
:100030000C9499000C9499000C9499000C949900DC
:100040000C94BD050C9499000C941F090C94620942
:100050000C9499000C9499000C9499000C949900BC
:100060000C94850E0C949900084AD73B3BCE016E48
:1000700084BCBFFDC12F3D6C74319ABD56833DDAFF
:100080003D00C77F11BED9E4BB4C3E916BAAAABE0E
:10009000000000803F000000000700020100000394
:1000A0000406000000000000000001020408102007
:1000B00040800102040810200102040810200404FA
:1000C0000404040404040202020202020303030300
:1000D000030300000000250028002B00B1051E0AC4
:1000E000450B11241FBECFEFD8E0DEBFCDBF11E01E
:1000F000A0E0B1E0ECEDF5E202C005900D92AA3768
:10010000B107D9F723E0AAE7B1E001C01D92A43BF3
:10011000B207E1F710E0C2EED0E004C02297FE0182
:100120000E94E812CC3DD107C9F70E9480080C94C8
:1001300011100C9400004F925F926F927F928F92F9
:100140009F92AF92BF92CF92DF92EF92FF920F9366
:100150001F93CF93DF93EC018C0104591F4FC8010B
:100160000E94AC0BBC01882777FD8095982F0E94D8
:100170007A112BA13CA14DA15EA10E94141020E098
:1001800030E043E053E40E94DF106BAF7CAF8DAFF3
:100190009EAFC8010E94C80B7E012FE3E20EF11C46
:1001A000BC01882777FD8095982F0E947A112FA196
:1001B00038A549A55AA50E94141020E030E043E07C
:1001C00053E40E94DF10F70160837183828393837D
:1001D000C8010E94E40B7E01F3E4EF0EF11CBC01A8
:1001E000882777FD8095982F0E947A112BA53CA532
:1001F0004DA55EA50E94141020E030E043E053E4DA
:100200000E94DF10F7016083718382839383C801AA
:100210000E94580B5E01F4E5AF0EB11CF501C080E1
:10022000D180E280F380BC01882777FD8095982FEC
:100230000E947A119B01AC01C701B6010E945A12BB
:100240002B013C01A701960160E070E080E89FE38C
:100250000E941410F50124813581468157810E9446
:100260005A129B01AC01C301B2010E941510F501A5
:1002700064837583868397836FA778AB89AB9AABCA
:10028000C8010E94740B5E01FCE5AF0EB11CF501C4
:10029000C080D180E280F380BC01882777FD809503
:1002A000982F0E947A119B01AC01C701B6010E94F0
:1002B0005A122B013C01A701960160E070E080E832
:1002C0009FE30E941410F5012481358146815781F6
:1002D0000E945A129B01AC01C301B2010E94151089
:1002E000F50164837583868397836BAB7CAB8DABA1
:1002F0009EABC8010E94900B08501109F801C08004
:10030000D180E280F380BC01882777FD8095982F0B
:100310000E947A119B01AC01C701B6010E945A12DA
:100320004B015C01A701960160E070E080E89FE36B
:100330000E941410F80124813581468157810E9462
:100340005A129B01AC01C501B4010E941510F801BD
:1003500064837583868397836FAB78AF89AF9AAFD9
:10036000DF91CF911F910F91FF90EF90DF90CF9091
:10037000BF90AF909F908F907F906F905F904F90C5
:100380000895CF93DF93EC01FC01E85BFF4FDC01A4
:10039000A05BBF4F2D913D914D915C91608171812A
:1003A000828193810E94141020E034E244E759E4F2
:1003B0000E94DF10AB01BC0122E030E08AE492E051
:1003C0000E946C0869E471E08AE492E00E94AF0642
:1003D000FE01E558FF4F408151816281738122E027
:1003E00030E08AE492E00E946C0869E471E08AE4FB
:1003F00092E00E94AF06FE01E158FF4F408151811B
:100400006281738122E030E08AE492E00E946C080D
:1004100069E471E08AE492E00E94AF06FE01ED57C4
:10042000FF4F408151816281738122E030E08AE494
:1004300092E00E946C0869E471E08AE492E00E9414
:10044000AF064FA558A969A97AA922E030E08AE44D
:1004500092E00E946C0869E471E08AE492E00E94F4
:10046000AF064BA95CA96DA97EA922E030E08AE421
:1004700092E00E946C0869E471E08AE492E00E94D4
:10048000AF064FA958AD69AD7AAD22E030E08AE4FD
:1004900092E0DF91CF910C946E08CF92DF92EF92B1
:1004A000FF92CF93DF9340E052EC61E070E08AE48A
:1004B00092E00E949D0984EF92E00E940B0B8AB1AA
:1004C000806F8AB9249A8CE08093F2011092260200
:1004D00010922702109228021092290210922A02EA
:1004E00010922B0210922C0210922D0210922E02CA
:1004F00010922F0210923002109231021092F301EA
:100500001092F4011092F5011092F6011092F70189
:100510001092F8011092F9011092FA011092FB0169
:100520001092FC011092FD011092FE01C8EED3E082
:1005300087E192E00E94AC0BBC01882777FD809593
:10054000982F0E947A119B01AC016091CE017091AD
:10055000CF018091D0019091D1010E94151060933C
:10056000CE017093CF018093D0019093D10187E1A8
:1005700092E00E94C80BBC01882777FD8095982FD8
:100580000E947A119B01AC016091D2017091D3015C
:100590008091D4019091D5010E9415106093D201F1
:1005A0007093D3018093D4019093D50187E192E0B9
:1005B0000E94E40BBC01882777FD8095982F0E944C
:1005C0007A112091D6013091D7014091D8015091F4
:1005D000D9010E9415106B017C016093D6017093C4
:1005E000D7018093D8019093D9012197209709F0E2
:1005F0009FCF20E030E04AE754E46091CE01709153
:10060000CF018091D0019091D1010E94DF106093C1
:10061000CE017093CF018093D0019093D10120E05F
:1006200030E04AE754E46091D2017091D3018091A7
:10063000D4019091D5010E94DF106093D201709394
:10064000D3018093D4019093D50120E030E04AE7B4
:1006500054E4C701B6010E94DF106093D601709385
:10066000D7018093D8019093D9016BE271E08AE4BD
:1006700092E00E94AF0687E192E00E941C0C882362
:1006800019F062E071E002C069E171E08AE492E091
:100690000E94CC0660E087E192E00E944D0B8DEC59
:1006A0009CECACECBDE38093FF0190930002A0931F
:1006B0000102B093020210920302109204021092FF
:1006C0000502109206028093070290930802A093FD
:1006D0000902B0930A0210920B0210920C021092BF
:1006E0000D0210920E0280930F0290931002A093BD
:1006F0001102B0931202109213021092140210927F
:100700001502109216021092870110928801109221
:10071000890110928A0110928B0110928D01109222
:100720008C0110928F0110928E0110929001109204
:1007300091011092920110929301109294011092E3
:1007400096011092950110929801109297011092C3
:10075000990110929A0110929B0110929C011092A3
:100760009D0110929F0110929E011092A101109282
:10077000A0011092A2011092A3011092A401109264
:10078000A5011092A6011092A8011092A701109243
:10079000AA011092A901809168008160809368008D
:1007A00080916B00816080936B0080916B00826010
:1007B00080936B0080916B00846080936B008091CC
:1007C0006B00886080936B00DF91CF91FF90EF907A
:1007D000DF90CF9008954F925F926F927F928F92A9
:1007E0009F92AF92BF92CF92DF92EF92FF920F93C0
:1007F0001F93CF93DF9300D000D0CDB7DEB78BEA45
:1008000091E00E949B0003EF11E0F801C080D180CD
:10081000E280F3808BEF882E81E0982E97EFA92E4F
:1008200091E0B92EF5012081318142815381C701C8
:10083000B6010E94141020E034E244E759E40E941B
:10084000DF10F4016083718382839383F501C0829A
:10085000D182E282F3820E9413060E947811F8018D
:100860006083718382839383C090E201D090E3011F
:10087000E090E401F090E5016091DE017091DF010C
:100880008091E0019091E101A70196010E948810FA
:100890002B013C018091DA019091DB01A091DC01F8
:1008A000B091DD01BC01CD019058A70196010E94D5
:1008B000881069837A838B839C83F401C080D18004
:1008C000E280F38006E212E02091E6013091E70138
:1008D0004091E8015091E901C701B6010E945A1206
:1008E000F80120813181428153810E94151028E452
:1008F00031EE4AE75FE30E945A124B015C0121EEA0
:100900003EE245E652E4C301B2010E945A122AE0D7
:1009100037ED43EA5CE30E945A129B01AC01C5012A
:10092000B4010E941510F801608371838283938360
:100930000AE212E02091EA013091EB014091EC01D2
:100940005091ED01C701B6010E945A12F8012081B1
:100950003181428153810E94151028E431EE4AE72B
:100960005FE30E945A124B015C0121EE3EE245E634
:1009700052E469817A818B819C810E945A122AE01B
:1009800037ED43EA5CE30E945A129B01AC01C501BA
:10099000B4010E941510F8016083718382839383F0
:1009A0000EE212E02091EE013091EF014091F00152
:1009B0005091F101C701B6010E945A12F80120813D
:1009C0003181428153810E941510F8016083718347
:1009D000828393838BEA91E00F900F900F900F909A
:1009E000DF91CF911F910F91FF90EF90DF90CF900B
:1009F000BF90AF909F908F907F906F905F904F903F
:100A00000C94C1011F920F920FB60F9211242F93D5
:100A10003F934F935F936F937F938F939F93AF9386
:100A2000BF93EF93FF930E94130660937A01709334
:100A30007B0180937C0190937D0120918701189B1D
:100A40000EC021111BC021E0209387016093880113
:100A50007093890180938A0190938B010FC021309C
:100A600069F4109287012091880130918901AB01CE
:100A7000421B530B50938D0140938C0120919001A8
:100A8000199B0EC021111BC021E02093900160939F
:100A900091017093920180939301909394010FC000
:100AA000213069F4109290012091910130919201CE
:100AB000AB01421B530B509396014093950120913B
:100AC000A2011A9B0EC021111BC021E02093A2019C
:100AD0006093A3017093A4018093A5019093A60154
:100AE0000FC0213069F41092A2012091A30130912E
:100AF000A401AB01421B530B5093A8014093A701E3
:100B0000209199011B9B0EC021111AC021E0209356
:100B1000990160939A0170939B0180939C0190933B
:100B20009D010EC0213061F41092990120919A012B
:100B300030919B01621B730B70939F0160939E0128
:100B4000FF91EF91BF91AF919F918F917F916F91A5
:100B50005F914F913F912F910F900FBE0F901F907B
:100B6000189582E392E00E94490B83EB91E00E948A
:100B7000490B87E192E00C94490B1F920F920FB63C
:100B80000F9211242F933F938F939F93AF93BF9313
:100B90008091420290914302A0914402B09145029B
:100BA0003091410223E0230F2D3720F40196A11D3F
:100BB000B11D05C026E8230F0296A11DB11D20938B
:100BC00041028093420290934302A0934402B09367
:100BD00045028091460290914702A0914802B0914F
:100BE00049020196A11DB11D8093460290934702D0
:100BF000A0934802B0934902BF91AF919F918F910A
:100C00003F912F910F900FBE0F901F9018952FB707
:100C1000F894609142027091430280914402909155
:100C200045022FBF08953FB7F894809146029091F6
:100C30004702A0914802B091490226B5A89B05C081
:100C40002F3F19F00196A11DB11D3FBF6627782FD8
:100C5000892F9A2F620F711D811D911D42E0660F31
:100C6000771F881F991F4A95D1F70895789484B506
:100C7000826084BD84B5816084BD85B5826085BD98
:100C800085B5816085BDEEE6F0E08081816080837E
:100C9000E1E8F0E010828081826080838081816061
:100CA0008083E0E8F0E0808181608083E1EBF0E028
:100CB000808184608083E0EBF0E0808181608083CC
:100CC000EAE7F0E0808184608083808182608083B5
:100CD0008081816080838081806880831092C100E0
:100CE0000895CF92DF92EF92FF920F931F93CF93CD
:100CF000DF936C017A01EB01E60EF71E00E010E0D5
:100D0000CE15DF0561F06991D601ED91FC9101905E
:100D1000F081E02DC6010995080F191FF1CFC80118
:100D2000DF91CF911F910F91FF90EF90DF90CF90C7
:100D300008956115710581F0DB010D900020E9F740
:100D4000AD0141505109461B570BDC01ED91FC915F
:100D50000280F381E02D099480E090E008950C94E6
:100D60009906DC01ED91FC910190F081E02D099450
:100D70000F931F93CF93DF93EC016DE00E94B106B8
:100D80008C016AE0CE010E94B106800F911FDF91B5
:100D9000CF911F910F9108950F931F93CF93DF93DE
:100DA000EC010E9499068C01CE010E94B806800FCA
:100DB000911FDF91CF911F910F9108958F929F9274
:100DC000AF92BF92CF92DF92EF92FF920F931F9359
:100DD000CF93DF93CDB7DEB7A1970FB6F894DEBF00
:100DE0000FBECDBF7C01C42EE52FCB01D22E19A2A0
:100DF00021E02D1510F02AE0D22E8E010F5D1F4F3D
:100E00008D2C912CA12CB12C6C2D7E2FA501940141
:100E10000E94C4128C2DD29E8019112401501109F8
:100E20008A3014F4805D01C0895CF801808321154B
:100E300031054105510521F0C22EE32FCA01E4CF4F
:100E4000B801C7010E949906A1960FB6F894DEBFBB
:100E50000FBECDBFDF91CF911F910F91FF90EF900B
:100E6000DF90CF90BF90AF909F908F900895CF92DA
:100E7000DF92EF92FF920F931F93CF93DF93EC01DA
:100E80006A017B012115310579F4E881F98101902E
:100E9000F081E02D642FDF91CF911F910F91FF9092
:100EA000EF90DF90CF9009942A303105E9F477FF75
:100EB0001AC06DE20E94B1068C0144275527BA0181
:100EC0004C195D096E097F092AE0CE010E94DE06F9
:100ED000800F911FDF91CF911F910F91FF90EF90A5
:100EE000DF90CF9008952AE0B701A601CE01DF91EF
:100EF000CF911F910F91FF90EF90DF90CF900C94C6
:100F0000DE064F925F926F927F928F929F92AF9286
:100F1000BF92CF92DF92EF92FF920F931F93CF93E6
:100F2000DF93EC016A017B01B22E9A01AB01C7018C
:100F3000B6010E94C012882319F06BE471E027C04B
:100F400026013701E89477F82FEF3FEF4FE75FE78F
:100F5000C301B2010E94C01281110DC02FEF3FEFFB
:100F60004FE75FE7C301B2010E94DB1018161CF4C3
:100F70006FE471E00CC02FEF3FEF4FE75FE4C70174
:100F8000B6010E944F121816ACF463E571E0CE0171
:100F9000DF91CF911F910F91FF90EF90DF90CF9055
:100FA000BF90AF909F908F907F906F905F904F9089
:100FB0000C9499062FEF3FEF4FE75FECC701B601A6
:100FC0000E94DB1087FDE1CF20E030E0A901C701DE
:100FD000B6010E94DB1087FF0AC06DE2CE010E94BD
:100FE000B1068C01F7FAF094F7F8F09402C000E033
:100FF00010E0A12C60E070E080E09FE3AB1441F0D2
:1010000020E030E040E251E40E94DF10A394F6CFEC
:101010009B01AC01C701B6010E9415106B017C0158
:101020000E944C112B013C010E9478119B01AC01E4
:10103000C701B6010E9414106B017C012AE0B301C4
:10104000A201CE010E94DE06080F191FBB2039F055
:1010500067E571E0CE010E949906080F191F7B2CED
:10106000772041F120E030E040E251E4C701B601D1
:101070000E945A126B017C010E9447114B01AA2465
:1010800097FCA094BA2C2AE030E0B501A401CE016F
:101090000E943707080F191FC501B4010E947A1179
:1010A0009B01AC01C701B6010E9414106B017C01C9
:1010B0007A94D6CFC801DF91CF911F910F91FF9005
:1010C000EF90DF90CF90BF90AF909F908F907F90E8
:1010D0006F905F904F9008950C9481070F931F932A
:1010E000CF93DF93EC010E9481078C01CE010E9417
:1010F000B806800F911FDF91CF911F910F91089536
:101100000E9436060E944D02C9E5D9E00E94EB0319
:101110002097E1F30E945909F9CFFC012485358518
:10112000F901E05CFF4F808191813296208131810D
:10113000821B930B8F7399270895FC0184859585F5
:10114000FC01E05CFF4F408151813296208131816A
:101150004217530741F00190F081E02DE80FF91F8D
:10116000808190E008958FEF9FEF0895FC018485C2
:101170009585FC01E05CFF4F4081518132962081D2
:1011800031814217530779F0A081B181A80FB91FAF
:101190008C91208131812F5F3F4F2F733327318313
:1011A000208390E008958FEF9FEF0895FC0181A1C7
:1011B000882329F0A489B5898C9186FFFBCF11A2E1
:1011C0000895CF93DF93FC0126853785D901A05C74
:1011D000BF4F8D919C91119701968F739927E901CB
:1011E000CE5BDF4F4881598184179507D9F30D9065
:1011F000BC91A02DA20FB31F6C93A685B785A05CF0
:10120000BF4F11969C938E93A689B7892C9181E04C
:1012100090E0078C02C0880F991F0A94E2F7282BF0
:101220002C9381E081A30488F589E02D808180647E
:10123000808381E090E0DF91CF91089508951F921F
:101240000F920FB60F9211242F933F934F938F93CA
:101250009F93EF93FF938091C00082FD1CC040914B
:10126000C6008091F0029091F10201968F73992748
:101270002091F2023091F3028217930771F0E0910E
:10128000F002F091F102E055FD4F40839093F1029E
:101290008093F00202C08091C600FF91EF919F9170
:1012A0008F914F913F912F910F900FBE0F901F90F4
:1012B00018958AE492E00E948D08892B11F00C9415
:1012C0001E0908951F920F920FB60F9211242F93AB
:1012D0003F938F939F93EF93FF932091AC023091B4
:1012E000AD028091AE029091AF022817390731F418
:1012F0008091C1008F7D8093C10014C0E091AE0247
:10130000F091AF02E459FD4F20818091AE0290919F
:10131000AF0201968F7399279093AF028093AE022C
:101320002093C600FF91EF919F918F913F912F9154
:101330000F900FBE0F901F901895CF92DF92EF92F3
:10134000FF92CF93DF93EC016A017B01411581EE9F
:10135000580761057105F9F0EC89FD8981E090E09D
:1013600008A002C0880F991F0A94E2F7808360E00A
:1013700079E08DE390E0A70196010E94C41221500C
:1013800031094109510956954795379527952115FA
:1013900080E1380798F0EC89FD89108260E874E8F4
:1013A0008EE190E0A70196010E94C41221503109FC
:1013B000410951095695479537952795E889F98947
:1013C0003083EA89FB89208319A2EE89FF89408155
:1013D00081E090E09C010C8C02C0220F331F0A9424
:1013E000E2F7422B4083EE89FF8940819C010D8CFE
:1013F00002C0220F331F0A94E2F7422B4083EE898A
:10140000FF8940819C010E8C02C0220F331F0A9479
:10141000E2F7422B4083EE89FF8920810F8C02C0C6
:10142000880F991F0A94E2F7809582238083DF91C9
:10143000CF91FF90EF90DF90CF90089510924D02E2
:1014400010924C0288EE93E0A0E0B0E080934E0250
:1014500090934F02A0935002B09351028DE591E01A
:1014600090934B0280934A0280EB92E09093570254
:10147000809356028CE692E0909359028093580232
:1014800085EC90E090935B0280935A0284EC90E0AC
:1014900090935D0280935C0280EC90E090935F02F9
:1014A00080935E0281EC90E09093610280936002F1
:1014B00082EC90E0909363028093620286EC90E06D
:1014C000909365028093640284E08093660283E0D7
:1014D0008093670287E08093680285E080936902C9
:1014E00081E080936A0208958091240390E0209126
:1014F0002503821B910908952091250380912403DF
:10150000281750F4E22FF0E0EA5DFC4F808190E074
:101510002F5F2093250308958FEF9FEF0895E091AB
:10152000250380912403E81730F4F0E0EA5DFC4FD6
:10153000808190E008958FEF9FEF08950895CF92F6
:10154000DF92EF92FF920F931F93CF93DF937C0173
:10155000CB018A0120910003222389F0EB016B016A
:10156000C40ED51ECC15DD0569F06991D701ED914A
:10157000FC910190F081E02DC7010995F3CF642F14
:101580000E945C0EC801DF91CF911F910F91FF90D7
:10159000EF90DF90CF900895CF93DF931F92CDB758
:1015A000DEB76983209100032223D1F0209101034B
:1015B000203240F021E030E0FC013383228380E0E0
:1015C00090E015C080910203E82FF0E0ED5FFC4F42
:1015D000998190838F5F809302038093010305C0FC
:1015E00061E0CE0101960E945C0E81E090E00F90D8
:1015F000DF91CF910895FC011382128248EE53E0EF
:1016000060E070E044835583668377838DE691E0E4
:1016100091838083089510922503109224031092E1
:101620000203109201030C94A70D862F413208F09B
:1016300040E266E273E00E94C50D1092250380939C
:101640002403089521E00C94150B81E0809300039E
:1016500060932303109202031092010308950F93E5
:10166000062F21E04091010363E073E080912303A2
:101670000E94090E109202031092010310920003BF
:101680000F91089561E00C942F0B84EF92E00C947D
:10169000FB0A28E6FC01208308950F93062F22E021
:1016A00044E06CE1FC0180810E94610D0F9108957E
:1016B0000F931F93CF93DF93EC01009100011091E2
:1016C00001019C012F5F3F4F42E06BE388810E9444
:1016D0006D0C898190E0982F88272A81822BDF91D9
:1016E000CF911F910F9108950F931F93CF93DF9385
:1016F000EC0100910001109101019C012F5F3F4F0F
:1017000042E06DE388810E946D0C898190E0982F02
:1017100088272A81822BDF91CF911F910F91089505
:101720000F931F93CF93DF93EC0100910001109171
:1017300001019C012F5F3F4F42E06FE388810E94CF
:101740006D0C898190E0982F88272A81822BDF9168
:10175000CF911F910F9108950F931F93CF93DF9314
:10176000EC0100910001109101019C012F5F3F4F9E
:1017700042E063E488810E946D0C898190E0982F9B
:1017800088272A81822BDF91CF911F910F91089595
:101790000F931F93CF93DF93EC0100910001109101
:1017A00001019C012F5F3F4F42E065E488810E9468
:1017B0006D0C898190E0982F88272A81822BDF91F8
:1017C000CF911F910F9108950F931F93CF93DF93A4
:1017D000EC0100910001109101019C012F5F3F4F2E
:1017E00042E067E488810E946D0C898190E0982F27
:1017F00088272A81822BDF91CF911F910F91089525
:10180000EF92FF920F931F93CF93DF93EC01E09041
:101810000001F09001018C010F5F1F4F26E046E0B0
:1018200065E788810E94240D8981DF91CF911F9106
:101830000F91FF90EF9008950E94000C91E0843387
:1018400009F090E0892F0895EF92FF920F931F9374
:10185000CF93DF9300D0CDB7DEB7062F142F682FBC
:1018600084EF92E029833A830E94250B602F84EF56
:1018700092E00E94CC0A2981022FE22E3A81F32EB7
:101880008E2D801B811740F4F70161917F0184EF59
:1018900092E00E94CC0AF4CF84EF92E00E94420BC7
:1018A00091E0811190E0892F0F900F90DF91CF91FF
:1018B0001F910F91FF90EF900895CF93DF931F92A8
:1018C000CDB7DEB749839E012F5F3F4F41E00E94B5
:1018D000240C0F90DF91CF9108953F924F925F9229
:1018E0006F927F928F929F92AF92BF92CF92DF9230
:1018F000EF92FF920F931F93CF93DF9300D000D00E
:1019000000D0CDB7DEB7682E562E742E3A832983C9
:101910000E9407066B017C01312C412C872D90E041
:101920009C838B834801A12CB12C3714B0F5662D14
:1019300084EF92E00E94250B652D84EF92E00E94D7
:10194000CC0A84EF92E00E94420B662D84EF92E075
:101950000E94250B4B815C8143195109413251058D
:1019600014F040E250E0662D84EF92E00E94220BDA
:1019700084EF92E00E94740A892B59F10115110538
:1019800079F10E9407066C197D098E099F09681577
:1019900079058A059B0520F11CC00115110589F107
:1019A0000E9407066C197D098E099F0920E030E02E
:1019B000601771078207930720F1872D90E0242D8F
:1019C000332727FD309528173907DCF444244A943F
:1019D00018C0872D90E2971508F480E2380EA5CF45
:1019E000E981FA81E40DF11D47FCFA95FE83ED8350
:1019F00084EF92E00E947C0AED81FE818083439413
:101A0000B7CF842D26960FB6F894DEBF0FBECDBF9C
:101A1000DF91CF911F910F91FF90EF90DF90CF90CA
:101A2000BF90AF909F908F907F906F905F904F90FE
:101A30003F9008950F931F9389019A0141E00E94FE
:101A40006D0C1F910F910895CF92DF92EF92FF924C
:101A50000F931F93CF93DF931F92CDB7DEB7C42EA2
:101A6000D22E9701AE014F5F5F4F0E941A0D88235F
:101A7000F1F04C2D50E04D1951094F5F5F4F61E07F
:101A800070E002C0660F771FDA94E2F761507109C7
:101A9000042E01C0660F0A94EAF72981262330E05C
:101AA00002C0359527954A95E2F7F80120830F90FB
:101AB000DF91CF911F910F91FF90EF90DF90CF902A
:101AC0000895DF92EF92FF920F931F93CF93DF93CE
:101AD0001F92CDB7DEB7F82EE62ED42E122F20910E
:101AE000000130910101AE014F5F5F4F0E941A0D5E
:101AF000882319F14D2D50E0411B51094F5F5F4F75
:101B0000E1E0F0E002C0EE0FFF1F1A95E2F7319717
:101B1000042E01C0EE0F0A94EAF701C0000F4A95A7
:101B2000EAF74E2F409589814823E0234E2B4983C5
:101B30006E2D8F2D0E945D0C01C080E00F90DF9113
:101B4000CF911F910F91FF90EF90DF900895109229
:101B5000B30381E08093B1031092B00361E082E1AE
:101B60000E94DB0F61E083E10E94DB0FE9EBF0E014
:101B700080818E7F808380818D7F808388E48093C5
:101B8000B80085E48093BC000895413208F03FC05E
:101B90009091B3039111FCCF91E09093B303209304
:101BA000B1032FEF2093460310928B03240F209351
:101BB0008A039093B2039091B203880F892B80938C
:101BC000B2038091B003813041F41092B003809150
:101BD000B2038093BB0085EC01C085EE8093BC000E
:101BE0008091B3038130E1F380918B03841710F46B
:101BF00040918B032CE833E0FB01D9018A2F821B33
:101C0000841718F48D918193F9CF842F089580E083
:101C100008950F93413208F046C09091B30391119B
:101C2000FCCF92E09093B3030093B1039FEF9093A6
:101C3000460310928B0340938A03FB016CE873E028
:101C4000DB019A2F961B941718F491919D93F9CF6D
:101C50001092B2039091B203880F892B8093B20344
:101C60008091B003813041F41092B0038091B203AF
:101C70008093BB0085EC01C085EE8093BC002223DD
:101C800021F08091B3038230E1F3809146038F3FCE
:101C900061F080914603803251F080914603803399
:101CA00041F483E007C081E005C080E003C082E02A
:101CB00001C084E00F910895613298F42091B3033C
:101CC000243089F460936803FC018AE693E0DC0128
:101CD0002A2F281B261718F421912D93F9CF80E085
:101CE000089581E0089582E0089585ED8093BC0019
:101CF0008091BC0084FDFCCF1092B303089585EC65
:101D00008093BC001092B30308951F920F920FB6F8
:101D10000F9211242F933F934F935F936F937F9371
:101D20008F939F93AF93BF93EF93FF938091B900ED
:101D3000887F803609F49CC068F5883209F45BC05E
:101D400090F4803109F454C038F4882309F4F5C0C4
:101D5000883009F44DC0F5C0883109F44CC0803298
:101D600009F45DC0EEC0803409F468C048F48033E3
:101D700009F455C0883309F0E4C080934603A8C035
:101D8000803509F44FC0883509F45DC0883409F006
:101D9000D8C0D5C0883909F4C6C0A8F4883709F47A
:101DA00067C038F4883609F463C0803709F460C02E
:101DB000C8C0883809F4B7C0803909F45FC08038DA
:101DC00009F0BFC05BC0803B09F485C038F4803A9D
:101DD00009F466C0883A09F47EC0B3C0803C09F4B7
:101DE000A6C0883C09F4A3C0883B09F489C0A9C0F7
:101DF0008091B20310C090918B0380918A03981751
:101E000070F5E0918B0381E08E0F80938B03F0E0FF
:101E1000E457FC4F80818093BB0085EC85C08093A4
:101E200046038DC0E0918B0381E08E0F80938B037E
:101E30008091BB00F0E0E457FC4F808390918B03CE
:101E400080918A036DC0E0918B0381E08E0F8093B7
:101E50008B038091BB00F0E0E457FC4F80838091BE
:101E6000B10381116CC081E08093B00384EA60C04B
:101E700083E08093B30310924703CFCF8091470351
:101E8000803208F050C0E091470381E08E0F8093CC
:101E900047038091BB00F0E0E85BFC4F8083BDCF3F
:101EA00080914703803230F4E0914703F0E0E85B33
:101EB000FC4F10820E94750E6091470370E0E09124
:101EC000AC03F091AD0388E493E0099510924703C9
:101ED0000E947F0E36C084E08093B30310926903A2
:101EE00010926803E091AE03F091AF0309958091E1
:101EF0006803811105C081E08093680310926A0332
:101F0000E091690381E08E0F80936903F0E0E65968
:101F1000FC4F80818093BB0090916903809168039E
:101F2000981708F47ACF85E88093BC000AC085EC46
:101F30008093BC001092B30304C0109246030E9429
:101F4000750EFF91EF91BF91AF919F918F917F910E
:101F50006F915F914F913F912F910F900FBE0F9016
:101F60001F901895833081F028F4813099F08230E9
:101F7000A1F008958630A9F08730B9F08430D1F40B
:101F8000809180008F7D03C0809180008F77809347
:101F90008000089584B58F7702C084B58F7D84BD9D
:101FA00008958091B0008F7703C08091B0008F7D3D
:101FB0008093B00008950F931F93CF93DF931F92E8
:101FC000CDB7DEB7282F30E0F901EA56FF4F8491F4
:101FD000F901E655FF4F1491F901E254FF4F0491C6
:101FE0000023C9F0882321F069830E94B20F698120
:101FF000E02FF0E0EE0FFF1FEE52FF4FA591B491DE
:102000009FB7F8948C91611103C01095812301C092
:10201000812B8C939FBF0F90DF91CF911F910F91D8
:102020000895F8940C94EC125058BB27AA270ED0B0
:10203000FCC1EDD130F0F2D120F031F49F3F11F42A
:102040001EF4BDC10EF4E095E7FBB3C1E92FFED14C
:1020500080F3BA17620773078407950718F071F4C5
:102060009EF516C20EF4E0950B2EBA2FA02D0B0193
:10207000B90190010C01CA01A0011124FF27591BCD
:1020800099F0593F50F4503E68F11A16F040A22FD3
:10209000232F342F4427585FF3CF46953795279544
:1020A000A795F0405395C9F77EF41F16BA0B620B43
:1020B000730B840BBAF09150A1F0FF0FBB1F661F8A
:1020C000771F881FC2F70EC0BA0F621F731F841FCD
:1020D00048F4879577956795B795F7959E3F08F0F3
:1020E000B3CF9395880F08F09927EE0F97958795B2
:1020F00008958DD158F080E891E009F49EEF8ED1DB
:1021000028F040E851E059F45EEF09C058C1C0C161
:10211000E92FE0789BD168F3092E052AC1F3261731
:1021200037074807590738F00E2E07F8E02569F001
:10213000E025E0640AC0EF6307F8009407FADB01CA
:10214000B9019D01DC01CA01AD01EF9347D06DD10A
:102150000AD05F91552331F02BED3FE049E450FD6B
:1021600049EC63CF0895DF93DD27B92FBF7740E8AF
:102170005FE31616170648075B0710F4D92F93D1B3
:102180009F938F937F936F93F8D1E8E6F0E01AD195
:102190004CD12F913F914F915F9198D1DD2349F020
:1021A0009058A2EA2AED3FE049EC5FE3D0785D2742
:1021B0004DDFDF913AC1D9D008F481E008950CD009
:1021C00034C12CD140F023D130F021F45F3F19F01D
:1021D000F0C051115EC1F3C039D198F39923C9F30E
:1021E0005523B1F3951B550BBB27AA27621773071D
:1021F000840738F09F5F5F4F220F331F441FAA1FD1
:10220000A9F333D00E2E3AF0E0E830D09150504090
:10221000E695001CCAF729D0FE2F27D0660F771F3E
:10222000881FBB1F261737074807AB07B0E809F020
:10223000BB0B802DBF01FF2793585F4F2AF09E3FB5
:10224000510568F0B6C025C15F3FECF3983EDCF362
:10225000869577956795B795F7959F5FC9F7880F2E
:10226000911D9695879597F90895E1E0660F771F80
:10227000881FBB1F621773078407BA0720F0621B11
:10228000730B840BBA0BEE1F88F7E095089504D00A
:102290006894B111FEC00895E1D088F09F5790F086
:1022A000B92F9927B751A0F0D1F0660F771F881F7B
:1022B000991F1AF0BA95C9F712C0B13081F0E8D071
:1022C000B1E00895E5C0672F782F8827B85F39F00F
:1022D000B93FCCF3869577956795B395D9F73EF4DA
:1022E00090958095709561957F4F8F4F9F4F089582
:1022F000E89409C097FB3EF49095809570956195A0
:102300007F4F8F4F9F4F9923A9F0F92F96E9BB2755
:102310009395F695879577956795B795F111F8CFD1
:10232000FAF4BB0F11F460FF1BC06F5F7F4F8F4F3C
:102330009F4F16C0882311F096E911C0772321F032
:102340009EE8872F762F05C0662371F096E8862FCA
:1023500070E060E02AF09A95660F771F881FDAF721
:10236000880F9695879597F90895990F0008550F4E
:10237000AA0BE0E8FEEF16161706E807F907C0F00B
:1023800012161306E407F50798F0621B730B840B13
:10239000950B39F40A2661F0232B242B252B21F4ED
:1023A00008950A2609F4A140A6958FEF811D811D8D
:1023B000089597F99F6780E870E060E008959FEFC7
:1023C00080EC0895DF93CF931F930F93FF92EF92CA
:1023D000DF927B018C01689405C0DA2EEF0176D084
:1023E000FE01E894A5912591359145915591AEF363
:1023F000EF012CDEFE019701A801DA9479F7DF9056
:10240000EF90FF900F911F91CF91DF9108950024DD
:102410000A941616170618060906089500240A9449
:1024200012161306140605060895092E0394000CCF
:1024300011F4882352F0BB0F40F4BF2B11F460FF5E
:1024400004C06F5F7F4F8F4F9F4F089557FD905887
:10245000440F551F59F05F3F71F04795880F97FB68
:10246000991F61F09F3F79F0879508951216130622
:102470001406551FF2CF4695F1DF08C01616170651
:102480001806991FF1CF8695710561050894089586
:10249000E894BB2766277727CB0197F9089565DF76
:1024A00008F48FEF08959B01AC0160E070E080E8D4
:1024B0009FE385CE0BD0B9CFAADF28F0AFDF18F0AD
:1024C000952309F076CF7BCF1124E3CFBFDFA0F3B4
:1024D000959FD1F3950F50E0551F629FF001729FB9
:1024E000BB27F00DB11D639FAA27F00DB11DAA1FD8
:1024F000649F6627B00DA11D661F829F2227B00D25
:10250000A11D621F739FB00DA11D621F839FA00DAF
:10251000611D221F749F3327A00D611D231F849FFF
:10252000600D211D822F762F6A2F11249F57504056
:102530008AF0E1F088234AF0EE0FFF1FBB1F661FF1
:10254000771F881F91505040A9F79E3F510570F0AA
:1025500030CF9FCF5F3FECF3983EDCF386957795C5
:102560006795B795F795E7959F5FC1F7FE2B880FA5
:10257000911D9695879597F908959B01AC019ACF87
:10258000F4DE880B990B0895A1E21A2EAA1BBB1B3F
:10259000FD010DC0AA1FBB1FEE1FFF1FA217B3072F
:1025A000E407F50720F0A21BB30BE40BF50B661F45
:1025B000771F881F991F1A9469F760957095809509
:1025C00090959B01AC01BD01CF010895EE0FFF1F57
:0C25D0000590F491E02D0994F894FFCFE1
:1025DC00E803636F6E6E656374696F6E2065737468
:1025EC0061626C697368656400636F6E6E656374B9
:1025FC00696F6E206661696C656400232074657375
:10260C0074696E6720494D5520636F6D6D756E69E9
:10261C00636174696F6E2E2E2E20006E616E0069E0
:10262C006E66006F7666002E0000000000E10871F7
:10263C00068D08B6089D08D60800000000CC0A9F3D
:0A264C000A740A7C0A8F0A9E0A0035
:00000001FF
