:100000000C945A000C9482000C9482000C94820090
:100010000C9482000C9482000C9482000C94820058
:100020000C9482000C9482000C9482000C94820048
:100030000C9482000C9482000C9482000C94820038
:100040000C948B040C9482000C9413080C945608A6
:100050000C9482000C9482000C9482000C94820018
:100060000C94DD0D0C9482000000000700020100DA
:100070000003040600000000000000000102040864
:100080001020408001020408102001020408102002
:10009000040404040404040402020202020203032E
:1000A0000303030300000000250028002B00520476
:1000B0001209390A11241FBECFEFD8E0DEBFCDBF31
:1000C00012E0A0E0B1E0EAE6F3E202C005900D9292
:1000D000A234B107D9F724E0A2E4B2E001C01D9236
:1000E000A433B207E1F710E0C4EBD0E004C02297DC
:1000F000FE010E94AF11CE3AD107C9F70E947407E2
:100100000C94690F0C94000062E071E08AEC92E0BC
:100110000E94C00561E371E08AEC92E00E94C00594
:1001200062E071E08AEC92E00E94C00567E072E054
:100130008AEC92E00E94C00560E671E08AEC92E0F1
:100140000C94C005CF93DF93FC01EB01DA01108220
:1001500011821282138214821582168217821086EF
:100160001186128613861486158616861786108ABF
:10017000118A128A138A148A158A168A178A108E8F
:10018000118E128E138E188219821A821B821C8283
:100190001D821E821F82188619861A861B861C865F
:1001A0001D861E861F86188A198A1A8A1B8A1C8A2F
:1001B0001D8A1E8A1F8A1D921D921D921C921397E2
:1001C00014961D921D921D921C92179718961D92BF
:1001D0001D921D921C921B971C961D921D921D92A2
:1001E0001C921F9750961D921D921D921C92539720
:1001F00054961D921D921D921C92579758961D92CF
:100200001D921D921C925B97DF91CF910895AF9242
:10021000BF92CF92DF92EF92FF920F931F93CF93F3
:10022000DF93EC018B0188EEA82E83E0B82EC80185
:100230000E94570ABC01882777FD8095982F0E945D
:1002400070109B01AC01688179818A819B810E9439
:100250006D0F688379838A839B83C8010E94730A28
:10026000BC01882777FD8095982F0E9470109B0114
:10027000AC016C817D818E819F810E946D0F6C83AA
:100280007D838E839F83C8010E948F0ABC018827CB
:1002900077FD8095982F0E9470109B01AC016885B6
:1002A00079858A859B850E946D0F688779878A8703
:1002B0009B87C8010E94AB0ABC01882777FD809507
:1002C000982F0E9470109B01AC016C857D858E85F6
:1002D0009F850E946D0F6C877D878E879F87C801E1
:1002E0000E94C70ABC01882777FD8095982F0E943D
:1002F00070109B01AC01688979898A899B890E9469
:100300006D0F688B798B8A8B9B8BC8010E94E30AE7
:10031000BC01882777FD8095982F0E9470102C894A
:100320003D894E895F890E946D0F6B017C016C8B4A
:100330007D8B8E8B9F8B81E0A81AB108A114B1042C
:1003400009F075CF20E030E04AE754E46881798114
:100350008A819B810E94D50F688379838A839B83DE
:1003600020E030E04AE754E46C817D818E819F81FA
:100370000E94D50F6C837D838E839F8320E030E0C5
:100380004AE754E4688579858A859B850E94D50F64
:10039000688779878A879B8720E030E04AE754E4C2
:1003A0006C857D858E859F850E94D50F6C877D87A6
:1003B0008E879F8720E030E04AE754E46889798996
:1003C0008A899B890E94D50F688B798B8A8B9B8B3E
:1003D00020E030E04AE754E4C701B6010E94D50F9F
:1003E0006C8B7D8B8E8B9F8B66E771E08AEC92E045
:1003F0000E94A3054C855D856E857F8522E030E0F7
:100400008AEC92E00E94600766E072E08AEC92E07B
:100410000E94A305488959896A897B8922E030E0D6
:100420008AEC92E00E94600766E072E08AEC92E05B
:100430000E94A3054C895D896E897F8922E030E0A6
:100440008AEC92E00E9462076BE871E08AEC92E02D
:100450000E94A305488159816A817B8122E030E0B6
:100460008AEC92E00E94600766E072E08AEC92E01B
:100470000E94A3054C815D816E817F8122E030E086
:100480008AEC92E00E94600766E072E08AEC92E0FB
:100490000E94A305488559856A857B8522E030E066
:1004A0008AEC92E00E94620764EA71E08AEC92E0D2
:1004B000DF91CF911F910F91FF90EF90DF90CF9040
:1004C000BF90AF900C94C0052F923F924F925F92D5
:1004D0006F927F928F929F92AF92BF92CF92DF9254
:1004E000EF92FF920F931F93CF93DF9300D000D032
:1004F000CDB7DEB78C011B01DB011C964D905D90E2
:100500006D907C901F97FB014082518262827382C2
:1005100080889188A288B38814968D929D92AD921E
:10052000BC92179754968D919D910D90BC91A02DE2
:1005300089839A83AB83BC8380879187A287B387A3
:10054000D8015896CD90DD90ED90FC905B971C966D
:100550002D913D914D915C911F97C701B6010E946D
:100560002411A30192010E946D0FF1016487758728
:1005700086879787D80150962D913D914D915C913A
:100580005397C701B6010E942411A50194010E944E
:100590006D0FF101608B718B828B938BD801549618
:1005A0002D913D914D915C915797C701B6010E94E5
:1005B000241129813A814B815C810E946D0FF101E8
:1005C000648B758B868B978B0F900F900F900F908D
:1005D000DF91CF911F910F91FF90EF90DF90CF901F
:1005E000BF90AF909F908F907F906F905F904F9053
:1005F0003F902F900895CF92DF92EF92FF920F934A
:100600001F93CF93DF93EC017B018A016901C9013C
:100610000E94AB0ABC01882777FD8095982F0E9425
:100620007010F70124853585468557850E946C0F2B
:1006300020E030E043E053E40E94D50F6C877D87D3
:100640008E879F87C6010E94C70ABC01882777FD55
:100650008095982F0E947010F70120893189428976
:1006600053890E946C0F20E030E043E053E40E9485
:10067000D50F688B798B8A8B9B8BC6010E94E30A0E
:10068000BC01882777FD8095982F0E947010F70194
:1006900024893589468957890E946C0F20E030E013
:1006A00043E053E40E94D50F6C8B7D8B8E8B9F8B28
:1006B000B801CE01DF91CF911F910F91FF90EF9084
:1006C000DF90CF900C94640242E452E06EE572E059
:1006D00086E792E00E94A20040E052EC61E070E008
:1006E0008AEC92E00E94910884E793E00E94FF095F
:1006F0000E94840082EB92E00E94110B68EE71E090
:100700008AEC92E00E94A30582EB92E00E94410BEA
:10071000882319F06FEB71E002C066ED71E08AEC9E
:1007200092E00E94C00560E082EB92E00E944C0AD9
:1007300062EB72E08EE592E00E94070168E072E0F1
:100740008AEC92E00C94C005CF92DF92EF92FF9278
:10075000CF93DF93C0909602D0909702E0909802DA
:10076000F0909902CEE8D2E020919202309193026B
:100770004091940250919502C701B6010E946C0FFE
:1007800020E034E244E759E40E94D50F688379837E
:100790008A839B83C0929202D0929302E092940249
:1007A000F09295020E94E1040E946E1060939602FE
:1007B00070939702809398029093990222EB32E013
:1007C00042E452E06EE572E086E792E00E94FB02AE
:1007D000288139814A815B816091960270919702EC
:1007E00080919802909199020E946C0F20E034E26F
:1007F00044E759E40E94D50FAB01BC0122E030E090
:100800008AEC92E00E94600766E072E08AEC92E077
:100810000E94A30540914E0250914F0260915002F8
:100820007091510222E030E08AEC92E00E94600771
:1008300066E072E08AEC92E00E94A30540915202C9
:1008400050915302609154027091550222E030E0C1
:100850008AEC92E00E94600766E072E08AEC92E027
:100860000E94A30540915602509157026091580290
:100870007091590222E030E08AEC92E00E94600719
:1008800067E072E08AEC92E00E94C00564E670E0E6
:1008900080E090E0DF91CF91FF90EF90DF90CF90DC
:1008A0000C94040582EB92E00E943D0A8DEC9CECD6
:1008B000ACECBEE38093AA029093AB02A093AC028F
:1008C000B093AD021092AE021092AF021092B0023D
:1008D0001092B1028093A2029093A302A093A4026B
:1008E000B093A5021092A6021092A7021092A8023D
:1008F0001092A90280939A0290939B02A0939C026B
:10090000B0939D0210929E0210929F021092A0023C
:100910001092A10208951F920F920FB60F92112408
:100920002F933F938F939F93AF93BF938091C20276
:100930009091C302A091C402B091C5023091C1024E
:1009400023E0230F2D3720F40196A11DB11D05C012
:1009500026E8230F0296A11DB11D2093C1028093AA
:10096000C2029093C302A093C402B093C5028091C7
:10097000C6029091C702A091C802B091C902019627
:10098000A11DB11D8093C6029093C702A093C80217
:10099000B093C902BF91AF919F918F913F912F91D9
:1009A0000F900FBE0F901F9018952FB7F89460917D
:1009B000C2027091C3028091C4029091C5022FBF00
:1009C00008953FB7F8948091C6029091C702A09114
:1009D000C802B091C90226B5A89B05C02F3F19F0E7
:1009E0000196A11DB11D3FBF6627782F892F9A2F31
:1009F000620F711D811D911D42E0660F771F881FD8
:100A0000991F4A95D1F70895CF92DF92EF92FF9206
:100A1000CF93DF936B017C010E94E104EB01C114D1
:100A2000D104E104F10479F00E94E1046C1B7D0B18
:100A3000683E7340A0F381E0C81AD108E108F108CC
:100A4000C851DC4FECCFDF91CF91FF90EF90DF905A
:100A5000CF900895789484B5826084BD84B5816018
:100A600084BD85B5826085BD85B5816085BDEEE6B6
:100A7000F0E0808181608083E1E8F0E01082808195
:100A800082608083808181608083E0E8F0E0808103
:100A900081608083E1EBF0E0808184608083E0EB23
:100AA000F0E0808181608083EAE7F0E0808184600B
:100AB0008083808182608083808181608083808167
:100AC000806880831092C1000895CF92DF92EF92E8
:100AD000FF920F931F93CF93DF936C017A01EB0189
:100AE000E60EF71E00E010E0CE15DF0561F069911B
:100AF000D601ED91FC910190F081E02DC6010995A0
:100B0000080F191FF1CFC801DF91CF911F910F91ED
:100B1000FF90EF90DF90CF9008956115710581F0FF
:100B2000DB010D900020E9F7AD0141505109461B52
:100B3000570BDC01ED91FC910280F381E02D0994CB
:100B400080E090E008950C948D05DC01ED91FC911E
:100B50000190F081E02D09940F931F93CF93DF93C1
:100B6000EC016DE00E94A5058C016AE0CE010E94B7
:100B7000A505800F911FDF91CF911F910F910895CF
:100B80000F931F93CF93DF93EC010E948D058C018F
:100B9000CE010E94AC05800F911FDF91CF911F9174
:100BA0000F9108958F929F92AF92BF92CF92DF9252
:100BB000EF92FF920F931F93CF93DF93CDB7DEB7E2
:100BC000A1970FB6F894DEBF0FBECDBF7C01C42E37
:100BD000E52FCB01D22E19A221E02D1510F02AE02D
:100BE000D22E8E010F5D1F4F8D2C912CA12CB12C7C
:100BF0006C2D7E2FA50194010E948B118C2DD29E0D
:100C000080191124015011098A3014F4805D01C04B
:100C1000895CF8018083211531054105510521F0DA
:100C2000C22EE32FCA01E4CFB801C7010E948D058F
:100C3000A1960FB6F894DEBF0FBECDBFDF91CF9166
:100C40001F910F91FF90EF90DF90CF90BF90AF90EA
:100C50009F908F900895CF92DF92EF92FF920F9323
:100C60001F93CF93DF93EC016A017B0121153105BE
:100C700079F4E881F9810190F081E02D642FDF9112
:100C8000CF911F910F91FF90EF90DF90CF9009943B
:100C90002A303105E9F477FF1AC06DE20E94A505FC
:100CA0008C0144275527BA014C195D096E097F094B
:100CB0002AE0CE010E94D205800F911FDF91CF91D3
:100CC0001F910F91FF90EF90DF90CF9008952AE051
:100CD000B701A601CE01DF91CF911F910F91FF9037
:100CE000EF90DF90CF900C94D2054F925F926F926D
:100CF0007F928F929F92AF92BF92CF92DF92EF92AC
:100D0000FF920F931F93CF93DF93EC016A017B0156
:100D1000B22E9A01AB01C701B6010E948711882348
:100D200019F064E172E027C026013701E89477F8F2
:100D30002FEF3FEF4FE75FE7C301B2010E9487113A
:100D400081110DC02FEF3FEF4FE75FE7C301B20105
:100D50000E94D10F18161CF468E172E00CC02FEF4E
:100D60003FEF4FE75FE4C701B6010E94201118165C
:100D7000ACF46CE172E0CE01DF91CF911F910F9145
:100D8000FF90EF90DF90CF90BF90AF909F908F90AB
:100D90007F906F905F904F900C948D052FEF3FEFF9
:100DA0004FE75FECC701B6010E94D10F87FDE1CF8D
:100DB00020E030E0A901C701B6010E94D10F87FFF2
:100DC0000AC06DE2CE010E94A5058C01F7FAF094ED
:100DD000F7F8F09402C000E010E0A12C60E070E0B1
:100DE00080E09FE3AB1441F020E030E040E251E4CA
:100DF0000E94D50FA394F6CF9B01AC01C701B601A9
:100E00000E946D0F6B017C010E9442102B013C017E
:100E10000E946E109B01AC01C701B6010E946C0FCD
:100E20006B017C012AE0B301A201CE010E94D20530
:100E3000080F191FBB2039F060E272E0CE010E945A
:100E40008D05080F191F7B2C772041F120E030E041
:100E500040E251E4C701B6010E9424116B017C01FC
:100E60000E943D104B01AA2497FCA094BA2C2AE0C2
:100E700030E0B501A401CE010E942B06080F191F16
:100E8000C501B4010E9470109B01AC01C701B601FD
:100E90000E946C0F6B017C017A94D6CFC801DF9160
:100EA000CF911F910F91FF90EF90DF90CF90BF9067
:100EB000AF909F908F907F906F905F904F9008952C
:100EC0000C9475060F931F93CF93DF93EC010E9450
:100ED00075068C01CE010E94AC05800F911FDF9139
:100EE000CF911F910F9108950E942A050E946403DB
:100EF000CDE4D8E00E94A4032097E1F30E944D08BE
:100F0000F9CFFC0124853585F901E05CFF4F808134
:100F10009181329620813181821B930B8F739927A7
:100F20000895FC0184859585FC01E05CFF4F4081BC
:100F300051813296208131814217530741F001904F
:100F4000F081E02DE80FF91F808190E008958FEF88
:100F50009FEF0895FC0184859585FC01E05CFF4FBF
:100F6000408151813296208131814217530779F0B7
:100F7000A081B181A80FB91F8C91208131812F5F91
:100F80003F4F2F7333273183208390E008958FEFF5
:100F90009FEF0895FC0181A1882329F0A489B589D8
:100FA0008C9186FFFBCF11A20895CF93DF93FC01B4
:100FB00026853785D901A05CBF4F8D919C911197F3
:100FC00001968F739927E901CE5BDF4F48815981E4
:100FD00084179507D9F30D90BC91A02DA20FB31FD4
:100FE0006C93A685B785A05CBF4F11969C938E939A
:100FF000A689B7892C9181E090E0078C02C0880F08
:10100000991F0A94E2F7282B2C9381E081A304888E
:10101000F589E02D80818064808381E090E0DF911C
:10102000CF91089508951F920F920FB60F92112439
:101030002F933F934F938F939F93EF93FF938091C1
:10104000C00082FD1CC04091C60080917003909149
:10105000710301968F739927209172033091730366
:101060008217930771F0E0917003F0917103E05DD6
:10107000FC4F4083909371038093700302C0809172
:10108000C600FF91EF919F918F914F913F912F91CA
:101090000F900FBE0F901F9018958AEC92E00E945F
:1010A0008107892B11F00C94120808951F920F925A
:1010B0000FB60F9211242F933F938F939F93EF932B
:1010C000FF9320912C0330912D0380912E0390915A
:1010D0002F032817390731F48091C1008F7D809349
:1010E000C10014C0E0912E03F0912F03E451FD4F95
:1010F000208180912E0390912F0301968F73992761
:1011000090932F0380932E032093C600FF91EF91BD
:101110009F918F913F912F910F900FBE0F901F9035
:101120001895CF92DF92EF92FF92CF93DF93EC016D
:101130006A017B01411581EE580761057105F9F0DF
:10114000EC89FD8981E090E008A002C0880F991F1A
:101150000A94E2F7808360E079E08DE390E0A701F4
:1011600096010E948B112150310941095109569570
:10117000479537952795211580E1380798F0EC8938
:10118000FD89108260E874E88EE190E0A701960185
:101190000E948B11215031094109510956954795FB
:1011A00037952795E889F9893083EA89FB89208377
:1011B00019A2EE89FF89408181E090E09C010C8CAE
:1011C00002C0220F331F0A94E2F7422B4083EE89BC
:1011D000FF8940819C010D8C02C0220F331F0A94AD
:1011E000E2F7422B4083EE89FF8940819C010E8CFF
:1011F00002C0220F331F0A94E2F7422B4083EE898C
:10120000FF8920810F8C02C0880F991F0A94E2F792
:10121000809582238083DF91CF91FF90EF90DF90C4
:10122000CF9008951092CD021092CC0288EE93E0F8
:10123000A0E0B0E08093CE029093CF02A093D002C2
:10124000B093D10286E292E09093CB028093CA02DF
:1012500080E393E09093D7028093D6028CEE92E0E5
:101260009093D9028093D80285EC90E09093DB02B2
:101270008093DA0284EC90E09093DD028093DC02AC
:1012800080EC90E09093DF028093DE0281EC90E0AE
:101290009093E1028093E00282EC90E09093E3026D
:1012A0008093E20286EC90E09093E5028093E40262
:1012B00084E08093E60283E08093E70287E08093F6
:1012C000E80285E08093E90281E08093EA020895D4
:1012D0008091A40390E02091A503821B91090895B9
:1012E0002091A5038091A403281750F4E22FF0E089
:1012F000EA55FC4F808190E02F5F2093A50308956D
:101300008FEF9FEF0895E091A5038091A403E81764
:1013100030F4F0E0EA55FC4F808190E008958FEFC3
:101320009FEF08950895CF92DF92EF92FF920F936F
:101330001F93CF93DF937C01CB018A01209180031F
:10134000222389F0EB016B01C40ED51ECC15DD05FF
:1013500069F06991D701ED91FC910190F081E02D48
:10136000C7010995F3CF642F0E94B40DC801DF9126
:10137000CF911F910F91FF90EF90DF90CF90089544
:10138000CF93DF931F92CDB7DEB76983209180039F
:101390002223D1F020918103203240F021E030E07F
:1013A000FC013383228380E090E015C080918203AA
:1013B000E82FF0E0ED57FC4F998190838F5F809389
:1013C00082038093810305C061E0CE0101960E94F3
:1013D000B40D81E090E00F90DF91CF910895FC0172
:1013E0001382128248EE53E060E070E0448355833C
:1013F0006683778386E392E09183808308951092D9
:10140000A5031092A40310928203109281030C94FE
:10141000FF0C862F413208F040E266EA73E00E943A
:101420001D0D1092A5038093A403089521E00C9450
:10143000090A81E0809380036093A30310928203E2
:101440001092810308950F93062F21E040918103AC
:1014500063E873E08091A3030E94610D1092820300
:1014600010928103109280030F91089561E00C9413
:10147000230A84E793E00C94EF0928E6FC0120831B
:1014800008950F93062F22E044E06BE1FC01808178
:101490000E94B90C0F9108950F93062F22E044E0AB
:1014A0006CE1FC0180810E94B90C0F9108950F93AB
:1014B0001F93CF93DF93EC01009100011091010184
:1014C0009C012F5F3F4F42E06BE388810E94920BAB
:1014D000898190E0982F88272A81822BDF91CF91F4
:1014E0001F910F9108950F931F93CF93DF93EC01FA
:1014F00000910001109101019C012F5F3F4F42E0DC
:101500006DE388810E94920B898190E0982F882753
:101510002A81822BDF91CF911F910F9108950F9314
:101520001F93CF93DF93EC01009100011091010113
:101530009C012F5F3F4F42E06FE388810E94920B36
:10154000898190E0982F88272A81822BDF91CF9183
:101550001F910F9108950F931F93CF93DF93EC0189
:1015600000910001109101019C012F5F3F4F42E06B
:1015700063E488810E94920B898190E0982F8827EC
:101580002A81822BDF91CF911F910F9108950F93A4
:101590001F93CF93DF93EC010091000110910101A3
:1015A0009C012F5F3F4F42E065E488810E94920BCF
:1015B000898190E0982F88272A81822BDF91CF9113
:1015C0001F910F9108950F931F93CF93DF93EC0119
:1015D00000910001109101019C012F5F3F4F42E0FB
:1015E00067E488810E94920B898190E0982F882778
:1015F0002A81822BDF91CF911F910F910895262F81
:1016000046E06BE6FC0180810C94860C0F93062F5C
:1016100023E042E06BE6FC0180810E94B90C0F914F
:101620000895CF93DF93EC0161E00E94060B60E028
:10163000CE010E94410A60E0CE010E944C0A60E0A7
:10164000CE01DF91CF910C94FF0AEF92FF920F939E
:101650001F93CF93DF93EC01E0900001F090010124
:101660008C010F5F1F4F26E046E065E788810E94EE
:10167000490C8981DF91CF911F910F91FF90EF90DD
:1016800008950E94250B91E0843309F090E0892FA2
:101690000895EF92FF920F931F93CF93DF9300D0A3
:1016A000CDB7DEB7062F142F682F84E793E0298388
:1016B0003A830E94190A602F84E793E00E94C009D0
:1016C0002981022FE22E3A81F32E8E2D801B811765
:1016D00040F4F70161917F0184E793E00E94C00923
:1016E000F4CF84E793E00E94360A91E0811190E004
:1016F000892F0F900F90DF91CF911F910F91FF9045
:10170000EF900895CF93DF931F92CDB7DEB7498353
:101710009E012F5F3F4F41E00E94490B0F90DF91E8
:10172000CF9108953F924F925F926F927F928F92E6
:101730009F92AF92BF92CF92DF92EF92FF920F9360
:101740001F93CF93DF9300D000D000D0CDB7DEB78A
:10175000682E562E742E3A8329830E94D5046B017D
:101760007C01312C412C872D90E09C838B83480198
:10177000A12CB12C3714B0F5662D84E793E00E94BC
:10178000190A652D84E793E00E94C00984E793E07D
:101790000E94360A662D84E793E00E94190A4B8165
:1017A0005C81431951094132510514F040E250E087
:1017B000662D84E793E00E94160A84E793E00E9476
:1017C0006809892B59F10115110579F10E94D50499
:1017D0006C197D098E099F09681579058A059B0595
:1017E00020F11CC00115110589F10E94D5046C1966
:1017F0007D098E099F0920E030E06017710782079C
:10180000930720F1872D90E0242D332727FD309575
:1018100028173907DCF444244A9418C0872D90E235
:10182000971508F480E2380EA5CFE981FA81E40D1E
:10183000F11D47FCFA95FE83ED8384E793E00E9457
:101840007009ED81FE8180834394B7CF842D269665
:101850000FB6F894DEBF0FBECDBFDF91CF911F91C1
:101860000F91FF90EF90DF90CF90BF90AF909F903F
:101870008F907F906F905F904F903F9008950F935F
:101880001F9389019A0141E00E94920B1F910F91D1
:101890000895CF92DF92EF92FF920F931F93CF9311
:1018A000DF931F92CDB7DEB7C42ED22E9701AE01C3
:1018B0004F5F5F4F0E943F0C8823F1F04C2D50E0AA
:1018C0004D1951094F5F5F4F61E070E002C0660F34
:1018D000771FDA94E2F761507109042E01C0660F98
:1018E0000A94EAF72981262330E002C0359527952E
:1018F0004A95E2F7F80120830F90DF91CF911F9175
:101900000F91FF90EF90DF90CF900895EF92FF92AC
:101910000F931F93CF93DF931F92CDB7DEB7182F8E
:10192000062FF42EE22E2091000130910101AE012C
:101930004F5F5F4F0E943F0C898121E030E00F2C08
:1019400001C0220F0A94EAF7EE2019F0482F422B2B
:1019500003C0422F409548234983602F812F0E9466
:10196000820B0F90DF91CF911F910F91FF90EF901D
:101970000895DF92EF92FF920F931F93CF93DF931F
:101980001F92CDB7DEB7F82EE62ED42E122F20915F
:10199000000130910101AE014F5F5F4F0E943F0C8B
:1019A000882319F14D2D50E0411B51094F5F5F4FC6
:1019B000E1E0F0E002C0EE0FFF1F1A95E2F7319769
:1019C000042E01C0EE0F0A94EAF701C0000F4A95F9
:1019D000EAF74E2F409589814823E0234E2B498317
:1019E0006E2D8F2D0E94820B01C080E00F90DF9141
:1019F000CF911F910F91FF90EF90DF90089510927B
:101A0000330481E0809331041092300461E082E17C
:101A10000E94330F61E083E10E94330FE9EBF0E0B5
:101A200080818E7F808380818D7F808388E4809316
:101A3000B80085E48093BC000895413208F03FC0AF
:101A4000909133049111FCCF91E090933304209353
:101A500031042FEF2093C60310920B04240F209320
:101A60000A049093320490913204880F892B80935A
:101A7000320480913004813041F41092300480911E
:101A800032048093BB0085EC01C085EE8093BC00DE
:101A9000809133048130E1F380910B04841710F4BA
:101AA00040910B042CE034E0FB01D9018A2F821B0A
:101AB000841718F48D918193F9CF842F089580E0D5
:101AC00008950F93413208F046C09091330491116C
:101AD000FCCF92E090933304009331049FEF9093F6
:101AE000C60310920B0440930A04FB016CE074E0FF
:101AF000DB019A2F961B941718F491919D93F9CFBF
:101B00001092320490913204880F892B8093320412
:101B100080913004813041F410923004809132047D
:101B20008093BB0085EC01C085EE8093BC0022232E
:101B300021F0809133048230E1F38091C6038F3F1E
:101B400061F08091C603803251F08091C6038033EA
:101B500041F483E007C081E005C080E003C082E07B
:101B600001C084E00F910895613298F4209133040C
:101B7000243089F46093E803FC018AEE93E0DC01F1
:101B80002A2F281B261718F421912D93F9CF80E0D6
:101B9000089581E0089582E0089585ED8093BC006A
:101BA0008091BC0084FDFCCF10923304089585EC35
:101BB0008093BC001092330408951F920F920FB6C9
:101BC0000F9211242F933F934F935F936F937F93C3
:101BD0008F939F93AF93BF93EF93FF938091B9003F
:101BE000887F803609F49CC068F5883209F45BC0B0
:101BF00090F4803109F454C038F4882309F4F5C016
:101C0000883009F44DC0F5C0883109F44CC08032E9
:101C100009F45DC0EEC0803409F468C048F4803334
:101C200009F455C0883309F0E4C08093C603A8C006
:101C3000803509F44FC0883509F45DC0883409F057
:101C4000D8C0D5C0883909F4C6C0A8F4883709F4CB
:101C500067C038F4883609F463C0803709F460C07F
:101C6000C8C0883809F4B7C0803909F45FC080382B
:101C700009F0BFC05BC0803B09F485C038F4803AEE
:101C800009F466C0883A09F47EC0B3C0803C09F408
:101C9000A6C0883C09F4A3C0883B09F489C0A9C048
:101CA0008091320410C090910B0480910A0498171F
:101CB00070F5E0910B0481E08E0F80930B04F0E04F
:101CC000E45FFB4F80818093BB0085EC85C08093EF
:101CD000C6038DC0E0910B0481E08E0F80930B044E
:101CE0008091BB00F0E0E45FFB4F808390910B0498
:101CF00080910A046DC0E0910B0481E08E0F809307
:101D00000B048091BB00F0E0E45FFB4F8083809187
:101D1000310481116CC081E08093300484EA60C09A
:101D200083E0809333041092C703CFCF8091C70321
:101D3000803208F050C0E091C70381E08E0F80939D
:101D4000C7038091BB00F0E0E853FC4F8083BDCF18
:101D50008091C703803230F4E091C703F0E0E8538C
:101D6000FC4F10820E94CD0D6091C70370E0E0919E
:101D70002C04F0912D0488EC93E009951092C70390
:101D80000E94D70D36C084E0809333041092E9039B
:101D90001092E803E0912E04F0912F0409958091B0
:101DA000E803811105C081E08093E8031092EA0303
:101DB000E091E90381E08E0F8093E903F0E0E651C2
:101DC000FC4F80818093BB009091E9038091E803F0
:101DD000981708F47ACF85E88093BC000AC085EC98
:101DE0008093BC001092330404C01092C6030E947A
:101DF000CD0DFF91EF91BF91AF919F918F917F9109
:101E00006F915F914F913F912F910F900FBE0F9067
:101E10001F901895833081F028F4813099F082303A
:101E2000A1F008958630A9F08730B9F08430D1F45C
:101E3000809180008F7D03C0809180008F77809398
:101E40008000089584B58F7702C084B58F7D84BDEE
:101E500008958091B0008F7703C08091B0008F7D8E
:101E60008093B00008950F931F93CF93DF931F9239
:101E7000CDB7DEB7282F30E0F901E859FF4F849144
:101E8000F901E458FF4F1491F901E057FF4F049115
:101E90000023C9F0882321F069830E940A0F698119
:101EA000E02FF0E0EE0FFF1FEC55FF4FA591B4912E
:101EB0009FB7F8948C91611103C01095812301C0E4
:101EC000812B8C939FBF0F90DF91CF911F910F912A
:101ED0000895F8940C94B3115058BB27AA270ED03C
:101EE00075C166D130F06BD120F031F49F3F11F411
:101EF0001EF45BC10EF4E095E7FB51C1E92F77D1E9
:101F000080F3BA17620773078407950718F071F416
:101F10009EF58FC10EF4E0950B2EBA2FA02D0B016C
:101F2000B90190010C01CA01A0011124FF27591B1E
:101F300099F0593F50F4503E68F11A16F040A22F24
:101F4000232F342F4427585FF3CF46953795279595
:101F5000A795F0405395C9F77EF41F16BA0B620B94
:101F6000730B840BBAF09150A1F0FF0FBB1F661FDB
:101F7000771F881FC2F70EC0BA0F621F731F841F1E
:101F800048F4879577956795B795F7959E3F08F044
:101F9000B3CF9395880F08F09927EE0F9795879503
:101FA0000895D9D008F481E008950CD00FC107D16D
:101FB00040F0FED030F021F45F3F19F0F0C0511135
:101FC00039C1F3C014D198F39923C9F35523B1F360
:101FD000951B550BBB27AA2762177307840738F098
:101FE0009F5F5F4F220F331F441FAA1FA9F333D0F7
:101FF0000E2E3AF0E0E830D091505040E695001CAB
:10200000CAF729D0FE2F27D0660F771F881FBB1F66
:10201000261737074807AB07B0E809F0BB0B802D40
:10202000BF01FF2793585F4F2AF09E3F510568F08C
:10203000B6C000C15F3FECF3983EDCF38695779520
:102040006795B795F7959F5FC9F7880F911D96958E
:10205000879597F90895E1E0660F771F881FBB1FEA
:10206000621773078407BA0720F0621B730B840B97
:10207000BA0BEE1F88F7E095089504D06894B1116B
:10208000D9C00895BCD088F09F5790F0B92F9927F8
:10209000B751A0F0D1F0660F771F881F991F1AF073
:1020A000BA95C9F712C0B13081F0C3D0B1E008953C
:1020B000C0C0672F782F8827B85F39F0B93FCCF3BD
:1020C000869577956795B395D9F73EF49095809569
:1020D000709561957F4F8F4F9F4F0895E89409C089
:1020E00097FB3EF490958095709561957F4F8F4F4B
:1020F0009F4F9923A9F0F92F96E9BB279395F69561
:10210000879577956795B795F111F8CFFAF4BB0FDE
:1021100011F460FF1BC06F5F7F4F8F4F9F4F16C042
:10212000882311F096E911C0772321F09EE8872FCC
:10213000762F05C0662371F096E8862F70E060E088
:102140002AF09A95660F771F881FDAF7880F969501
:10215000879597F90895990F0008550FAA0BE0E8A5
:10216000FEEF16161706E807F907C0F01216130659
:10217000E407F50798F0621B730B840B950B39F499
:102180000A2661F0232B242B252B21F408950A26FF
:1021900009F4A140A6958FEF811D811D089597F93F
:1021A0009F6780E870E060E008959FEF80EC0895FD
:1021B00000240A9416161706180609060895002426
:1021C0000A9412161306140605060895092E0394A0
:1021D000000C11F4882352F0BB0F40F4BF2B11F414
:1021E00060FF04C06F5F7F4F8F4F9F4F089557FD73
:1021F0009058440F551F59F05F3F71F04795880F75
:1022000097FB991F61F09F3F79F08795089512160B
:1022100013061406551FF2CF4695F1DF08C01616B7
:1022200017061806991FF1CF869571056105089468
:102230000895E894BB2766277727CB0197F908957F
:102240008ADF08F48FEF08950BD0C0CFB1DF28F0FC
:10225000B6DF18F0952309F0A2CFA7CF1124EACF5B
:10226000C6DFA0F3959FD1F3950F50E0551F629FF5
:10227000F001729FBB27F00DB11D639FAA27F00DDF
:10228000B11DAA1F649F6627B00DA11D661F829F06
:102290002227B00DA11D621F739FB00DA11D621FEB
:1022A000839FA00D611D221F749F3327A00D611D08
:1022B000231F849F600D211D822F762F6A2F1124EA
:1022C0009F5750408AF0E1F088234AF0EE0FFF1F3D
:1022D000BB1F661F771F881F91505040A9F79E3F74
:1022E000510570F05CCFA6CF5F3FECF3983EDCF376
:1022F000869577956795B795F795E7959F5FC1F7B1
:10230000FE2B880F911D9695879597F9089523DFE9
:10231000880B990B0895A1E21A2EAA1BBB1BFD0185
:102320000DC0AA1FBB1FEE1FFF1FA217B307E407B4
:10233000F50720F0A21BB30BE40BF50B661F771F0C
:10234000881F991F1A9469F76095709580959095EC
:102350009B01AC01BD01CF010895EE0FFF1F059059
:0A236000F491E02D0994F894FFCFEA
:10236A00E80323232323232323232323232323238E
:10237A002323232323232323232323232323232323
:10238A002323232323232323232323232323232313
:10239A0000232323205448495320495320464C55AF
:1023AA004741545A4520464C49474854434F4E5496
:1023BA00524F4C4C45522056322E302023232300B4
:1023CA00232323207374617274696E6720494E490E
:1023DA0054202323230023206F66667365747320B9
:1023EA00524F544154494F4E3A200023206F66669B
:1023FA007365747320414343454C45524154494FD8
:10240A004E3A20002320646F6E652063616C637509
:10241A006C6174696E67206F6666736574730063B6
:10242A006F6E6E656374696F6E2065737461626C3A
:10243A00697368656400636F6E6E656374696F6E55
:10244A00206661696C656400232074657374696E23
:10245A006720494D5520636F6D6D756E69636174B0
:10246A00696F6E2E2E2E20002320494E4954206477
:10247A006F6E65006E616E00696E66006F7666004B
:10248A002E0000000000D50765058107AA079107FD
:10249A00CA0700000000C009930968097009830986
:0224AA00920995
:00000001FF
