:100000000C9435000C945D000C945D000C941E0162
:100010000C945D000C945D000C945D000C945D00EC
:100020000C945D000C945D000C945D000C945D00DC
:100030000C945D000C945D000C945D000C945D00CC
:100040000C94DC010C945D000C9467040C94AA04DD
:100050000C945D000C945D000C945D000C945D00AC
:100060000C945D000C945D00660511241FBECFEF5B
:10007000D8E0DEBFCDBF11E0A0E0B1E0E2EDFBE0F3
:1000800002C005900D92A234B107D9F722E0A2E494
:10009000B1E001C01D92A131B207E1F710E0CAE65C
:1000A000D0E004C02297FE010E94E305C836D107C4
:1000B000C9F70E94C8030C94BC050C94000060E0D2
:1000C00071E087E691E00E94E802809158019091EA
:1000D0005901883C25E092071CF465E071E008C0F6
:1000E000813F95401CF069E071E002C06DE071E075
:1000F00087E691E00E94E8026091580170915901F1
:100100004AE050E087E691E00E94A80361E171E0D7
:1001100087E691E00E94E802809156019091570194
:10012000883C25E092071CF468E171E008C0813F3B
:1001300095401CF06CE171E002C06DE071E087E673
:1001400091E00E94E80260915601709157014AE0E7
:1001500050E087E691E00E94A80360E271E087E644
:1001600091E00E94E8028091540190915501883CF1
:1001700025E092071CF46CE171E008C0813F9540D6
:100180001CF068E171E002C06DE071E087E691E08B
:100190000E94E80260915401709155014AE050E0DC
:1001A00087E691E00E94A80369E271E087E691E0AA
:1001B0000E94E8028091520190915301883C25E011
:1001C00092071CF465E071E008C0813F95401CF087
:1001D00069E071E002C06DE071E087E691E00E94A5
:1001E000E80260915201709153014AE050E087E6C5
:1001F00091E00C94B003E8E6F0E0808181608083B8
:10020000EBE6F0E080818160808380818260808382
:1002100080818460808380818860808340E855E2AB
:1002200060E070E087E691E00C94E5046AEF70E02E
:1002300080E090E00E9449020C945F001F920F92B0
:100240000FB60F9211242F933F934F935F936F93A9
:100250007F938F939F93AF93BF93EF93FF9380917F
:100260005D01811103C018994EC002C08130D1F1E7
:1002700080915C01811155C0199B0DC081E0809374
:100280005C010E94260260934A0170934B018093A7
:100290004C0190934D0180915B01811156C01A9BD6
:1002A0000DC081E080935B010E94260260934601AD
:1002B00070934701809348019093490180915A01BE
:1002C000811157C01B9B67C081E080935A010E9437
:1002D00026026093420170934301809344019093FE
:1002E000450159C01899C4CF10925D010E942602A1
:1002F00020914E0130914F01621B730B7093590195
:1003000060935801B5CF81E080935D010E94260281
:1003100060934E0170934F0180935001909351016F
:10032000A7CF813009F0B7CF1999B5CF10925C01F2
:100330000E94260220914A0130914B01621B730BEF
:100340007093570160935601A6CF813009F0B6CF64
:100350001A99B4CF10925B010E94260220914601A7
:1003600030914701621B730B7093550160935401E8
:10037000A5CF813081F41B990EC010925A010E94C2
:1003800026022091420130914301621B730B70934E
:10039000530160935201FF91EF91BF91AF919F91F3
:1003A0008F917F916F915F914F913F912F910F901E
:1003B0000FBE0F901F9018951F920F920FB60F92BD
:1003C00011242F933F938F939F93AF93BF9380916B
:1003D0005F0190916001A0916101B0916201309143
:1003E0005E0123E0230F2D3720F40196A11DB11DDE
:1003F00005C026E8230F0296A11DB11D20935E01C2
:1004000080935F0190936001A0936101B0936201BA
:100410008091630190916401A0916501B0916601A2
:100420000196A11DB11D8093630190936401A09377
:100430006501B0936601BF91AF919F918F913F91FC
:100440002F910F900FBE0F901F9018953FB7F89403
:100450008091630190916401A0916501B091660162
:1004600026B5A89B05C02F3F19F00196A11DB11D0F
:100470003FBF6627782F892F9A2F620F711D811D2C
:10048000911D42E0660F771F881F991F4A95D1F78B
:100490000895CF92DF92EF92FF92CF93DF936B019B
:1004A0007C010E942602EB01C114D104E104F10495
:1004B00079F00E9426026C1B7D0B683E7340A0F30E
:1004C00081E0C81AD108E108F108C851DC4FECCF2F
:1004D000DF91CF91FF90EF90DF90CF9008957894C7
:1004E00084B5826084BD84B5816084BD85B5826039
:1004F00085BD85B5816085BDEEE6F0E080818160D7
:100500008083E1E8F0E010828081826080838081D6
:1005100081608083E0E8F0E0808181608083E1EBAE
:10052000F0E0808184608083E0EBF0E08081816096
:100530008083EAE7F0E0808184608083808182604C
:100540008083808181608083808180688083109235
:10055000C1000895CF92DF92EF92FF920F931F9305
:10056000CF93DF936C017A01EB01E60EF71E00E0FA
:1005700010E0CE15DF0561F06991D601ED91FC9197
:100580000190F081E02DC6010995080F191FF1CFE8
:10059000C801DF91CF911F910F91FF90EF90DF90F5
:1005A000CF9008956115710581F0DB010D90002059
:1005B000E9F7AD0141505109461B570BDC01ED91A4
:1005C000FC910280F381E02D099480E090E0089591
:1005D0000C94D202DC01ED91FC910190F081E02DB0
:1005E00009940F931F93CF93DF93EC016DE00E946A
:1005F000EA028C016AE0CE010E94EA02800F911F9C
:10060000DF91CF911F910F9108958F929F92AF929A
:10061000BF92CF92DF92EF92FF920F931F93CF93EF
:10062000DF93CDB7DEB7A1970FB6F894DEBF0FBE4C
:10063000CDBF7C01C42EE52FCB01D22E19A221E023
:100640002D1510F02AE0D22E8E010F5D1F4F8D2C3C
:10065000912CA12CB12C6C2D7E2FA50194010E9410
:10066000BF058C2DD29E80191124015011098A30AA
:1006700014F4805D01C0895CF80180832115310587
:100680004105510521F0C22EE32FCA01E4CFB80184
:10069000C7010E94D202A1960FB6F894DEBF0FBE2A
:1006A000CDBFDF91CF911F910F91FF90EF90DF9021
:1006B000CF90BF90AF909F908F900895CF92DF9290
:1006C000EF92FF920F931F93CF93DF93EC016A0198
:1006D0007B012115310579F4E881F9810190F081E0
:1006E000E02D642FDF91CF911F910F91FF90EF903C
:1006F000DF90CF9009942A303105E9F477FF1AC0D2
:100700006DE20E94EA028C0144275527BA014C1978
:100710005D096E097F092AE0CE010E940503800F62
:10072000911FDF91CF911F910F91FF90EF90DF907C
:10073000CF9008952AE0B701A601CE01DF91CF91B5
:100740001F910F91FF90EF90DF90CF900C940503D5
:100750009A01AB01662757FD6095762F0C945E03D6
:100760000F931F93CF93DF93EC019A01AB016627A0
:1007700057FD6095762F0E945E038C01CE010E948A
:10078000F102800F911FDF91CF911F910F9108957A
:100790000E946F020E94FB00C1EAD4E00E94160191
:1007A0002097E1F30E94A104F9CFFC01248535854F
:1007B000F901E05CFF4F8081918132962081318187
:1007C000821B930B8F7399270895FC01848595856F
:1007D000FC01E05CFF4F40815181329620813181E4
:1007E0004217530741F00190F081E02DE80FF91F07
:1007F000808190E008958FEF9FEF0895FC0184853C
:100800009585FC01E05CFF4F40815181329620814B
:1008100031814217530779F0A081B181A80FB91F28
:100820008C91208131812F5F3F4F2F73332731838C
:10083000208390E008958FEF9FEF0895FC0181A140
:10084000882329F0A489B5898C9186FFFBCF11A25A
:100850000895CF93DF93FC0126853785D901A05CED
:10086000BF4F8D919C91119701968F739927E90144
:10087000CE5BDF4F4881598184179507D9F30D90DE
:10088000BC91A02DA20FB31F6C93A685B785A05C69
:10089000BF4F11969C938E93A689B7892C9181E0C6
:1008A00090E0078C02C0880F991F0A94E2F7282B6A
:1008B0002C9381E081A30488F589E02D80818064F8
:1008C000808381E090E0DF91CF91089508951F9299
:1008D0000F920FB60F9211242F933F934F938F9344
:1008E0009F93EF93FF938091C00082FD1CC04091C5
:1008F000C60080910D0290910E0201968F73992788
:1009000020910F02309110028217930771F0E0914D
:100910000D02F0910E02E353FE4F408390930E02BE
:1009200080930D0202C08091C600FF91EF919F91CC
:100930008F914F913F912F910F900FBE0F901F906D
:10094000189587E691E00E94D503892B11F00C944D
:10095000660408951F920F920FB60F9211242F93E1
:100960003F938F939F93EF93FF932091C901309111
:10097000CA018091CB019091CC012817390731F43D
:100980008091C1008F7D8093C10014C0E091CB01A4
:10099000F091CC01E757FE4F20818091CB019091DF
:1009A000CC0101968F7399279093CC018093CB0152
:1009B0002093C600FF91EF919F918F913F912F91CE
:1009C0000F900FBE0F901F901895CF92DF92EF926D
:1009D000FF92CF93DF93EC016A017B01411581EE19
:1009E000580761057105F9F0EC89FD8981E090E017
:1009F00008A002C0880F991F0A94E2F7808360E084
:100A000079E08DE390E0A70196010E94BF05215097
:100A10003109410951095695479537952795211573
:100A200080E1380798F0EC89FD89108260E874E86D
:100A30008EE190E0A70196010E94BF052150310987
:100A4000410951095695479537952795E889F989C0
:100A50003083EA89FB89208319A2EE89FF894081CE
:100A600081E090E09C010C8C02C0220F331F0A949D
:100A7000E2F7422B4083EE89FF8940819C010D8C77
:100A800002C0220F331F0A94E2F7422B4083EE8903
:100A9000FF8940819C010E8C02C0220F331F0A94F3
:100AA000E2F7422B4083EE89FF8920810F8C02C040
:100AB000880F991F0A94E2F7809582238083DF9143
:100AC000CF91FF90EF90DF90CF90089510926A0140
:100AD0001092690188EE93E0A0E0B0E080936B0192
:100AE00090936C01A0936D01B0936E0185E391E04A
:100AF00090936801809367018DEC91E0909374016D
:100B00008093730189E891E0909376018093750159
:100B100085EC90E0909378018093770184EC90E0ED
:100B200090937A018093790180EC90E090937C011E
:100B300080937B0181EC90E090937E0180937D0116
:100B400082EC90E09093800180937F0186EC90E0AE
:100B5000909382018093810184E08093830183E0FC
:100B60008093840187E08093850185E080938601EE
:100B700081E0809387010895F8940C94E705A1E241
:100B80001A2EAA1BBB1BFD010DC0AA1FBB1FEE1F07
:100B9000FF1FA217B307E407F50720F0A21BB30B52
:100BA000E40BF50B661F771F881F991F1A9469F7CE
:100BB00060957095809590959B01AC01BD01CF012A
:100BC0000895EE0FFF1F0590F491E02D0994F8941D
:020BD000FFCF55
:100BD2005941573A003C3C3C003E3E3E002D2B2DF5
:100BE2000020204741533A005E5E5E007676760032
:100BF200202050495443483A002020524F4C4C3A4E
:100C020000000000002904AA02D503FE03E5031E2A
:020C12000400DC
:00000001FF
