:100000000C945F000C9487000C9487000C94B90149
:100010000C9487000C9487000C9487000C94870044
:100020000C9487000C9487000C9487000C94870034
:100030000C9487000C9487000C9487000C94870024
:100040000C94C40A0C9487000C943D0D0C94800D04
:100050000C9487000C9487000C9487000C94870004
:100060000C945B130C948700000000070002010051
:100070000003040600000000000000000102040864
:100080001020408001020408102001020408102002
:10009000040404040404040402020202020203032E
:1000A00003030303000000002300260029000000D2
:1000B0000000250028002B00530A3C0E630F11247A
:1000C0001FBECFEFD8E0DEBFCDBF11E0A0E0B1E0B2
:1000D000E0EAFDE202C005900D92AE3BB107D9F710
:1000E00024E0AEEBB1E001C01D92A832B207E1F707
:1000F00010E0CEEBD0E004C02297FE010E94CA16A9
:10010000C83BD107C9F70E949E0C0C9488140C942C
:100110000000DC01ED91FC910190F081E02D09944B
:100120008F929F92AF92BF92CF92DF92EF92FF9207
:10013000CF93DF93EC01C880D980EA80FB809A01DD
:10014000AB01C701B6010E9443164B015C01A70138
:10015000960160E070E080E89FE30E948B142C81A0
:100160003D814E815F810E9443169B01AC01C50118
:10017000B4010E948C146C837D838E839F83DF91F6
:10018000CF91FF90EF90DF90CF90BF90AF909F9076
:100190008F900895CF93DF9340E052EC61E070E0E0
:1001A0008EEB92E00E94BB0D6FE371E08EEB92E06C
:1001B0000E946F0C88E693E00E94290F8AB1806F3D
:1001C0008AB9249A61E08CE00E94D20B6AEF70E059
:1001D00080E090E00E943D0B86EA92E00E943B1096
:1001E00065E471E08EEB92E00E948C0C86EA92E06E
:1001F0000E946B10882319F066E171E002C06DE285
:1002000071E08EEB92E00E948C0C60E086EA92E056
:100210000E94760FC8EED3E086EA92E00E94D50FE6
:100220002091F301820F911D27FD9A958093F30190
:1002300086EA92E00E94F10F2091F201820F911D57
:1002400027FD9A958093F20186EA92E00E940D10B4
:100250002091F101820F911D27FD9A958093F10164
:1002600021972097C9F61092F3011092F201109293
:10027000F10186EA92E00E9473108093F00186EA11
:1002800092E00E948F108093EF0186EA92E00E9434
:10029000AB108093EE0180916800816080936800CC
:1002A00080916B00816080936B0080916B00826015
:1002B00080936B0080916B00846080936B008091D1
:1002C0006B00886080936B006FE571E08EEB92E0CD
:1002D0000E946F0C809130029091310284589340BB
:1002E0008D38910578F18091FA019091FB0101968A
:1002F0009093FB018093FA018BB1806F8BB988EEEC
:1003000093E00E94630B8BB18F708BB963E070E058
:1003100080E090E00E943D0B8091FA019091FB01FA
:100320008D379105B9F68CE00E94080C61E0892BAD
:1003300009F060E08CE00E94D20B1092FB01109259
:10034000FA01C8CF809132029091330288379540EC
:1003500054F21092FB011092FA0160E08CE00E94CE
:10036000D20B66E771E08EEB92E0DF91CF910C94B7
:100370006F0C1F920F920FB60F9211242F933F9381
:100380004F935F936F937F938F939F93AF93BF939D
:10039000EF93FF930E941A0B60930402709305027F
:1003A000809306029093070220913702189B0EC09B
:1003B00021111BC021E02093370260931402709337
:1003C000150280931602909317020FC0213069F432
:1003D000109237022091140230911502AB01421B9A
:1003E000530B509333024093320220913602199BF3
:1003F0000EC021111BC021E0209336026093100231
:100400007093110280931202909313020FC0213057
:1004100069F4109236022091100230911102AB0162
:10042000421B530B5093310240933002209135020E
:100430001A9B0EC021111BC021E02093350260934E
:100440000C0270930D0280930E0290930F020FC066
:10045000213069F41092350220910C0230910D0286
:10046000AB01421B530B50932F0240932E0220915D
:1004700034021B9B0EC021111AC021E020933402CC
:10048000609308027093090280930A0290930B0212
:100490000EC0213061F41092340220910802309194
:1004A0000902621B730B70932D0260932C02FF9163
:1004B000EF91BF91AF919F918F917F916F915F91DC
:1004C0004F913F912F910F900FBE0F901F90189555
:1004D00086EA92E00E94D50F2091F301821B9109D8
:1004E00027FD9395BC01882777FD8095982F0E9462
:1004F0008F15AB01BC018EE992E00E94900086EA64
:1005000092E00E94F10F2091F201821B910927FDD8
:100510009395BC01882777FD8095982F0E948F15B1
:10052000AB01BC0186E992E00E94900086EA92E06D
:100530000E940D102091F101821B910927FD9395D6
:10054000BC01882777FD8095982F0E948F15AB01FD
:10055000BC018EE892E00E94900020E030E043E091
:1005600053E46091A2027091A3028091A402909141
:10057000A5020E94F4146093CE017093CF01809382
:10058000D0019093D10120E030E043E053E460914A
:100590009A0270919B0280919C0290919D020E9410
:1005A000F4146093D2017093D3018093D40190939B
:1005B000D50120E030E043E053E460919202709175
:1005C000930280919402909195020E94F41460939A
:1005D000D6017093D7018093D8019093D90186EA10
:1005E00092E00E94810F2091F001821B910927FD6A
:1005F0009395BC01882777FD8095982F0E948F15D1
:1006000020E030E040E858E30E9443166093BE01CA
:100610007093BF018093C0019093C10186EA92E07C
:100620000E949D0F2091EF01821B910927FD939558
:10063000BC01882777FD8095982F0E948F1520E0B8
:1006400030E040E858E30E9443166093C201709383
:10065000C3018093C4019093C50186EA92E00E9491
:10066000B90F2091EE01821B910927FD9395BC01E2
:10067000882777FD8095982F0E948F1520E030E025
:1006800040E858E30E9443166093C6017093C70187
:100690008093C8019093C90108954F925F926F9221
:1006A0007F928F929F92AF92BF92CF92DF92EF9202
:1006B000FF920F931F93CF93DF9300D000D0CDB75D
:1006C000DEB720916C0230916D0240916E02509124
:1006D0006F02609168027091690280916A02909144
:1006E0006B020E948B146B017C0120910C013091F4
:1006F0000D0140910E0150910F010E94431620916F
:1007000070023091710240917202509173020E9406
:100710008C142B013C0160937002709371028093E2
:100720007202909373020091060110910701B801C3
:10073000882777FD8095982F0E948F154B015C01CB
:100740009B01AC01C301B2010E943F1618164CF484
:100750008092700290927102A0927202B092730223
:1007600022C066277727601B710B882777FD80954D
:10077000982F0E948F1569837A838B839C839B01BA
:10078000AC01C301B2010E94F01487FF0CC0898143
:100790009A81AB81BC818093700290937102A09387
:1007A0007202B093730220911001309111014091B7
:1007B000120150911301C701B6010E944316209106
:1007C00070023091710240917202509173020E9446
:1007D0008C142B013C012091600230916102409108
:1007E000620250916302C701B6010E948B142091EE
:1007F00008013091090140910A0150910B010E94BA
:1008000043169B01AC01C301B2010E948C142B0161
:100810003C0177FA709477F87094A5019401C301B4
:10082000B2010E943F161816ECF066277727601B6E
:10083000710B882777FD8095982F0E948F154B01AB
:100840005C019B01AC01C301B2010E94F01487FD61
:1008500009C04092640250926502609266027092F2
:10086000670208C08092640290926502A0926602BC
:10087000B0926702C0926002D0926102E09262027E
:10088000F0926302209158023091590240915A022D
:1008900050915B0260915402709155028091560212
:1008A000909157020E948B146B017C01209186026B
:1008B0003091870240918802509189020E9443162C
:1008C00020915C0230915D0240915E0250915F0286
:1008D0000E948C142B013C0160935C0270935D02BA
:1008E00080935E0290935F020091800210918102DA
:1008F000B801882777FD8095982F0E948F154B01AE
:100900005C019B01AC01C301B2010E943F161816A5
:100910004CF480925C0290925D02A0925E02B092D2
:100920005F0222C066277727601B710B882777FD3F
:100930008095982F0E948F1569837A838B839C837F
:100940009B01AC01C301B2010E94F01487FF0CC0EF
:1009500089819A81AB81BC8180935C0290935D0216
:10096000A0935E02B0935F0220918A0230918B02C5
:1009700040918C0250918D02C701B6010E9443162E
:1009800020915C0230915D0240915E0250915F02C5
:100990000E948C142B013C0120914C0230914D029D
:1009A00040914E0250914F02C701B6010E948B1434
:1009B00020918202309183024091840250918502FD
:1009C0000E9443169B01AC01C301B2010E948C142A
:1009D0002B013C01A50194010E943F161816ECF072
:1009E00066277727601B710B882777FD8095982FE6
:1009F0000E948F154B015C019B01AC01C301B20148
:100A00000E94F01487FD09C040925002509251029A
:100A1000609252027092530208C0809250029092EB
:100A20005102A0925202B0925302C0924C02D09254
:100A30004D02E0924E02F0924F022091440230911A
:100A400045024091460250914702609140027091E8
:100A5000410280914202909143020E948B146B01EB
:100A60007C01609374027093750280937602909378
:100A7000770220917C0230917D0240917E0250915C
:100A80007F020E9443162091480230914902409112
:100A90004A0250914B020E948C142B013C0160933E
:100AA00048027093490280934A0290934B0200914E
:100AB000000110910101B801882777FD8095982FDA
:100AC0000E948F154B015C019B01AC01C301B20177
:100AD0000E943F1618164CF48092480290924902E8
:100AE000A0924A02B0924B0222C066277727601B71
:100AF000710B882777FD8095982F0E948F15698349
:100B00007A838B839C839B01AC01C301B2010E9459
:100B1000F01487FF0CC089819A81AB81BC818093DE
:100B2000480290934902A0934A02B0934B0220914D
:100B30000201309103014091040150910501C70168
:100B4000B6010E944316209148023091490240911B
:100B50004A0250914B020E948C142B013C012091BF
:100B600038023091390240913A0250913B02C7015C
:100B7000B6010E948B142091780230917902409145
:100B80007A0250917B020E9443169B01AC01C30183
:100B9000B2010E948C142B013C01A50194010E941A
:100BA0003F161816ECF066277727601B710B882715
:100BB00077FD8095982F0E948F154B015C019B015A
:100BC000AC01C301B2010E94F01487FD09C040923C
:100BD0003C0250923D0260923E0270923F0208C079
:100BE00080923C0290923D02A0923E02B0923F025F
:100BF000C0923802D0923902E0923A02F0923B025F
:100C00000F900F900F900F90DF91CF911F910F9148
:100C1000FF90EF90DF90CF90BF90AF909F908F901C
:100C20007F906F905F904F9008952F923F924F92D8
:100C30005F926F927F928F929F92AF92BF92CF926C
:100C4000DF92EF92FF920F931F93CF93DF93CDB775
:100C5000DEB72A970FB6F894DEBF0FBECDBF8DB7B3
:100C60009EB79A878987C090E601D090E701E0900F
:100C7000E801F090E9012091EA013091EB01409107
:100C8000EC015091ED01C701B6010E948B1420E0E8
:100C900034E244E759E40E94F4146093E201709353
:100CA000E3018093E4019093E501C092EA01D092C0
:100CB000EB01E092EC01F092ED010E941A0B0E9410
:100CC0008D156093E6017093E7018093E80190939E
:100CD000E9010E9468028091300290913102909364
:100CE000DB018093DA0180912C0290912D02909388
:100CF000DD018093DC0180912E0290912F02909370
:100D0000DF018093DE018091320290913302909353
:100D1000E1018093E001ADB7BEB794970FB6F894A8
:100D2000BEBF0FBEADBF0DB71EB70F5F1F4F84E232
:100D3000EEEBF1E0D80101900D928A95E1F763E5C1
:100D400070E08EEB92E00E948900E091BE02F0918B
:100D5000BF020280F381E02D44E250E0B8018EEB47
:100D600092E0099565E470E08EEB92E00E948900C4
:100D70002AE939E949E95EE3609168027091690204
:100D800080916A0290916B020E9443166B017C0174
:100D900023E333E343E35FE36091CE017091CF013E
:100DA0008091D0019091D1010E9443169B01AC012A
:100DB000C701B6010E948C146093680270936902A7
:100DC00080936A0290936B022AE939E949E95EE36C
:100DD0006091540270915502809156029091570291
:100DE0000E9443166B017C0123E333E343E35FE39B
:100DF0006091D2017091D3018091D4019091D5017D
:100E00000E9443169B01AC01C701B6010E948C14DD
:100E10006093540270935502809356029093570248
:100E20002AE939E949E95EE36091400270914102A3
:100E300080914202909143020E9443166B017C0113
:100E400023E333E343E35FE36091D6017091D7017D
:100E50008091D8019091D9010E9443169B01AC0169
:100E6000C701B6010E948C14609340027093410246
:100E7000809342029093430280913002909131021C
:100E80008A3194409CF480913202909133028234F2
:100E9000944064F481E090E09093FB018093FA0128
:100EA00061E871E08EEB92E00E946F0C8091FA0194
:100EB0009091FB01019709F04BC080913002909115
:100EC00031028A3194400CF043C0809132029091FB
:100ED00033028B3A9540E4F182E090E09093FB017D
:100EE0008093FA016BE871E08EEB92E00E946F0C48
:100EF000109270021092710210927202109273029C
:100F000010926002109261021092620210926302CB
:100F100010925C0210925D0210925E0210925F02CB
:100F200010924C0210924D0210924E0210924F02FB
:100F3000109248021092490210924A0210924B02FB
:100F4000109238021092390210923A0210923B022B
:100F50008091FA019091FB010297C1F480913002D7
:100F6000909131028A3194408CF4809132029091B8
:100F700033028930974054F01092FB011092FA012D
:100F800065E971E08EEB92E00E946F0C10926C02AA
:100F900010926D0210926E0210926F0260912C02FC
:100FA00070912D02653EB5E07B071CF0645E7540D4
:100FB00006C0643D25E07207B4F4645D754088277F
:100FC00077FD8095982F0E948F1520E030E040E457
:100FD00050E40E94F41460936C0270936D0280934D
:100FE0006E0290936F021092580210925902109262
:100FF0005A0210925B0260912E0270912F02653EA0
:1010000085E078071CF0645E754006C0643D95E09D
:101010007907B4F4645D7540882777FD8095982F33
:101020000E948F1520E030E040E450E40E94F41468
:10103000609358027093590280935A0290935B0216
:1010400010924402109245021092460210924702FA
:1010500080913002909131028B31944044F1609143
:10106000320270913302653EB5E07B071CF0645E8E
:10107000754006C0643D25E07207CCF4645D7540A0
:10108000882777FD8095982F0E948F1520E030E00B
:1010900040E450E40E94F414DC01CB01B05880938A
:1010A000440290934502A0934602B09347020E94E7
:1010B0004D0380913002909131029093F901809319
:1010C000F8012091FA013091FB012230310509F03D
:1010D000E0C08D3D954034F08CED95E09093F901A2
:1010E0008093F8016091F8017091F901882777FDEC
:1010F0008095982F0E948F152B013C018091500202
:1011000090915102A0915202B091530289839A8327
:10111000AB83BC839C01AD01C301B2010E948B145F
:101120006D837E838F8398878090640290906502A0
:10113000A0906602B0906702C0903C02D0903D0241
:10114000E0903E02F0903F02A50194010E948C14B1
:10115000A70196010E948C140E945C158B0170936C
:1011600003026093020229813A814B815C81C301B1
:10117000B2010E948C142B013C01A50194010E9434
:101180008C14A70196010E948B140E945C151B0110
:101190007093010260930002A5019401C301B201A2
:1011A0000E948B14A70196010E948C140E945C156A
:1011B0003B017093FF016093FE01A50194016D81D5
:1011C0007E818F8198850E948B14A70196010E94D1
:1011D0008B140E945C159B017093FD016093FC01D0
:1011E0000E37144034F48EE794E09093030280931A
:1011F0000202AEE72A16A4E03A0634F48EE794E041
:101200009093010280930002BEE76B16B4E07B0668
:1012100034F48EE794E09093FF018093FE012E3723
:10122000344034F48EE794E09093FD018093FC0108
:1012300080910202909103028D3D954034F08CED37
:1012400095E09093030280930202809100029091B6
:1012500001028D3D954034F08CED95E090930102B4
:10126000809300028091FE019091FF018D3D954099
:1012700034F08CED95E09093FF018093FE01809116
:10128000FC019091FD018D3D9540ACF08CED95E019
:101290000EC088EE93E09093030280930202909335
:1012A0000102809300029093FF018093FE019093CE
:1012B000FD018093FC010E941A0B0091F401109132
:1012C000F5012091F6013091F701601B710B820B43
:1012D000930B603A7F408105910568F30E941A0BD9
:1012E0006093F4017093F5018093F6019093F701F8
:1012F0008BB1806F8BB98091F4019091F501A09131
:10130000F601B091F7014091020250910302662765
:1013100057FD6095762F480F591F6A1F7B1F40931A
:1013200028025093290260932A0270932B02409165
:10133000000250910102662757FD6095762F480FF5
:10134000591F6A1F7B1F409324025093250260930C
:101350002602709327024091FE015091FF016627FB
:1013600057FD6095762F480F591F6A1F7B1F4093CA
:101370002002509321026093220270932302409135
:10138000FC015091FD01662757FD6095762F480FAF
:10139000591F6A1F7B1F40931C0250931D026093CC
:1013A0001E0270931F028BB1803108F45CC00E9452
:1013B0001A0B609318027093190280931A0290938B
:1013C0001B02009128021091290220912A023091DB
:1013D0002B02601771078207930708F05C98409111
:1013E000240250912502609126027091270280917B
:1013F000180290911902A0911A02B0911B02841751
:101400009507A607B70708F05D9840912002509114
:101410002102609122027091230280911802909122
:101420001902A0911A02B0911B0284179507A60712
:10143000B70708F05E9840911C0250911D02609120
:101440001E0270911F028091180290911902A091C2
:101450001A02B0911B0284179507A607B70708F474
:10146000A2CF5F98A0CF89859A850FB6F8949EBFCA
:101470000FBE8DBF2A960FB6F894DEBF0FBECDBF4C
:10148000DF91CF911F910F91FF90EF90DF90CF9060
:10149000BF90AF909F908F907F906F905F904F9094
:1014A0003F902F90089586EA92E00E94670F8DEC9E
:1014B0009CECACECBEE380939E0290939F02A093C1
:1014C000A002B093A1021092A2021092A302109265
:1014D000A4021092A5028093960290939702A09383
:1014E0009802B093990210929A0210929B02109265
:1014F0009C0210929D0280938E0290938F02A09383
:101500009002B09391021092920210929302109264
:101510009402109295028091100190911101A09176
:101520001201B091130180938A0290938B02A093D1
:101530008C02B0938D0280910C0190910D01A091CD
:101540000E01B0910F018093860290938702A093C1
:101550008802B09389028091080190910901A091BD
:101560000A01B0910B018093820290938302A093B1
:101570008402B093850280910601909107019093B7
:1015800081028093800208951F920F920FB60F92EE
:1015900011242F933F938F939F93AF93BF93809189
:1015A000B6029091B702A091B802B091B902309101
:1015B000B50223E0230F2D3720F40196A11DB11DA4
:1015C00005C026E8230F0296A11DB11D2093B50288
:1015D0008093B6029093B702A093B802B093B90279
:1015E0008091BA029091BB02A091BC02B091BD0261
:1015F0000196A11DB11D8093BA029093BB02A093E6
:10160000BC02B093BD02BF91AF919F918F913F916A
:101610002F910F900FBE0F901F9018952FB7F89431
:101620006091B6027091B7028091B8029091B902B0
:101630002FBF08953FB7F8948091BA029091BB02F2
:10164000A091BC02B091BD0226B5A89B05C02F3F5A
:1016500019F00196A11DB11D3FBF6627782F892F74
:101660009A2F620F711D811D911D42E0660F771F39
:10167000881F991F4A95D1F70895CF92DF92EF9274
:10168000FF92CF93DF936B017C010E941A0BEB0159
:10169000C114D104E104F10479F00E941A0B6C1B0F
:1016A0007D0B683E7340A0F381E0C81AD108E108C1
:1016B000F108C851DC4FECCFDF91CF91FF90EF9054
:1016C000DF90CF9008950197009739F0880F991F08
:1016D000880F991F02970197F1F70895789484B5C0
:1016E000826084BD84B5816084BD85B5826085BD1E
:1016F00085B5816085BDEEE6F0E080818160808304
:10170000E1E8F0E0108280818260808380818160E6
:101710008083E0E8F0E0808181608083E1EBF0E0AD
:10172000808184608083E0EBF0E080818160808351
:10173000EAE7F0E08081846080838081826080833A
:101740008081816080838081806880831092C10065
:101750000895833081F028F4813099F08230A1F02F
:1017600008958630A9F08730B9F08430D1F48091A3
:1017700080008F7D03C0809180008F7780938000F0
:10178000089584B58F7702C084B58F7D84BD089598
:101790008091B0008F7703C08091B0008F7D8093DF
:1017A000B00008950F931F93CF93DF931F92CDB78F
:1017B000DEB7282F30E0F901E859FF4F8491F90195
:1017C000E458FF4F1491F901E057FF4F04910023B3
:1017D000C9F0882321F069830E94A90B6981E02F59
:1017E000F0E0EE0FFF1FE255FF4FA591B4919FB7B8
:1017F000F8948C91611103C01095812301C0812B55
:101800008C939FBF0F90DF91CF911F910F910895FF
:10181000CF93DF93282F30E0F901E859FF4F8491EF
:10182000F901E458FF4FD491F901E057FF4FC491FB
:10183000CC2391F081110E94A90BEC2FF0E0EE0F68
:10184000FF1FEC55FF4FA591B4912C912D2381E002
:1018500090E021F480E002C080E090E0DF91CF9141
:101860000895CF92DF92EF92FF920F931F93CF9341
:10187000DF936C017A01EB01E60EF71E00E010E049
:10188000CE15DF0561F06991D601ED91FC910190D3
:10189000F081E02DC6010995080F191FF1CFC8018D
:1018A000DF91CF911F910F91FF90EF90DF90CF903C
:1018B00008956115710581F0DB010D900020E9F7B5
:1018C000AD0141505109461B570BDC01ED91FC91D4
:1018D0000280F381E02D099480E090E008950C945B
:1018E000590CDC01ED91FC910190F081E02D0994FF
:1018F0000F931F93CF93DF93EC016DE00E94710C67
:101900008C016AE0CE010E94710C800F911FDF9163
:10191000CF911F910F9108950F931F93CF93DF9352
:10192000EC010E94590C8C01CE010E94780C800FB2
:10193000911FDF91CF911F910F9108950E946E0B1F
:101940000E94CA00C7E7DDE00E9415062097E1F378
:101950000E94770DF9CFFC0124853585F901E05C03
:10196000FF4F80819181329620813181821B930BC0
:101970008F7399270895FC0184859585FC01E05CAF
:10198000FF4F4081518132962081318142175307A8
:1019900041F00190F081E02DE80FF91F808190E087
:1019A00008958FEF9FEF0895FC0184859585FC01D4
:1019B000E05CFF4F40815181329620813181421796
:1019C000530779F0A081B181A80FB91F8C912081B4
:1019D00031812F5F3F4F2F7333273183208390E076
:1019E00008958FEF9FEF0895FC0181A1882329F0CE
:1019F000A489B5898C9186FFFBCF11A20895CF935E
:101A0000DF93FC0126853785D901A05CBF4F8D91FE
:101A10009C91119701968F739927E901CE5BDF4F57
:101A20004881598184179507D9F30D90BC91A02D59
:101A3000A20FB31F6C93A685B785A05CBF4F11960C
:101A40009C938E93A689B7892C9181E090E0078CB6
:101A500002C0880F991F0A94E2F7282B2C9381E08B
:101A600081A30488F589E02D80818064808381E0F2
:101A700090E0DF91CF91089508951F920F920FB6D5
:101A80000F9211242F933F934F938F939F93EF9334
:101A9000FF938091C00082FD1CC04091C6008091E0
:101AA00064039091650301968F73992720916603D3
:101AB000309167038217930771F0E0916403F0910E
:101AC0006503EC5DFC4F4083909365038093640352
:101AD00002C08091C600FF91EF919F918F914F912D
:101AE0003F912F910F900FBE0F901F9018958EEB86
:101AF00092E00E94AB0C892B11F00C943C0D0895E0
:101B00001F920F920FB60F9211242F933F938F9332
:101B10009F93EF93FF9320912003309121038091B5
:101B20002203909123032817390731F48091C100D3
:101B30008F7D8093C10014C0E0912203F0912303B4
:101B4000E052FD4F20818091220390912303019662
:101B50008F73992790932303809322032093C600C9
:101B6000FF91EF919F918F913F912F910F900FBE19
:101B70000F901F901895CF92DF92EF92FF92CF9324
:101B8000DF93EC016A017B01411581EE5807610585
:101B90007105F9F0EC89FD8981E090E008A002C0B0
:101BA000880F991F0A94E2F7808360E079E08DE363
:101BB00090E0A70196010E94A61621503109410923
:101BC00051095695479537952795211580E1380796
:101BD00098F0EC89FD89108260E874E88EE190E06D
:101BE000A70196010E94A616215031094109510909
:101BF0005695479537952795E889F9893083EA897D
:101C0000FB89208319A2EE89FF89408181E090E061
:101C10009C010C8C02C0220F331F0A94E2F7422B66
:101C20004083EE89FF8940819C010D8C02C0220F08
:101C3000331F0A94E2F7422B4083EE89FF894081EB
:101C40009C010E8C02C0220F331F0A94E2F7422B34
:101C50004083EE89FF8920810F8C02C0880F991F75
:101C60000A94E2F7809582238083DF91CF91FF90E1
:101C7000EF90DF90CF9008951092C1021092C002B1
:101C800088EE93E0A0E0B0E08093C2029093C3029C
:101C9000A093C402B093C50282EA91E09093BF0280
:101CA0008093BE0284E293E09093CB028093CA02B9
:101CB00080EE92E09093CD028093CC0285EC90E090
:101CC0009093CF028093CE0284EC90E09093D10267
:101CD0008093D00280EC90E09093D3028093D20264
:101CE00081EC90E09093D5028093D40282EC90E056
:101CF0009093D7028093D60286EC90E09093D9021D
:101D00008093D80284E08093DA0283E08093DB0240
:101D100087E08093DC0285E08093DD0281E08093A0
:101D2000DE0208958091980390E020919903821B30
:101D3000910908952091990380919803281750F4F0
:101D4000E22FF0E0E656FC4F808190E02F5F209379
:101D5000990308958FEF9FEF0895E0919903809183
:101D60009803E81730F4F0E0E656FC4F808190E0ED
:101D700008958FEF9FEF08950895CF92DF92EF922D
:101D8000FF920F931F93CF93DF937C01CB018A01C6
:101D900020917403222389F0EB016B01C40ED51E40
:101DA000CC15DD0569F06991D701ED91FC910190A9
:101DB000F081E02DC7010995F3CF642F0E94321303
:101DC000C801DF91CF911F910F91FF90EF90DF90AD
:101DD000CF900895CF93DF931F92CDB7DEB769837D
:101DE000209174032223D1F020917503203240F01A
:101DF00021E030E0FC013383228380E090E015C0D5
:101E000080917603E82FF0E0E958FC4F99819083A8
:101E10008F5F809376038093750305C061E0CE01E8
:101E200001960E94321381E090E00F90DF91CF91F4
:101E30000895FC011382128248EE53E060E070E0E6
:101E4000448355836683778382EB91E0918380831B
:101E500008951092990310929803109276031092AD
:101E600075030C947D12862F413208F040E26AE936
:101E700073E00E949B121092990380939803089537
:101E800021E00C94330F81E08093740360939703F7
:101E9000109276031092750308950F93062F21E098
:101EA0004091750367E773E0809197030E94DF120A
:101EB0001092760310927503109274030F91089597
:101EC00061E00C944D0F88E693E00C94190F28E61E
:101ED000FC01208308950F93062F22E044E06BE17C
:101EE000FC0180810E9437120F9108950F93062FF5
:101EF00022E044E06CE1FC0180810E9437120F91E6
:101F000008950F931F93CF93DF93EC010091140179
:101F1000109115019C012F5F3F4F42E06BE38881D8
:101F20000E941011898190E0982F88272A81822BA6
:101F3000DF91CF911F910F9108950F931F93CF932E
:101F4000DF93EC0100911401109115019C012F5FAA
:101F50003F4F42E06DE388810E941011898190E03B
:101F6000982F88272A81822BDF91CF911F910F9183
:101F700008950F931F93CF93DF93EC010091140109
:101F8000109115019C012F5F3F4F42E06FE3888164
:101F90000E941011898190E0982F88272A81822B36
:101FA000DF91CF911F910F9108950F931F93CF93BE
:101FB000DF93EC0100911401109115019C012F5F3A
:101FC0003F4F42E063E488810E941011898190E0D4
:101FD000982F88272A81822BDF91CF911F910F9113
:101FE00008950F931F93CF93DF93EC010091140199
:101FF000109115019C012F5F3F4F42E065E48881FD
:102000000E941011898190E0982F88272A81822BC5
:10201000DF91CF911F910F9108950F931F93CF934D
:10202000DF93EC0100911401109115019C012F5FC9
:102030003F4F42E067E488810E941011898190E05F
:10204000982F88272A81822BDF91CF911F910F91A2
:102050000895262F46E06BE6FC0180810C94041263
:102060000F93062F23E042E06BE6FC0180810E9483
:1020700037120F910895CF93DF93EC0161E00E9436
:10208000301060E0CE010E946B0F60E0CE010E9434
:10209000760F60E0CE01DF91CF910C942910EF9282
:1020A000FF920F931F93CF93DF93EC01E090140105
:1020B000F09015018C010F5F1F4F26E046E065E7A9
:1020C00088810E94C7118981DF91CF911F910F9163
:1020D000FF90EF9008950E944F1091E0843309F033
:1020E00090E0892F08950F931F93CF93DF93EC0116
:1020F00000911401109115019C012F5F3F4F42E0A8
:1021000066E088810E941011898190E0982F8827CD
:102110002A81822BDF91CF911F910F9108950F9308
:102120001F93CF93DF93EC010091140110911501DF
:102130009C012F5F3F4F42E068E088810E941011B0
:10214000898190E0982F88272A81822BDF91CF9177
:102150001F910F9108950F931F93CF93DF93EC017D
:1021600000911401109115019C012F5F3F4F42E037
:102170006AE088810E941011898190E0982F882759
:102180002A81822BDF91CF911F910F910895EF92B9
:10219000FF920F931F93CF93DF9300D0CDB7DEB79D
:1021A000062F142F682F88E693E029833A830E9434
:1021B000430F602F88E693E00E94EA0E2981022FE8
:1021C000E22E3A81F32E8E2D801B811740F4F70109
:1021D00061917F0188E693E00E94EA0EF4CF88E6E1
:1021E00093E00E94600F91E0811190E0892F0F90A1
:1021F0000F90DF91CF911F910F91FF90EF90089575
:10220000CF93DF931F92CDB7DEB749839E012F5F37
:102210003F4F41E00E94C7100F90DF91CF9108958A
:102220003F924F925F926F927F928F929F92AF9266
:10223000BF92CF92DF92EF92FF920F931F93CF93B3
:10224000DF9300D000D000D0CDB7DEB7682E562E79
:10225000742E3A8329830E940E0B6B017C01312C72
:10226000412C872D90E09C838B834801A12CB12CBD
:102270003714B0F5662D88E693E00E94430F652D74
:1022800088E693E00E94EA0E88E693E00E94600FE1
:10229000662D88E693E00E94430F4B815C814319D1
:1022A00051094132510514F040E250E0662D88E6B4
:1022B00093E00E94400F88E693E00E94920E892BE3
:1022C00059F10115110579F10E940E0B6C197D0968
:1022D0008E099F09681579058A059B0520F11CC0A8
:1022E0000115110589F10E940E0B6C197D098E09EB
:1022F0009F0920E030E0601771078207930720F103
:10230000872D90E0242D332727FD30952817390796
:10231000DCF444244A9418C0872D90E2971508F401
:1023200080E2380EA5CFE981FA81E40DF11D47FC6A
:10233000FA95FE83ED8388E693E00E949A0EED8184
:10234000FE8180834394B7CF842D26960FB6F894F0
:10235000DEBF0FBECDBFDF91CF911F910F91FF90D8
:10236000EF90DF90CF90BF90AF909F908F907F9035
:102370006F905F904F903F9008950F931F93890146
:102380009A0141E00E9410111F910F910895CF9280
:10239000DF92EF92FF920F931F93CF93DF931F92E1
:1023A000CDB7DEB7C42ED22E9701AE014F5F5F4F7F
:1023B0000E94BD118823F1F04C2D50E04D195109B8
:1023C0004F5F5F4F61E070E002C0660F771FDA94E5
:1023D000E2F761507109042E01C0660F0A94EAF712
:1023E0002981262330E002C0359527954A95E2F7EA
:1023F000F80120830F90DF91CF911F910F91FF90F3
:10240000EF90DF90CF900895EF92FF920F931F937C
:10241000CF93DF931F92CDB7DEB7182F062FF42E80
:10242000E22E2091140130911501AE014F5F5F4FF4
:102430000E94BD11898121E030E00F2C01C0220FE4
:102440000A94EAF7EE2019F0482F422B03C0422FDE
:10245000409548234983602F812F0E9400110F90DF
:10246000DF91CF911F910F91FF90EF900895DF9230
:10247000EF92FF920F931F93CF93DF931F92CDB7ED
:10248000DEB7F82EE62ED42E122F209114013091B3
:102490001501AE014F5F5F4F0E94BD11882319F1F6
:1024A0004D2D50E0411B51094F5F5F4FE1E0F0E0DF
:1024B00002C0EE0FFF1F1A95E2F73197042E01C0FC
:1024C000EE0F0A94EAF701C0000F4A95EAF74E2F83
:1024D000409589814823E0234E2B49836E2D8F2D13
:1024E0000E94001101C080E00F90DF91CF911F91F9
:1024F0000F91FF90EF90DF9008951092270481E0F4
:10250000809325041092240461E082E10E94D20BA2
:1025100061E083E10E94D20BE9EBF0E080818E7FE5
:10252000808380818D7F808388E48093B80085E4F8
:102530008093BC000895413208F03FC09091270479
:102540009111FCCF91E090932704209325042FEF65
:102550002093BA031092FF03240F2093FE0390935D
:10256000260490912604880F892B8093260480915D
:102570002404813041F41092240480912604809335
:10258000BB0085EC01C085EE8093BC0080912704E0
:102590008130E1F38091FF03841710F44091FF0331
:1025A00020E034E0FB01D9018A2F821B841718F444
:1025B0008D918193F9CF842F089580E008950F9332
:1025C000413208F046C0909127049111FCCF92E06F
:1025D00090932704009325049FEF9093BA031092E1
:1025E000FF034093FE03FB0160E074E0DB019A2FE0
:1025F000961B941718F491919D93F9CF109226048D
:1026000090912604880F892B8093260480912404BE
:10261000813041F410922404809126048093BB0001
:1026200085EC01C085EE8093BC00222321F08091CF
:1026300027048230E1F38091BA038F3F61F08091EB
:10264000BA03803251F08091BA03803341F483E0C1
:1026500007C081E005C080E003C082E001C084E0E3
:102660000F910895613298F420912704243089F461
:102670006093DC03FC018EED93E0DC012A2F281B24
:10268000261718F421912D93F9CF80E0089581E069
:10269000089582E0089585ED8093BC008091BC0090
:1026A00084FDFCCF10922704089585EC8093BC0034
:1026B0001092270408951F920F920FB60F921124C3
:1026C0002F933F934F935F936F937F938F939F933A
:1026D000AF93BF93EF93FF938091B900887F8036CB
:1026E00009F49CC068F5883209F45BC090F480312D
:1026F00009F454C038F4882309F4F5C0883009F48B
:102700004DC0F5C0883109F44CC0803209F45DC079
:10271000EEC0803409F468C048F4803309F455C031
:10272000883309F0E4C08093BA03A8C0803509F467
:102730004FC0883509F45DC0883409F0D8C0D5C0D1
:10274000883909F4C6C0A8F4883709F467C038F49A
:10275000883609F463C0803709F460C0C8C088387F
:1027600009F4B7C0803909F45FC0803809F0BFC0F0
:102770005BC0803B09F485C038F4803A09F466C038
:10278000883A09F47EC0B3C0803C09F4A6C0883CF6
:1027900009F4A3C0883B09F489C0A9C0809126042C
:1027A00010C09091FF038091FE03981770F5E0919F
:1027B000FF0381E08E0F8093FF03F0E0E050FC4FB9
:1027C00080818093BB0085EC85C08093BA038DC067
:1027D000E091FF0381E08E0F8093FF038091BB00A7
:1027E000F0E0E050FC4F80839091FF038091FE0366
:1027F0006DC0E091FF0381E08E0F8093FF03809115
:10280000BB00F0E0E050FC4F8083809125048111F3
:102810006CC081E08093240484EA60C083E08093EC
:1028200027041092BB03CFCF8091BB03803208F006
:1028300050C0E091BB0381E08E0F8093BB03809179
:10284000BB00F0E0E454FC4F8083BDCF8091BB031C
:10285000803230F4E091BB03F0E0E454FC4F10828E
:102860000E944B136091BB0370E0E0912004F09153
:1028700021048CEB93E009951092BB030E94551341
:1028800036C084E0809327041092DD031092DC03AD
:10289000E0912204F091230409958091DC038111D9
:1028A00005C081E08093DC031092DE03E091DD033C
:1028B00081E08E0F8093DD03F0E0E252FC4F8081D7
:1028C0008093BB009091DD038091DC03981708F49E
:1028D0007ACF85E88093BC000AC085EC8093BC0069
:1028E0001092270404C01092BA030E944B13FF9168
:1028F000EF91BF91AF919F918F917F916F915F9178
:102900004F913F912F910F900FBE0F901F901895F0
:10291000F8940C94CE165058BB27AA270ED075C138
:1029200066D130F06BD120F031F49F3F11F41EF4EA
:102930005BC10EF4E095E7FB51C1E92F77D180F33D
:10294000BA17620773078407950718F071F49EF5AC
:102950008FC10EF4E0950B2EBA2FA02D0B01B901FB
:1029600090010C01CA01A0011124FF27591B99F005
:10297000593F50F4503E68F11A16F040A22F232F11
:10298000342F4427585FF3CF469537952795A79561
:10299000F0405395C9F77EF41F16BA0B620B730B08
:1029A000840BBAF09150A1F0FF0FBB1F661F771F79
:1029B000881FC2F70EC0BA0F621F731F841F48F42E
:1029C000879577956795B795F7959E3F08F0B3CFB4
:1029D0009395880F08F09927EE0F9795879508959E
:1029E000D9D008F481E008950CD00FC107D140F090
:1029F000FED030F021F45F3F19F0F0C0511139C121
:102A0000F3C014D198F39923C9F35523B1F3951B5F
:102A1000550BBB27AA2762177307840738F09F5FFF
:102A20005F4F220F331F441FAA1FA9F333D00E2E6E
:102A30003AF0E0E830D091505040E695001CCAF7DB
:102A400029D0FE2F27D0660F771F881FBB1F2617A0
:102A500037074807AB07B0E809F0BB0B802DBF0173
:102A6000FF2793585F4F2AF09E3F510568F0B6C08C
:102A700000C15F3FECF3983EDCF386957795679550
:102A8000B795F7959F5FC9F7880F911D9695879524
:102A900097F90895E1E0660F771F881FBB1F621743
:102AA00073078407BA0720F0621B730B840BBA0B01
:102AB000EE1F88F7E095089504D06894B111D9C04D
:102AC0000895BCD088F09F5790F0B92F9927B7513F
:102AD000A0F0D1F0660F771F881F991F1AF0BA95E2
:102AE000C9F712C0B13081F0C3D0B1E00895C0C0C1
:102AF000672F782F8827B85F39F0B93FCCF38695D8
:102B000077956795B395D9F73EF490958095709534
:102B100061957F4F8F4F9F4F0895E89409C097FBB1
:102B20003EF490958095709561957F4F8F4F9F4FA4
:102B30009923A9F0F92F96E9BB279395F6958795E8
:102B400077956795B795F111F8CFFAF4BB0F11F4AB
:102B500060FF1BC06F5F7F4F8F4F9F4F16C0882352
:102B600011F096E911C0772321F09EE8872F762F88
:102B700005C0662371F096E8862F70E060E02AF0C9
:102B80009A95660F771F881FDAF7880F96958795B5
:102B900097F90895990F0008550FAA0BE0E8FEEF8A
:102BA00016161706E807F907C0F012161306E40711
:102BB000F50798F0621B730B840B950B39F40A260A
:102BC00061F0232B242B252B21F408950A2609F4E8
:102BD000A140A6958FEF811D811D089597F99F67EC
:102BE00080E870E060E008959FEF80EC0895002495
:102BF0000A941616170618060906089500240A9462
:102C000012161306140605060895092E0394000CE7
:102C100011F4882352F0BB0F40F4BF2B11F460FF76
:102C200004C06F5F7F4F8F4F9F4F089557FD90589F
:102C3000440F551F59F05F3F71F04795880F97FB80
:102C4000991F61F09F3F79F087950895121613063A
:102C50001406551FF2CF4695F1DF08C01616170669
:102C60001806991FF1CF869571056105089408959E
:102C7000E894BB2766277727CB0197F908958ADF69
:102C800008F48FEF08950BD0C0CFB1DF28F0B6DF86
:102C900018F0952309F0A2CFA7CF1124EACFC6DF01
:102CA000A0F3959FD1F3950F50E0551F629FF0015F
:102CB000729FBB27F00DB11D639FAA27F00DB11DB8
:102CC000AA1F649F6627B00DA11D661F829F222741
:102CD000B00DA11D621F739FB00DA11D621F839FC8
:102CE000A00D611D221F749F3327A00D611D231F9E
:102CF000849F600D211D822F762F6A2F11249F57EC
:102D000050408AF0E1F088234AF0EE0FFF1FBB1F0E
:102D1000661F771F881F91505040A9F79E3F5105AD
:102D200070F05CCFA6CF5F3FECF3983EDCF3869566
:102D300077956795B795F795E7959F5FC1F7FE2B58
:102D4000880F911D9695879597F90895A1E21A2EFF
:102D5000AA1BBB1BFD010DC0AA1FBB1FEE1FFF1F3F
:102D6000A217B307E407F50720F0A21BB30BE40B8F
:102D7000F50B661F771F881F991F1A9469F76095D6
:102D80007095809590959B01AC01BD01CF01089590
:102D9000EE0FFF1F0590F491E02D0994F894FFCFFA
:102DA000F4010000803FFA000000E0400AD7233C15
:102DB0000000C03FE803636F6E6E656374696F6EF9
:102DC0002065737461626C697368656400636F6E1B
:102DD0006E656374696F6E206661696C6564006915
:102DE0006E69740A0074657374696E6720494D5585
:102DF00020636F6D6D756E69636174696F6E0077C6
:102E0000616974696E67206F6E20757365722069E1
:102E10006E7075740A00696E697420646F6E650A5D
:102E2000002073746167652031200020737461672E
:102E30006520322000737461676520302000000037
:102E40000000FF0C310CAB0CD40CBB0CF40C0000DC
:0E2E50000000EA0EBD0E920E9A0EAD0EBC0EE4
:04000005008001FA7C
:00000001FF
