:100000000C9470000C9498000C9498000C94980038
:100010000C9498000C9498000C9498000C94980000
:100020000C9498000C9498000C9498000C949800F0
:100030000C9498000C9498000C9498000C949800E0
:100040000C94C9030C9498000C9433070C94760715
:100050000C9498000C9498000C9498000C949800C0
:100060000C94390A0C949800084AD73B3BCE016E99
:1000700084BCBFFDC12F3D6C74319ABD56833DDAFF
:100080003D00C77F11BED9E4BB4C3E916BAAAABE0E
:10009000000000803F000000000700020100000394
:1000A0000406000000000000000001020408102007
:1000B00040800102040810200102040810200404FA
:1000C0000404040404040202020202020303030300
:1000D000030300000000250028002B003208570908
:1000E00011241FBECFEFD8E0DEBFCDBF11E0A0E0EE
:1000F000B1E0E4E4FDE102C005900D92A033B10748
:10010000D9F722E0A0E3B1E001C01D92AB3CB207F9
:10011000E1F710E0C0EED0E004C02297FE010E949B
:100120009C0ECC3DD107C9F70E9494060C94C50BD8
:100130000C940000DC01ED91FC910190F081E02D28
:100140000994CF938BE092E00E941F098CE080938A
:10015000B80068E670E08BE092E00E9442096BE62E
:1001600070E08BE092E00E949A0060E070E08BE02B
:1001700092E00E949A0061E08BE092E00E944409C4
:1001800040E052EC61E070E081E691E00E94B1074E
:1001900064E670E080E090E00E94360468E670E07B
:1001A0008BE092E00E9442096BE370E08BE092E00A
:1001B0000E949A0060E08BE092E00E94440921E0F6
:1001C00030E04EE050E068E670E08BE092E00E94A4
:1001D00036098BE092E00E949008C82F8BE092E0F5
:1001E0000E94900860E070E07C2F862B972BBC016A
:1001F000882777FD8095982F0E942E0D60935401DB
:100200007093550180935601909357018BE092E0D3
:100210000E949008C82F8BE092E00E94900860E056
:1002200070E07C2F862B972BBC01882777FD80956B
:10023000982F0E942E0D609350017093510180936E
:100240005201909353018BE092E00E949008C82FD6
:100250008BE092E00E94900860E070E07C2F862B9B
:10026000972BBC01882777FD8095982F0E942E0D33
:1002700060934C0170934D0180934E0190934F0118
:100280008BE092E00E949008C82F8BE092E00E94E1
:10029000900860E070E07C2F862B972BBC018827AC
:1002A00077FD8095982F0E942E0D609348017093E2
:1002B000490180934A0190934B018BE092E00E94A8
:1002C0009008C82F8BE092E00E94900860E070E0F8
:1002D0007C2F862B972BBC01882777FD8095982F44
:1002E0000E942E0D60934401709345018093460156
:1002F000909347018BE092E00E949008C82F8BE01A
:1003000092E00E94900860E070E07C2F862B972B93
:10031000BC01882777FD8095982F0E942E0D609351
:1003200040017093410180934201909343018BE01F
:1003300092E00E949008C82F8BE092E00E94900803
:1003400060E070E07C2F862B972BBC01882777FD1F
:100350008095982F0E942E0D60933C0170933D0173
:1003600080933E0190933F010E94130460933801F3
:100370007093390180933A0190933B01CF91089596
:100380004F925F926F927F928F929F92AF92BF92A5
:10039000CF92DF92EF92FF92CF93DF93CDB7DEB78C
:1003A00028970FB6F894DEBF0FBECDBF68E670E0A9
:1003B0008BE092E00E9442096BE370E08BE092E0F8
:1003C0000E949A0060E08BE092E00E94440921E0E4
:1003D00030E04EE050E068E670E08BE092E00E9492
:1003E00036098BE092E00E949008F82E8BE092E0B4
:1003F0000E94900860E070E07F2D862B972BBC0157
:10040000882777FD8095982F0E942E0D60935401C8
:100410007093550180935601909357018BE092E0C1
:100420000E949008F82E8BE092E00E94900860E015
:1004300070E07F2D862B972BBC01882777FD809558
:10044000982F0E942E0D609350017093510180935C
:100450005201909353018BE092E00E949008F82E95
:100460008BE092E00E94900860E070E07F2D862B88
:10047000972BBC01882777FD8095982F0E942E0D21
:1004800060934C0170934D0180934E0190934F0106
:100490008BE092E00E949008F82E8BE092E00E94A0
:1004A000900860E070E07F2D862B972BBC01882799
:1004B00077FD8095982F0E942E0D609348017093D0
:1004C000490180934A0190934B018BE092E00E9496
:1004D0009008F82E8BE092E00E94900860E070E0B7
:1004E0007F2D862B972BBC01882777FD8095982F31
:1004F0000E942E0D60934401709345018093460144
:10050000909347018BE092E00E949008F82E8BE0D8
:1005100092E00E94900860E070E07F2D862B972B80
:10052000BC01882777FD8095982F0E942E0D60933F
:1005300040017093410180934201909343018BE00D
:1005400092E00E949008F82E8BE092E00E949008C2
:1005500060E070E07F2D862B972BBC01882777FD0C
:100560008095982F0E942E0D60933C0170933D0161
:1005700080933E0190933F010E941304C090380184
:10058000D0903901E0903A01F0903B016C197D095F
:100590008E099F090E942C0D20E034E244E759E4C3
:1005A0000E94930C2B013C010E94130460933801BC
:1005B0007093390180933A0190933B01C0904C01B4
:1005C000D0904D01E0904E01F0904F0160915001AC
:1005D000709151018091520190915301A7019601B0
:1005E0000E943C0C69837A838B839C8380915401A5
:1005F00090915501A0915601B0915701BC01CD01D8
:100600009058A70196010E943C0C6D837E838F83D6
:10061000988720E030E043E053E46091400170911E
:10062000410180914201909143010E94930C6B0122
:100630007C0120E030E043E053E46091440170919C
:10064000450180914601909147010E94930CA301BE
:1006500092010E940E0E209134013091350140919B
:100660003601509137010E94C90B2CEE31E548E765
:100670005FE30E940E0E4B015C0121EE3EE245E677
:1006800052E469817A818B819C810E940E0E2FE851
:1006900032EC45EF5CE30E940E0E9B01AC01C501FC
:1006A000B4010E94C90B4B015C016093340170934B
:1006B00035018093360190933701A3019201C70160
:1006C000B6010E940E0E209130013091310140910F
:1006D0003201509133010E94C90B2CEE31E548E7FD
:1006E0005FE30E940E0E6B017C0121EE3EE245E6C7
:1006F00052E46D817E818F8198850E940E0E2FE8D5
:1007000032EC45EF5CE30E940E0E9B01AC01C70189
:10071000B6010E94C90B6093300170933101809340
:1007200032019093330122E030E0B501A40181E66B
:1007300091E00E94920660E071E081E691E00E9403
:10074000D504409130015091310160913201709196
:10075000330122E030E081E691E00E94920661E000
:1007600071E081E691E028960FB6F894DEBF0FBEE7
:10077000CDBFDF91CF91FF90EF90DF90CF90BF90F2
:10078000AF909F908F907F906F905F904F900C9460
:10079000F2041F920F920FB60F9211242F933F93E2
:1007A0008F939F93AF93BF938091590190915A017A
:1007B000A0915B01B0915C013091580123E0230FBF
:1007C0002D3720F40196A11DB11D05C026E8230F89
:1007D0000296A11DB11D2093580180935901909359
:1007E0005A01A0935B01B0935C0180915D019091EF
:1007F0005E01A0915F01B09160010196A11DB11D44
:1008000080935D0190935E01A0935F01B0936001BE
:10081000BF91AF919F918F913F912F910F900FBEFC
:100820000F901F9018953FB7F89480915D019091BB
:100830005E01A0915F01B091600126B5A89B05C043
:100840002F3F19F00196A11DB11D3FBF6627782FDC
:10085000892F9A2F620F711D811D911D42E0660F35
:10086000771F881F991F4A95D1F70895CF92DF927D
:10087000EF92FF92CF93DF936B017C010E941304F0
:10088000EB01C114D104E104F10479F00E941304D6
:100890006C1B7D0B683E7340A0F381E0C81AD10841
:1008A000E108F108C851DC4FECCFDF91CF91FF9008
:1008B000EF90DF90CF900895789484B5826084BDE6
:1008C00084B5816084BD85B5826085BD85B5816054
:1008D00085BDEEE6F0E0808181608083E1E8F0E0B4
:1008E0001082808182608083808181608083E0E8E3
:1008F000F0E0808181608083E1EBF0E080818460C2
:100900008083E0EBF0E0808181608083EAE7F0E0C3
:100910008081846080838081826080838081816027
:1009200080838081806880831092C1000895CF9277
:10093000DF92EF92FF920F931F93CF93DF936C019F
:100940007A01EB01E60EF71E00E010E0CE15DF05A0
:1009500061F06991D601ED91FC910190F081E02D5B
:10096000C6010995080F191FF1CFC801DF91CF917A
:100970001F910F91FF90EF90DF90CF900895611538
:10098000710581F0DB010D900020E9F7AD014150C8
:100990005109461B570BDC01ED91FC910280F3815C
:1009A000E02D099480E090E008950C94BF04DC01F0
:1009B000ED91FC910190F081E02D09940F931F932C
:1009C000CF93DF93EC016DE00E94D7048C016AE0C5
:1009D000CE010E94D704800F911FDF91CF911F910C
:1009E0000F9108950F931F93CF93DF93EC010E9413
:1009F000BF048C01CE010E94DE04800F911FDF91A5
:100A0000CF911F910F9108958F929F92AF92BF92B5
:100A1000CF92DF92EF92FF920F931F93CF93DF93CA
:100A2000CDB7DEB7A1970FB6F894DEBF0FBECDBF2E
:100A30007C01C42EE52FCB01D22E19A221E02D1569
:100A400010F02AE0D22E8E010F5D1F4F8D2C912CBD
:100A5000A12CB12C6C2D7E2FA50194010E94780E43
:100A60008C2DD29E80191124015011098A3014F462
:100A7000805D01C0895CF801808321153105410545
:100A8000510521F0C22EE32FCA01E4CFB801C701FE
:100A90000E94BF04A1960FB6F894DEBF0FBECDBF73
:100AA000DF91CF911F910F91FF90EF90DF90CF904A
:100AB000BF90AF909F908F900895CF92DF92EF926A
:100AC000FF920F931F93CF93DF93EC016A017B0199
:100AD0002115310579F4E881F9810190F081E02D4B
:100AE000642FDF91CF911F910F91FF90EF90DF90D6
:100AF000CF9009942A303105E9F477FF1AC06DE2EE
:100B00000E94D7048C0144275527BA014C195D096E
:100B10006E097F092AE0CE010E940405800F911F13
:100B2000DF91CF911F910F91FF90EF90DF90CF90C9
:100B300008952AE0B701A601CE01DF91CF911F9160
:100B40000F91FF90EF90DF90CF900C9404054F929F
:100B50005F926F927F928F929F92AF92BF92CF924D
:100B6000DF92EF92FF920F931F93CF93DF93EC01ED
:100B70006A017B01B22E9A01AB01C701B6010E9446
:100B8000740E882319F062E071E027C02601370156
:100B9000E89477F82FEF3FEF4FE75FE7C301B2012B
:100BA0000E94740E81110DC02FEF3FEF4FE75FE7FA
:100BB000C301B2010E948F0C18161CF466E071E0AC
:100BC0000CC02FEF3FEF4FE75FE4C701B6010E9473
:100BD000030E1816ACF46AE071E0CE01DF91CF91FC
:100BE0001F910F91FF90EF90DF90CF90BF90AF904B
:100BF0009F908F907F906F905F904F900C94BF0468
:100C00002FEF3FEF4FE75FECC701B6010E948F0C5B
:100C100087FDE1CF20E030E0A901C701B6010E94C5
:100C20008F0C87FF0AC06DE2CE010E94D7048C01B1
:100C3000F7FAF094F7F8F09402C000E010E0A12C6D
:100C400060E070E080E09FE3AB1441F020E030E032
:100C500040E251E40E94930CA394F6CF9B01AC01B7
:100C6000C701B6010E94C90B6B017C010E94000DF7
:100C70002B013C010E942C0D9B01AC01C701B60168
:100C80000E94C80B6B017C012AE0B301A201CE01D6
:100C90000E940405080F191FBB2039F06EE071E0B7
:100CA000CE010E94BF04080F191F7B2C772041F151
:100CB00020E030E040E251E4C701B6010E940E0E90
:100CC0006B017C010E94FB0C4B01AA2497FCA094B1
:100CD000BA2C2AE030E0B501A401CE010E945D05E6
:100CE000080F191FC501B4010E942E0D9B01AC0114
:100CF000C701B6010E94C80B6B017C017A94D6CF64
:100D0000C801DF91CF911F910F91FF90EF90DF907D
:100D1000CF90BF90AF909F908F907F906F905F909B
:100D20004F9008950C94A7050E945C040E94A100B6
:100D3000CDE6D7E00E94C0012097E1F30E946D0745
:100D4000F9CFFC0124853585F901E05CFF4F8081F6
:100D50009181329620813181821B930B8F73992769
:100D60000895FC0184859585FC01E05CFF4F40817E
:100D700051813296208131814217530741F0019011
:100D8000F081E02DE80FF91F808190E008958FEF4A
:100D90009FEF0895FC0184859585FC01E05CFF4F81
:100DA000408151813296208131814217530779F079
:100DB000A081B181A80FB91F8C91208131812F5F53
:100DC0003F4F2F7333273183208390E008958FEFB7
:100DD0009FEF0895FC0181A1882329F0A489B5899A
:100DE0008C9186FFFBCF11A20895CF93DF93FC0176
:100DF00026853785D901A05CBF4F8D919C911197B5
:100E000001968F739927E901CE5BDF4F48815981A5
:100E100084179507D9F30D90BC91A02DA20FB31F95
:100E20006C93A685B785A05CBF4F11969C938E935B
:100E3000A689B7892C9181E090E0078C02C0880FC9
:100E4000991F0A94E2F7282B2C9381E081A3048850
:100E5000F589E02D80818064808381E090E0DF91DE
:100E6000CF91089508951F920F920FB60F921124FB
:100E70002F933F934F938F939F93EF93FF93809183
:100E8000C00082FD1CC04091C60080910702909175
:100E9000080201968F7399272091090230910A0266
:100EA0008217930771F0E0910702F0910802E9536D
:100EB000FE4F4083909308028093070202C0809106
:100EC000C600FF91EF919F918F914F913F912F918C
:100ED0000F900FBE0F901F90189581E691E00E9431
:100EE000A106892B11F00C94320708951F920F92DE
:100EF0000FB60F9211242F933F938F939F93EF93ED
:100F0000FF932091C3013091C4018091C50190915C
:100F1000C6012817390731F48091C1008F7D809375
:100F2000C10014C0E091C501F091C601ED57FE4F1C
:100F300020818091C5019091C60101968F739927F8
:100F40009093C6018093C5012093C600FF91EF9155
:100F50009F918F913F912F910F900FBE0F901F90F7
:100F60001895CF92DF92EF92FF92CF93DF93EC012F
:100F70006A017B01411581EE580761057105F9F0A1
:100F8000EC89FD8981E090E008A002C0880F991FDC
:100F90000A94E2F7808360E079E08DE390E0A701B6
:100FA00096010E94780E2150310941095109569548
:100FB000479537952795211580E1380798F0EC89FA
:100FC000FD89108260E874E88EE190E0A701960147
:100FD0000E94780E215031094109510956954795D3
:100FE00037952795E889F9893083EA89FB89208339
:100FF00019A2EE89FF89408181E090E09C010C8C70
:1010000002C0220F331F0A94E2F7422B4083EE897D
:10101000FF8940819C010D8C02C0220F331F0A946E
:10102000E2F7422B4083EE89FF8940819C010E8CC0
:1010300002C0220F331F0A94E2F7422B4083EE894D
:10104000FF8920810F8C02C0880F991F0A94E2F754
:10105000809582238083DF91CF91FF90EF90DF9086
:10106000CF900895109264011092630188EE93E08E
:10107000A0E0B0E08093650190936601A0936701C2
:10108000B093680184E191E09093620180936101E3
:1010900087EC91E090936E0180936D0183E891E07D
:1010A0009093700180936F0185EC90E090937201B2
:1010B0008093710184EC90E09093740180937301AC
:1010C00080EC90E0909376018093750181EC90E044
:1010D000909378018093770182EC90E090937A016D
:1010E0008093790186EC90E090937C0180937B0162
:1010F00084E080937D0183E080937E0187E080938C
:101100007F0185E08093800181E0809381010895D3
:1011100080913B0290E020913C02821B910908954E
:1011200020913C0280913B02281750F4E22FF0E01E
:10113000E35CFD4F808190E02F5F20933C02089597
:101140008FEF9FEF0895E0913C0280913B02E817FA
:1011500030F4F0E0E35CFD4F808190E008958FEF84
:101160009FEF08950895CF92DF92EF92FF920F9331
:101170001F93CF93DF937C01CB018A01209117024B
:10118000222389F0EB016B01C40ED51ECC15DD05C1
:1011900069F06991D701ED91FC910190F081E02D0A
:1011A000C7010995F3CF642F0E94100AC801DF918F
:1011B000CF911F910F91FF90EF90DF90CF90089506
:1011C000CF93DF931F92CDB7DEB7698320911702CB
:1011D0002223D1F020911802203240F021E030E0AB
:1011E000FC013383228380E090E015C080911902D6
:1011F000E82FF0E0E65EFD4F998190838F5F80934A
:1012000019028093180205C061E0CE0101960E9488
:10121000100A81E090E00F90DF91CF910895FC01DA
:101220001382128248EE53E060E070E044835583FD
:101230006683778384E291E091838083089510929E
:101240003C0210923B0210921902109218020C9468
:101250005B09862F413208F040E26DE372E00E94A4
:10126000790910923C0280933B0208950C9429095D
:1012700081E08093170260933A0210921902109253
:10128000180208950C9438090F93062F21E040911D
:1012900018026AE172E080913A020E94BD09109240
:1012A000190210921802109217020F9108958BE004
:1012B00092E00C940F091092CA0281E08093C80258
:1012C0001092C70261E082E10E948F0B61E083E12E
:1012D0000E948F0BE9EBF0E080818E7F808380811C
:1012E0008D7F808388E48093B80085E48093BC0080
:1012F0000895413208F03FC09091CA029111FCCF8D
:1013000091E09093CA022093C8022FEF20935D02D0
:101310001092A202240F2093A1029093C9029091EF
:10132000C902880F892B8093C9028091C70281303E
:1013300041F41092C7028091C9028093BB0085ECF2
:1013400001C085EE8093BC008091CA028130E1F338
:101350008091A202841710F44091A20223EA32E0A5
:10136000FB01D9018A2F821B841718F48D91819378
:10137000F9CF842F089580E008950F93413208F04B
:1013800046C09091CA029111FCCF92E09093CA029C
:101390000093C8029FEF90935D021092A2024093C7
:1013A000A102FB0163EA72E0DB019A2F961B9417FE
:1013B00018F491919D93F9CF1092C9029091C902AE
:1013C000880F892B8093C9028091C702813041F434
:1013D0001092C7028091C9028093BB0085EC01C0C6
:1013E00085EE8093BC00222321F08091CA028230D6
:1013F000E1F380915D028F3F61F080915D02803268
:1014000051F080915D02803341F483E007C081E0B8
:1014100005C080E003C082E001C084E00F91089520
:10142000613298F42091CA02243089F460937F02DB
:10143000FC0181E892E0DC012A2F281B261718F412
:1014400021912D93F9CF80E0089581E0089582E005
:10145000089585ED8093BC008091BC0084FDFCCF95
:101460001092CA02089585EC8093BC001092CA02C3
:1014700008951F920F920FB60F9211242F933F934E
:101480004F935F936F937F938F939F93AF93BF938C
:10149000EF93FF938091B900887F803609F49CC058
:1014A00068F5883209F45BC090F4803109F454C0C7
:1014B00038F4882309F4F5C0883009F44DC0F5C02C
:1014C000883109F44CC0803209F45DC0EEC080342C
:1014D00009F468C048F4803309F455C0883309F032
:1014E000E4C080935D02A8C0803509F44FC0883500
:1014F00009F45DC0883409F0D8C0D5C0883909F432
:10150000C6C0A8F4883709F467C038F4883609F4EF
:1015100063C0803709F460C0C8C0883809F4B7C018
:10152000803909F45FC0803809F0BFC05BC0803BE0
:1015300009F485C038F4803A09F466C0883A09F4A1
:101540007EC0B3C0803C09F4A6C0883C09F4A3C0A7
:10155000883B09F489C0A9C08091C90210C090914C
:10156000A2028091A102981770F5E091A20281E099
:101570008E0F8093A202F0E0ED55FD4F80818093A5
:10158000BB0085EC85C080935D028DC0E091A20216
:1015900081E08E0F8093A2028091BB00F0E0ED55B8
:1015A000FD4F80839091A2028091A1026DC0E091D5
:1015B000A20281E08E0F8093A2028091BB00F0E036
:1015C000ED55FD4F80838091C80281116CC081E090
:1015D0008093C70284EA60C083E08093CA021092BD
:1015E0005E02CFCF80915E02803208F050C0E09161
:1015F0005E0281E08E0F80935E028091BB00F0E07E
:10160000E15AFD4F8083BDCF80915E02803230F47D
:10161000E0915E02F0E0E15AFD4F10820E94290A3B
:1016200060915E0270E0E091C302F091C4028FE528
:1016300092E0099510925E020E94330A36C084E05F
:101640008093CA021092800210927F02E091C5023C
:10165000F091C602099580917F02811105C081E059
:1016600080937F0210928102E091800281E08E0FD0
:1016700080938002F0E0EF57FD4F80818093BB00A4
:101680009091800280917F02981708F47ACF85E8C4
:101690008093BC000AC085EC8093BC001092CA0203
:1016A00004C010925D020E94290AFF91EF91BF9140
:1016B000AF919F918F917F916F915F914F913F91EA
:1016C0002F910F900FBE0F901F901895833081F0CF
:1016D00028F4813099F08230A1F008958630A9F085
:1016E0008730B9F08430D1F4809180008F7D03C0C1
:1016F000809180008F7780938000089584B58F77E4
:1017000002C084B58F7D84BD08958091B0008F772D
:1017100003C08091B0008F7D8093B00008950F9337
:101720001F93CF93DF931F92CDB7DEB7282F30E002
:10173000F901EA56FF4F8491F901E655FF4F1491E4
:10174000F901E254FF4F04910023C9F0882321F0EE
:1017500069830E94660B6981E02FF0E0EE0FFF1FA6
:10176000EE52FF4FA591B4919FB7F8948C916111FF
:1017700003C01095812301C0812B8C939FBF0F90D4
:10178000DF91CF911F910F910895F8940C94A00EC2
:101790005058BB27AA270ED0FCC1EDD130F0F2D1B2
:1017A00020F031F49F3F11F41EF4BDC10EF4E0951A
:1017B000E7FBB3C1E92FFED180F3BA1762077307C5
:1017C0008407950718F071F49EF516C20EF4E095A3
:1017D0000B2EBA2FA02D0B01B90190010C01CA01EB
:1017E000A0011124FF27591B99F0593F50F4503E96
:1017F00068F11A16F040A22F232F342F4427585F88
:10180000F3CF469537952795A795F0405395C9F79F
:101810007EF41F16BA0B620B730B840BBAF0915057
:10182000A1F0FF0FBB1F661F771F881FC2F70EC0F6
:10183000BA0F621F731F841F48F4879577956795C9
:10184000B795F7959E3F08F0B3CF9395880F08F0B2
:101850009927EE0F9795879508958DD158F080E8D8
:1018600091E009F49EEF8ED128F040E851E059F460
:101870005EEF09C058C1C0C1E92FE0789BD168F381
:10188000092E052AC1F3261737074807590738F0EC
:101890000E2E07F8E02569F0E025E0640AC0EF634A
:1018A00007F8009407FADB01B9019D01DC01CA01C8
:1018B000AD01EF9347D06DD10AD05F91552331F040
:1018C0002BED3FE049E450FD49EC63CF0895DF93F1
:1018D000DD27B92FBF7740E85FE3161617064807E4
:1018E0005B0710F4D92F93D19F938F937F936F93BE
:1018F000F8D1E8E6F0E01AD14CD12F913F914F9109
:101900005F9198D1DD2349F09058A2EA2AED3FE09B
:1019100049EC5FE3D0785D274DDFDF913AC1D9D044
:1019200008F481E008950CD034C12CD140F023D1CB
:1019300030F021F45F3F19F0F0C051115EC1F3C0E7
:1019400039D198F39923C9F35523B1F3951B550B5E
:10195000BB27AA2762177307840738F09F5F5F4F82
:10196000220F331F441FAA1FA9F333D00E2E3AF0C3
:10197000E0E830D091505040E695001CCAF729D0DD
:10198000FE2F27D0660F771F881FBB1F261737072C
:101990004807AB07B0E809F0BB0B802DBF01FF275C
:1019A00093585F4F2AF09E3F510568F0B6C025C19D
:1019B0005F3FECF3983EDCF3869577956795B79596
:1019C000F7959F5FC9F7880F911D9695879597F9B1
:1019D0000895E1E0660F771F881FBB1F621773072A
:1019E0008407BA0720F0621B730B840BBA0BEE1F3F
:1019F00088F7E095089504D06894B111FEC0089569
:101A0000E1D088F09F5790F0B92F9927B751A0F0F7
:101A1000D1F0660F771F881F991F1AF0BA95C9F782
:101A200012C0B13081F0E8D0B1E00895E5C0672F71
:101A3000782F8827B85F39F0B93FCCF38695779532
:101A40006795B395D9F73EF490958095709561951B
:101A50007F4F8F4F9F4F0895E89409C097FB3EF446
:101A600090958095709561957F4F8F4F9F4F9923EB
:101A7000A9F0F92F96E9BB279395F6958795779569
:101A80006795B795F111F8CFFAF4BB0F11F460FF29
:101A90001BC06F5F7F4F8F4F9F4F16C0882311F081
:101AA00096E911C0772321F09EE8872F762F05C095
:101AB000662371F096E8862F70E060E02AF09A9530
:101AC000660F771F881FDAF7880F9695879597F925
:101AD0000895990F0008550FAA0BE0E8FEEF1616BF
:101AE0001706E807F907C0F012161306E407F50712
:101AF00098F0621B730B840B950B39F40A2661F086
:101B0000232B242B252B21F408950A2609F4A14028
:101B1000A6958FEF811D811D089597F99F6780E835
:101B200070E060E008959FEF80EC0895DF93CF931D
:101B30001F930F93FF92EF92DF927B018C016894C9
:101B400005C0DA2EEF0176D0FE01E894A59125912B
:101B5000359145915591AEF3EF012CDEFE019701D1
:101B6000A801DA9479F7DF90EF90FF900F911F9121
:101B7000CF91DF91089500240A94161617061806CF
:101B80000906089500240A94121613061406050681
:101B90000895092E0394000C11F4882352F0BB0F12
:101BA00040F4BF2B11F460FF04C06F5F7F4F8F4F75
:101BB0009F4F089557FD9058440F551F59F05F3FB0
:101BC00071F04795880F97FB991F61F09F3F79F05F
:101BD00087950895121613061406551FF2CF4695E1
:101BE000F1DF08C0161617061806991FF1CF869563
:101BF0007105610508940895E894BB276627772747
:101C0000CB0197F9089565DF08F48FEF08959B01E4
:101C1000AC0160E070E080E89FE385CE0BD0B9CFE7
:101C2000AADF28F0AFDF18F0952309F076CF7BCF3D
:101C30001124E3CFBFDFA0F3959FD1F3950F50E0C0
:101C4000551F629FF001729FBB27F00DB11D639F6E
:101C5000AA27F00DB11DAA1F649F6627B00DA11D14
:101C6000661F829F2227B00DA11D621F739FB00DBA
:101C7000A11D621F839FA00D611D221F749F33272A
:101C8000A00D611D231F849F600D211D822F762FC3
:101C90006A2F11249F5750408AF0E1F088234AF0C0
:101CA000EE0FFF1FBB1F661F771F881F915050400C
:101CB000A9F79E3F510570F030CF9FCF5F3FECF307
:101CC000983EDCF3869577956795B795F795E795F8
:101CD0009F5FC1F7FE2B880F911D9695879597F909
:101CE00008959B01AC019ACFF4DE880B990B0895FF
:101CF000A1E21A2EAA1BBB1BFD010DC0AA1FBB1F10
:101D0000EE1FFF1FA217B307E407F50720F0A21B81
:101D1000B30BE40BF50B661F771F881F991F1A94EE
:101D200069F760957095809590959B01AC01BD0118
:101D3000CF010895EE0FFF1F0590F491E02D099457
:041D4000F894FFCF45
:101D440020006E616E00696E66006F7666002E007C
:101D540000000000F5069704A106CA06B106EA06CB
:101D640000000000E008B30888089008A308B2083F
:00000001FF
